{"contracts/Cscrow.sol":{"Cscrow":{"abi":[{"inputs":[],"stateMutability":"nonpayable","type":"constructor"},{"anonymous":false,"inputs":[{"indexed":false,"internalType":"address","name":"previousAdmin","type":"address"},{"indexed":false,"internalType":"address","name":"newAdmin","type":"address"}],"name":"AdminChanged","type":"event"},{"anonymous":false,"inputs":[{"indexed":true,"internalType":"address","name":"beacon","type":"address"}],"name":"BeaconUpgraded","type":"event"},{"anonymous":false,"inputs":[{"indexed":true,"internalType":"uint256","name":"id","type":"uint256"},{"indexed":true,"internalType":"address","name":"assignor","type":"address"},{"indexed":true,"internalType":"address","name":"assignee","type":"address"}],"name":"ContractAccepted","type":"event"},{"anonymous":false,"inputs":[{"indexed":true,"internalType":"uint256","name":"id","type":"uint256"},{"indexed":true,"internalType":"address","name":"assignor","type":"address"},{"indexed":true,"internalType":"address","name":"assignee","type":"address"}],"name":"ContractCancelled","type":"event"},{"anonymous":false,"inputs":[{"indexed":true,"internalType":"uint256","name":"id","type":"uint256"},{"indexed":true,"internalType":"address","name":"assignor","type":"address"},{"indexed":true,"internalType":"address","name":"assignee","type":"address"}],"name":"ContractCompleted","type":"event"},{"anonymous":false,"inputs":[{"indexed":true,"internalType":"uint256","name":"id","type":"uint256"},{"indexed":true,"internalType":"address","name":"assignor","type":"address"},{"indexed":true,"internalType":"address","name":"assignee","type":"address"}],"name":"ContractCreated","type":"event"},{"anonymous":false,"inputs":[{"indexed":true,"internalType":"uint256","name":"id","type":"uint256"},{"indexed":true,"internalType":"address","name":"assignor","type":"address"},{"indexed":true,"internalType":"address","name":"assignee","type":"address"}],"name":"ContractEnded","type":"event"},{"anonymous":false,"inputs":[{"indexed":true,"internalType":"uint256","name":"id","type":"uint256"},{"indexed":true,"internalType":"address","name":"assignor","type":"address"},{"indexed":true,"internalType":"address","name":"assignee","type":"address"}],"name":"DisputeCreated","type":"event"},{"anonymous":false,"inputs":[{"indexed":false,"internalType":"uint8","name":"version","type":"uint8"}],"name":"Initialized","type":"event"},{"anonymous":false,"inputs":[{"indexed":true,"internalType":"address","name":"previousOwner","type":"address"},{"indexed":true,"internalType":"address","name":"newOwner","type":"address"}],"name":"OwnershipTransferred","type":"event"},{"anonymous":false,"inputs":[{"indexed":true,"internalType":"address","name":"implementation","type":"address"}],"name":"Upgraded","type":"event"},{"inputs":[{"internalType":"uint256","name":"_id","type":"uint256"}],"name":"acceptContract","outputs":[],"stateMutability":"nonpayable","type":"function"},{"inputs":[{"internalType":"uint256","name":"_disputeId","type":"uint256"}],"name":"acceptDispute","outputs":[],"stateMutability":"nonpayable","type":"function"},{"inputs":[{"internalType":"address[]","name":"_tokens","type":"address[]"}],"name":"addEnableTokens","outputs":[],"stateMutability":"nonpayable","type":"function"},{"inputs":[{"internalType":"uint256","name":"_disputeId","type":"uint256"},{"internalType":"uint256","name":"_amount","type":"uint256"},{"internalType":"string","name":"_details","type":"string"},{"internalType":"string[]","name":"_profs","type":"string[]"}],"name":"addProofsForDisputeLevel2","outputs":[],"stateMutability":"nonpayable","type":"function"},{"inputs":[{"internalType":"uint256","name":"_id","type":"uint256"}],"name":"alreadyVoted","outputs":[{"internalType":"bool","name":"","type":"bool"}],"stateMutability":"view","type":"function"},{"inputs":[{"internalType":"uint256","name":"_id","type":"uint256"}],"name":"approveContract","outputs":[],"stateMutability":"nonpayable","type":"function"},{"inputs":[],"name":"commissionPercent","outputs":[{"internalType":"uint256","name":"","type":"uint256"}],"stateMutability":"view","type":"function"},{"inputs":[{"internalType":"address","name":"","type":"address"}],"name":"companyProfits","outputs":[{"internalType":"uint256","name":"","type":"uint256"}],"stateMutability":"view","type":"function"},{"inputs":[{"internalType":"uint256","name":"_id","type":"uint256"}],"name":"completeContract","outputs":[],"stateMutability":"nonpayable","type":"function"},{"inputs":[{"internalType":"address","name":"_assignee","type":"address"},{"internalType":"uint256","name":"_amount","type":"uint256"},{"internalType":"string","name":"_details","type":"string"},{"internalType":"string","name":"_title","type":"string"},{"internalType":"bool","name":"_token","type":"bool"},{"internalType":"address","name":"_tokenAddress","type":"address"}],"name":"createContract","outputs":[],"stateMutability":"payable","type":"function"},{"inputs":[{"internalType":"uint256","name":"_id","type":"uint256"},{"internalType":"uint256","name":"_amount","type":"uint256"},{"internalType":"string","name":"_details","type":"string"}],"name":"createDisputeLevel1","outputs":[],"stateMutability":"nonpayable","type":"function"},{"inputs":[{"internalType":"uint256","name":"_disputeId","type":"uint256"},{"internalType":"uint256","name":"_amount","type":"uint256"},{"internalType":"string","name":"_details","type":"string"},{"internalType":"string[]","name":"_profs","type":"string[]"}],"name":"createDisputeLevel2","outputs":[],"stateMutability":"nonpayable","type":"function"},{"inputs":[{"internalType":"uint256","name":"","type":"uint256"}],"name":"disputes","outputs":[{"internalType":"uint256","name":"escrowId","type":"uint256"},{"internalType":"address","name":"assignor","type":"address"},{"internalType":"address","name":"assignee","type":"address"},{"internalType":"uint256","name":"amountDisputedAssignee","type":"uint256"},{"internalType":"uint256","name":"amountDisputedAssignor","type":"uint256"},{"internalType":"string","name":"assignorDetails","type":"string"},{"internalType":"string","name":"assigneeDetails","type":"string"},{"internalType":"uint256","name":"validatorId","type":"uint256"},{"internalType":"enum Structs.disputeLevel","name":"disputeLevel","type":"uint8"},{"internalType":"bool","name":"assigneeCreatedDispute","type":"bool"},{"internalType":"bool","name":"validationStarted","type":"bool"}],"stateMutability":"view","type":"function"},{"inputs":[{"internalType":"address","name":"","type":"address"}],"name":"enabledTokens","outputs":[{"internalType":"bool","name":"","type":"bool"}],"stateMutability":"view","type":"function"},{"inputs":[{"internalType":"uint256","name":"","type":"uint256"}],"name":"escrows","outputs":[{"internalType":"uint256","name":"id","type":"uint256"},{"internalType":"address","name":"assignor","type":"address"},{"internalType":"address","name":"assignee","type":"address"},{"internalType":"uint256","name":"amount","type":"uint256"},{"internalType":"string","name":"details","type":"string"},{"internalType":"string","name":"title","type":"string"},{"internalType":"enum Structs.ContractStatus","name":"status","type":"uint8"},{"internalType":"bool","name":"token","type":"bool"},{"internalType":"address","name":"tokenAddress","type":"address"}],"stateMutability":"view","type":"function"},{"inputs":[{"internalType":"address","name":"_address","type":"address"}],"name":"getMyContracts","outputs":[{"internalType":"uint256[]","name":"","type":"uint256[]"}],"stateMutability":"view","type":"function"},{"inputs":[{"internalType":"address","name":"_address","type":"address"}],"name":"getPoints","outputs":[{"internalType":"uint256","name":"","type":"uint256"}],"stateMutability":"view","type":"function"},{"inputs":[{"internalType":"uint256","name":"_diputeId","type":"uint256"}],"name":"getProofs","outputs":[{"internalType":"string[]","name":"","type":"string[]"},{"internalType":"string[]","name":"","type":"string[]"}],"stateMutability":"view","type":"function"},{"inputs":[{"internalType":"address","name":"_routerAddress","type":"address"},{"internalType":"address","name":"_usdtAddress","type":"address"}],"name":"initialize","outputs":[],"stateMutability":"nonpayable","type":"function"},{"inputs":[{"internalType":"address","name":"_token","type":"address"}],"name":"isTokenEnabled","outputs":[{"internalType":"bool","name":"","type":"bool"}],"stateMutability":"view","type":"function"},{"inputs":[{"internalType":"address","name":"","type":"address"},{"internalType":"uint256","name":"","type":"uint256"}],"name":"myContracts","outputs":[{"internalType":"uint256","name":"","type":"uint256"}],"stateMutability":"view","type":"function"},{"inputs":[{"internalType":"uint256","name":"_id","type":"uint256"}],"name":"notAcceptContract","outputs":[],"stateMutability":"nonpayable","type":"function"},{"inputs":[],"name":"owner","outputs":[{"internalType":"address","name":"","type":"address"}],"stateMutability":"view","type":"function"},{"inputs":[{"internalType":"address","name":"","type":"address"}],"name":"points","outputs":[{"internalType":"uint256","name":"","type":"uint256"}],"stateMutability":"view","type":"function"},{"inputs":[],"name":"proxiableUUID","outputs":[{"internalType":"bytes32","name":"","type":"bytes32"}],"stateMutability":"view","type":"function"},{"inputs":[],"name":"renounceOwnership","outputs":[],"stateMutability":"nonpayable","type":"function"},{"inputs":[{"internalType":"uint256","name":"_disputeId","type":"uint256"}],"name":"resolveDispute","outputs":[],"stateMutability":"nonpayable","type":"function"},{"inputs":[],"name":"rewardPool","outputs":[{"internalType":"address","name":"","type":"address"}],"stateMutability":"view","type":"function"},{"inputs":[],"name":"totalDisputes","outputs":[{"internalType":"uint256","name":"","type":"uint256"}],"stateMutability":"view","type":"function"},{"inputs":[],"name":"totalEscrows","outputs":[{"internalType":"uint256","name":"","type":"uint256"}],"stateMutability":"view","type":"function"},{"inputs":[],"name":"totalValidators","outputs":[{"internalType":"uint256","name":"","type":"uint256"}],"stateMutability":"view","type":"function"},{"inputs":[{"internalType":"address","name":"newOwner","type":"address"}],"name":"transferOwnership","outputs":[],"stateMutability":"nonpayable","type":"function"},{"inputs":[],"name":"uniswapAddress","outputs":[{"internalType":"address","name":"","type":"address"}],"stateMutability":"view","type":"function"},{"inputs":[{"internalType":"uint256","name":"_commissionPercent","type":"uint256"}],"name":"updateCommissionPercent","outputs":[],"stateMutability":"nonpayable","type":"function"},{"inputs":[{"internalType":"address","name":"_rewardPool","type":"address"}],"name":"updateRewardPool","outputs":[],"stateMutability":"nonpayable","type":"function"},{"inputs":[{"internalType":"uint256","name":"_validatorsPercent","type":"uint256"}],"name":"updateValidatorPercent","outputs":[],"stateMutability":"nonpayable","type":"function"},{"inputs":[{"internalType":"address","name":"newImplementation","type":"address"}],"name":"upgradeTo","outputs":[],"stateMutability":"nonpayable","type":"function"},{"inputs":[{"internalType":"address","name":"newImplementation","type":"address"},{"internalType":"bytes","name":"data","type":"bytes"}],"name":"upgradeToAndCall","outputs":[],"stateMutability":"payable","type":"function"},{"inputs":[],"name":"usdtAddress","outputs":[{"internalType":"address","name":"","type":"address"}],"stateMutability":"view","type":"function"},{"inputs":[{"internalType":"uint256","name":"_validateId","type":"uint256"},{"internalType":"uint256","name":"voteFor","type":"uint256"}],"name":"validate","outputs":[],"stateMutability":"nonpayable","type":"function"},{"inputs":[{"internalType":"uint256","name":"","type":"uint256"}],"name":"validators","outputs":[{"internalType":"uint256","name":"disputeId","type":"uint256"},{"internalType":"uint256","name":"votesForAssignor","type":"uint256"},{"internalType":"uint256","name":"votesForAssignee","type":"uint256"},{"internalType":"bool","name":"assignorWon","type":"bool"},{"internalType":"bool","name":"assigneeWon","type":"bool"},{"internalType":"bool","name":"draw","type":"bool"},{"internalType":"bool","name":"nextChance","type":"bool"},{"internalType":"uint256","name":"validationCreateTime","type":"uint256"}],"stateMutability":"view","type":"function"},{"inputs":[],"name":"validatorsPercent","outputs":[{"internalType":"uint256","name":"","type":"uint256"}],"stateMutability":"view","type":"function"},{"inputs":[],"name":"withdrawCompleteCommissionNative","outputs":[],"stateMutability":"nonpayable","type":"function"},{"inputs":[{"internalType":"address","name":"_token","type":"address"}],"name":"withdrawCompleteCommissionToken","outputs":[],"stateMutability":"nonpayable","type":"function"},{"inputs":[{"internalType":"uint256","name":"_id","type":"uint256"}],"name":"withdrawContract","outputs":[],"stateMutability":"nonpayable","type":"function"}],"evm":{"bytecode":{"linkReferences":{},"object":"60a0604052306080523480156200001557600080fd5b506200002062000026565b620000e7565b600054610100900460ff1615620000935760405162461bcd60e51b815260206004820152602760248201527f496e697469616c697a61626c653a20636f6e747261637420697320696e697469604482015266616c697a696e6760c81b606482015260840160405180910390fd5b60005460ff90811614620000e5576000805460ff191660ff9081179091556040519081527f7f26b83ff96e1f2b6a682f133852f6798a09c465da95921460cefb38474024989060200160405180910390a15b565b608051614ab76200011f600039600081816113e10152818161142101528181611770015281816117b0015261182c0152614ab76000f3fe6080604052600436106102025760003560e01c8063012f52ee146102075780630773750d146102455780630935a123146102675780630e2feb051461028757806319730b44146102b55780631bbeaca1146102d557806332039e01146102f557806334f2a20b14610322578063358b81661461033557806335aa2e44146103715780633659cfe61461041d5780633ca3d81d1461043d57806344aa40951461045d578063485cc9551461047d5780634f1ef2861461049d57806352d1902d146104b05780635452fb8a146104c5578063564a565d146104e557806358ee94cd1461051c5780635e3797971461053c57806362c35c011461055c57806363ee7c8d1461057c57806366666aa914610592578063715018a6146105b3578063748538d9146105c857806377d3550b146105f85780638da5cb5b1461060e578063930048bc1461062357806398a844b9146106515780639a115c04146106715780639ab4a44514610691578063b0191b8f146106b2578063b1e7a1f0146106d2578063b451cecc146106f2578063c2b7b86814610723578063c31e2c3114610743578063c5e4ccc414610771578063c6c6ebca14610787578063c7ec4c1c146107a7578063c81b356b146107bd578063d5fbac3a146107d3578063e2080b22146107f3578063ebb0977b14610813578063ee204abb14610828578063f2fde38b1461085f575b600080fd5b34801561021357600080fd5b50610227610222366004613e0a565b61087f565b60405161023c99989796959493929190613e89565b60405180910390f35b34801561025157600080fd5b50610265610260366004613ff1565b6109f9565b005b34801561027357600080fd5b50610265610282366004613e0a565b610bec565b34801561029357600080fd5b50610102546102a8906001600160a01b031681565b60405161023c91906140de565b3480156102c157600080fd5b506102656102d03660046140f2565b610c8a565b3480156102e157600080fd5b506102656102f0366004613e0a565b610e5b565b34801561030157600080fd5b50610315610310366004614130565b610e68565b60405161023c919061414b565b61026561033036600461419d565b610ed5565b34801561034157600080fd5b50610363610350366004614130565b6101086020526000908152604090205481565b60405190815260200161023c565b34801561037d57600080fd5b506103dc61038c366004613e0a565b610107602052600090815260409020805460028201546003830154600484015460059094015492939192909160ff8082169261010083048216926201000081048316926301000000909104169088565b60408051988952602089019790975295870194909452911515606086015215156080850152151560a0840152151560c083015260e08201526101000161023c565b34801561042957600080fd5b50610265610438366004614130565b6113d7565b34801561044957600080fd5b50610265610458366004613ff1565b61149f565b34801561046957600080fd5b5061036361047836600461423c565b6115c9565b34801561048957600080fd5b50610265610498366004614266565b6115fb565b6102656104ab366004614299565b611766565b3480156104bc57600080fd5b5061036361181f565b3480156104d157600080fd5b506102656104e0366004614130565b6118cd565b3480156104f157600080fd5b50610505610500366004613e0a565b61191d565b60405161023c9b9a999897969594939291906142fa565b34801561052857600080fd5b50610265610537366004613e0a565b611a9b565b34801561054857600080fd5b50610265610557366004613e0a565b611b1e565b34801561056857600080fd5b50610265610577366004613e0a565b611b2b565b34801561058857600080fd5b5061036360fb5481565b34801561059e57600080fd5b50610103546102a8906001600160a01b031681565b3480156105bf57600080fd5b50610265611ce9565b3480156105d457600080fd5b506105e86105e3366004614130565b611cfd565b604051901515815260200161023c565b34801561060457600080fd5b5061036360fe5481565b34801561061a57600080fd5b506102a8611d1c565b34801561062f57600080fd5b5061036361063e366004614130565b6101046020526000908152604090205481565b34801561065d57600080fd5b5061026561066c366004613e0a565b611d2b565b34801561067d57600080fd5b5061026561068c366004613e0a565b611d85565b34801561069d57600080fd5b50610101546102a8906001600160a01b031681565b3480156106be57600080fd5b506102656106cd366004613e0a565b611e07565b3480156106de57600080fd5b506105e86106ed366004613e0a565b612100565b3480156106fe57600080fd5b506105e861070d366004614130565b6101096020526000908152604090205460ff1681565b34801561072f57600080fd5b5061026561073e366004613e0a565b612183565b34801561074f57600080fd5b5061076361075e366004613e0a565b612815565b60405161023c9291906143ec565b34801561077d57600080fd5b5061036360fc5481565b34801561079357600080fd5b506102656107a236600461441a565b6129df565b3480156107b357600080fd5b5061036360ff5481565b3480156107c957600080fd5b5061036360fd5481565b3480156107df57600080fd5b506102656107ee366004614130565b612a50565b3480156107ff57600080fd5b5061026561080e3660046144b1565b612a7b565b34801561081f57600080fd5b50610265612e37565b34801561083457600080fd5b50610363610843366004614130565b6001600160a01b03166000908152610108602052604090205490565b34801561086b57600080fd5b5061026561087a366004614130565b612e88565b610105602052600090815260409020805460018201546002830154600384015460048501805494956001600160a01b0394851695939094169391926108c390614500565b80601f01602080910402602001604051908101604052809291908181526020018280546108ef90614500565b801561093c5780601f106109115761010080835404028352916020019161093c565b820191906000526020600020905b81548152906001019060200180831161091f57829003601f168201915b50505050509080600501805461095190614500565b80601f016020809104026020016040519081016040528092919081815260200182805461097d90614500565b80156109ca5780601f1061099f576101008083540402835291602001916109ca565b820191906000526020600020905b8154815290600101906020018083116109ad57829003601f168201915b5050506006909301549192505060ff808216916101008104909116906001600160a01b03620100009091041689565b60fc54841115610a245760405162461bcd60e51b8152600401610a1b9061453a565b60405180910390fd5b6000848152610106602052604090206001600882015460ff166001811115610a4e57610a4e613e73565b14610a995760405162461bcd60e51b815260206004820152601b60248201527a13195d995b080c88191a5cdc1d5d19481b9bdd0818dc99585d1959602a1b6044820152606401610a1b565b610aa285612efe565b610aae85858585612f5d565b8054610abb816005613046565b60408051610120810182528781528151600080825260208083018552808401928352838501829052606084018290526080840182905260a0840182905260c0840182905260e084018290524261010085015260fd5482526101078152939020825181559051805192938493610b369260018501920190613c58565b506040820151600282015560608201516003820155608082015160048201805460a085015160c086015160e087015161ffff1990931694151561ff0019169490941761010091151582021763ffff00001916620100009415159490940263ff0000001916939093176301000000911515919091021790559091015160059091015560fd805460019190600090610bcd908490614580565b909155505050600b909101805461ff0019166101001790555050505050565b610bf58161309c565b610bfe81613100565b610c09816000613046565b60008181526101056020526040902060068101805460ff191660041790556003810154600190910154610c469183916001600160a01b0316613138565b60008181526101056020526040808220600281015460019091015491516001600160a01b039182169391909216918491600080516020614a6283398151915291a450565b60fd54821115610cc25760405162461bcd60e51b8152602060048201526003602482015262564e4560e81b6044820152606401610a1b565b60fc54600083815261010760205260409020541115610cf35760405162461bcd60e51b8152600401610a1b90614593565b610cfc82612100565b15610d395760405162461bcd60e51b815260206004820152600d60248201526c105b1c9958591e481d9bdd1959609a1b6044820152606401610a1b565b600082815261010760205260409020600501544290610d5b9062015180614580565b1015610d985760405162461bcd60e51b815260206004820152600c60248201526b151a5b5948195e1c1a5c995960a21b6044820152606401610a1b565b80600003610dce57600082815261010760205260408120600201805460019290610dc3908490614580565b90915550610dff9050565b80600103610dff57600082815261010760205260408120600301805460019290610df9908490614580565b90915550505b6000828152610107602090815260408083206001908101805480830182559085528385200180546001600160a01b0319163390811790915584526101089092528220805491929091610e52908490614580565b90915550505050565b610e6361318f565b60ff55565b6001600160a01b038116600090815261010a6020908152604091829020805483518184028101840190945280845260609392830182828015610ec957602002820191906000526020600020905b815481526020019060010190808311610eb5575b50505050509050919050565b610edd6131ee565b6001600160a01b038616610f255760405162461bcd60e51b815260206004820152600f60248201526e496e76616c6964206164647265737360881b6044820152606401610a1b565b60008511610f625760405162461bcd60e51b815260206004820152600a6024820152690416d6f756e74203c20360b41b6044820152606401610a1b565b6000821561118c57610f7382611cfd565b610fb35760405162461bcd60e51b8152602060048201526011602482015270151bdad95b881b9bdd08195b98589b1959607a1b6044820152606401610a1b565b604051636eb1769f60e11b8152336004820152306024820152829087906001600160a01b0383169063dd62ed3e90604401602060405180830381865afa158015611001573d6000803e3d6000fd5b505050506040513d601f19601f8201168201806040525081019061102591906145b0565b10156110635760405162461bcd60e51b815260206004820152600d60248201526c6c6f7720616c6c6f77616e636560981b6044820152606401610a1b565b6040516370a0823160e01b815287906001600160a01b038316906370a08231906110919033906004016140de565b602060405180830381865afa1580156110ae573d6000803e3d6000fd5b505050506040513d601f19601f820116820180604052508101906110d291906145b0565b101561110e5760405162461bcd60e51b815260206004820152600b60248201526a6c6f772062616c616e636560a81b6044820152606401610a1b565b6040516323b872dd60e01b8152336004820152306024820152604481018890526001600160a01b038216906323b872dd906064016020604051808303816000875af1158015611161573d6000803e3d6000fd5b505050506040513d601f19601f8201168201806040525081019061118591906145c9565b50506111c8565b853410156111c85760405162461bcd60e51b81526020600482015260096024820152686c6f772066756e647360b81b6044820152606401610a1b565b600060405180610120016040528060fb548152602001336001600160a01b03168152602001896001600160a01b0316815260200188815260200187815260200186815260200183600781111561122057611220613e73565b81528515156020808301919091526001600160a01b0386811660409384015260fb546000908152610105835283902084518155918401516001830180546001600160a01b031990811692841692909217905592840151600283018054909416911617909155606082015160038201556080820151919250829160048201906112a89082614633565b5060a082015160058201906112bd9082614633565b5060c082015160068201805460ff191660018360078111156112e1576112e1613e73565b021790555060e0820151600691909101805461010093840151610100600160b01b031990911692151590930262010000600160b01b03191691909117620100006001600160a01b039384160217905533600090815261010a6020908152604080832060fb80548254600181810185559387528587200155948d1684529083208454815480840183559185529284200191909155825490929190611385908490614580565b909155505060fb546040516001600160a01b038a169133917f56560a52c047ed21fd801bf0f345b23d9af696f7922ff8e63101af5d48caddab90600090a450506113cf600160c955565b505050505050565b6001600160a01b037f000000000000000000000000000000000000000000000000000000000000000016300361141f5760405162461bcd60e51b8152600401610a1b906146f2565b7f00000000000000000000000000000000000000000000000000000000000000006001600160a01b0316611451613247565b6001600160a01b0316146114775760405162461bcd60e51b8152600401610a1b9061472c565b61148081613263565b6040805160008082526020820190925261149c9183919061326b565b50565b60fc548411156114c15760405162461bcd60e51b8152600401610a1b9061453a565b60008481526101066020526040812090600882015460ff1660018111156114ea576114ea613e73565b146115355760405162461bcd60e51b815260206004820152601b60248201527a13195d995b080c48191a5cdc1d5d19481b9bdd0818dc99585d1959602a1b6044820152606401610a1b565b600b81015460ff168015611555575060018101546001600160a01b031633145b8061157c5750600b81015460ff1615801561157c575060028101546001600160a01b031633145b6115985760405162461bcd60e51b8152600401610a1b90614766565b6115a185612efe565b80546115ae816005613046565b60088201805460ff191660011790556113cf86868686612f5d565b61010a60205281600052604060002081815481106115e657600080fd5b90600052602060002001600091509150505481565b600054610100900460ff161580801561161b5750600054600160ff909116105b8061163c575061162a306133d6565b15801561163c575060005460ff166001145b61169f5760405162461bcd60e51b815260206004820152602e60248201527f496e697469616c697a61626c653a20636f6e747261637420697320616c72656160448201526d191e481a5b9a5d1a585b1a5e995960921b6064820152608401610a1b565b6000805460ff1916600117905580156116c2576000805461ff0019166101001790555b6116ca6133e5565b6116d2613414565b61010080546001600160a01b03199081166001600160a01b038681169182179093556101028054831690911790556101018054909116918416919091179055600260fe55600a60ff558015611761576000805461ff0019169055604051600181527f7f26b83ff96e1f2b6a682f133852f6798a09c465da95921460cefb38474024989060200160405180910390a15b505050565b6001600160a01b037f00000000000000000000000000000000000000000000000000000000000000001630036117ae5760405162461bcd60e51b8152600401610a1b906146f2565b7f00000000000000000000000000000000000000000000000000000000000000006001600160a01b03166117e0613247565b6001600160a01b0316146118065760405162461bcd60e51b8152600401610a1b9061472c565b61180f82613263565b61181b8282600161326b565b5050565b6000306001600160a01b037f000000000000000000000000000000000000000000000000000000000000000016146118ba5760405162461bcd60e51b815260206004820152603860248201527f555550535570677261646561626c653a206d757374206e6f742062652063616c6044820152771b1959081d1a1c9bdd59da0819195b1959d85d1958d85b1b60421b6064820152608401610a1b565b50600080516020614a1b83398151915290565b6118d561318f565b6001600160a01b03811660009081526101046020526040902054611901826118fb611d1c565b8361343b565b506001600160a01b031660009081526101046020526040812055565b6101066020526000908152604090208054600182015460028301546003840154600485015460058601805495966001600160a01b039586169695909416949293919261196890614500565b80601f016020809104026020016040519081016040528092919081815260200182805461199490614500565b80156119e15780601f106119b6576101008083540402835291602001916119e1565b820191906000526020600020905b8154815290600101906020018083116119c457829003601f168201915b5050505050908060060180546119f690614500565b80601f0160208091040260200160405190810160405280929190818152602001828054611a2290614500565b8015611a6f5780601f10611a4457610100808354040283529160200191611a6f565b820191906000526020600020905b815481529060010190602001808311611a5257829003601f168201915b50505060078401546008850154600b909501549394909360ff918216935080821692506101009004168b565b611aa48161309c565b611aad81613100565b611ab8816001613046565b6000818152610105602052604080822060068101805460ff1916600290811790915581015460019091015491516001600160a01b0391821693919092169184917f6774e7512d62e65e414b9cc15969c36e32d465194057d4632ffd958e5182147191a450565b611b2661318f565b60fe55565b611b3481613541565b611b3d81613100565b611b48816002613046565b600081815261010560205260408120600381015460fe5491929091606490611b70908461478e565b611b7a91906147a5565b90506000611b8882846147c7565b6006850154909150600090610100900460ff16611ba6576000611bbb565b60068501546201000090046001600160a01b03165b6001600160a01b03811660009081526101046020526040812080549293508592909190611be9908490614580565b90915550506006850154610100900460ff1615611c56576001600160a01b03811660009081526101046020526040902054611c259082906135a5565b600086815261010560209081526040808320600601546201000090046001600160a01b031683526101049091528120555b60008681526101056020526040902060020154611c7f90879084906001600160a01b0316613138565b6000868152610105602052604080822060068101805460ff19166003179055600281015460019091015491516001600160a01b0391821693919092169189917f94e224b06102dbac09bbe25b9727b78a711606f76142988ac62cec156098062791a4505050505050565b611cf161318f565b611cfb6000613812565b565b6001600160a01b03166000908152610109602052604090205460ff1690565b6033546001600160a01b031690565b611d3481613541565b611d3d81613100565b611d48816000613046565b60008181526101056020526040902060068101805460ff19166007179055600381015460019091015461149c9183916001600160a01b0316613138565b611d8e8161309c565b611d9781613100565b611da2816000613046565b6000818152610105602052604080822060068101805460ff19166001908117909155600282015491015491516001600160a01b0391821693919092169184917f4e5adb6e5811e4671a3b0bdaceb025ec957432fc5562c7caefc0442dd9270ff291a450565b6000818152610106602090815260408083208054845261010590925282209091600883015460ff166001811115611e4057611e40613e73565b14611e835760405162461bcd60e51b8152602060048201526013602482015272111a5cdc1d5d19481b9bdd0818dc99585d1959606a1b6044820152606401610a1b565b611e8c83612efe565b8154611e9790613100565b8154611ea4906005613046565b600b82015460009060ff16611ec65760028301546001600160a01b0316611ed5565b60018301546001600160a01b03165b9050336001600160a01b03821614611eff5760405162461bcd60e51b8152600401610a1b90614766565b600382015460fe54600090606490611f17908461478e565b611f2191906147a5565b90506000611f2f82846147c7565b60028701549091506000906001600160a01b03163303611f72576003870154611f5890836147c7565b9050611f6d8760000154886003015433613138565b611faa565b60018701546001600160a01b03163303611faa576004870154611f9590836147c7565b9050611faa8760000154886004015433613138565b8015611ff457600b87015460009060ff16611fd25760028701546001600160a01b0316611fe1565b60018701546001600160a01b03165b9050611ff288600001548383613138565b505b6006860154600090610100900460ff1661200f576000612024565b60068701546201000090046001600160a01b03165b6001600160a01b03811660009081526101046020526040812080549293508692909190612052908490614580565b90915550506006870154610100900460ff16156120b3576001600160a01b0381166000908152610104602052604090205461208e9082906135a5565b60068701546201000090046001600160a01b0316600090815261010460205260408120555b60068701805460ff191660071790556002870154600188015489546040516001600160a01b039384169390921691600080516020614a6283398151915290600090a4505050505050505050565b6000805b6000838152610107602052604090206001015481101561217a57600083815261010760205260409020600101805433919083908110612145576121456147da565b6000918252602090912001546001600160a01b0316036121685750600192915050565b80612172816147f0565b915050612104565b50600092915050565b61218b61318f565b60fc548111156121ad5760405162461bcd60e51b8152600401610a1b90614593565b6000818152610106602081815260408084206007810154815480875261010585529286206003015487875294909352600b0154919390929160ff161561220657506000848152610106602052604090206003015461221b565b50600084815261010660205260409020600401545b6000606460fe548461222d919061478e565b61223791906147a5565b90506000606460ff548561224b919061478e565b61225591906147a5565b905060006122638284614580565b61226d90866147c7565b9050600061227b85836147c7565b9050600061228a6002846147a5565b60008a8152610107602052604090206003810154600290910154919250900361251457600089815261010760205260409020600401546301000000900460ff166122fc57600089815261010760205260409020426005820155600401805463ff000000191663010000001790556127ed565b60008881526101056020526040902060060154610100900460ff16156123d157600088815261010560209081526040808320600601546201000090046001600160a01b031683526101049091528120805487929061235b908490614580565b9091555050600088815261010560209081526040808320600601546201000090046001600160a01b03168084526101049092529091205461239c91906135a5565b600088815261010560209081526040808320600601546201000090046001600160a01b03168352610104909152812055612401565b60008080526101046020526000805160206149db83398151915280548792906123fb908490614580565b90915550505b600089815261010760209081526040808320600401805462ff00001916620100001790558c835261010690915290206001015461244a90899083906001600160a01b0316613138565b60008a8152610106602052604090206002015461247390899083906001600160a01b0316613138565b60008981526101076020908152604091829020600101805483518184028101840190945280845261250f93928301828280156124d857602002820191906000526020600020905b81546001600160a01b031681526001909101906020018083116124ba575b50505060008c81526101056020526040902060060154889250610100810460ff1691506201000090046001600160a01b0316613864565b6127ed565b600089815261010760205260409020600381015460029091015411156125b3576000898152610107602090815260408083206004908101805460ff191660019081179091558e855261010690935292209182015491015461257f918a916001600160a01b0316613138565b81156125ae5760008a815261010660205260409020600201546125ae90899084906001600160a01b0316613138565b61264e565b6000898152610107602052604090206003810154600290910154101561264e57600089815261010760209081526040808320600401805461ff0019166101001790558c83526101069091529020600381015460029091015461261f918a916001600160a01b0316613138565b811561264e5760008a8152610106602052604090206002015461264e90899084906001600160a01b0316613138565b60008881526101056020526040902060060154610100900460ff161561272357600088815261010560209081526040808320600601546201000090046001600160a01b03168352610104909152812080548792906126ad908490614580565b9091555050600088815261010560209081526040808320600601546201000090046001600160a01b0316808452610104909252909120546126ee91906135a5565b600088815261010560209081526040808320600601546201000090046001600160a01b03168352610104909152812055612753565b60008080526101046020526000805160206149db833981519152805487929061274d908490614580565b90915550505b6000898152610107602090815260409182902060010180548351818402810184019094528084526127ed93928301828280156124d8576020028201919060005260206000209081546001600160a01b031681526001909101906020018083116124ba5750505060008c81526101056020526040902060060154889250610100810460ff1691506201000090046001600160a01b0316613864565b50505060009485525050610105602052505060409020600601805460ff191660071790555050565b60008181526101066020908152604080832060098101805483518186028101860190945280845260609586959294600a90940193928592919084015b828210156128fd57838290600052602060002001805461287090614500565b80601f016020809104026020016040519081016040528092919081815260200182805461289c90614500565b80156128e95780601f106128be576101008083540402835291602001916128e9565b820191906000526020600020905b8154815290600101906020018083116128cc57829003601f168201915b505050505081526020019060010190612851565b50505050915080805480602002602001604051908101604052809291908181526020016000905b828210156129d057838290600052602060002001805461294390614500565b80601f016020809104026020016040519081016040528092919081815260200182805461296f90614500565b80156129bc5780601f10612991576101008083540402835291602001916129bc565b820191906000526020600020905b81548152906001019060200180831161299f57829003601f168201915b505050505081526020019060010190612924565b50505050905091509150915091565b6129e761318f565b60005b815181101561181b5760016101096000848481518110612a0c57612a0c6147da565b6020908102919091018101516001600160a01b03168252810191909152604001600020805460ff191691151591909117905580612a48816147f0565b9150506129ea565b612a5861318f565b61010380546001600160a01b0319166001600160a01b0392909216919091179055565b600083815261010560205260409020600201546001600160a01b0316331480612abe5750600083815261010560205260409020600101546001600160a01b031633145b612ada5760405162461bcd60e51b8152600401610a1b90614766565b612ae383613100565b60016000848152610105602052604090206006015460ff166007811115612b0c57612b0c613e73565b1480612b3e575060026000848152610105602052604090206006015460ff166007811115612b3c57612b3c613e73565b145b612b5a5760405162461bcd60e51b8152600401610a1b90614809565b600083815261010560205260409020600601805460ff19166005179055606080612b82613cbd565b600086815261010560205260409020600201546001600160a01b03163303612c4457604080516101a0810182528781526000888152610105602081815284832060018101546001600160a01b03908116838701528c855292825260020154909116838501526060830189905260808301829052835190810190935280835260a082019290925260c0810186905260fd5460e082015290610100820190815260208101849052604081018590526001606082015260006080909101529050612ce2565b50604080516101a0810182528681526000878152610105602081815284832060018101546001600160a01b03908116838701528b85529282526002015490911683850152606083018290526080830188905260a08301879052835190810190935280835260c082019290925260fd5460e082015261010081018290526101208101839052610140810184905261016081018290526101808101919091525b60fc546000908152610106602090815260409182902083518155908301516001820180546001600160a01b03199081166001600160a01b039384161790915592840151600283018054909416911617909155606082015160038201556080820151600482015560a08201518291906005820190612d5f9082614633565b5060c08201516006820190612d749082614633565b5060e0820151600782015561010082015160088201805460ff191660018381811115612da257612da2613e73565b02179055506101208201518051612dc3916009840191602090910190613d4c565b506101408201518051612de091600a840191602090910190613d4c565b50610160820151600b90910180546101809093015115156101000261ff00199215159290921661ffff199093169290921717905560fc805460019190600090612e2a908490614580565b9091555050505050505050565b612e3f61318f565b600080526101046020526000805160206149db83398151915254612e6a612e64611d1c565b82613912565b5060008080526101046020526000805160206149db83398151915255565b612e9061318f565b6001600160a01b038116612ef55760405162461bcd60e51b815260206004820152602660248201527f4f776e61626c653a206e6577206f776e657220697320746865207a65726f206160448201526564647265737360d01b6064820152608401610a1b565b61149c81613812565b600081815261010660205260409020600201546001600160a01b0316331480612f415750600081815261010660205260409020600101546001600160a01b031633145b61149c5760405162461bcd60e51b8152600401610a1b90614766565b612f6684612efe565b600084815261010660205260409020600201546001600160a01b03163303612fe6576000848152610106602090815260409091208251612fae92600a90920191840190613d4c565b50600084815261010660205260409020600601612fcb8382614633565b50600084815261010660205260409020600301839055613040565b600084815261010660209081526040909120825161300c92600990920191840190613d4c565b506000848152610106602052604090206005016130298382614633565b506000848152610106602052604090206004018390555b50505050565b80600781111561305857613058613e73565b6000838152610105602052604090206006015460ff16600781111561307f5761307f613e73565b1461181b5760405162461bcd60e51b8152600401610a1b90614809565b600081815261010560205260409020600201546001600160a01b0316331461149c5760405162461bcd60e51b81526020600482015260176024820152766e6f7420617574686f72697a65642041737369676e656560481b6044820152606401610a1b565b60fb5481111561149c5760405162461bcd60e51b8152602060048201526003602482015262434e4560e81b6044820152606401610a1b565b60008381526101056020526040902060060154610100900460ff16156131855760008381526101056020526040902060060154611761906201000090046001600160a01b0316828461343b565b6117618183613912565b33613198611d1c565b6001600160a01b031614611cfb5760405162461bcd60e51b815260206004820181905260248201527f4f776e61626c653a2063616c6c6572206973206e6f7420746865206f776e65726044820152606401610a1b565b600260c954036132405760405162461bcd60e51b815260206004820152601f60248201527f5265656e7472616e637947756172643a207265656e7472616e742063616c6c006044820152606401610a1b565b600260c955565b600080516020614a1b833981519152546001600160a01b031690565b61149c61318f565b7f4910fdfa16fed3260ed0e7147f7cc6da11a60208b5b9406d12a635614ffd91435460ff161561329e57611761836139da565b826001600160a01b03166352d1902d6040518163ffffffff1660e01b8152600401602060405180830381865afa9250505080156132f8575060408051601f3d908101601f191682019092526132f5918101906145b0565b60015b61335b5760405162461bcd60e51b815260206004820152602e60248201527f45524331393637557067726164653a206e657720696d706c656d656e7461746960448201526d6f6e206973206e6f74205555505360901b6064820152608401610a1b565b600080516020614a1b83398151915281146133ca5760405162461bcd60e51b815260206004820152602960248201527f45524331393637557067726164653a20756e737570706f727465642070726f786044820152681a58589b195555525160ba1b6064820152608401610a1b565b50611761838383613a74565b6001600160a01b03163b151590565b600054610100900460ff1661340c5760405162461bcd60e51b8152600401610a1b9061482f565b611cfb613a99565b600054610100900460ff16611cfb5760405162461bcd60e51b8152600401610a1b9061482f565b6040516370a0823160e01b815283906001600160a01b038216906370a08231906134699030906004016140de565b602060405180830381865afa158015613486573d6000803e3d6000fd5b505050506040513d601f19601f820116820180604052508101906134aa91906145b0565b8211156134c95760405162461bcd60e51b8152600401610a1b9061487a565b60405163a9059cbb60e01b81526001600160a01b0382169063a9059cbb906134f7908690869060040161489c565b6020604051808303816000875af1158015613516573d6000803e3d6000fd5b505050506040513d601f19601f8201168201806040525081019061353a91906145c9565b5050505050565b600081815261010560205260409020600101546001600160a01b0316331461149c5760405162461bcd60e51b81526020600482015260176024820152763737ba1030baba3437b934bd32b21020b9b9b4b3b732b960491b6044820152606401610a1b565b6001600160a01b0382166135f35760405162461bcd60e51b8152602060048201526015602482015274496e76616c696420746f6b656e206164647265737360581b6044820152606401610a1b565b6101015482906001600160a01b0390811690821603613684576101035460405163a9059cbb60e01b81526001600160a01b038381169263a9059cbb926136419290911690869060040161489c565b6020604051808303816000875af1158015613660573d6000803e3d6000fd5b505050506040513d601f19601f8201168201806040525081019061304091906145c9565b6101005460405163095ea7b360e01b81526001600160a01b038381169263095ea7b3926136b99290911690869060040161489c565b6020604051808303816000875af11580156136d8573d6000803e3d6000fd5b505050506040513d601f19601f820116820180604052508101906136fc91906145c9565b506040805160028082526060820183526000926020830190803683370190505090508381600081518110613732576137326147da565b6001600160a01b03928316602091820292909201015261010154825191169082906001908110613764576137646147da565b6001600160a01b0390921660209283029190910190910152600061378a42610258614580565b61010054610103546040516338ed173960e01b81529293506001600160a01b03918216926338ed1739926137cb9289926000928992169088906004016148b5565b6000604051808303816000875af11580156137ea573d6000803e3d6000fd5b505050506040513d6000823e601f3d908101601f191682016040526113cf9190810190614926565b603380546001600160a01b038381166001600160a01b0319831681179093556040519116919082907f8be0079c531659141344cd1fd0a4f28419497f9722a3daafe3b4186f6b6457e090600090a35050565b6000613871600a856147a5565b905082156138c95760005b85518110156138c357600a81146138c3576138b1838783815181106138a3576138a36147da565b60200260200101518461343b565b806138bb816147f0565b91505061387c565b5061353a565b60005b85518110156113cf57600a81146113cf576139008682815181106138f2576138f26147da565b602002602001015183613912565b8061390a816147f0565b9150506138cc565b61391a6131ee565b4781111561393a5760405162461bcd60e51b8152600401610a1b9061487a565b6000826001600160a01b03168260405160006040518083038185875af1925050503d8060008114613987576040519150601f19603f3d011682016040523d82523d6000602084013e61398c565b606091505b50509050806139cf5760405162461bcd60e51b815260206004820152600f60248201526e105b5bdd5b9d081b9bdd081cd95b9d608a1b6044820152606401610a1b565b5061181b600160c955565b6139e3816133d6565b613a455760405162461bcd60e51b815260206004820152602d60248201527f455243313936373a206e657720696d706c656d656e746174696f6e206973206e60448201526c1bdd08184818dbdb9d1c9858dd609a1b6064820152608401610a1b565b600080516020614a1b83398151915280546001600160a01b0319166001600160a01b0392909216919091179055565b613a7d83613ac9565b600082511180613a8a5750805b15611761576130408383613b09565b600054610100900460ff16613ac05760405162461bcd60e51b8152600401610a1b9061482f565b611cfb33613812565b613ad2816139da565b6040516001600160a01b038216907fbc7cd75a20ee27fd9adebab32041f755214dbc6bffa90cc0225b39da2e5c2d3b90600090a250565b6060613b2e8383604051806060016040528060278152602001614a3b60279139613b37565b90505b92915050565b6060600080856001600160a01b031685604051613b5491906149ab565b600060405180830381855af49150503d8060008114613b8f576040519150601f19603f3d011682016040523d82523d6000602084013e613b94565b606091505b5091509150613ba586838387613baf565b9695505050505050565b60608315613c1c578251600003613c1557613bc9856133d6565b613c155760405162461bcd60e51b815260206004820152601d60248201527f416464726573733a2063616c6c20746f206e6f6e2d636f6e74726163740000006044820152606401610a1b565b5081613c26565b613c268383613c2e565b949350505050565b815115613c3e5781518083602001fd5b8060405162461bcd60e51b8152600401610a1b91906149c7565b828054828255906000526020600020908101928215613cad579160200282015b82811115613cad57825182546001600160a01b0319166001600160a01b03909116178255602090920191600190910190613c78565b50613cb9929150613d9e565b5090565b604051806101a001604052806000815260200160006001600160a01b0316815260200160006001600160a01b03168152602001600081526020016000815260200160608152602001606081526020016000815260200160006001811115613d2657613d26613e73565b815260200160608152602001606081526020016000151581526020016000151581525090565b828054828255906000526020600020908101928215613d92579160200282015b82811115613d925782518290613d829082614633565b5091602001919060010190613d6c565b50613cb9929150613db3565b5b80821115613cb95760008155600101613d9f565b80821115613cb9576000613dc78282613dd0565b50600101613db3565b508054613ddc90614500565b6000825580601f10613dec575050565b601f01602090049060005260206000209081019061149c9190613d9e565b600060208284031215613e1c57600080fd5b5035919050565b60005b83811015613e3e578181015183820152602001613e26565b50506000910152565b60008151808452613e5f816020860160208601613e23565b601f01601f19169290920160200192915050565b634e487b7160e01b600052602160045260246000fd5b8981526001600160a01b03898116602083015288811660408301526060820188905261012060808301819052600091613ec48483018a613e47565b915083820360a0850152613ed88289613e47565b925060088710613eea57613eea613e73565b8660c085015285151560e085015280851661010085015250509a9950505050505050505050565b634e487b7160e01b600052604160045260246000fd5b604051601f8201601f191681016001600160401b0381118282101715613f4f57613f4f613f11565b604052919050565b60006001600160401b03831115613f7057613f70613f11565b613f83601f8401601f1916602001613f27565b9050828152838383011115613f9757600080fd5b828260208301376000602084830101529392505050565b600082601f830112613fbf57600080fd5b613b2e83833560208501613f57565b60006001600160401b03821115613fe757613fe7613f11565b5060051b60200190565b6000806000806080858703121561400757600080fd5b84359350602080860135935060408601356001600160401b038082111561402d57600080fd5b61403989838a01613fae565b9450606088013591508082111561404f57600080fd5b818801915088601f83011261406357600080fd5b813561407661407182613fce565b613f27565b81815260059190911b8301840190848101908b83111561409557600080fd5b8585015b838110156140cd578035858111156140b15760008081fd5b6140bf8e89838a0101613fae565b845250918601918601614099565b50989b979a50959850505050505050565b6001600160a01b0391909116815260200190565b6000806040838503121561410557600080fd5b50508035926020909101359150565b80356001600160a01b038116811461412b57600080fd5b919050565b60006020828403121561414257600080fd5b613b2e82614114565b6020808252825182820181905260009190848201906040850190845b8181101561418357835183529284019291840191600101614167565b50909695505050505050565b801515811461149c57600080fd5b60008060008060008060c087890312156141b657600080fd5b6141bf87614114565b95506020870135945060408701356001600160401b03808211156141e257600080fd5b6141ee8a838b01613fae565b9550606089013591508082111561420457600080fd5b5061421189828a01613fae565b93505060808701356142228161418f565b915061423060a08801614114565b90509295509295509295565b6000806040838503121561424f57600080fd5b61425883614114565b946020939093013593505050565b6000806040838503121561427957600080fd5b61428283614114565b915061429060208401614114565b90509250929050565b600080604083850312156142ac57600080fd5b6142b583614114565b915060208301356001600160401b038111156142d057600080fd5b8301601f810185136142e157600080fd5b6142f085823560208401613f57565b9150509250929050565b8b81526001600160a01b038b811660208301528a166040820152606081018990526080810188905261016060a0820181905260009061433b8382018a613e47565b905082810360c084015261434f8189613e47565b9150508560e08301526002851061436857614368613e73565b8461010083015283151561012083015261438761014083018415159052565b9c9b505050505050505050505050565b600081518084526020808501808196508360051b8101915082860160005b858110156143df5782840389526143cd848351613e47565b988501989350908401906001016143b5565b5091979650505050505050565b6040815260006143ff6040830185614397565b82810360208401526144118185614397565b95945050505050565b6000602080838503121561442d57600080fd5b82356001600160401b0381111561444357600080fd5b8301601f8101851361445457600080fd5b803561446261407182613fce565b81815260059190911b8201830190838101908783111561448157600080fd5b928401925b828410156144a65761449784614114565b82529284019290840190614486565b979650505050505050565b6000806000606084860312156144c657600080fd5b833592506020840135915060408401356001600160401b038111156144ea57600080fd5b6144f686828701613fae565b9150509250925092565b600181811c9082168061451457607f821691505b60208210810361453457634e487b7160e01b600052602260045260246000fd5b50919050565b602080825260169082015275111a5cdc1d5d1948191bd95cc81b9bdd08195e1a5cdd60521b604082015260600190565b634e487b7160e01b600052601160045260246000fd5b80820180821115613b3157613b3161456a565b602080825260039082015262444e4560e81b604082015260600190565b6000602082840312156145c257600080fd5b5051919050565b6000602082840312156145db57600080fd5b81516145e68161418f565b9392505050565b601f82111561176157600081815260208120601f850160051c810160208610156146145750805b601f850160051c820191505b818110156113cf57828155600101614620565b81516001600160401b0381111561464c5761464c613f11565b6146608161465a8454614500565b846145ed565b602080601f831160018114614695576000841561467d5750858301515b600019600386901b1c1916600185901b1785556113cf565b600085815260208120601f198616915b828110156146c4578886015182559484019460019091019084016146a5565b50858210156146e25787850151600019600388901b60f8161c191681555b5050505050600190811b01905550565b6020808252602c908201526000805160206149fb83398151915260408201526b19195b1959d85d1958d85b1b60a21b606082015260800190565b6020808252602c908201526000805160206149fb83398151915260408201526b6163746976652070726f787960a01b606082015260800190565b6020808252600e908201526d139bdd08185d5d1a1bdc9a5e995960921b604082015260600190565b8082028115828204841417613b3157613b3161456a565b6000826147c257634e487b7160e01b600052601260045260246000fd5b500490565b81810381811115613b3157613b3161456a565b634e487b7160e01b600052603260045260246000fd5b6000600182016148025761480261456a565b5060010190565b6020808252600c908201526b139bdd081858d8d95c1d195960a21b604082015260600190565b6020808252602b908201527f496e697469616c697a61626c653a20636f6e7472616374206973206e6f74206960408201526a6e697469616c697a696e6760a81b606082015260800190565b6020808252600890820152674e6f2046756e647360c01b604082015260600190565b6001600160a01b03929092168252602082015260400190565b600060a082018783526020878185015260a0604085015281875180845260c086019150828901935060005b818110156149055784516001600160a01b0316835293830193918301916001016148e0565b50506001600160a01b03969096166060850152505050608001529392505050565b6000602080838503121561493957600080fd5b82516001600160401b0381111561494f57600080fd5b8301601f8101851361496057600080fd5b805161496e61407182613fce565b81815260059190911b8201830190838101908783111561498d57600080fd5b928401925b828410156144a657835182529284019290840190614992565b600082516149bd818460208701613e23565b9190910192915050565b602081526000613b2e6020830184613e4756fe0c81ce4857d5b94b8c75139d9e9e2911ece8cd067eddba6000e40a08e09d564346756e6374696f6e206d7573742062652063616c6c6564207468726f75676820360894a13ba1a3210667c828492db98dca3e2076cc3735a920a3ca505d382bbc416464726573733a206c6f772d6c6576656c2064656c65676174652063616c6c206661696c6564683bc5c048db63a19aca077ebaf602240dbaec371f0bc19856f49fc6c004e38da264697066735822122092dc03649edbdd3d7af637722420af018c86efbc7957360897e8f39ef0bf2cf364736f6c63430008110033","opcodes":"PUSH1 0xA0 PUSH1 0x40 MSTORE ADDRESS PUSH1 0x80 MSTORE CALLVALUE DUP1 ISZERO PUSH3 0x15 JUMPI PUSH1 0x0 DUP1 REVERT JUMPDEST POP PUSH3 0x20 PUSH3 0x26 JUMP JUMPDEST PUSH3 0xE7 JUMP JUMPDEST PUSH1 0x0 SLOAD PUSH2 0x100 SWAP1 DIV PUSH1 0xFF AND ISZERO PUSH3 0x93 JUMPI PUSH1 0x40 MLOAD PUSH3 0x461BCD PUSH1 0xE5 SHL DUP2 MSTORE PUSH1 0x20 PUSH1 0x4 DUP3 ADD MSTORE PUSH1 0x27 PUSH1 0x24 DUP3 ADD MSTORE PUSH32 0x496E697469616C697A61626C653A20636F6E747261637420697320696E697469 PUSH1 0x44 DUP3 ADD MSTORE PUSH7 0x616C697A696E67 PUSH1 0xC8 SHL PUSH1 0x64 DUP3 ADD MSTORE PUSH1 0x84 ADD PUSH1 0x40 MLOAD DUP1 SWAP2 SUB SWAP1 REVERT JUMPDEST PUSH1 0x0 SLOAD PUSH1 0xFF SWAP1 DUP2 AND EQ PUSH3 0xE5 JUMPI PUSH1 0x0 DUP1 SLOAD PUSH1 0xFF NOT AND PUSH1 0xFF SWAP1 DUP2 OR SWAP1 SWAP2 SSTORE PUSH1 0x40 MLOAD SWAP1 DUP2 MSTORE PUSH32 0x7F26B83FF96E1F2B6A682F133852F6798A09C465DA95921460CEFB3847402498 SWAP1 PUSH1 0x20 ADD PUSH1 0x40 MLOAD DUP1 SWAP2 SUB SWAP1 LOG1 JUMPDEST JUMP JUMPDEST PUSH1 0x80 MLOAD PUSH2 0x4AB7 PUSH3 0x11F PUSH1 0x0 CODECOPY PUSH1 0x0 DUP2 DUP2 PUSH2 0x13E1 ADD MSTORE DUP2 DUP2 PUSH2 0x1421 ADD MSTORE DUP2 DUP2 PUSH2 0x1770 ADD MSTORE DUP2 DUP2 PUSH2 0x17B0 ADD MSTORE PUSH2 0x182C ADD MSTORE PUSH2 0x4AB7 PUSH1 0x0 RETURN INVALID PUSH1 0x80 PUSH1 0x40 MSTORE PUSH1 0x4 CALLDATASIZE LT PUSH2 0x202 JUMPI PUSH1 0x0 CALLDATALOAD PUSH1 0xE0 SHR DUP1 PUSH4 0x12F52EE EQ PUSH2 0x207 JUMPI DUP1 PUSH4 0x773750D EQ PUSH2 0x245 JUMPI DUP1 PUSH4 0x935A123 EQ PUSH2 0x267 JUMPI DUP1 PUSH4 0xE2FEB05 EQ PUSH2 0x287 JUMPI DUP1 PUSH4 0x19730B44 EQ PUSH2 0x2B5 JUMPI DUP1 PUSH4 0x1BBEACA1 EQ PUSH2 0x2D5 JUMPI DUP1 PUSH4 0x32039E01 EQ PUSH2 0x2F5 JUMPI DUP1 PUSH4 0x34F2A20B EQ PUSH2 0x322 JUMPI DUP1 PUSH4 0x358B8166 EQ PUSH2 0x335 JUMPI DUP1 PUSH4 0x35AA2E44 EQ PUSH2 0x371 JUMPI DUP1 PUSH4 0x3659CFE6 EQ PUSH2 0x41D JUMPI DUP1 PUSH4 0x3CA3D81D EQ PUSH2 0x43D JUMPI DUP1 PUSH4 0x44AA4095 EQ PUSH2 0x45D JUMPI DUP1 PUSH4 0x485CC955 EQ PUSH2 0x47D JUMPI DUP1 PUSH4 0x4F1EF286 EQ PUSH2 0x49D JUMPI DUP1 PUSH4 0x52D1902D EQ PUSH2 0x4B0 JUMPI DUP1 PUSH4 0x5452FB8A EQ PUSH2 0x4C5 JUMPI DUP1 PUSH4 0x564A565D EQ PUSH2 0x4E5 JUMPI DUP1 PUSH4 0x58EE94CD EQ PUSH2 0x51C JUMPI DUP1 PUSH4 0x5E379797 EQ PUSH2 0x53C JUMPI DUP1 PUSH4 0x62C35C01 EQ PUSH2 0x55C JUMPI DUP1 PUSH4 0x63EE7C8D EQ PUSH2 0x57C JUMPI DUP1 PUSH4 0x66666AA9 EQ PUSH2 0x592 JUMPI DUP1 PUSH4 0x715018A6 EQ PUSH2 0x5B3 JUMPI DUP1 PUSH4 0x748538D9 EQ PUSH2 0x5C8 JUMPI DUP1 PUSH4 0x77D3550B EQ PUSH2 0x5F8 JUMPI DUP1 PUSH4 0x8DA5CB5B EQ PUSH2 0x60E JUMPI DUP1 PUSH4 0x930048BC EQ PUSH2 0x623 JUMPI DUP1 PUSH4 0x98A844B9 EQ PUSH2 0x651 JUMPI DUP1 PUSH4 0x9A115C04 EQ PUSH2 0x671 JUMPI DUP1 PUSH4 0x9AB4A445 EQ PUSH2 0x691 JUMPI DUP1 PUSH4 0xB0191B8F EQ PUSH2 0x6B2 JUMPI DUP1 PUSH4 0xB1E7A1F0 EQ PUSH2 0x6D2 JUMPI DUP1 PUSH4 0xB451CECC EQ PUSH2 0x6F2 JUMPI DUP1 PUSH4 0xC2B7B868 EQ PUSH2 0x723 JUMPI DUP1 PUSH4 0xC31E2C31 EQ PUSH2 0x743 JUMPI DUP1 PUSH4 0xC5E4CCC4 EQ PUSH2 0x771 JUMPI DUP1 PUSH4 0xC6C6EBCA EQ PUSH2 0x787 JUMPI DUP1 PUSH4 0xC7EC4C1C EQ PUSH2 0x7A7 JUMPI DUP1 PUSH4 0xC81B356B EQ PUSH2 0x7BD JUMPI DUP1 PUSH4 0xD5FBAC3A EQ PUSH2 0x7D3 JUMPI DUP1 PUSH4 0xE2080B22 EQ PUSH2 0x7F3 JUMPI DUP1 PUSH4 0xEBB0977B EQ PUSH2 0x813 JUMPI DUP1 PUSH4 0xEE204ABB EQ PUSH2 0x828 JUMPI DUP1 PUSH4 0xF2FDE38B EQ PUSH2 0x85F JUMPI JUMPDEST PUSH1 0x0 DUP1 REVERT JUMPDEST CALLVALUE DUP1 ISZERO PUSH2 0x213 JUMPI PUSH1 0x0 DUP1 REVERT JUMPDEST POP PUSH2 0x227 PUSH2 0x222 CALLDATASIZE PUSH1 0x4 PUSH2 0x3E0A JUMP JUMPDEST PUSH2 0x87F JUMP JUMPDEST PUSH1 0x40 MLOAD PUSH2 0x23C SWAP10 SWAP9 SWAP8 SWAP7 SWAP6 SWAP5 SWAP4 SWAP3 SWAP2 SWAP1 PUSH2 0x3E89 JUMP JUMPDEST PUSH1 0x40 MLOAD DUP1 SWAP2 SUB SWAP1 RETURN JUMPDEST CALLVALUE DUP1 ISZERO PUSH2 0x251 JUMPI PUSH1 0x0 DUP1 REVERT JUMPDEST POP PUSH2 0x265 PUSH2 0x260 CALLDATASIZE PUSH1 0x4 PUSH2 0x3FF1 JUMP JUMPDEST PUSH2 0x9F9 JUMP JUMPDEST STOP JUMPDEST CALLVALUE DUP1 ISZERO PUSH2 0x273 JUMPI PUSH1 0x0 DUP1 REVERT JUMPDEST POP PUSH2 0x265 PUSH2 0x282 CALLDATASIZE PUSH1 0x4 PUSH2 0x3E0A JUMP JUMPDEST PUSH2 0xBEC JUMP JUMPDEST CALLVALUE DUP1 ISZERO PUSH2 0x293 JUMPI PUSH1 0x0 DUP1 REVERT JUMPDEST POP PUSH2 0x102 SLOAD PUSH2 0x2A8 SWAP1 PUSH1 0x1 PUSH1 0x1 PUSH1 0xA0 SHL SUB AND DUP2 JUMP JUMPDEST PUSH1 0x40 MLOAD PUSH2 0x23C SWAP2 SWAP1 PUSH2 0x40DE JUMP JUMPDEST CALLVALUE DUP1 ISZERO PUSH2 0x2C1 JUMPI PUSH1 0x0 DUP1 REVERT JUMPDEST POP PUSH2 0x265 PUSH2 0x2D0 CALLDATASIZE PUSH1 0x4 PUSH2 0x40F2 JUMP JUMPDEST PUSH2 0xC8A JUMP JUMPDEST CALLVALUE DUP1 ISZERO PUSH2 0x2E1 JUMPI PUSH1 0x0 DUP1 REVERT JUMPDEST POP PUSH2 0x265 PUSH2 0x2F0 CALLDATASIZE PUSH1 0x4 PUSH2 0x3E0A JUMP JUMPDEST PUSH2 0xE5B JUMP JUMPDEST CALLVALUE DUP1 ISZERO PUSH2 0x301 JUMPI PUSH1 0x0 DUP1 REVERT JUMPDEST POP PUSH2 0x315 PUSH2 0x310 CALLDATASIZE PUSH1 0x4 PUSH2 0x4130 JUMP JUMPDEST PUSH2 0xE68 JUMP JUMPDEST PUSH1 0x40 MLOAD PUSH2 0x23C SWAP2 SWAP1 PUSH2 0x414B JUMP JUMPDEST PUSH2 0x265 PUSH2 0x330 CALLDATASIZE PUSH1 0x4 PUSH2 0x419D JUMP JUMPDEST PUSH2 0xED5 JUMP JUMPDEST CALLVALUE DUP1 ISZERO PUSH2 0x341 JUMPI PUSH1 0x0 DUP1 REVERT JUMPDEST POP PUSH2 0x363 PUSH2 0x350 CALLDATASIZE PUSH1 0x4 PUSH2 0x4130 JUMP JUMPDEST PUSH2 0x108 PUSH1 0x20 MSTORE PUSH1 0x0 SWAP1 DUP2 MSTORE PUSH1 0x40 SWAP1 KECCAK256 SLOAD DUP2 JUMP JUMPDEST PUSH1 0x40 MLOAD SWAP1 DUP2 MSTORE PUSH1 0x20 ADD PUSH2 0x23C JUMP JUMPDEST CALLVALUE DUP1 ISZERO PUSH2 0x37D JUMPI PUSH1 0x0 DUP1 REVERT JUMPDEST POP PUSH2 0x3DC PUSH2 0x38C CALLDATASIZE PUSH1 0x4 PUSH2 0x3E0A JUMP JUMPDEST PUSH2 0x107 PUSH1 0x20 MSTORE PUSH1 0x0 SWAP1 DUP2 MSTORE PUSH1 0x40 SWAP1 KECCAK256 DUP1 SLOAD PUSH1 0x2 DUP3 ADD SLOAD PUSH1 0x3 DUP4 ADD SLOAD PUSH1 0x4 DUP5 ADD SLOAD PUSH1 0x5 SWAP1 SWAP5 ADD SLOAD SWAP3 SWAP4 SWAP2 SWAP3 SWAP1 SWAP2 PUSH1 0xFF DUP1 DUP3 AND SWAP3 PUSH2 0x100 DUP4 DIV DUP3 AND SWAP3 PUSH3 0x10000 DUP2 DIV DUP4 AND SWAP3 PUSH4 0x1000000 SWAP1 SWAP2 DIV AND SWAP1 DUP9 JUMP JUMPDEST PUSH1 0x40 DUP1 MLOAD SWAP9 DUP10 MSTORE PUSH1 0x20 DUP10 ADD SWAP8 SWAP1 SWAP8 MSTORE SWAP6 DUP8 ADD SWAP5 SWAP1 SWAP5 MSTORE SWAP2 ISZERO ISZERO PUSH1 0x60 DUP7 ADD MSTORE ISZERO ISZERO PUSH1 0x80 DUP6 ADD MSTORE ISZERO ISZERO PUSH1 0xA0 DUP5 ADD MSTORE ISZERO ISZERO PUSH1 0xC0 DUP4 ADD MSTORE PUSH1 0xE0 DUP3 ADD MSTORE PUSH2 0x100 ADD PUSH2 0x23C JUMP JUMPDEST CALLVALUE DUP1 ISZERO PUSH2 0x429 JUMPI PUSH1 0x0 DUP1 REVERT JUMPDEST POP PUSH2 0x265 PUSH2 0x438 CALLDATASIZE PUSH1 0x4 PUSH2 0x4130 JUMP JUMPDEST PUSH2 0x13D7 JUMP JUMPDEST CALLVALUE DUP1 ISZERO PUSH2 0x449 JUMPI PUSH1 0x0 DUP1 REVERT JUMPDEST POP PUSH2 0x265 PUSH2 0x458 CALLDATASIZE PUSH1 0x4 PUSH2 0x3FF1 JUMP JUMPDEST PUSH2 0x149F JUMP JUMPDEST CALLVALUE DUP1 ISZERO PUSH2 0x469 JUMPI PUSH1 0x0 DUP1 REVERT JUMPDEST POP PUSH2 0x363 PUSH2 0x478 CALLDATASIZE PUSH1 0x4 PUSH2 0x423C JUMP JUMPDEST PUSH2 0x15C9 JUMP JUMPDEST CALLVALUE DUP1 ISZERO PUSH2 0x489 JUMPI PUSH1 0x0 DUP1 REVERT JUMPDEST POP PUSH2 0x265 PUSH2 0x498 CALLDATASIZE PUSH1 0x4 PUSH2 0x4266 JUMP JUMPDEST PUSH2 0x15FB JUMP JUMPDEST PUSH2 0x265 PUSH2 0x4AB CALLDATASIZE PUSH1 0x4 PUSH2 0x4299 JUMP JUMPDEST PUSH2 0x1766 JUMP JUMPDEST CALLVALUE DUP1 ISZERO PUSH2 0x4BC JUMPI PUSH1 0x0 DUP1 REVERT JUMPDEST POP PUSH2 0x363 PUSH2 0x181F JUMP JUMPDEST CALLVALUE DUP1 ISZERO PUSH2 0x4D1 JUMPI PUSH1 0x0 DUP1 REVERT JUMPDEST POP PUSH2 0x265 PUSH2 0x4E0 CALLDATASIZE PUSH1 0x4 PUSH2 0x4130 JUMP JUMPDEST PUSH2 0x18CD JUMP JUMPDEST CALLVALUE DUP1 ISZERO PUSH2 0x4F1 JUMPI PUSH1 0x0 DUP1 REVERT JUMPDEST POP PUSH2 0x505 PUSH2 0x500 CALLDATASIZE PUSH1 0x4 PUSH2 0x3E0A JUMP JUMPDEST PUSH2 0x191D JUMP JUMPDEST PUSH1 0x40 MLOAD PUSH2 0x23C SWAP12 SWAP11 SWAP10 SWAP9 SWAP8 SWAP7 SWAP6 SWAP5 SWAP4 SWAP3 SWAP2 SWAP1 PUSH2 0x42FA JUMP JUMPDEST CALLVALUE DUP1 ISZERO PUSH2 0x528 JUMPI PUSH1 0x0 DUP1 REVERT JUMPDEST POP PUSH2 0x265 PUSH2 0x537 CALLDATASIZE PUSH1 0x4 PUSH2 0x3E0A JUMP JUMPDEST PUSH2 0x1A9B JUMP JUMPDEST CALLVALUE DUP1 ISZERO PUSH2 0x548 JUMPI PUSH1 0x0 DUP1 REVERT JUMPDEST POP PUSH2 0x265 PUSH2 0x557 CALLDATASIZE PUSH1 0x4 PUSH2 0x3E0A JUMP JUMPDEST PUSH2 0x1B1E JUMP JUMPDEST CALLVALUE DUP1 ISZERO PUSH2 0x568 JUMPI PUSH1 0x0 DUP1 REVERT JUMPDEST POP PUSH2 0x265 PUSH2 0x577 CALLDATASIZE PUSH1 0x4 PUSH2 0x3E0A JUMP JUMPDEST PUSH2 0x1B2B JUMP JUMPDEST CALLVALUE DUP1 ISZERO PUSH2 0x588 JUMPI PUSH1 0x0 DUP1 REVERT JUMPDEST POP PUSH2 0x363 PUSH1 0xFB SLOAD DUP2 JUMP JUMPDEST CALLVALUE DUP1 ISZERO PUSH2 0x59E JUMPI PUSH1 0x0 DUP1 REVERT JUMPDEST POP PUSH2 0x103 SLOAD PUSH2 0x2A8 SWAP1 PUSH1 0x1 PUSH1 0x1 PUSH1 0xA0 SHL SUB AND DUP2 JUMP JUMPDEST CALLVALUE DUP1 ISZERO PUSH2 0x5BF JUMPI PUSH1 0x0 DUP1 REVERT JUMPDEST POP PUSH2 0x265 PUSH2 0x1CE9 JUMP JUMPDEST CALLVALUE DUP1 ISZERO PUSH2 0x5D4 JUMPI PUSH1 0x0 DUP1 REVERT JUMPDEST POP PUSH2 0x5E8 PUSH2 0x5E3 CALLDATASIZE PUSH1 0x4 PUSH2 0x4130 JUMP JUMPDEST PUSH2 0x1CFD JUMP JUMPDEST PUSH1 0x40 MLOAD SWAP1 ISZERO ISZERO DUP2 MSTORE PUSH1 0x20 ADD PUSH2 0x23C JUMP JUMPDEST CALLVALUE DUP1 ISZERO PUSH2 0x604 JUMPI PUSH1 0x0 DUP1 REVERT JUMPDEST POP PUSH2 0x363 PUSH1 0xFE SLOAD DUP2 JUMP JUMPDEST CALLVALUE DUP1 ISZERO PUSH2 0x61A JUMPI PUSH1 0x0 DUP1 REVERT JUMPDEST POP PUSH2 0x2A8 PUSH2 0x1D1C JUMP JUMPDEST CALLVALUE DUP1 ISZERO PUSH2 0x62F JUMPI PUSH1 0x0 DUP1 REVERT JUMPDEST POP PUSH2 0x363 PUSH2 0x63E CALLDATASIZE PUSH1 0x4 PUSH2 0x4130 JUMP JUMPDEST PUSH2 0x104 PUSH1 0x20 MSTORE PUSH1 0x0 SWAP1 DUP2 MSTORE PUSH1 0x40 SWAP1 KECCAK256 SLOAD DUP2 JUMP JUMPDEST CALLVALUE DUP1 ISZERO PUSH2 0x65D JUMPI PUSH1 0x0 DUP1 REVERT JUMPDEST POP PUSH2 0x265 PUSH2 0x66C CALLDATASIZE PUSH1 0x4 PUSH2 0x3E0A JUMP JUMPDEST PUSH2 0x1D2B JUMP JUMPDEST CALLVALUE DUP1 ISZERO PUSH2 0x67D JUMPI PUSH1 0x0 DUP1 REVERT JUMPDEST POP PUSH2 0x265 PUSH2 0x68C CALLDATASIZE PUSH1 0x4 PUSH2 0x3E0A JUMP JUMPDEST PUSH2 0x1D85 JUMP JUMPDEST CALLVALUE DUP1 ISZERO PUSH2 0x69D JUMPI PUSH1 0x0 DUP1 REVERT JUMPDEST POP PUSH2 0x101 SLOAD PUSH2 0x2A8 SWAP1 PUSH1 0x1 PUSH1 0x1 PUSH1 0xA0 SHL SUB AND DUP2 JUMP JUMPDEST CALLVALUE DUP1 ISZERO PUSH2 0x6BE JUMPI PUSH1 0x0 DUP1 REVERT JUMPDEST POP PUSH2 0x265 PUSH2 0x6CD CALLDATASIZE PUSH1 0x4 PUSH2 0x3E0A JUMP JUMPDEST PUSH2 0x1E07 JUMP JUMPDEST CALLVALUE DUP1 ISZERO PUSH2 0x6DE JUMPI PUSH1 0x0 DUP1 REVERT JUMPDEST POP PUSH2 0x5E8 PUSH2 0x6ED CALLDATASIZE PUSH1 0x4 PUSH2 0x3E0A JUMP JUMPDEST PUSH2 0x2100 JUMP JUMPDEST CALLVALUE DUP1 ISZERO PUSH2 0x6FE JUMPI PUSH1 0x0 DUP1 REVERT JUMPDEST POP PUSH2 0x5E8 PUSH2 0x70D CALLDATASIZE PUSH1 0x4 PUSH2 0x4130 JUMP JUMPDEST PUSH2 0x109 PUSH1 0x20 MSTORE PUSH1 0x0 SWAP1 DUP2 MSTORE PUSH1 0x40 SWAP1 KECCAK256 SLOAD PUSH1 0xFF AND DUP2 JUMP JUMPDEST CALLVALUE DUP1 ISZERO PUSH2 0x72F JUMPI PUSH1 0x0 DUP1 REVERT JUMPDEST POP PUSH2 0x265 PUSH2 0x73E CALLDATASIZE PUSH1 0x4 PUSH2 0x3E0A JUMP JUMPDEST PUSH2 0x2183 JUMP JUMPDEST CALLVALUE DUP1 ISZERO PUSH2 0x74F JUMPI PUSH1 0x0 DUP1 REVERT JUMPDEST POP PUSH2 0x763 PUSH2 0x75E CALLDATASIZE PUSH1 0x4 PUSH2 0x3E0A JUMP JUMPDEST PUSH2 0x2815 JUMP JUMPDEST PUSH1 0x40 MLOAD PUSH2 0x23C SWAP3 SWAP2 SWAP1 PUSH2 0x43EC JUMP JUMPDEST CALLVALUE DUP1 ISZERO PUSH2 0x77D JUMPI PUSH1 0x0 DUP1 REVERT JUMPDEST POP PUSH2 0x363 PUSH1 0xFC SLOAD DUP2 JUMP JUMPDEST CALLVALUE DUP1 ISZERO PUSH2 0x793 JUMPI PUSH1 0x0 DUP1 REVERT JUMPDEST POP PUSH2 0x265 PUSH2 0x7A2 CALLDATASIZE PUSH1 0x4 PUSH2 0x441A JUMP JUMPDEST PUSH2 0x29DF JUMP JUMPDEST CALLVALUE DUP1 ISZERO PUSH2 0x7B3 JUMPI PUSH1 0x0 DUP1 REVERT JUMPDEST POP PUSH2 0x363 PUSH1 0xFF SLOAD DUP2 JUMP JUMPDEST CALLVALUE DUP1 ISZERO PUSH2 0x7C9 JUMPI PUSH1 0x0 DUP1 REVERT JUMPDEST POP PUSH2 0x363 PUSH1 0xFD SLOAD DUP2 JUMP JUMPDEST CALLVALUE DUP1 ISZERO PUSH2 0x7DF JUMPI PUSH1 0x0 DUP1 REVERT JUMPDEST POP PUSH2 0x265 PUSH2 0x7EE CALLDATASIZE PUSH1 0x4 PUSH2 0x4130 JUMP JUMPDEST PUSH2 0x2A50 JUMP JUMPDEST CALLVALUE DUP1 ISZERO PUSH2 0x7FF JUMPI PUSH1 0x0 DUP1 REVERT JUMPDEST POP PUSH2 0x265 PUSH2 0x80E CALLDATASIZE PUSH1 0x4 PUSH2 0x44B1 JUMP JUMPDEST PUSH2 0x2A7B JUMP JUMPDEST CALLVALUE DUP1 ISZERO PUSH2 0x81F JUMPI PUSH1 0x0 DUP1 REVERT JUMPDEST POP PUSH2 0x265 PUSH2 0x2E37 JUMP JUMPDEST CALLVALUE DUP1 ISZERO PUSH2 0x834 JUMPI PUSH1 0x0 DUP1 REVERT JUMPDEST POP PUSH2 0x363 PUSH2 0x843 CALLDATASIZE PUSH1 0x4 PUSH2 0x4130 JUMP JUMPDEST PUSH1 0x1 PUSH1 0x1 PUSH1 0xA0 SHL SUB AND PUSH1 0x0 SWAP1 DUP2 MSTORE PUSH2 0x108 PUSH1 0x20 MSTORE PUSH1 0x40 SWAP1 KECCAK256 SLOAD SWAP1 JUMP JUMPDEST CALLVALUE DUP1 ISZERO PUSH2 0x86B JUMPI PUSH1 0x0 DUP1 REVERT JUMPDEST POP PUSH2 0x265 PUSH2 0x87A CALLDATASIZE PUSH1 0x4 PUSH2 0x4130 JUMP JUMPDEST PUSH2 0x2E88 JUMP JUMPDEST PUSH2 0x105 PUSH1 0x20 MSTORE PUSH1 0x0 SWAP1 DUP2 MSTORE PUSH1 0x40 SWAP1 KECCAK256 DUP1 SLOAD PUSH1 0x1 DUP3 ADD SLOAD PUSH1 0x2 DUP4 ADD SLOAD PUSH1 0x3 DUP5 ADD SLOAD PUSH1 0x4 DUP6 ADD DUP1 SLOAD SWAP5 SWAP6 PUSH1 0x1 PUSH1 0x1 PUSH1 0xA0 SHL SUB SWAP5 DUP6 AND SWAP6 SWAP4 SWAP1 SWAP5 AND SWAP4 SWAP2 SWAP3 PUSH2 0x8C3 SWAP1 PUSH2 0x4500 JUMP JUMPDEST DUP1 PUSH1 0x1F ADD PUSH1 0x20 DUP1 SWAP2 DIV MUL PUSH1 0x20 ADD PUSH1 0x40 MLOAD SWAP1 DUP2 ADD PUSH1 0x40 MSTORE DUP1 SWAP3 SWAP2 SWAP1 DUP2 DUP2 MSTORE PUSH1 0x20 ADD DUP3 DUP1 SLOAD PUSH2 0x8EF SWAP1 PUSH2 0x4500 JUMP JUMPDEST DUP1 ISZERO PUSH2 0x93C JUMPI DUP1 PUSH1 0x1F LT PUSH2 0x911 JUMPI PUSH2 0x100 DUP1 DUP4 SLOAD DIV MUL DUP4 MSTORE SWAP2 PUSH1 0x20 ADD SWAP2 PUSH2 0x93C JUMP JUMPDEST DUP3 ADD SWAP2 SWAP1 PUSH1 0x0 MSTORE PUSH1 0x20 PUSH1 0x0 KECCAK256 SWAP1 JUMPDEST DUP2 SLOAD DUP2 MSTORE SWAP1 PUSH1 0x1 ADD SWAP1 PUSH1 0x20 ADD DUP1 DUP4 GT PUSH2 0x91F JUMPI DUP3 SWAP1 SUB PUSH1 0x1F AND DUP3 ADD SWAP2 JUMPDEST POP POP POP POP POP SWAP1 DUP1 PUSH1 0x5 ADD DUP1 SLOAD PUSH2 0x951 SWAP1 PUSH2 0x4500 JUMP JUMPDEST DUP1 PUSH1 0x1F ADD PUSH1 0x20 DUP1 SWAP2 DIV MUL PUSH1 0x20 ADD PUSH1 0x40 MLOAD SWAP1 DUP2 ADD PUSH1 0x40 MSTORE DUP1 SWAP3 SWAP2 SWAP1 DUP2 DUP2 MSTORE PUSH1 0x20 ADD DUP3 DUP1 SLOAD PUSH2 0x97D SWAP1 PUSH2 0x4500 JUMP JUMPDEST DUP1 ISZERO PUSH2 0x9CA JUMPI DUP1 PUSH1 0x1F LT PUSH2 0x99F JUMPI PUSH2 0x100 DUP1 DUP4 SLOAD DIV MUL DUP4 MSTORE SWAP2 PUSH1 0x20 ADD SWAP2 PUSH2 0x9CA JUMP JUMPDEST DUP3 ADD SWAP2 SWAP1 PUSH1 0x0 MSTORE PUSH1 0x20 PUSH1 0x0 KECCAK256 SWAP1 JUMPDEST DUP2 SLOAD DUP2 MSTORE SWAP1 PUSH1 0x1 ADD SWAP1 PUSH1 0x20 ADD DUP1 DUP4 GT PUSH2 0x9AD JUMPI DUP3 SWAP1 SUB PUSH1 0x1F AND DUP3 ADD SWAP2 JUMPDEST POP POP POP PUSH1 0x6 SWAP1 SWAP4 ADD SLOAD SWAP2 SWAP3 POP POP PUSH1 0xFF DUP1 DUP3 AND SWAP2 PUSH2 0x100 DUP2 DIV SWAP1 SWAP2 AND SWAP1 PUSH1 0x1 PUSH1 0x1 PUSH1 0xA0 SHL SUB PUSH3 0x10000 SWAP1 SWAP2 DIV AND DUP10 JUMP JUMPDEST PUSH1 0xFC SLOAD DUP5 GT ISZERO PUSH2 0xA24 JUMPI PUSH1 0x40 MLOAD PUSH3 0x461BCD PUSH1 0xE5 SHL DUP2 MSTORE PUSH1 0x4 ADD PUSH2 0xA1B SWAP1 PUSH2 0x453A JUMP JUMPDEST PUSH1 0x40 MLOAD DUP1 SWAP2 SUB SWAP1 REVERT JUMPDEST PUSH1 0x0 DUP5 DUP2 MSTORE PUSH2 0x106 PUSH1 0x20 MSTORE PUSH1 0x40 SWAP1 KECCAK256 PUSH1 0x1 PUSH1 0x8 DUP3 ADD SLOAD PUSH1 0xFF AND PUSH1 0x1 DUP2 GT ISZERO PUSH2 0xA4E JUMPI PUSH2 0xA4E PUSH2 0x3E73 JUMP JUMPDEST EQ PUSH2 0xA99 JUMPI PUSH1 0x40 MLOAD PUSH3 0x461BCD PUSH1 0xE5 SHL DUP2 MSTORE PUSH1 0x20 PUSH1 0x4 DUP3 ADD MSTORE PUSH1 0x1B PUSH1 0x24 DUP3 ADD MSTORE PUSH27 0x13195D995B080C88191A5CDC1D5D19481B9BDD0818DC99585D1959 PUSH1 0x2A SHL PUSH1 0x44 DUP3 ADD MSTORE PUSH1 0x64 ADD PUSH2 0xA1B JUMP JUMPDEST PUSH2 0xAA2 DUP6 PUSH2 0x2EFE JUMP JUMPDEST PUSH2 0xAAE DUP6 DUP6 DUP6 DUP6 PUSH2 0x2F5D JUMP JUMPDEST DUP1 SLOAD PUSH2 0xABB DUP2 PUSH1 0x5 PUSH2 0x3046 JUMP JUMPDEST PUSH1 0x40 DUP1 MLOAD PUSH2 0x120 DUP2 ADD DUP3 MSTORE DUP8 DUP2 MSTORE DUP2 MLOAD PUSH1 0x0 DUP1 DUP3 MSTORE PUSH1 0x20 DUP1 DUP4 ADD DUP6 MSTORE DUP1 DUP5 ADD SWAP3 DUP4 MSTORE DUP4 DUP6 ADD DUP3 SWAP1 MSTORE PUSH1 0x60 DUP5 ADD DUP3 SWAP1 MSTORE PUSH1 0x80 DUP5 ADD DUP3 SWAP1 MSTORE PUSH1 0xA0 DUP5 ADD DUP3 SWAP1 MSTORE PUSH1 0xC0 DUP5 ADD DUP3 SWAP1 MSTORE PUSH1 0xE0 DUP5 ADD DUP3 SWAP1 MSTORE TIMESTAMP PUSH2 0x100 DUP6 ADD MSTORE PUSH1 0xFD SLOAD DUP3 MSTORE PUSH2 0x107 DUP2 MSTORE SWAP4 SWAP1 KECCAK256 DUP3 MLOAD DUP2 SSTORE SWAP1 MLOAD DUP1 MLOAD SWAP3 SWAP4 DUP5 SWAP4 PUSH2 0xB36 SWAP3 PUSH1 0x1 DUP6 ADD SWAP3 ADD SWAP1 PUSH2 0x3C58 JUMP JUMPDEST POP PUSH1 0x40 DUP3 ADD MLOAD PUSH1 0x2 DUP3 ADD SSTORE PUSH1 0x60 DUP3 ADD MLOAD PUSH1 0x3 DUP3 ADD SSTORE PUSH1 0x80 DUP3 ADD MLOAD PUSH1 0x4 DUP3 ADD DUP1 SLOAD PUSH1 0xA0 DUP6 ADD MLOAD PUSH1 0xC0 DUP7 ADD MLOAD PUSH1 0xE0 DUP8 ADD MLOAD PUSH2 0xFFFF NOT SWAP1 SWAP4 AND SWAP5 ISZERO ISZERO PUSH2 0xFF00 NOT AND SWAP5 SWAP1 SWAP5 OR PUSH2 0x100 SWAP2 ISZERO ISZERO DUP3 MUL OR PUSH4 0xFFFF0000 NOT AND PUSH3 0x10000 SWAP5 ISZERO ISZERO SWAP5 SWAP1 SWAP5 MUL PUSH4 0xFF000000 NOT AND SWAP4 SWAP1 SWAP4 OR PUSH4 0x1000000 SWAP2 ISZERO ISZERO SWAP2 SWAP1 SWAP2 MUL OR SWAP1 SSTORE SWAP1 SWAP2 ADD MLOAD PUSH1 0x5 SWAP1 SWAP2 ADD SSTORE PUSH1 0xFD DUP1 SLOAD PUSH1 0x1 SWAP2 SWAP1 PUSH1 0x0 SWAP1 PUSH2 0xBCD SWAP1 DUP5 SWAP1 PUSH2 0x4580 JUMP JUMPDEST SWAP1 SWAP2 SSTORE POP POP POP PUSH1 0xB SWAP1 SWAP2 ADD DUP1 SLOAD PUSH2 0xFF00 NOT AND PUSH2 0x100 OR SWAP1 SSTORE POP POP POP POP POP JUMP JUMPDEST PUSH2 0xBF5 DUP2 PUSH2 0x309C JUMP JUMPDEST PUSH2 0xBFE DUP2 PUSH2 0x3100 JUMP JUMPDEST PUSH2 0xC09 DUP2 PUSH1 0x0 PUSH2 0x3046 JUMP JUMPDEST PUSH1 0x0 DUP2 DUP2 MSTORE PUSH2 0x105 PUSH1 0x20 MSTORE PUSH1 0x40 SWAP1 KECCAK256 PUSH1 0x6 DUP2 ADD DUP1 SLOAD PUSH1 0xFF NOT AND PUSH1 0x4 OR SWAP1 SSTORE PUSH1 0x3 DUP2 ADD SLOAD PUSH1 0x1 SWAP1 SWAP2 ADD SLOAD PUSH2 0xC46 SWAP2 DUP4 SWAP2 PUSH1 0x1 PUSH1 0x1 PUSH1 0xA0 SHL SUB AND PUSH2 0x3138 JUMP JUMPDEST PUSH1 0x0 DUP2 DUP2 MSTORE PUSH2 0x105 PUSH1 0x20 MSTORE PUSH1 0x40 DUP1 DUP3 KECCAK256 PUSH1 0x2 DUP2 ADD SLOAD PUSH1 0x1 SWAP1 SWAP2 ADD SLOAD SWAP2 MLOAD PUSH1 0x1 PUSH1 0x1 PUSH1 0xA0 SHL SUB SWAP2 DUP3 AND SWAP4 SWAP2 SWAP1 SWAP3 AND SWAP2 DUP5 SWAP2 PUSH1 0x0 DUP1 MLOAD PUSH1 0x20 PUSH2 0x4A62 DUP4 CODECOPY DUP2 MLOAD SWAP2 MSTORE SWAP2 LOG4 POP JUMP JUMPDEST PUSH1 0xFD SLOAD DUP3 GT ISZERO PUSH2 0xCC2 JUMPI PUSH1 0x40 MLOAD PUSH3 0x461BCD PUSH1 0xE5 SHL DUP2 MSTORE PUSH1 0x20 PUSH1 0x4 DUP3 ADD MSTORE PUSH1 0x3 PUSH1 0x24 DUP3 ADD MSTORE PUSH3 0x564E45 PUSH1 0xE8 SHL PUSH1 0x44 DUP3 ADD MSTORE PUSH1 0x64 ADD PUSH2 0xA1B JUMP JUMPDEST PUSH1 0xFC SLOAD PUSH1 0x0 DUP4 DUP2 MSTORE PUSH2 0x107 PUSH1 0x20 MSTORE PUSH1 0x40 SWAP1 KECCAK256 SLOAD GT ISZERO PUSH2 0xCF3 JUMPI PUSH1 0x40 MLOAD PUSH3 0x461BCD PUSH1 0xE5 SHL DUP2 MSTORE PUSH1 0x4 ADD PUSH2 0xA1B SWAP1 PUSH2 0x4593 JUMP JUMPDEST PUSH2 0xCFC DUP3 PUSH2 0x2100 JUMP JUMPDEST ISZERO PUSH2 0xD39 JUMPI PUSH1 0x40 MLOAD PUSH3 0x461BCD PUSH1 0xE5 SHL DUP2 MSTORE PUSH1 0x20 PUSH1 0x4 DUP3 ADD MSTORE PUSH1 0xD PUSH1 0x24 DUP3 ADD MSTORE PUSH13 0x105B1C9958591E481D9BDD1959 PUSH1 0x9A SHL PUSH1 0x44 DUP3 ADD MSTORE PUSH1 0x64 ADD PUSH2 0xA1B JUMP JUMPDEST PUSH1 0x0 DUP3 DUP2 MSTORE PUSH2 0x107 PUSH1 0x20 MSTORE PUSH1 0x40 SWAP1 KECCAK256 PUSH1 0x5 ADD SLOAD TIMESTAMP SWAP1 PUSH2 0xD5B SWAP1 PUSH3 0x15180 PUSH2 0x4580 JUMP JUMPDEST LT ISZERO PUSH2 0xD98 JUMPI PUSH1 0x40 MLOAD PUSH3 0x461BCD PUSH1 0xE5 SHL DUP2 MSTORE PUSH1 0x20 PUSH1 0x4 DUP3 ADD MSTORE PUSH1 0xC PUSH1 0x24 DUP3 ADD MSTORE PUSH12 0x151A5B5948195E1C1A5C9959 PUSH1 0xA2 SHL PUSH1 0x44 DUP3 ADD MSTORE PUSH1 0x64 ADD PUSH2 0xA1B JUMP JUMPDEST DUP1 PUSH1 0x0 SUB PUSH2 0xDCE JUMPI PUSH1 0x0 DUP3 DUP2 MSTORE PUSH2 0x107 PUSH1 0x20 MSTORE PUSH1 0x40 DUP2 KECCAK256 PUSH1 0x2 ADD DUP1 SLOAD PUSH1 0x1 SWAP3 SWAP1 PUSH2 0xDC3 SWAP1 DUP5 SWAP1 PUSH2 0x4580 JUMP JUMPDEST SWAP1 SWAP2 SSTORE POP PUSH2 0xDFF SWAP1 POP JUMP JUMPDEST DUP1 PUSH1 0x1 SUB PUSH2 0xDFF JUMPI PUSH1 0x0 DUP3 DUP2 MSTORE PUSH2 0x107 PUSH1 0x20 MSTORE PUSH1 0x40 DUP2 KECCAK256 PUSH1 0x3 ADD DUP1 SLOAD PUSH1 0x1 SWAP3 SWAP1 PUSH2 0xDF9 SWAP1 DUP5 SWAP1 PUSH2 0x4580 JUMP JUMPDEST SWAP1 SWAP2 SSTORE POP POP JUMPDEST PUSH1 0x0 DUP3 DUP2 MSTORE PUSH2 0x107 PUSH1 0x20 SWAP1 DUP2 MSTORE PUSH1 0x40 DUP1 DUP4 KECCAK256 PUSH1 0x1 SWAP1 DUP2 ADD DUP1 SLOAD DUP1 DUP4 ADD DUP3 SSTORE SWAP1 DUP6 MSTORE DUP4 DUP6 KECCAK256 ADD DUP1 SLOAD PUSH1 0x1 PUSH1 0x1 PUSH1 0xA0 SHL SUB NOT AND CALLER SWAP1 DUP2 OR SWAP1 SWAP2 SSTORE DUP5 MSTORE PUSH2 0x108 SWAP1 SWAP3 MSTORE DUP3 KECCAK256 DUP1 SLOAD SWAP2 SWAP3 SWAP1 SWAP2 PUSH2 0xE52 SWAP1 DUP5 SWAP1 PUSH2 0x4580 JUMP JUMPDEST SWAP1 SWAP2 SSTORE POP POP POP POP JUMP JUMPDEST PUSH2 0xE63 PUSH2 0x318F JUMP JUMPDEST PUSH1 0xFF SSTORE JUMP JUMPDEST PUSH1 0x1 PUSH1 0x1 PUSH1 0xA0 SHL SUB DUP2 AND PUSH1 0x0 SWAP1 DUP2 MSTORE PUSH2 0x10A PUSH1 0x20 SWAP1 DUP2 MSTORE PUSH1 0x40 SWAP2 DUP3 SWAP1 KECCAK256 DUP1 SLOAD DUP4 MLOAD DUP2 DUP5 MUL DUP2 ADD DUP5 ADD SWAP1 SWAP5 MSTORE DUP1 DUP5 MSTORE PUSH1 0x60 SWAP4 SWAP3 DUP4 ADD DUP3 DUP3 DUP1 ISZERO PUSH2 0xEC9 JUMPI PUSH1 0x20 MUL DUP3 ADD SWAP2 SWAP1 PUSH1 0x0 MSTORE PUSH1 0x20 PUSH1 0x0 KECCAK256 SWAP1 JUMPDEST DUP2 SLOAD DUP2 MSTORE PUSH1 0x20 ADD SWAP1 PUSH1 0x1 ADD SWAP1 DUP1 DUP4 GT PUSH2 0xEB5 JUMPI JUMPDEST POP POP POP POP POP SWAP1 POP SWAP2 SWAP1 POP JUMP JUMPDEST PUSH2 0xEDD PUSH2 0x31EE JUMP JUMPDEST PUSH1 0x1 PUSH1 0x1 PUSH1 0xA0 SHL SUB DUP7 AND PUSH2 0xF25 JUMPI PUSH1 0x40 MLOAD PUSH3 0x461BCD PUSH1 0xE5 SHL DUP2 MSTORE PUSH1 0x20 PUSH1 0x4 DUP3 ADD MSTORE PUSH1 0xF PUSH1 0x24 DUP3 ADD MSTORE PUSH15 0x496E76616C69642061646472657373 PUSH1 0x88 SHL PUSH1 0x44 DUP3 ADD MSTORE PUSH1 0x64 ADD PUSH2 0xA1B JUMP JUMPDEST PUSH1 0x0 DUP6 GT PUSH2 0xF62 JUMPI PUSH1 0x40 MLOAD PUSH3 0x461BCD PUSH1 0xE5 SHL DUP2 MSTORE PUSH1 0x20 PUSH1 0x4 DUP3 ADD MSTORE PUSH1 0xA PUSH1 0x24 DUP3 ADD MSTORE PUSH10 0x416D6F756E74203C203 PUSH1 0xB4 SHL PUSH1 0x44 DUP3 ADD MSTORE PUSH1 0x64 ADD PUSH2 0xA1B JUMP JUMPDEST PUSH1 0x0 DUP3 ISZERO PUSH2 0x118C JUMPI PUSH2 0xF73 DUP3 PUSH2 0x1CFD JUMP JUMPDEST PUSH2 0xFB3 JUMPI PUSH1 0x40 MLOAD PUSH3 0x461BCD PUSH1 0xE5 SHL DUP2 MSTORE PUSH1 0x20 PUSH1 0x4 DUP3 ADD MSTORE PUSH1 0x11 PUSH1 0x24 DUP3 ADD MSTORE PUSH17 0x151BDAD95B881B9BDD08195B98589B1959 PUSH1 0x7A SHL PUSH1 0x44 DUP3 ADD MSTORE PUSH1 0x64 ADD PUSH2 0xA1B JUMP JUMPDEST PUSH1 0x40 MLOAD PUSH4 0x6EB1769F PUSH1 0xE1 SHL DUP2 MSTORE CALLER PUSH1 0x4 DUP3 ADD MSTORE ADDRESS PUSH1 0x24 DUP3 ADD MSTORE DUP3 SWAP1 DUP8 SWAP1 PUSH1 0x1 PUSH1 0x1 PUSH1 0xA0 SHL SUB DUP4 AND SWAP1 PUSH4 0xDD62ED3E SWAP1 PUSH1 0x44 ADD PUSH1 0x20 PUSH1 0x40 MLOAD DUP1 DUP4 SUB DUP2 DUP7 GAS STATICCALL ISZERO DUP1 ISZERO PUSH2 0x1001 JUMPI RETURNDATASIZE PUSH1 0x0 DUP1 RETURNDATACOPY RETURNDATASIZE PUSH1 0x0 REVERT JUMPDEST POP POP POP POP PUSH1 0x40 MLOAD RETURNDATASIZE PUSH1 0x1F NOT PUSH1 0x1F DUP3 ADD AND DUP3 ADD DUP1 PUSH1 0x40 MSTORE POP DUP2 ADD SWAP1 PUSH2 0x1025 SWAP2 SWAP1 PUSH2 0x45B0 JUMP JUMPDEST LT ISZERO PUSH2 0x1063 JUMPI PUSH1 0x40 MLOAD PUSH3 0x461BCD PUSH1 0xE5 SHL DUP2 MSTORE PUSH1 0x20 PUSH1 0x4 DUP3 ADD MSTORE PUSH1 0xD PUSH1 0x24 DUP3 ADD MSTORE PUSH13 0x6C6F7720616C6C6F77616E6365 PUSH1 0x98 SHL PUSH1 0x44 DUP3 ADD MSTORE PUSH1 0x64 ADD PUSH2 0xA1B JUMP JUMPDEST PUSH1 0x40 MLOAD PUSH4 0x70A08231 PUSH1 0xE0 SHL DUP2 MSTORE DUP8 SWAP1 PUSH1 0x1 PUSH1 0x1 PUSH1 0xA0 SHL SUB DUP4 AND SWAP1 PUSH4 0x70A08231 SWAP1 PUSH2 0x1091 SWAP1 CALLER SWAP1 PUSH1 0x4 ADD PUSH2 0x40DE JUMP JUMPDEST PUSH1 0x20 PUSH1 0x40 MLOAD DUP1 DUP4 SUB DUP2 DUP7 GAS STATICCALL ISZERO DUP1 ISZERO PUSH2 0x10AE JUMPI RETURNDATASIZE PUSH1 0x0 DUP1 RETURNDATACOPY RETURNDATASIZE PUSH1 0x0 REVERT JUMPDEST POP POP POP POP PUSH1 0x40 MLOAD RETURNDATASIZE PUSH1 0x1F NOT PUSH1 0x1F DUP3 ADD AND DUP3 ADD DUP1 PUSH1 0x40 MSTORE POP DUP2 ADD SWAP1 PUSH2 0x10D2 SWAP2 SWAP1 PUSH2 0x45B0 JUMP JUMPDEST LT ISZERO PUSH2 0x110E JUMPI PUSH1 0x40 MLOAD PUSH3 0x461BCD PUSH1 0xE5 SHL DUP2 MSTORE PUSH1 0x20 PUSH1 0x4 DUP3 ADD MSTORE PUSH1 0xB PUSH1 0x24 DUP3 ADD MSTORE PUSH11 0x6C6F772062616C616E6365 PUSH1 0xA8 SHL PUSH1 0x44 DUP3 ADD MSTORE PUSH1 0x64 ADD PUSH2 0xA1B JUMP JUMPDEST PUSH1 0x40 MLOAD PUSH4 0x23B872DD PUSH1 0xE0 SHL DUP2 MSTORE CALLER PUSH1 0x4 DUP3 ADD MSTORE ADDRESS PUSH1 0x24 DUP3 ADD MSTORE PUSH1 0x44 DUP2 ADD DUP9 SWAP1 MSTORE PUSH1 0x1 PUSH1 0x1 PUSH1 0xA0 SHL SUB DUP3 AND SWAP1 PUSH4 0x23B872DD SWAP1 PUSH1 0x64 ADD PUSH1 0x20 PUSH1 0x40 MLOAD DUP1 DUP4 SUB DUP2 PUSH1 0x0 DUP8 GAS CALL ISZERO DUP1 ISZERO PUSH2 0x1161 JUMPI RETURNDATASIZE PUSH1 0x0 DUP1 RETURNDATACOPY RETURNDATASIZE PUSH1 0x0 REVERT JUMPDEST POP POP POP POP PUSH1 0x40 MLOAD RETURNDATASIZE PUSH1 0x1F NOT PUSH1 0x1F DUP3 ADD AND DUP3 ADD DUP1 PUSH1 0x40 MSTORE POP DUP2 ADD SWAP1 PUSH2 0x1185 SWAP2 SWAP1 PUSH2 0x45C9 JUMP JUMPDEST POP POP PUSH2 0x11C8 JUMP JUMPDEST DUP6 CALLVALUE LT ISZERO PUSH2 0x11C8 JUMPI PUSH1 0x40 MLOAD PUSH3 0x461BCD PUSH1 0xE5 SHL DUP2 MSTORE PUSH1 0x20 PUSH1 0x4 DUP3 ADD MSTORE PUSH1 0x9 PUSH1 0x24 DUP3 ADD MSTORE PUSH9 0x6C6F772066756E6473 PUSH1 0xB8 SHL PUSH1 0x44 DUP3 ADD MSTORE PUSH1 0x64 ADD PUSH2 0xA1B JUMP JUMPDEST PUSH1 0x0 PUSH1 0x40 MLOAD DUP1 PUSH2 0x120 ADD PUSH1 0x40 MSTORE DUP1 PUSH1 0xFB SLOAD DUP2 MSTORE PUSH1 0x20 ADD CALLER PUSH1 0x1 PUSH1 0x1 PUSH1 0xA0 SHL SUB AND DUP2 MSTORE PUSH1 0x20 ADD DUP10 PUSH1 0x1 PUSH1 0x1 PUSH1 0xA0 SHL SUB AND DUP2 MSTORE PUSH1 0x20 ADD DUP9 DUP2 MSTORE PUSH1 0x20 ADD DUP8 DUP2 MSTORE PUSH1 0x20 ADD DUP7 DUP2 MSTORE PUSH1 0x20 ADD DUP4 PUSH1 0x7 DUP2 GT ISZERO PUSH2 0x1220 JUMPI PUSH2 0x1220 PUSH2 0x3E73 JUMP JUMPDEST DUP2 MSTORE DUP6 ISZERO ISZERO PUSH1 0x20 DUP1 DUP4 ADD SWAP2 SWAP1 SWAP2 MSTORE PUSH1 0x1 PUSH1 0x1 PUSH1 0xA0 SHL SUB DUP7 DUP2 AND PUSH1 0x40 SWAP4 DUP5 ADD MSTORE PUSH1 0xFB SLOAD PUSH1 0x0 SWAP1 DUP2 MSTORE PUSH2 0x105 DUP4 MSTORE DUP4 SWAP1 KECCAK256 DUP5 MLOAD DUP2 SSTORE SWAP2 DUP5 ADD MLOAD PUSH1 0x1 DUP4 ADD DUP1 SLOAD PUSH1 0x1 PUSH1 0x1 PUSH1 0xA0 SHL SUB NOT SWAP1 DUP2 AND SWAP3 DUP5 AND SWAP3 SWAP1 SWAP3 OR SWAP1 SSTORE SWAP3 DUP5 ADD MLOAD PUSH1 0x2 DUP4 ADD DUP1 SLOAD SWAP1 SWAP5 AND SWAP2 AND OR SWAP1 SWAP2 SSTORE PUSH1 0x60 DUP3 ADD MLOAD PUSH1 0x3 DUP3 ADD SSTORE PUSH1 0x80 DUP3 ADD MLOAD SWAP2 SWAP3 POP DUP3 SWAP2 PUSH1 0x4 DUP3 ADD SWAP1 PUSH2 0x12A8 SWAP1 DUP3 PUSH2 0x4633 JUMP JUMPDEST POP PUSH1 0xA0 DUP3 ADD MLOAD PUSH1 0x5 DUP3 ADD SWAP1 PUSH2 0x12BD SWAP1 DUP3 PUSH2 0x4633 JUMP JUMPDEST POP PUSH1 0xC0 DUP3 ADD MLOAD PUSH1 0x6 DUP3 ADD DUP1 SLOAD PUSH1 0xFF NOT AND PUSH1 0x1 DUP4 PUSH1 0x7 DUP2 GT ISZERO PUSH2 0x12E1 JUMPI PUSH2 0x12E1 PUSH2 0x3E73 JUMP JUMPDEST MUL OR SWAP1 SSTORE POP PUSH1 0xE0 DUP3 ADD MLOAD PUSH1 0x6 SWAP2 SWAP1 SWAP2 ADD DUP1 SLOAD PUSH2 0x100 SWAP4 DUP5 ADD MLOAD PUSH2 0x100 PUSH1 0x1 PUSH1 0xB0 SHL SUB NOT SWAP1 SWAP2 AND SWAP3 ISZERO ISZERO SWAP1 SWAP4 MUL PUSH3 0x10000 PUSH1 0x1 PUSH1 0xB0 SHL SUB NOT AND SWAP2 SWAP1 SWAP2 OR PUSH3 0x10000 PUSH1 0x1 PUSH1 0x1 PUSH1 0xA0 SHL SUB SWAP4 DUP5 AND MUL OR SWAP1 SSTORE CALLER PUSH1 0x0 SWAP1 DUP2 MSTORE PUSH2 0x10A PUSH1 0x20 SWAP1 DUP2 MSTORE PUSH1 0x40 DUP1 DUP4 KECCAK256 PUSH1 0xFB DUP1 SLOAD DUP3 SLOAD PUSH1 0x1 DUP2 DUP2 ADD DUP6 SSTORE SWAP4 DUP8 MSTORE DUP6 DUP8 KECCAK256 ADD SSTORE SWAP5 DUP14 AND DUP5 MSTORE SWAP1 DUP4 KECCAK256 DUP5 SLOAD DUP2 SLOAD DUP1 DUP5 ADD DUP4 SSTORE SWAP2 DUP6 MSTORE SWAP3 DUP5 KECCAK256 ADD SWAP2 SWAP1 SWAP2 SSTORE DUP3 SLOAD SWAP1 SWAP3 SWAP2 SWAP1 PUSH2 0x1385 SWAP1 DUP5 SWAP1 PUSH2 0x4580 JUMP JUMPDEST SWAP1 SWAP2 SSTORE POP POP PUSH1 0xFB SLOAD PUSH1 0x40 MLOAD PUSH1 0x1 PUSH1 0x1 PUSH1 0xA0 SHL SUB DUP11 AND SWAP2 CALLER SWAP2 PUSH32 0x56560A52C047ED21FD801BF0F345B23D9AF696F7922FF8E63101AF5D48CADDAB SWAP1 PUSH1 0x0 SWAP1 LOG4 POP POP PUSH2 0x13CF PUSH1 0x1 PUSH1 0xC9 SSTORE JUMP JUMPDEST POP POP POP POP POP POP JUMP JUMPDEST PUSH1 0x1 PUSH1 0x1 PUSH1 0xA0 SHL SUB PUSH32 0x0 AND ADDRESS SUB PUSH2 0x141F JUMPI PUSH1 0x40 MLOAD PUSH3 0x461BCD PUSH1 0xE5 SHL DUP2 MSTORE PUSH1 0x4 ADD PUSH2 0xA1B SWAP1 PUSH2 0x46F2 JUMP JUMPDEST PUSH32 0x0 PUSH1 0x1 PUSH1 0x1 PUSH1 0xA0 SHL SUB AND PUSH2 0x1451 PUSH2 0x3247 JUMP JUMPDEST PUSH1 0x1 PUSH1 0x1 PUSH1 0xA0 SHL SUB AND EQ PUSH2 0x1477 JUMPI PUSH1 0x40 MLOAD PUSH3 0x461BCD PUSH1 0xE5 SHL DUP2 MSTORE PUSH1 0x4 ADD PUSH2 0xA1B SWAP1 PUSH2 0x472C JUMP JUMPDEST PUSH2 0x1480 DUP2 PUSH2 0x3263 JUMP JUMPDEST PUSH1 0x40 DUP1 MLOAD PUSH1 0x0 DUP1 DUP3 MSTORE PUSH1 0x20 DUP3 ADD SWAP1 SWAP3 MSTORE PUSH2 0x149C SWAP2 DUP4 SWAP2 SWAP1 PUSH2 0x326B JUMP JUMPDEST POP JUMP JUMPDEST PUSH1 0xFC SLOAD DUP5 GT ISZERO PUSH2 0x14C1 JUMPI PUSH1 0x40 MLOAD PUSH3 0x461BCD PUSH1 0xE5 SHL DUP2 MSTORE PUSH1 0x4 ADD PUSH2 0xA1B SWAP1 PUSH2 0x453A JUMP JUMPDEST PUSH1 0x0 DUP5 DUP2 MSTORE PUSH2 0x106 PUSH1 0x20 MSTORE PUSH1 0x40 DUP2 KECCAK256 SWAP1 PUSH1 0x8 DUP3 ADD SLOAD PUSH1 0xFF AND PUSH1 0x1 DUP2 GT ISZERO PUSH2 0x14EA JUMPI PUSH2 0x14EA PUSH2 0x3E73 JUMP JUMPDEST EQ PUSH2 0x1535 JUMPI PUSH1 0x40 MLOAD PUSH3 0x461BCD PUSH1 0xE5 SHL DUP2 MSTORE PUSH1 0x20 PUSH1 0x4 DUP3 ADD MSTORE PUSH1 0x1B PUSH1 0x24 DUP3 ADD MSTORE PUSH27 0x13195D995B080C48191A5CDC1D5D19481B9BDD0818DC99585D1959 PUSH1 0x2A SHL PUSH1 0x44 DUP3 ADD MSTORE PUSH1 0x64 ADD PUSH2 0xA1B JUMP JUMPDEST PUSH1 0xB DUP2 ADD SLOAD PUSH1 0xFF AND DUP1 ISZERO PUSH2 0x1555 JUMPI POP PUSH1 0x1 DUP2 ADD SLOAD PUSH1 0x1 PUSH1 0x1 PUSH1 0xA0 SHL SUB AND CALLER EQ JUMPDEST DUP1 PUSH2 0x157C JUMPI POP PUSH1 0xB DUP2 ADD SLOAD PUSH1 0xFF AND ISZERO DUP1 ISZERO PUSH2 0x157C JUMPI POP PUSH1 0x2 DUP2 ADD SLOAD PUSH1 0x1 PUSH1 0x1 PUSH1 0xA0 SHL SUB AND CALLER EQ JUMPDEST PUSH2 0x1598 JUMPI PUSH1 0x40 MLOAD PUSH3 0x461BCD PUSH1 0xE5 SHL DUP2 MSTORE PUSH1 0x4 ADD PUSH2 0xA1B SWAP1 PUSH2 0x4766 JUMP JUMPDEST PUSH2 0x15A1 DUP6 PUSH2 0x2EFE JUMP JUMPDEST DUP1 SLOAD PUSH2 0x15AE DUP2 PUSH1 0x5 PUSH2 0x3046 JUMP JUMPDEST PUSH1 0x8 DUP3 ADD DUP1 SLOAD PUSH1 0xFF NOT AND PUSH1 0x1 OR SWAP1 SSTORE PUSH2 0x13CF DUP7 DUP7 DUP7 DUP7 PUSH2 0x2F5D JUMP JUMPDEST PUSH2 0x10A PUSH1 0x20 MSTORE DUP2 PUSH1 0x0 MSTORE PUSH1 0x40 PUSH1 0x0 KECCAK256 DUP2 DUP2 SLOAD DUP2 LT PUSH2 0x15E6 JUMPI PUSH1 0x0 DUP1 REVERT JUMPDEST SWAP1 PUSH1 0x0 MSTORE PUSH1 0x20 PUSH1 0x0 KECCAK256 ADD PUSH1 0x0 SWAP2 POP SWAP2 POP POP SLOAD DUP2 JUMP JUMPDEST PUSH1 0x0 SLOAD PUSH2 0x100 SWAP1 DIV PUSH1 0xFF AND ISZERO DUP1 DUP1 ISZERO PUSH2 0x161B JUMPI POP PUSH1 0x0 SLOAD PUSH1 0x1 PUSH1 0xFF SWAP1 SWAP2 AND LT JUMPDEST DUP1 PUSH2 0x163C JUMPI POP PUSH2 0x162A ADDRESS PUSH2 0x33D6 JUMP JUMPDEST ISZERO DUP1 ISZERO PUSH2 0x163C JUMPI POP PUSH1 0x0 SLOAD PUSH1 0xFF AND PUSH1 0x1 EQ JUMPDEST PUSH2 0x169F JUMPI PUSH1 0x40 MLOAD PUSH3 0x461BCD PUSH1 0xE5 SHL DUP2 MSTORE PUSH1 0x20 PUSH1 0x4 DUP3 ADD MSTORE PUSH1 0x2E PUSH1 0x24 DUP3 ADD MSTORE PUSH32 0x496E697469616C697A61626C653A20636F6E747261637420697320616C726561 PUSH1 0x44 DUP3 ADD MSTORE PUSH14 0x191E481A5B9A5D1A585B1A5E9959 PUSH1 0x92 SHL PUSH1 0x64 DUP3 ADD MSTORE PUSH1 0x84 ADD PUSH2 0xA1B JUMP JUMPDEST PUSH1 0x0 DUP1 SLOAD PUSH1 0xFF NOT AND PUSH1 0x1 OR SWAP1 SSTORE DUP1 ISZERO PUSH2 0x16C2 JUMPI PUSH1 0x0 DUP1 SLOAD PUSH2 0xFF00 NOT AND PUSH2 0x100 OR SWAP1 SSTORE JUMPDEST PUSH2 0x16CA PUSH2 0x33E5 JUMP JUMPDEST PUSH2 0x16D2 PUSH2 0x3414 JUMP JUMPDEST PUSH2 0x100 DUP1 SLOAD PUSH1 0x1 PUSH1 0x1 PUSH1 0xA0 SHL SUB NOT SWAP1 DUP2 AND PUSH1 0x1 PUSH1 0x1 PUSH1 0xA0 SHL SUB DUP7 DUP2 AND SWAP2 DUP3 OR SWAP1 SWAP4 SSTORE PUSH2 0x102 DUP1 SLOAD DUP4 AND SWAP1 SWAP2 OR SWAP1 SSTORE PUSH2 0x101 DUP1 SLOAD SWAP1 SWAP2 AND SWAP2 DUP5 AND SWAP2 SWAP1 SWAP2 OR SWAP1 SSTORE PUSH1 0x2 PUSH1 0xFE SSTORE PUSH1 0xA PUSH1 0xFF SSTORE DUP1 ISZERO PUSH2 0x1761 JUMPI PUSH1 0x0 DUP1 SLOAD PUSH2 0xFF00 NOT AND SWAP1 SSTORE PUSH1 0x40 MLOAD PUSH1 0x1 DUP2 MSTORE PUSH32 0x7F26B83FF96E1F2B6A682F133852F6798A09C465DA95921460CEFB3847402498 SWAP1 PUSH1 0x20 ADD PUSH1 0x40 MLOAD DUP1 SWAP2 SUB SWAP1 LOG1 JUMPDEST POP POP POP JUMP JUMPDEST PUSH1 0x1 PUSH1 0x1 PUSH1 0xA0 SHL SUB PUSH32 0x0 AND ADDRESS SUB PUSH2 0x17AE JUMPI PUSH1 0x40 MLOAD PUSH3 0x461BCD PUSH1 0xE5 SHL DUP2 MSTORE PUSH1 0x4 ADD PUSH2 0xA1B SWAP1 PUSH2 0x46F2 JUMP JUMPDEST PUSH32 0x0 PUSH1 0x1 PUSH1 0x1 PUSH1 0xA0 SHL SUB AND PUSH2 0x17E0 PUSH2 0x3247 JUMP JUMPDEST PUSH1 0x1 PUSH1 0x1 PUSH1 0xA0 SHL SUB AND EQ PUSH2 0x1806 JUMPI PUSH1 0x40 MLOAD PUSH3 0x461BCD PUSH1 0xE5 SHL DUP2 MSTORE PUSH1 0x4 ADD PUSH2 0xA1B SWAP1 PUSH2 0x472C JUMP JUMPDEST PUSH2 0x180F DUP3 PUSH2 0x3263 JUMP JUMPDEST PUSH2 0x181B DUP3 DUP3 PUSH1 0x1 PUSH2 0x326B JUMP JUMPDEST POP POP JUMP JUMPDEST PUSH1 0x0 ADDRESS PUSH1 0x1 PUSH1 0x1 PUSH1 0xA0 SHL SUB PUSH32 0x0 AND EQ PUSH2 0x18BA JUMPI PUSH1 0x40 MLOAD PUSH3 0x461BCD PUSH1 0xE5 SHL DUP2 MSTORE PUSH1 0x20 PUSH1 0x4 DUP3 ADD MSTORE PUSH1 0x38 PUSH1 0x24 DUP3 ADD MSTORE PUSH32 0x555550535570677261646561626C653A206D757374206E6F742062652063616C PUSH1 0x44 DUP3 ADD MSTORE PUSH24 0x1B1959081D1A1C9BDD59DA0819195B1959D85D1958D85B1B PUSH1 0x42 SHL PUSH1 0x64 DUP3 ADD MSTORE PUSH1 0x84 ADD PUSH2 0xA1B JUMP JUMPDEST POP PUSH1 0x0 DUP1 MLOAD PUSH1 0x20 PUSH2 0x4A1B DUP4 CODECOPY DUP2 MLOAD SWAP2 MSTORE SWAP1 JUMP JUMPDEST PUSH2 0x18D5 PUSH2 0x318F JUMP JUMPDEST PUSH1 0x1 PUSH1 0x1 PUSH1 0xA0 SHL SUB DUP2 AND PUSH1 0x0 SWAP1 DUP2 MSTORE PUSH2 0x104 PUSH1 0x20 MSTORE PUSH1 0x40 SWAP1 KECCAK256 SLOAD PUSH2 0x1901 DUP3 PUSH2 0x18FB PUSH2 0x1D1C JUMP JUMPDEST DUP4 PUSH2 0x343B JUMP JUMPDEST POP PUSH1 0x1 PUSH1 0x1 PUSH1 0xA0 SHL SUB AND PUSH1 0x0 SWAP1 DUP2 MSTORE PUSH2 0x104 PUSH1 0x20 MSTORE PUSH1 0x40 DUP2 KECCAK256 SSTORE JUMP JUMPDEST PUSH2 0x106 PUSH1 0x20 MSTORE PUSH1 0x0 SWAP1 DUP2 MSTORE PUSH1 0x40 SWAP1 KECCAK256 DUP1 SLOAD PUSH1 0x1 DUP3 ADD SLOAD PUSH1 0x2 DUP4 ADD SLOAD PUSH1 0x3 DUP5 ADD SLOAD PUSH1 0x4 DUP6 ADD SLOAD PUSH1 0x5 DUP7 ADD DUP1 SLOAD SWAP6 SWAP7 PUSH1 0x1 PUSH1 0x1 PUSH1 0xA0 SHL SUB SWAP6 DUP7 AND SWAP7 SWAP6 SWAP1 SWAP5 AND SWAP5 SWAP3 SWAP4 SWAP2 SWAP3 PUSH2 0x1968 SWAP1 PUSH2 0x4500 JUMP JUMPDEST DUP1 PUSH1 0x1F ADD PUSH1 0x20 DUP1 SWAP2 DIV MUL PUSH1 0x20 ADD PUSH1 0x40 MLOAD SWAP1 DUP2 ADD PUSH1 0x40 MSTORE DUP1 SWAP3 SWAP2 SWAP1 DUP2 DUP2 MSTORE PUSH1 0x20 ADD DUP3 DUP1 SLOAD PUSH2 0x1994 SWAP1 PUSH2 0x4500 JUMP JUMPDEST DUP1 ISZERO PUSH2 0x19E1 JUMPI DUP1 PUSH1 0x1F LT PUSH2 0x19B6 JUMPI PUSH2 0x100 DUP1 DUP4 SLOAD DIV MUL DUP4 MSTORE SWAP2 PUSH1 0x20 ADD SWAP2 PUSH2 0x19E1 JUMP JUMPDEST DUP3 ADD SWAP2 SWAP1 PUSH1 0x0 MSTORE PUSH1 0x20 PUSH1 0x0 KECCAK256 SWAP1 JUMPDEST DUP2 SLOAD DUP2 MSTORE SWAP1 PUSH1 0x1 ADD SWAP1 PUSH1 0x20 ADD DUP1 DUP4 GT PUSH2 0x19C4 JUMPI DUP3 SWAP1 SUB PUSH1 0x1F AND DUP3 ADD SWAP2 JUMPDEST POP POP POP POP POP SWAP1 DUP1 PUSH1 0x6 ADD DUP1 SLOAD PUSH2 0x19F6 SWAP1 PUSH2 0x4500 JUMP JUMPDEST DUP1 PUSH1 0x1F ADD PUSH1 0x20 DUP1 SWAP2 DIV MUL PUSH1 0x20 ADD PUSH1 0x40 MLOAD SWAP1 DUP2 ADD PUSH1 0x40 MSTORE DUP1 SWAP3 SWAP2 SWAP1 DUP2 DUP2 MSTORE PUSH1 0x20 ADD DUP3 DUP1 SLOAD PUSH2 0x1A22 SWAP1 PUSH2 0x4500 JUMP JUMPDEST DUP1 ISZERO PUSH2 0x1A6F JUMPI DUP1 PUSH1 0x1F LT PUSH2 0x1A44 JUMPI PUSH2 0x100 DUP1 DUP4 SLOAD DIV MUL DUP4 MSTORE SWAP2 PUSH1 0x20 ADD SWAP2 PUSH2 0x1A6F JUMP JUMPDEST DUP3 ADD SWAP2 SWAP1 PUSH1 0x0 MSTORE PUSH1 0x20 PUSH1 0x0 KECCAK256 SWAP1 JUMPDEST DUP2 SLOAD DUP2 MSTORE SWAP1 PUSH1 0x1 ADD SWAP1 PUSH1 0x20 ADD DUP1 DUP4 GT PUSH2 0x1A52 JUMPI DUP3 SWAP1 SUB PUSH1 0x1F AND DUP3 ADD SWAP2 JUMPDEST POP POP POP PUSH1 0x7 DUP5 ADD SLOAD PUSH1 0x8 DUP6 ADD SLOAD PUSH1 0xB SWAP1 SWAP6 ADD SLOAD SWAP4 SWAP5 SWAP1 SWAP4 PUSH1 0xFF SWAP2 DUP3 AND SWAP4 POP DUP1 DUP3 AND SWAP3 POP PUSH2 0x100 SWAP1 DIV AND DUP12 JUMP JUMPDEST PUSH2 0x1AA4 DUP2 PUSH2 0x309C JUMP JUMPDEST PUSH2 0x1AAD DUP2 PUSH2 0x3100 JUMP JUMPDEST PUSH2 0x1AB8 DUP2 PUSH1 0x1 PUSH2 0x3046 JUMP JUMPDEST PUSH1 0x0 DUP2 DUP2 MSTORE PUSH2 0x105 PUSH1 0x20 MSTORE PUSH1 0x40 DUP1 DUP3 KECCAK256 PUSH1 0x6 DUP2 ADD DUP1 SLOAD PUSH1 0xFF NOT AND PUSH1 0x2 SWAP1 DUP2 OR SWAP1 SWAP2 SSTORE DUP2 ADD SLOAD PUSH1 0x1 SWAP1 SWAP2 ADD SLOAD SWAP2 MLOAD PUSH1 0x1 PUSH1 0x1 PUSH1 0xA0 SHL SUB SWAP2 DUP3 AND SWAP4 SWAP2 SWAP1 SWAP3 AND SWAP2 DUP5 SWAP2 PUSH32 0x6774E7512D62E65E414B9CC15969C36E32D465194057D4632FFD958E51821471 SWAP2 LOG4 POP JUMP JUMPDEST PUSH2 0x1B26 PUSH2 0x318F JUMP JUMPDEST PUSH1 0xFE SSTORE JUMP JUMPDEST PUSH2 0x1B34 DUP2 PUSH2 0x3541 JUMP JUMPDEST PUSH2 0x1B3D DUP2 PUSH2 0x3100 JUMP JUMPDEST PUSH2 0x1B48 DUP2 PUSH1 0x2 PUSH2 0x3046 JUMP JUMPDEST PUSH1 0x0 DUP2 DUP2 MSTORE PUSH2 0x105 PUSH1 0x20 MSTORE PUSH1 0x40 DUP2 KECCAK256 PUSH1 0x3 DUP2 ADD SLOAD PUSH1 0xFE SLOAD SWAP2 SWAP3 SWAP1 SWAP2 PUSH1 0x64 SWAP1 PUSH2 0x1B70 SWAP1 DUP5 PUSH2 0x478E JUMP JUMPDEST PUSH2 0x1B7A SWAP2 SWAP1 PUSH2 0x47A5 JUMP JUMPDEST SWAP1 POP PUSH1 0x0 PUSH2 0x1B88 DUP3 DUP5 PUSH2 0x47C7 JUMP JUMPDEST PUSH1 0x6 DUP6 ADD SLOAD SWAP1 SWAP2 POP PUSH1 0x0 SWAP1 PUSH2 0x100 SWAP1 DIV PUSH1 0xFF AND PUSH2 0x1BA6 JUMPI PUSH1 0x0 PUSH2 0x1BBB JUMP JUMPDEST PUSH1 0x6 DUP6 ADD SLOAD PUSH3 0x10000 SWAP1 DIV PUSH1 0x1 PUSH1 0x1 PUSH1 0xA0 SHL SUB AND JUMPDEST PUSH1 0x1 PUSH1 0x1 PUSH1 0xA0 SHL SUB DUP2 AND PUSH1 0x0 SWAP1 DUP2 MSTORE PUSH2 0x104 PUSH1 0x20 MSTORE PUSH1 0x40 DUP2 KECCAK256 DUP1 SLOAD SWAP3 SWAP4 POP DUP6 SWAP3 SWAP1 SWAP2 SWAP1 PUSH2 0x1BE9 SWAP1 DUP5 SWAP1 PUSH2 0x4580 JUMP JUMPDEST SWAP1 SWAP2 SSTORE POP POP PUSH1 0x6 DUP6 ADD SLOAD PUSH2 0x100 SWAP1 DIV PUSH1 0xFF AND ISZERO PUSH2 0x1C56 JUMPI PUSH1 0x1 PUSH1 0x1 PUSH1 0xA0 SHL SUB DUP2 AND PUSH1 0x0 SWAP1 DUP2 MSTORE PUSH2 0x104 PUSH1 0x20 MSTORE PUSH1 0x40 SWAP1 KECCAK256 SLOAD PUSH2 0x1C25 SWAP1 DUP3 SWAP1 PUSH2 0x35A5 JUMP JUMPDEST PUSH1 0x0 DUP7 DUP2 MSTORE PUSH2 0x105 PUSH1 0x20 SWAP1 DUP2 MSTORE PUSH1 0x40 DUP1 DUP4 KECCAK256 PUSH1 0x6 ADD SLOAD PUSH3 0x10000 SWAP1 DIV PUSH1 0x1 PUSH1 0x1 PUSH1 0xA0 SHL SUB AND DUP4 MSTORE PUSH2 0x104 SWAP1 SWAP2 MSTORE DUP2 KECCAK256 SSTORE JUMPDEST PUSH1 0x0 DUP7 DUP2 MSTORE PUSH2 0x105 PUSH1 0x20 MSTORE PUSH1 0x40 SWAP1 KECCAK256 PUSH1 0x2 ADD SLOAD PUSH2 0x1C7F SWAP1 DUP8 SWAP1 DUP5 SWAP1 PUSH1 0x1 PUSH1 0x1 PUSH1 0xA0 SHL SUB AND PUSH2 0x3138 JUMP JUMPDEST PUSH1 0x0 DUP7 DUP2 MSTORE PUSH2 0x105 PUSH1 0x20 MSTORE PUSH1 0x40 DUP1 DUP3 KECCAK256 PUSH1 0x6 DUP2 ADD DUP1 SLOAD PUSH1 0xFF NOT AND PUSH1 0x3 OR SWAP1 SSTORE PUSH1 0x2 DUP2 ADD SLOAD PUSH1 0x1 SWAP1 SWAP2 ADD SLOAD SWAP2 MLOAD PUSH1 0x1 PUSH1 0x1 PUSH1 0xA0 SHL SUB SWAP2 DUP3 AND SWAP4 SWAP2 SWAP1 SWAP3 AND SWAP2 DUP10 SWAP2 PUSH32 0x94E224B06102DBAC09BBE25B9727B78A711606F76142988AC62CEC1560980627 SWAP2 LOG4 POP POP POP POP POP POP JUMP JUMPDEST PUSH2 0x1CF1 PUSH2 0x318F JUMP JUMPDEST PUSH2 0x1CFB PUSH1 0x0 PUSH2 0x3812 JUMP JUMPDEST JUMP JUMPDEST PUSH1 0x1 PUSH1 0x1 PUSH1 0xA0 SHL SUB AND PUSH1 0x0 SWAP1 DUP2 MSTORE PUSH2 0x109 PUSH1 0x20 MSTORE PUSH1 0x40 SWAP1 KECCAK256 SLOAD PUSH1 0xFF AND SWAP1 JUMP JUMPDEST PUSH1 0x33 SLOAD PUSH1 0x1 PUSH1 0x1 PUSH1 0xA0 SHL SUB AND SWAP1 JUMP JUMPDEST PUSH2 0x1D34 DUP2 PUSH2 0x3541 JUMP JUMPDEST PUSH2 0x1D3D DUP2 PUSH2 0x3100 JUMP JUMPDEST PUSH2 0x1D48 DUP2 PUSH1 0x0 PUSH2 0x3046 JUMP JUMPDEST PUSH1 0x0 DUP2 DUP2 MSTORE PUSH2 0x105 PUSH1 0x20 MSTORE PUSH1 0x40 SWAP1 KECCAK256 PUSH1 0x6 DUP2 ADD DUP1 SLOAD PUSH1 0xFF NOT AND PUSH1 0x7 OR SWAP1 SSTORE PUSH1 0x3 DUP2 ADD SLOAD PUSH1 0x1 SWAP1 SWAP2 ADD SLOAD PUSH2 0x149C SWAP2 DUP4 SWAP2 PUSH1 0x1 PUSH1 0x1 PUSH1 0xA0 SHL SUB AND PUSH2 0x3138 JUMP JUMPDEST PUSH2 0x1D8E DUP2 PUSH2 0x309C JUMP JUMPDEST PUSH2 0x1D97 DUP2 PUSH2 0x3100 JUMP JUMPDEST PUSH2 0x1DA2 DUP2 PUSH1 0x0 PUSH2 0x3046 JUMP JUMPDEST PUSH1 0x0 DUP2 DUP2 MSTORE PUSH2 0x105 PUSH1 0x20 MSTORE PUSH1 0x40 DUP1 DUP3 KECCAK256 PUSH1 0x6 DUP2 ADD DUP1 SLOAD PUSH1 0xFF NOT AND PUSH1 0x1 SWAP1 DUP2 OR SWAP1 SWAP2 SSTORE PUSH1 0x2 DUP3 ADD SLOAD SWAP2 ADD SLOAD SWAP2 MLOAD PUSH1 0x1 PUSH1 0x1 PUSH1 0xA0 SHL SUB SWAP2 DUP3 AND SWAP4 SWAP2 SWAP1 SWAP3 AND SWAP2 DUP5 SWAP2 PUSH32 0x4E5ADB6E5811E4671A3B0BDACEB025EC957432FC5562C7CAEFC0442DD9270FF2 SWAP2 LOG4 POP JUMP JUMPDEST PUSH1 0x0 DUP2 DUP2 MSTORE PUSH2 0x106 PUSH1 0x20 SWAP1 DUP2 MSTORE PUSH1 0x40 DUP1 DUP4 KECCAK256 DUP1 SLOAD DUP5 MSTORE PUSH2 0x105 SWAP1 SWAP3 MSTORE DUP3 KECCAK256 SWAP1 SWAP2 PUSH1 0x8 DUP4 ADD SLOAD PUSH1 0xFF AND PUSH1 0x1 DUP2 GT ISZERO PUSH2 0x1E40 JUMPI PUSH2 0x1E40 PUSH2 0x3E73 JUMP JUMPDEST EQ PUSH2 0x1E83 JUMPI PUSH1 0x40 MLOAD PUSH3 0x461BCD PUSH1 0xE5 SHL DUP2 MSTORE PUSH1 0x20 PUSH1 0x4 DUP3 ADD MSTORE PUSH1 0x13 PUSH1 0x24 DUP3 ADD MSTORE PUSH19 0x111A5CDC1D5D19481B9BDD0818DC99585D1959 PUSH1 0x6A SHL PUSH1 0x44 DUP3 ADD MSTORE PUSH1 0x64 ADD PUSH2 0xA1B JUMP JUMPDEST PUSH2 0x1E8C DUP4 PUSH2 0x2EFE JUMP JUMPDEST DUP2 SLOAD PUSH2 0x1E97 SWAP1 PUSH2 0x3100 JUMP JUMPDEST DUP2 SLOAD PUSH2 0x1EA4 SWAP1 PUSH1 0x5 PUSH2 0x3046 JUMP JUMPDEST PUSH1 0xB DUP3 ADD SLOAD PUSH1 0x0 SWAP1 PUSH1 0xFF AND PUSH2 0x1EC6 JUMPI PUSH1 0x2 DUP4 ADD SLOAD PUSH1 0x1 PUSH1 0x1 PUSH1 0xA0 SHL SUB AND PUSH2 0x1ED5 JUMP JUMPDEST PUSH1 0x1 DUP4 ADD SLOAD PUSH1 0x1 PUSH1 0x1 PUSH1 0xA0 SHL SUB AND JUMPDEST SWAP1 POP CALLER PUSH1 0x1 PUSH1 0x1 PUSH1 0xA0 SHL SUB DUP3 AND EQ PUSH2 0x1EFF JUMPI PUSH1 0x40 MLOAD PUSH3 0x461BCD PUSH1 0xE5 SHL DUP2 MSTORE PUSH1 0x4 ADD PUSH2 0xA1B SWAP1 PUSH2 0x4766 JUMP JUMPDEST PUSH1 0x3 DUP3 ADD SLOAD PUSH1 0xFE SLOAD PUSH1 0x0 SWAP1 PUSH1 0x64 SWAP1 PUSH2 0x1F17 SWAP1 DUP5 PUSH2 0x478E JUMP JUMPDEST PUSH2 0x1F21 SWAP2 SWAP1 PUSH2 0x47A5 JUMP JUMPDEST SWAP1 POP PUSH1 0x0 PUSH2 0x1F2F DUP3 DUP5 PUSH2 0x47C7 JUMP JUMPDEST PUSH1 0x2 DUP8 ADD SLOAD SWAP1 SWAP2 POP PUSH1 0x0 SWAP1 PUSH1 0x1 PUSH1 0x1 PUSH1 0xA0 SHL SUB AND CALLER SUB PUSH2 0x1F72 JUMPI PUSH1 0x3 DUP8 ADD SLOAD PUSH2 0x1F58 SWAP1 DUP4 PUSH2 0x47C7 JUMP JUMPDEST SWAP1 POP PUSH2 0x1F6D DUP8 PUSH1 0x0 ADD SLOAD DUP9 PUSH1 0x3 ADD SLOAD CALLER PUSH2 0x3138 JUMP JUMPDEST PUSH2 0x1FAA JUMP JUMPDEST PUSH1 0x1 DUP8 ADD SLOAD PUSH1 0x1 PUSH1 0x1 PUSH1 0xA0 SHL SUB AND CALLER SUB PUSH2 0x1FAA JUMPI PUSH1 0x4 DUP8 ADD SLOAD PUSH2 0x1F95 SWAP1 DUP4 PUSH2 0x47C7 JUMP JUMPDEST SWAP1 POP PUSH2 0x1FAA DUP8 PUSH1 0x0 ADD SLOAD DUP9 PUSH1 0x4 ADD SLOAD CALLER PUSH2 0x3138 JUMP JUMPDEST DUP1 ISZERO PUSH2 0x1FF4 JUMPI PUSH1 0xB DUP8 ADD SLOAD PUSH1 0x0 SWAP1 PUSH1 0xFF AND PUSH2 0x1FD2 JUMPI PUSH1 0x2 DUP8 ADD SLOAD PUSH1 0x1 PUSH1 0x1 PUSH1 0xA0 SHL SUB AND PUSH2 0x1FE1 JUMP JUMPDEST PUSH1 0x1 DUP8 ADD SLOAD PUSH1 0x1 PUSH1 0x1 PUSH1 0xA0 SHL SUB AND JUMPDEST SWAP1 POP PUSH2 0x1FF2 DUP9 PUSH1 0x0 ADD SLOAD DUP4 DUP4 PUSH2 0x3138 JUMP JUMPDEST POP JUMPDEST PUSH1 0x6 DUP7 ADD SLOAD PUSH1 0x0 SWAP1 PUSH2 0x100 SWAP1 DIV PUSH1 0xFF AND PUSH2 0x200F JUMPI PUSH1 0x0 PUSH2 0x2024 JUMP JUMPDEST PUSH1 0x6 DUP8 ADD SLOAD PUSH3 0x10000 SWAP1 DIV PUSH1 0x1 PUSH1 0x1 PUSH1 0xA0 SHL SUB AND JUMPDEST PUSH1 0x1 PUSH1 0x1 PUSH1 0xA0 SHL SUB DUP2 AND PUSH1 0x0 SWAP1 DUP2 MSTORE PUSH2 0x104 PUSH1 0x20 MSTORE PUSH1 0x40 DUP2 KECCAK256 DUP1 SLOAD SWAP3 SWAP4 POP DUP7 SWAP3 SWAP1 SWAP2 SWAP1 PUSH2 0x2052 SWAP1 DUP5 SWAP1 PUSH2 0x4580 JUMP JUMPDEST SWAP1 SWAP2 SSTORE POP POP PUSH1 0x6 DUP8 ADD SLOAD PUSH2 0x100 SWAP1 DIV PUSH1 0xFF AND ISZERO PUSH2 0x20B3 JUMPI PUSH1 0x1 PUSH1 0x1 PUSH1 0xA0 SHL SUB DUP2 AND PUSH1 0x0 SWAP1 DUP2 MSTORE PUSH2 0x104 PUSH1 0x20 MSTORE PUSH1 0x40 SWAP1 KECCAK256 SLOAD PUSH2 0x208E SWAP1 DUP3 SWAP1 PUSH2 0x35A5 JUMP JUMPDEST PUSH1 0x6 DUP8 ADD SLOAD PUSH3 0x10000 SWAP1 DIV PUSH1 0x1 PUSH1 0x1 PUSH1 0xA0 SHL SUB AND PUSH1 0x0 SWAP1 DUP2 MSTORE PUSH2 0x104 PUSH1 0x20 MSTORE PUSH1 0x40 DUP2 KECCAK256 SSTORE JUMPDEST PUSH1 0x6 DUP8 ADD DUP1 SLOAD PUSH1 0xFF NOT AND PUSH1 0x7 OR SWAP1 SSTORE PUSH1 0x2 DUP8 ADD SLOAD PUSH1 0x1 DUP9 ADD SLOAD DUP10 SLOAD PUSH1 0x40 MLOAD PUSH1 0x1 PUSH1 0x1 PUSH1 0xA0 SHL SUB SWAP4 DUP5 AND SWAP4 SWAP1 SWAP3 AND SWAP2 PUSH1 0x0 DUP1 MLOAD PUSH1 0x20 PUSH2 0x4A62 DUP4 CODECOPY DUP2 MLOAD SWAP2 MSTORE SWAP1 PUSH1 0x0 SWAP1 LOG4 POP POP POP POP POP POP POP POP POP JUMP JUMPDEST PUSH1 0x0 DUP1 JUMPDEST PUSH1 0x0 DUP4 DUP2 MSTORE PUSH2 0x107 PUSH1 0x20 MSTORE PUSH1 0x40 SWAP1 KECCAK256 PUSH1 0x1 ADD SLOAD DUP2 LT ISZERO PUSH2 0x217A JUMPI PUSH1 0x0 DUP4 DUP2 MSTORE PUSH2 0x107 PUSH1 0x20 MSTORE PUSH1 0x40 SWAP1 KECCAK256 PUSH1 0x1 ADD DUP1 SLOAD CALLER SWAP2 SWAP1 DUP4 SWAP1 DUP2 LT PUSH2 0x2145 JUMPI PUSH2 0x2145 PUSH2 0x47DA JUMP JUMPDEST PUSH1 0x0 SWAP2 DUP3 MSTORE PUSH1 0x20 SWAP1 SWAP2 KECCAK256 ADD SLOAD PUSH1 0x1 PUSH1 0x1 PUSH1 0xA0 SHL SUB AND SUB PUSH2 0x2168 JUMPI POP PUSH1 0x1 SWAP3 SWAP2 POP POP JUMP JUMPDEST DUP1 PUSH2 0x2172 DUP2 PUSH2 0x47F0 JUMP JUMPDEST SWAP2 POP POP PUSH2 0x2104 JUMP JUMPDEST POP PUSH1 0x0 SWAP3 SWAP2 POP POP JUMP JUMPDEST PUSH2 0x218B PUSH2 0x318F JUMP JUMPDEST PUSH1 0xFC SLOAD DUP2 GT ISZERO PUSH2 0x21AD JUMPI PUSH1 0x40 MLOAD PUSH3 0x461BCD PUSH1 0xE5 SHL DUP2 MSTORE PUSH1 0x4 ADD PUSH2 0xA1B SWAP1 PUSH2 0x4593 JUMP JUMPDEST PUSH1 0x0 DUP2 DUP2 MSTORE PUSH2 0x106 PUSH1 0x20 DUP2 DUP2 MSTORE PUSH1 0x40 DUP1 DUP5 KECCAK256 PUSH1 0x7 DUP2 ADD SLOAD DUP2 SLOAD DUP1 DUP8 MSTORE PUSH2 0x105 DUP6 MSTORE SWAP3 DUP7 KECCAK256 PUSH1 0x3 ADD SLOAD DUP8 DUP8 MSTORE SWAP5 SWAP1 SWAP4 MSTORE PUSH1 0xB ADD SLOAD SWAP2 SWAP4 SWAP1 SWAP3 SWAP2 PUSH1 0xFF AND ISZERO PUSH2 0x2206 JUMPI POP PUSH1 0x0 DUP5 DUP2 MSTORE PUSH2 0x106 PUSH1 0x20 MSTORE PUSH1 0x40 SWAP1 KECCAK256 PUSH1 0x3 ADD SLOAD PUSH2 0x221B JUMP JUMPDEST POP PUSH1 0x0 DUP5 DUP2 MSTORE PUSH2 0x106 PUSH1 0x20 MSTORE PUSH1 0x40 SWAP1 KECCAK256 PUSH1 0x4 ADD SLOAD JUMPDEST PUSH1 0x0 PUSH1 0x64 PUSH1 0xFE SLOAD DUP5 PUSH2 0x222D SWAP2 SWAP1 PUSH2 0x478E JUMP JUMPDEST PUSH2 0x2237 SWAP2 SWAP1 PUSH2 0x47A5 JUMP JUMPDEST SWAP1 POP PUSH1 0x0 PUSH1 0x64 PUSH1 0xFF SLOAD DUP6 PUSH2 0x224B SWAP2 SWAP1 PUSH2 0x478E JUMP JUMPDEST PUSH2 0x2255 SWAP2 SWAP1 PUSH2 0x47A5 JUMP JUMPDEST SWAP1 POP PUSH1 0x0 PUSH2 0x2263 DUP3 DUP5 PUSH2 0x4580 JUMP JUMPDEST PUSH2 0x226D SWAP1 DUP7 PUSH2 0x47C7 JUMP JUMPDEST SWAP1 POP PUSH1 0x0 PUSH2 0x227B DUP6 DUP4 PUSH2 0x47C7 JUMP JUMPDEST SWAP1 POP PUSH1 0x0 PUSH2 0x228A PUSH1 0x2 DUP5 PUSH2 0x47A5 JUMP JUMPDEST PUSH1 0x0 DUP11 DUP2 MSTORE PUSH2 0x107 PUSH1 0x20 MSTORE PUSH1 0x40 SWAP1 KECCAK256 PUSH1 0x3 DUP2 ADD SLOAD PUSH1 0x2 SWAP1 SWAP2 ADD SLOAD SWAP2 SWAP3 POP SWAP1 SUB PUSH2 0x2514 JUMPI PUSH1 0x0 DUP10 DUP2 MSTORE PUSH2 0x107 PUSH1 0x20 MSTORE PUSH1 0x40 SWAP1 KECCAK256 PUSH1 0x4 ADD SLOAD PUSH4 0x1000000 SWAP1 DIV PUSH1 0xFF AND PUSH2 0x22FC JUMPI PUSH1 0x0 DUP10 DUP2 MSTORE PUSH2 0x107 PUSH1 0x20 MSTORE PUSH1 0x40 SWAP1 KECCAK256 TIMESTAMP PUSH1 0x5 DUP3 ADD SSTORE PUSH1 0x4 ADD DUP1 SLOAD PUSH4 0xFF000000 NOT AND PUSH4 0x1000000 OR SWAP1 SSTORE PUSH2 0x27ED JUMP JUMPDEST PUSH1 0x0 DUP9 DUP2 MSTORE PUSH2 0x105 PUSH1 0x20 MSTORE PUSH1 0x40 SWAP1 KECCAK256 PUSH1 0x6 ADD SLOAD PUSH2 0x100 SWAP1 DIV PUSH1 0xFF AND ISZERO PUSH2 0x23D1 JUMPI PUSH1 0x0 DUP9 DUP2 MSTORE PUSH2 0x105 PUSH1 0x20 SWAP1 DUP2 MSTORE PUSH1 0x40 DUP1 DUP4 KECCAK256 PUSH1 0x6 ADD SLOAD PUSH3 0x10000 SWAP1 DIV PUSH1 0x1 PUSH1 0x1 PUSH1 0xA0 SHL SUB AND DUP4 MSTORE PUSH2 0x104 SWAP1 SWAP2 MSTORE DUP2 KECCAK256 DUP1 SLOAD DUP8 SWAP3 SWAP1 PUSH2 0x235B SWAP1 DUP5 SWAP1 PUSH2 0x4580 JUMP JUMPDEST SWAP1 SWAP2 SSTORE POP POP PUSH1 0x0 DUP9 DUP2 MSTORE PUSH2 0x105 PUSH1 0x20 SWAP1 DUP2 MSTORE PUSH1 0x40 DUP1 DUP4 KECCAK256 PUSH1 0x6 ADD SLOAD PUSH3 0x10000 SWAP1 DIV PUSH1 0x1 PUSH1 0x1 PUSH1 0xA0 SHL SUB AND DUP1 DUP5 MSTORE PUSH2 0x104 SWAP1 SWAP3 MSTORE SWAP1 SWAP2 KECCAK256 SLOAD PUSH2 0x239C SWAP2 SWAP1 PUSH2 0x35A5 JUMP JUMPDEST PUSH1 0x0 DUP9 DUP2 MSTORE PUSH2 0x105 PUSH1 0x20 SWAP1 DUP2 MSTORE PUSH1 0x40 DUP1 DUP4 KECCAK256 PUSH1 0x6 ADD SLOAD PUSH3 0x10000 SWAP1 DIV PUSH1 0x1 PUSH1 0x1 PUSH1 0xA0 SHL SUB AND DUP4 MSTORE PUSH2 0x104 SWAP1 SWAP2 MSTORE DUP2 KECCAK256 SSTORE PUSH2 0x2401 JUMP JUMPDEST PUSH1 0x0 DUP1 DUP1 MSTORE PUSH2 0x104 PUSH1 0x20 MSTORE PUSH1 0x0 DUP1 MLOAD PUSH1 0x20 PUSH2 0x49DB DUP4 CODECOPY DUP2 MLOAD SWAP2 MSTORE DUP1 SLOAD DUP8 SWAP3 SWAP1 PUSH2 0x23FB SWAP1 DUP5 SWAP1 PUSH2 0x4580 JUMP JUMPDEST SWAP1 SWAP2 SSTORE POP POP JUMPDEST PUSH1 0x0 DUP10 DUP2 MSTORE PUSH2 0x107 PUSH1 0x20 SWAP1 DUP2 MSTORE PUSH1 0x40 DUP1 DUP4 KECCAK256 PUSH1 0x4 ADD DUP1 SLOAD PUSH3 0xFF0000 NOT AND PUSH3 0x10000 OR SWAP1 SSTORE DUP13 DUP4 MSTORE PUSH2 0x106 SWAP1 SWAP2 MSTORE SWAP1 KECCAK256 PUSH1 0x1 ADD SLOAD PUSH2 0x244A SWAP1 DUP10 SWAP1 DUP4 SWAP1 PUSH1 0x1 PUSH1 0x1 PUSH1 0xA0 SHL SUB AND PUSH2 0x3138 JUMP JUMPDEST PUSH1 0x0 DUP11 DUP2 MSTORE PUSH2 0x106 PUSH1 0x20 MSTORE PUSH1 0x40 SWAP1 KECCAK256 PUSH1 0x2 ADD SLOAD PUSH2 0x2473 SWAP1 DUP10 SWAP1 DUP4 SWAP1 PUSH1 0x1 PUSH1 0x1 PUSH1 0xA0 SHL SUB AND PUSH2 0x3138 JUMP JUMPDEST PUSH1 0x0 DUP10 DUP2 MSTORE PUSH2 0x107 PUSH1 0x20 SWAP1 DUP2 MSTORE PUSH1 0x40 SWAP2 DUP3 SWAP1 KECCAK256 PUSH1 0x1 ADD DUP1 SLOAD DUP4 MLOAD DUP2 DUP5 MUL DUP2 ADD DUP5 ADD SWAP1 SWAP5 MSTORE DUP1 DUP5 MSTORE PUSH2 0x250F SWAP4 SWAP3 DUP4 ADD DUP3 DUP3 DUP1 ISZERO PUSH2 0x24D8 JUMPI PUSH1 0x20 MUL DUP3 ADD SWAP2 SWAP1 PUSH1 0x0 MSTORE PUSH1 0x20 PUSH1 0x0 KECCAK256 SWAP1 JUMPDEST DUP2 SLOAD PUSH1 0x1 PUSH1 0x1 PUSH1 0xA0 SHL SUB AND DUP2 MSTORE PUSH1 0x1 SWAP1 SWAP2 ADD SWAP1 PUSH1 0x20 ADD DUP1 DUP4 GT PUSH2 0x24BA JUMPI JUMPDEST POP POP POP PUSH1 0x0 DUP13 DUP2 MSTORE PUSH2 0x105 PUSH1 0x20 MSTORE PUSH1 0x40 SWAP1 KECCAK256 PUSH1 0x6 ADD SLOAD DUP9 SWAP3 POP PUSH2 0x100 DUP2 DIV PUSH1 0xFF AND SWAP2 POP PUSH3 0x10000 SWAP1 DIV PUSH1 0x1 PUSH1 0x1 PUSH1 0xA0 SHL SUB AND PUSH2 0x3864 JUMP JUMPDEST PUSH2 0x27ED JUMP JUMPDEST PUSH1 0x0 DUP10 DUP2 MSTORE PUSH2 0x107 PUSH1 0x20 MSTORE PUSH1 0x40 SWAP1 KECCAK256 PUSH1 0x3 DUP2 ADD SLOAD PUSH1 0x2 SWAP1 SWAP2 ADD SLOAD GT ISZERO PUSH2 0x25B3 JUMPI PUSH1 0x0 DUP10 DUP2 MSTORE PUSH2 0x107 PUSH1 0x20 SWAP1 DUP2 MSTORE PUSH1 0x40 DUP1 DUP4 KECCAK256 PUSH1 0x4 SWAP1 DUP2 ADD DUP1 SLOAD PUSH1 0xFF NOT AND PUSH1 0x1 SWAP1 DUP2 OR SWAP1 SWAP2 SSTORE DUP15 DUP6 MSTORE PUSH2 0x106 SWAP1 SWAP4 MSTORE SWAP3 KECCAK256 SWAP2 DUP3 ADD SLOAD SWAP2 ADD SLOAD PUSH2 0x257F SWAP2 DUP11 SWAP2 PUSH1 0x1 PUSH1 0x1 PUSH1 0xA0 SHL SUB AND PUSH2 0x3138 JUMP JUMPDEST DUP2 ISZERO PUSH2 0x25AE JUMPI PUSH1 0x0 DUP11 DUP2 MSTORE PUSH2 0x106 PUSH1 0x20 MSTORE PUSH1 0x40 SWAP1 KECCAK256 PUSH1 0x2 ADD SLOAD PUSH2 0x25AE SWAP1 DUP10 SWAP1 DUP5 SWAP1 PUSH1 0x1 PUSH1 0x1 PUSH1 0xA0 SHL SUB AND PUSH2 0x3138 JUMP JUMPDEST PUSH2 0x264E JUMP JUMPDEST PUSH1 0x0 DUP10 DUP2 MSTORE PUSH2 0x107 PUSH1 0x20 MSTORE PUSH1 0x40 SWAP1 KECCAK256 PUSH1 0x3 DUP2 ADD SLOAD PUSH1 0x2 SWAP1 SWAP2 ADD SLOAD LT ISZERO PUSH2 0x264E JUMPI PUSH1 0x0 DUP10 DUP2 MSTORE PUSH2 0x107 PUSH1 0x20 SWAP1 DUP2 MSTORE PUSH1 0x40 DUP1 DUP4 KECCAK256 PUSH1 0x4 ADD DUP1 SLOAD PUSH2 0xFF00 NOT AND PUSH2 0x100 OR SWAP1 SSTORE DUP13 DUP4 MSTORE PUSH2 0x106 SWAP1 SWAP2 MSTORE SWAP1 KECCAK256 PUSH1 0x3 DUP2 ADD SLOAD PUSH1 0x2 SWAP1 SWAP2 ADD SLOAD PUSH2 0x261F SWAP2 DUP11 SWAP2 PUSH1 0x1 PUSH1 0x1 PUSH1 0xA0 SHL SUB AND PUSH2 0x3138 JUMP JUMPDEST DUP2 ISZERO PUSH2 0x264E JUMPI PUSH1 0x0 DUP11 DUP2 MSTORE PUSH2 0x106 PUSH1 0x20 MSTORE PUSH1 0x40 SWAP1 KECCAK256 PUSH1 0x2 ADD SLOAD PUSH2 0x264E SWAP1 DUP10 SWAP1 DUP5 SWAP1 PUSH1 0x1 PUSH1 0x1 PUSH1 0xA0 SHL SUB AND PUSH2 0x3138 JUMP JUMPDEST PUSH1 0x0 DUP9 DUP2 MSTORE PUSH2 0x105 PUSH1 0x20 MSTORE PUSH1 0x40 SWAP1 KECCAK256 PUSH1 0x6 ADD SLOAD PUSH2 0x100 SWAP1 DIV PUSH1 0xFF AND ISZERO PUSH2 0x2723 JUMPI PUSH1 0x0 DUP9 DUP2 MSTORE PUSH2 0x105 PUSH1 0x20 SWAP1 DUP2 MSTORE PUSH1 0x40 DUP1 DUP4 KECCAK256 PUSH1 0x6 ADD SLOAD PUSH3 0x10000 SWAP1 DIV PUSH1 0x1 PUSH1 0x1 PUSH1 0xA0 SHL SUB AND DUP4 MSTORE PUSH2 0x104 SWAP1 SWAP2 MSTORE DUP2 KECCAK256 DUP1 SLOAD DUP8 SWAP3 SWAP1 PUSH2 0x26AD SWAP1 DUP5 SWAP1 PUSH2 0x4580 JUMP JUMPDEST SWAP1 SWAP2 SSTORE POP POP PUSH1 0x0 DUP9 DUP2 MSTORE PUSH2 0x105 PUSH1 0x20 SWAP1 DUP2 MSTORE PUSH1 0x40 DUP1 DUP4 KECCAK256 PUSH1 0x6 ADD SLOAD PUSH3 0x10000 SWAP1 DIV PUSH1 0x1 PUSH1 0x1 PUSH1 0xA0 SHL SUB AND DUP1 DUP5 MSTORE PUSH2 0x104 SWAP1 SWAP3 MSTORE SWAP1 SWAP2 KECCAK256 SLOAD PUSH2 0x26EE SWAP2 SWAP1 PUSH2 0x35A5 JUMP JUMPDEST PUSH1 0x0 DUP9 DUP2 MSTORE PUSH2 0x105 PUSH1 0x20 SWAP1 DUP2 MSTORE PUSH1 0x40 DUP1 DUP4 KECCAK256 PUSH1 0x6 ADD SLOAD PUSH3 0x10000 SWAP1 DIV PUSH1 0x1 PUSH1 0x1 PUSH1 0xA0 SHL SUB AND DUP4 MSTORE PUSH2 0x104 SWAP1 SWAP2 MSTORE DUP2 KECCAK256 SSTORE PUSH2 0x2753 JUMP JUMPDEST PUSH1 0x0 DUP1 DUP1 MSTORE PUSH2 0x104 PUSH1 0x20 MSTORE PUSH1 0x0 DUP1 MLOAD PUSH1 0x20 PUSH2 0x49DB DUP4 CODECOPY DUP2 MLOAD SWAP2 MSTORE DUP1 SLOAD DUP8 SWAP3 SWAP1 PUSH2 0x274D SWAP1 DUP5 SWAP1 PUSH2 0x4580 JUMP JUMPDEST SWAP1 SWAP2 SSTORE POP POP JUMPDEST PUSH1 0x0 DUP10 DUP2 MSTORE PUSH2 0x107 PUSH1 0x20 SWAP1 DUP2 MSTORE PUSH1 0x40 SWAP2 DUP3 SWAP1 KECCAK256 PUSH1 0x1 ADD DUP1 SLOAD DUP4 MLOAD DUP2 DUP5 MUL DUP2 ADD DUP5 ADD SWAP1 SWAP5 MSTORE DUP1 DUP5 MSTORE PUSH2 0x27ED SWAP4 SWAP3 DUP4 ADD DUP3 DUP3 DUP1 ISZERO PUSH2 0x24D8 JUMPI PUSH1 0x20 MUL DUP3 ADD SWAP2 SWAP1 PUSH1 0x0 MSTORE PUSH1 0x20 PUSH1 0x0 KECCAK256 SWAP1 DUP2 SLOAD PUSH1 0x1 PUSH1 0x1 PUSH1 0xA0 SHL SUB AND DUP2 MSTORE PUSH1 0x1 SWAP1 SWAP2 ADD SWAP1 PUSH1 0x20 ADD DUP1 DUP4 GT PUSH2 0x24BA JUMPI POP POP POP PUSH1 0x0 DUP13 DUP2 MSTORE PUSH2 0x105 PUSH1 0x20 MSTORE PUSH1 0x40 SWAP1 KECCAK256 PUSH1 0x6 ADD SLOAD DUP9 SWAP3 POP PUSH2 0x100 DUP2 DIV PUSH1 0xFF AND SWAP2 POP PUSH3 0x10000 SWAP1 DIV PUSH1 0x1 PUSH1 0x1 PUSH1 0xA0 SHL SUB AND PUSH2 0x3864 JUMP JUMPDEST POP POP POP PUSH1 0x0 SWAP5 DUP6 MSTORE POP POP PUSH2 0x105 PUSH1 0x20 MSTORE POP POP PUSH1 0x40 SWAP1 KECCAK256 PUSH1 0x6 ADD DUP1 SLOAD PUSH1 0xFF NOT AND PUSH1 0x7 OR SWAP1 SSTORE POP POP JUMP JUMPDEST PUSH1 0x0 DUP2 DUP2 MSTORE PUSH2 0x106 PUSH1 0x20 SWAP1 DUP2 MSTORE PUSH1 0x40 DUP1 DUP4 KECCAK256 PUSH1 0x9 DUP2 ADD DUP1 SLOAD DUP4 MLOAD DUP2 DUP7 MUL DUP2 ADD DUP7 ADD SWAP1 SWAP5 MSTORE DUP1 DUP5 MSTORE PUSH1 0x60 SWAP6 DUP7 SWAP6 SWAP3 SWAP5 PUSH1 0xA SWAP1 SWAP5 ADD SWAP4 SWAP3 DUP6 SWAP3 SWAP2 SWAP1 DUP5 ADD JUMPDEST DUP3 DUP3 LT ISZERO PUSH2 0x28FD JUMPI DUP4 DUP3 SWAP1 PUSH1 0x0 MSTORE PUSH1 0x20 PUSH1 0x0 KECCAK256 ADD DUP1 SLOAD PUSH2 0x2870 SWAP1 PUSH2 0x4500 JUMP JUMPDEST DUP1 PUSH1 0x1F ADD PUSH1 0x20 DUP1 SWAP2 DIV MUL PUSH1 0x20 ADD PUSH1 0x40 MLOAD SWAP1 DUP2 ADD PUSH1 0x40 MSTORE DUP1 SWAP3 SWAP2 SWAP1 DUP2 DUP2 MSTORE PUSH1 0x20 ADD DUP3 DUP1 SLOAD PUSH2 0x289C SWAP1 PUSH2 0x4500 JUMP JUMPDEST DUP1 ISZERO PUSH2 0x28E9 JUMPI DUP1 PUSH1 0x1F LT PUSH2 0x28BE JUMPI PUSH2 0x100 DUP1 DUP4 SLOAD DIV MUL DUP4 MSTORE SWAP2 PUSH1 0x20 ADD SWAP2 PUSH2 0x28E9 JUMP JUMPDEST DUP3 ADD SWAP2 SWAP1 PUSH1 0x0 MSTORE PUSH1 0x20 PUSH1 0x0 KECCAK256 SWAP1 JUMPDEST DUP2 SLOAD DUP2 MSTORE SWAP1 PUSH1 0x1 ADD SWAP1 PUSH1 0x20 ADD DUP1 DUP4 GT PUSH2 0x28CC JUMPI DUP3 SWAP1 SUB PUSH1 0x1F AND DUP3 ADD SWAP2 JUMPDEST POP POP POP POP POP DUP2 MSTORE PUSH1 0x20 ADD SWAP1 PUSH1 0x1 ADD SWAP1 PUSH2 0x2851 JUMP JUMPDEST POP POP POP POP SWAP2 POP DUP1 DUP1 SLOAD DUP1 PUSH1 0x20 MUL PUSH1 0x20 ADD PUSH1 0x40 MLOAD SWAP1 DUP2 ADD PUSH1 0x40 MSTORE DUP1 SWAP3 SWAP2 SWAP1 DUP2 DUP2 MSTORE PUSH1 0x20 ADD PUSH1 0x0 SWAP1 JUMPDEST DUP3 DUP3 LT ISZERO PUSH2 0x29D0 JUMPI DUP4 DUP3 SWAP1 PUSH1 0x0 MSTORE PUSH1 0x20 PUSH1 0x0 KECCAK256 ADD DUP1 SLOAD PUSH2 0x2943 SWAP1 PUSH2 0x4500 JUMP JUMPDEST DUP1 PUSH1 0x1F ADD PUSH1 0x20 DUP1 SWAP2 DIV MUL PUSH1 0x20 ADD PUSH1 0x40 MLOAD SWAP1 DUP2 ADD PUSH1 0x40 MSTORE DUP1 SWAP3 SWAP2 SWAP1 DUP2 DUP2 MSTORE PUSH1 0x20 ADD DUP3 DUP1 SLOAD PUSH2 0x296F SWAP1 PUSH2 0x4500 JUMP JUMPDEST DUP1 ISZERO PUSH2 0x29BC JUMPI DUP1 PUSH1 0x1F LT PUSH2 0x2991 JUMPI PUSH2 0x100 DUP1 DUP4 SLOAD DIV MUL DUP4 MSTORE SWAP2 PUSH1 0x20 ADD SWAP2 PUSH2 0x29BC JUMP JUMPDEST DUP3 ADD SWAP2 SWAP1 PUSH1 0x0 MSTORE PUSH1 0x20 PUSH1 0x0 KECCAK256 SWAP1 JUMPDEST DUP2 SLOAD DUP2 MSTORE SWAP1 PUSH1 0x1 ADD SWAP1 PUSH1 0x20 ADD DUP1 DUP4 GT PUSH2 0x299F JUMPI DUP3 SWAP1 SUB PUSH1 0x1F AND DUP3 ADD SWAP2 JUMPDEST POP POP POP POP POP DUP2 MSTORE PUSH1 0x20 ADD SWAP1 PUSH1 0x1 ADD SWAP1 PUSH2 0x2924 JUMP JUMPDEST POP POP POP POP SWAP1 POP SWAP2 POP SWAP2 POP SWAP2 POP SWAP2 JUMP JUMPDEST PUSH2 0x29E7 PUSH2 0x318F JUMP JUMPDEST PUSH1 0x0 JUMPDEST DUP2 MLOAD DUP2 LT ISZERO PUSH2 0x181B JUMPI PUSH1 0x1 PUSH2 0x109 PUSH1 0x0 DUP5 DUP5 DUP2 MLOAD DUP2 LT PUSH2 0x2A0C JUMPI PUSH2 0x2A0C PUSH2 0x47DA JUMP JUMPDEST PUSH1 0x20 SWAP1 DUP2 MUL SWAP2 SWAP1 SWAP2 ADD DUP2 ADD MLOAD PUSH1 0x1 PUSH1 0x1 PUSH1 0xA0 SHL SUB AND DUP3 MSTORE DUP2 ADD SWAP2 SWAP1 SWAP2 MSTORE PUSH1 0x40 ADD PUSH1 0x0 KECCAK256 DUP1 SLOAD PUSH1 0xFF NOT AND SWAP2 ISZERO ISZERO SWAP2 SWAP1 SWAP2 OR SWAP1 SSTORE DUP1 PUSH2 0x2A48 DUP2 PUSH2 0x47F0 JUMP JUMPDEST SWAP2 POP POP PUSH2 0x29EA JUMP JUMPDEST PUSH2 0x2A58 PUSH2 0x318F JUMP JUMPDEST PUSH2 0x103 DUP1 SLOAD PUSH1 0x1 PUSH1 0x1 PUSH1 0xA0 SHL SUB NOT AND PUSH1 0x1 PUSH1 0x1 PUSH1 0xA0 SHL SUB SWAP3 SWAP1 SWAP3 AND SWAP2 SWAP1 SWAP2 OR SWAP1 SSTORE JUMP JUMPDEST PUSH1 0x0 DUP4 DUP2 MSTORE PUSH2 0x105 PUSH1 0x20 MSTORE PUSH1 0x40 SWAP1 KECCAK256 PUSH1 0x2 ADD SLOAD PUSH1 0x1 PUSH1 0x1 PUSH1 0xA0 SHL SUB AND CALLER EQ DUP1 PUSH2 0x2ABE JUMPI POP PUSH1 0x0 DUP4 DUP2 MSTORE PUSH2 0x105 PUSH1 0x20 MSTORE PUSH1 0x40 SWAP1 KECCAK256 PUSH1 0x1 ADD SLOAD PUSH1 0x1 PUSH1 0x1 PUSH1 0xA0 SHL SUB AND CALLER EQ JUMPDEST PUSH2 0x2ADA JUMPI PUSH1 0x40 MLOAD PUSH3 0x461BCD PUSH1 0xE5 SHL DUP2 MSTORE PUSH1 0x4 ADD PUSH2 0xA1B SWAP1 PUSH2 0x4766 JUMP JUMPDEST PUSH2 0x2AE3 DUP4 PUSH2 0x3100 JUMP JUMPDEST PUSH1 0x1 PUSH1 0x0 DUP5 DUP2 MSTORE PUSH2 0x105 PUSH1 0x20 MSTORE PUSH1 0x40 SWAP1 KECCAK256 PUSH1 0x6 ADD SLOAD PUSH1 0xFF AND PUSH1 0x7 DUP2 GT ISZERO PUSH2 0x2B0C JUMPI PUSH2 0x2B0C PUSH2 0x3E73 JUMP JUMPDEST EQ DUP1 PUSH2 0x2B3E JUMPI POP PUSH1 0x2 PUSH1 0x0 DUP5 DUP2 MSTORE PUSH2 0x105 PUSH1 0x20 MSTORE PUSH1 0x40 SWAP1 KECCAK256 PUSH1 0x6 ADD SLOAD PUSH1 0xFF AND PUSH1 0x7 DUP2 GT ISZERO PUSH2 0x2B3C JUMPI PUSH2 0x2B3C PUSH2 0x3E73 JUMP JUMPDEST EQ JUMPDEST PUSH2 0x2B5A JUMPI PUSH1 0x40 MLOAD PUSH3 0x461BCD PUSH1 0xE5 SHL DUP2 MSTORE PUSH1 0x4 ADD PUSH2 0xA1B SWAP1 PUSH2 0x4809 JUMP JUMPDEST PUSH1 0x0 DUP4 DUP2 MSTORE PUSH2 0x105 PUSH1 0x20 MSTORE PUSH1 0x40 SWAP1 KECCAK256 PUSH1 0x6 ADD DUP1 SLOAD PUSH1 0xFF NOT AND PUSH1 0x5 OR SWAP1 SSTORE PUSH1 0x60 DUP1 PUSH2 0x2B82 PUSH2 0x3CBD JUMP JUMPDEST PUSH1 0x0 DUP7 DUP2 MSTORE PUSH2 0x105 PUSH1 0x20 MSTORE PUSH1 0x40 SWAP1 KECCAK256 PUSH1 0x2 ADD SLOAD PUSH1 0x1 PUSH1 0x1 PUSH1 0xA0 SHL SUB AND CALLER SUB PUSH2 0x2C44 JUMPI PUSH1 0x40 DUP1 MLOAD PUSH2 0x1A0 DUP2 ADD DUP3 MSTORE DUP8 DUP2 MSTORE PUSH1 0x0 DUP9 DUP2 MSTORE PUSH2 0x105 PUSH1 0x20 DUP2 DUP2 MSTORE DUP5 DUP4 KECCAK256 PUSH1 0x1 DUP2 ADD SLOAD PUSH1 0x1 PUSH1 0x1 PUSH1 0xA0 SHL SUB SWAP1 DUP2 AND DUP4 DUP8 ADD MSTORE DUP13 DUP6 MSTORE SWAP3 DUP3 MSTORE PUSH1 0x2 ADD SLOAD SWAP1 SWAP2 AND DUP4 DUP6 ADD MSTORE PUSH1 0x60 DUP4 ADD DUP10 SWAP1 MSTORE PUSH1 0x80 DUP4 ADD DUP3 SWAP1 MSTORE DUP4 MLOAD SWAP1 DUP2 ADD SWAP1 SWAP4 MSTORE DUP1 DUP4 MSTORE PUSH1 0xA0 DUP3 ADD SWAP3 SWAP1 SWAP3 MSTORE PUSH1 0xC0 DUP2 ADD DUP7 SWAP1 MSTORE PUSH1 0xFD SLOAD PUSH1 0xE0 DUP3 ADD MSTORE SWAP1 PUSH2 0x100 DUP3 ADD SWAP1 DUP2 MSTORE PUSH1 0x20 DUP2 ADD DUP5 SWAP1 MSTORE PUSH1 0x40 DUP2 ADD DUP6 SWAP1 MSTORE PUSH1 0x1 PUSH1 0x60 DUP3 ADD MSTORE PUSH1 0x0 PUSH1 0x80 SWAP1 SWAP2 ADD MSTORE SWAP1 POP PUSH2 0x2CE2 JUMP JUMPDEST POP PUSH1 0x40 DUP1 MLOAD PUSH2 0x1A0 DUP2 ADD DUP3 MSTORE DUP7 DUP2 MSTORE PUSH1 0x0 DUP8 DUP2 MSTORE PUSH2 0x105 PUSH1 0x20 DUP2 DUP2 MSTORE DUP5 DUP4 KECCAK256 PUSH1 0x1 DUP2 ADD SLOAD PUSH1 0x1 PUSH1 0x1 PUSH1 0xA0 SHL SUB SWAP1 DUP2 AND DUP4 DUP8 ADD MSTORE DUP12 DUP6 MSTORE SWAP3 DUP3 MSTORE PUSH1 0x2 ADD SLOAD SWAP1 SWAP2 AND DUP4 DUP6 ADD MSTORE PUSH1 0x60 DUP4 ADD DUP3 SWAP1 MSTORE PUSH1 0x80 DUP4 ADD DUP9 SWAP1 MSTORE PUSH1 0xA0 DUP4 ADD DUP8 SWAP1 MSTORE DUP4 MLOAD SWAP1 DUP2 ADD SWAP1 SWAP4 MSTORE DUP1 DUP4 MSTORE PUSH1 0xC0 DUP3 ADD SWAP3 SWAP1 SWAP3 MSTORE PUSH1 0xFD SLOAD PUSH1 0xE0 DUP3 ADD MSTORE PUSH2 0x100 DUP2 ADD DUP3 SWAP1 MSTORE PUSH2 0x120 DUP2 ADD DUP4 SWAP1 MSTORE PUSH2 0x140 DUP2 ADD DUP5 SWAP1 MSTORE PUSH2 0x160 DUP2 ADD DUP3 SWAP1 MSTORE PUSH2 0x180 DUP2 ADD SWAP2 SWAP1 SWAP2 MSTORE JUMPDEST PUSH1 0xFC SLOAD PUSH1 0x0 SWAP1 DUP2 MSTORE PUSH2 0x106 PUSH1 0x20 SWAP1 DUP2 MSTORE PUSH1 0x40 SWAP2 DUP3 SWAP1 KECCAK256 DUP4 MLOAD DUP2 SSTORE SWAP1 DUP4 ADD MLOAD PUSH1 0x1 DUP3 ADD DUP1 SLOAD PUSH1 0x1 PUSH1 0x1 PUSH1 0xA0 SHL SUB NOT SWAP1 DUP2 AND PUSH1 0x1 PUSH1 0x1 PUSH1 0xA0 SHL SUB SWAP4 DUP5 AND OR SWAP1 SWAP2 SSTORE SWAP3 DUP5 ADD MLOAD PUSH1 0x2 DUP4 ADD DUP1 SLOAD SWAP1 SWAP5 AND SWAP2 AND OR SWAP1 SWAP2 SSTORE PUSH1 0x60 DUP3 ADD MLOAD PUSH1 0x3 DUP3 ADD SSTORE PUSH1 0x80 DUP3 ADD MLOAD PUSH1 0x4 DUP3 ADD SSTORE PUSH1 0xA0 DUP3 ADD MLOAD DUP3 SWAP2 SWAP1 PUSH1 0x5 DUP3 ADD SWAP1 PUSH2 0x2D5F SWAP1 DUP3 PUSH2 0x4633 JUMP JUMPDEST POP PUSH1 0xC0 DUP3 ADD MLOAD PUSH1 0x6 DUP3 ADD SWAP1 PUSH2 0x2D74 SWAP1 DUP3 PUSH2 0x4633 JUMP JUMPDEST POP PUSH1 0xE0 DUP3 ADD MLOAD PUSH1 0x7 DUP3 ADD SSTORE PUSH2 0x100 DUP3 ADD MLOAD PUSH1 0x8 DUP3 ADD DUP1 SLOAD PUSH1 0xFF NOT AND PUSH1 0x1 DUP4 DUP2 DUP2 GT ISZERO PUSH2 0x2DA2 JUMPI PUSH2 0x2DA2 PUSH2 0x3E73 JUMP JUMPDEST MUL OR SWAP1 SSTORE POP PUSH2 0x120 DUP3 ADD MLOAD DUP1 MLOAD PUSH2 0x2DC3 SWAP2 PUSH1 0x9 DUP5 ADD SWAP2 PUSH1 0x20 SWAP1 SWAP2 ADD SWAP1 PUSH2 0x3D4C JUMP JUMPDEST POP PUSH2 0x140 DUP3 ADD MLOAD DUP1 MLOAD PUSH2 0x2DE0 SWAP2 PUSH1 0xA DUP5 ADD SWAP2 PUSH1 0x20 SWAP1 SWAP2 ADD SWAP1 PUSH2 0x3D4C JUMP JUMPDEST POP PUSH2 0x160 DUP3 ADD MLOAD PUSH1 0xB SWAP1 SWAP2 ADD DUP1 SLOAD PUSH2 0x180 SWAP1 SWAP4 ADD MLOAD ISZERO ISZERO PUSH2 0x100 MUL PUSH2 0xFF00 NOT SWAP3 ISZERO ISZERO SWAP3 SWAP1 SWAP3 AND PUSH2 0xFFFF NOT SWAP1 SWAP4 AND SWAP3 SWAP1 SWAP3 OR OR SWAP1 SSTORE PUSH1 0xFC DUP1 SLOAD PUSH1 0x1 SWAP2 SWAP1 PUSH1 0x0 SWAP1 PUSH2 0x2E2A SWAP1 DUP5 SWAP1 PUSH2 0x4580 JUMP JUMPDEST SWAP1 SWAP2 SSTORE POP POP POP POP POP POP POP POP JUMP JUMPDEST PUSH2 0x2E3F PUSH2 0x318F JUMP JUMPDEST PUSH1 0x0 DUP1 MSTORE PUSH2 0x104 PUSH1 0x20 MSTORE PUSH1 0x0 DUP1 MLOAD PUSH1 0x20 PUSH2 0x49DB DUP4 CODECOPY DUP2 MLOAD SWAP2 MSTORE SLOAD PUSH2 0x2E6A PUSH2 0x2E64 PUSH2 0x1D1C JUMP JUMPDEST DUP3 PUSH2 0x3912 JUMP JUMPDEST POP PUSH1 0x0 DUP1 DUP1 MSTORE PUSH2 0x104 PUSH1 0x20 MSTORE PUSH1 0x0 DUP1 MLOAD PUSH1 0x20 PUSH2 0x49DB DUP4 CODECOPY DUP2 MLOAD SWAP2 MSTORE SSTORE JUMP JUMPDEST PUSH2 0x2E90 PUSH2 0x318F JUMP JUMPDEST PUSH1 0x1 PUSH1 0x1 PUSH1 0xA0 SHL SUB DUP2 AND PUSH2 0x2EF5 JUMPI PUSH1 0x40 MLOAD PUSH3 0x461BCD PUSH1 0xE5 SHL DUP2 MSTORE PUSH1 0x20 PUSH1 0x4 DUP3 ADD MSTORE PUSH1 0x26 PUSH1 0x24 DUP3 ADD MSTORE PUSH32 0x4F776E61626C653A206E6577206F776E657220697320746865207A65726F2061 PUSH1 0x44 DUP3 ADD MSTORE PUSH6 0x646472657373 PUSH1 0xD0 SHL PUSH1 0x64 DUP3 ADD MSTORE PUSH1 0x84 ADD PUSH2 0xA1B JUMP JUMPDEST PUSH2 0x149C DUP2 PUSH2 0x3812 JUMP JUMPDEST PUSH1 0x0 DUP2 DUP2 MSTORE PUSH2 0x106 PUSH1 0x20 MSTORE PUSH1 0x40 SWAP1 KECCAK256 PUSH1 0x2 ADD SLOAD PUSH1 0x1 PUSH1 0x1 PUSH1 0xA0 SHL SUB AND CALLER EQ DUP1 PUSH2 0x2F41 JUMPI POP PUSH1 0x0 DUP2 DUP2 MSTORE PUSH2 0x106 PUSH1 0x20 MSTORE PUSH1 0x40 SWAP1 KECCAK256 PUSH1 0x1 ADD SLOAD PUSH1 0x1 PUSH1 0x1 PUSH1 0xA0 SHL SUB AND CALLER EQ JUMPDEST PUSH2 0x149C JUMPI PUSH1 0x40 MLOAD PUSH3 0x461BCD PUSH1 0xE5 SHL DUP2 MSTORE PUSH1 0x4 ADD PUSH2 0xA1B SWAP1 PUSH2 0x4766 JUMP JUMPDEST PUSH2 0x2F66 DUP5 PUSH2 0x2EFE JUMP JUMPDEST PUSH1 0x0 DUP5 DUP2 MSTORE PUSH2 0x106 PUSH1 0x20 MSTORE PUSH1 0x40 SWAP1 KECCAK256 PUSH1 0x2 ADD SLOAD PUSH1 0x1 PUSH1 0x1 PUSH1 0xA0 SHL SUB AND CALLER SUB PUSH2 0x2FE6 JUMPI PUSH1 0x0 DUP5 DUP2 MSTORE PUSH2 0x106 PUSH1 0x20 SWAP1 DUP2 MSTORE PUSH1 0x40 SWAP1 SWAP2 KECCAK256 DUP3 MLOAD PUSH2 0x2FAE SWAP3 PUSH1 0xA SWAP1 SWAP3 ADD SWAP2 DUP5 ADD SWAP1 PUSH2 0x3D4C JUMP JUMPDEST POP PUSH1 0x0 DUP5 DUP2 MSTORE PUSH2 0x106 PUSH1 0x20 MSTORE PUSH1 0x40 SWAP1 KECCAK256 PUSH1 0x6 ADD PUSH2 0x2FCB DUP4 DUP3 PUSH2 0x4633 JUMP JUMPDEST POP PUSH1 0x0 DUP5 DUP2 MSTORE PUSH2 0x106 PUSH1 0x20 MSTORE PUSH1 0x40 SWAP1 KECCAK256 PUSH1 0x3 ADD DUP4 SWAP1 SSTORE PUSH2 0x3040 JUMP JUMPDEST PUSH1 0x0 DUP5 DUP2 MSTORE PUSH2 0x106 PUSH1 0x20 SWAP1 DUP2 MSTORE PUSH1 0x40 SWAP1 SWAP2 KECCAK256 DUP3 MLOAD PUSH2 0x300C SWAP3 PUSH1 0x9 SWAP1 SWAP3 ADD SWAP2 DUP5 ADD SWAP1 PUSH2 0x3D4C JUMP JUMPDEST POP PUSH1 0x0 DUP5 DUP2 MSTORE PUSH2 0x106 PUSH1 0x20 MSTORE PUSH1 0x40 SWAP1 KECCAK256 PUSH1 0x5 ADD PUSH2 0x3029 DUP4 DUP3 PUSH2 0x4633 JUMP JUMPDEST POP PUSH1 0x0 DUP5 DUP2 MSTORE PUSH2 0x106 PUSH1 0x20 MSTORE PUSH1 0x40 SWAP1 KECCAK256 PUSH1 0x4 ADD DUP4 SWAP1 SSTORE JUMPDEST POP POP POP POP JUMP JUMPDEST DUP1 PUSH1 0x7 DUP2 GT ISZERO PUSH2 0x3058 JUMPI PUSH2 0x3058 PUSH2 0x3E73 JUMP JUMPDEST PUSH1 0x0 DUP4 DUP2 MSTORE PUSH2 0x105 PUSH1 0x20 MSTORE PUSH1 0x40 SWAP1 KECCAK256 PUSH1 0x6 ADD SLOAD PUSH1 0xFF AND PUSH1 0x7 DUP2 GT ISZERO PUSH2 0x307F JUMPI PUSH2 0x307F PUSH2 0x3E73 JUMP JUMPDEST EQ PUSH2 0x181B JUMPI PUSH1 0x40 MLOAD PUSH3 0x461BCD PUSH1 0xE5 SHL DUP2 MSTORE PUSH1 0x4 ADD PUSH2 0xA1B SWAP1 PUSH2 0x4809 JUMP JUMPDEST PUSH1 0x0 DUP2 DUP2 MSTORE PUSH2 0x105 PUSH1 0x20 MSTORE PUSH1 0x40 SWAP1 KECCAK256 PUSH1 0x2 ADD SLOAD PUSH1 0x1 PUSH1 0x1 PUSH1 0xA0 SHL SUB AND CALLER EQ PUSH2 0x149C JUMPI PUSH1 0x40 MLOAD PUSH3 0x461BCD PUSH1 0xE5 SHL DUP2 MSTORE PUSH1 0x20 PUSH1 0x4 DUP3 ADD MSTORE PUSH1 0x17 PUSH1 0x24 DUP3 ADD MSTORE PUSH23 0x6E6F7420617574686F72697A65642041737369676E6565 PUSH1 0x48 SHL PUSH1 0x44 DUP3 ADD MSTORE PUSH1 0x64 ADD PUSH2 0xA1B JUMP JUMPDEST PUSH1 0xFB SLOAD DUP2 GT ISZERO PUSH2 0x149C JUMPI PUSH1 0x40 MLOAD PUSH3 0x461BCD PUSH1 0xE5 SHL DUP2 MSTORE PUSH1 0x20 PUSH1 0x4 DUP3 ADD MSTORE PUSH1 0x3 PUSH1 0x24 DUP3 ADD MSTORE PUSH3 0x434E45 PUSH1 0xE8 SHL PUSH1 0x44 DUP3 ADD MSTORE PUSH1 0x64 ADD PUSH2 0xA1B JUMP JUMPDEST PUSH1 0x0 DUP4 DUP2 MSTORE PUSH2 0x105 PUSH1 0x20 MSTORE PUSH1 0x40 SWAP1 KECCAK256 PUSH1 0x6 ADD SLOAD PUSH2 0x100 SWAP1 DIV PUSH1 0xFF AND ISZERO PUSH2 0x3185 JUMPI PUSH1 0x0 DUP4 DUP2 MSTORE PUSH2 0x105 PUSH1 0x20 MSTORE PUSH1 0x40 SWAP1 KECCAK256 PUSH1 0x6 ADD SLOAD PUSH2 0x1761 SWAP1 PUSH3 0x10000 SWAP1 DIV PUSH1 0x1 PUSH1 0x1 PUSH1 0xA0 SHL SUB AND DUP3 DUP5 PUSH2 0x343B JUMP JUMPDEST PUSH2 0x1761 DUP2 DUP4 PUSH2 0x3912 JUMP JUMPDEST CALLER PUSH2 0x3198 PUSH2 0x1D1C JUMP JUMPDEST PUSH1 0x1 PUSH1 0x1 PUSH1 0xA0 SHL SUB AND EQ PUSH2 0x1CFB JUMPI PUSH1 0x40 MLOAD PUSH3 0x461BCD PUSH1 0xE5 SHL DUP2 MSTORE PUSH1 0x20 PUSH1 0x4 DUP3 ADD DUP2 SWAP1 MSTORE PUSH1 0x24 DUP3 ADD MSTORE PUSH32 0x4F776E61626C653A2063616C6C6572206973206E6F7420746865206F776E6572 PUSH1 0x44 DUP3 ADD MSTORE PUSH1 0x64 ADD PUSH2 0xA1B JUMP JUMPDEST PUSH1 0x2 PUSH1 0xC9 SLOAD SUB PUSH2 0x3240 JUMPI PUSH1 0x40 MLOAD PUSH3 0x461BCD PUSH1 0xE5 SHL DUP2 MSTORE PUSH1 0x20 PUSH1 0x4 DUP3 ADD MSTORE PUSH1 0x1F PUSH1 0x24 DUP3 ADD MSTORE PUSH32 0x5265656E7472616E637947756172643A207265656E7472616E742063616C6C00 PUSH1 0x44 DUP3 ADD MSTORE PUSH1 0x64 ADD PUSH2 0xA1B JUMP JUMPDEST PUSH1 0x2 PUSH1 0xC9 SSTORE JUMP JUMPDEST PUSH1 0x0 DUP1 MLOAD PUSH1 0x20 PUSH2 0x4A1B DUP4 CODECOPY DUP2 MLOAD SWAP2 MSTORE SLOAD PUSH1 0x1 PUSH1 0x1 PUSH1 0xA0 SHL SUB AND SWAP1 JUMP JUMPDEST PUSH2 0x149C PUSH2 0x318F JUMP JUMPDEST PUSH32 0x4910FDFA16FED3260ED0E7147F7CC6DA11A60208B5B9406D12A635614FFD9143 SLOAD PUSH1 0xFF AND ISZERO PUSH2 0x329E JUMPI PUSH2 0x1761 DUP4 PUSH2 0x39DA JUMP JUMPDEST DUP3 PUSH1 0x1 PUSH1 0x1 PUSH1 0xA0 SHL SUB AND PUSH4 0x52D1902D PUSH1 0x40 MLOAD DUP2 PUSH4 0xFFFFFFFF AND PUSH1 0xE0 SHL DUP2 MSTORE PUSH1 0x4 ADD PUSH1 0x20 PUSH1 0x40 MLOAD DUP1 DUP4 SUB DUP2 DUP7 GAS STATICCALL SWAP3 POP POP POP DUP1 ISZERO PUSH2 0x32F8 JUMPI POP PUSH1 0x40 DUP1 MLOAD PUSH1 0x1F RETURNDATASIZE SWAP1 DUP2 ADD PUSH1 0x1F NOT AND DUP3 ADD SWAP1 SWAP3 MSTORE PUSH2 0x32F5 SWAP2 DUP2 ADD SWAP1 PUSH2 0x45B0 JUMP JUMPDEST PUSH1 0x1 JUMPDEST PUSH2 0x335B JUMPI PUSH1 0x40 MLOAD PUSH3 0x461BCD PUSH1 0xE5 SHL DUP2 MSTORE PUSH1 0x20 PUSH1 0x4 DUP3 ADD MSTORE PUSH1 0x2E PUSH1 0x24 DUP3 ADD MSTORE PUSH32 0x45524331393637557067726164653A206E657720696D706C656D656E74617469 PUSH1 0x44 DUP3 ADD MSTORE PUSH14 0x6F6E206973206E6F742055555053 PUSH1 0x90 SHL PUSH1 0x64 DUP3 ADD MSTORE PUSH1 0x84 ADD PUSH2 0xA1B JUMP JUMPDEST PUSH1 0x0 DUP1 MLOAD PUSH1 0x20 PUSH2 0x4A1B DUP4 CODECOPY DUP2 MLOAD SWAP2 MSTORE DUP2 EQ PUSH2 0x33CA JUMPI PUSH1 0x40 MLOAD PUSH3 0x461BCD PUSH1 0xE5 SHL DUP2 MSTORE PUSH1 0x20 PUSH1 0x4 DUP3 ADD MSTORE PUSH1 0x29 PUSH1 0x24 DUP3 ADD MSTORE PUSH32 0x45524331393637557067726164653A20756E737570706F727465642070726F78 PUSH1 0x44 DUP3 ADD MSTORE PUSH9 0x1A58589B1955555251 PUSH1 0xBA SHL PUSH1 0x64 DUP3 ADD MSTORE PUSH1 0x84 ADD PUSH2 0xA1B JUMP JUMPDEST POP PUSH2 0x1761 DUP4 DUP4 DUP4 PUSH2 0x3A74 JUMP JUMPDEST PUSH1 0x1 PUSH1 0x1 PUSH1 0xA0 SHL SUB AND EXTCODESIZE ISZERO ISZERO SWAP1 JUMP JUMPDEST PUSH1 0x0 SLOAD PUSH2 0x100 SWAP1 DIV PUSH1 0xFF AND PUSH2 0x340C JUMPI PUSH1 0x40 MLOAD PUSH3 0x461BCD PUSH1 0xE5 SHL DUP2 MSTORE PUSH1 0x4 ADD PUSH2 0xA1B SWAP1 PUSH2 0x482F JUMP JUMPDEST PUSH2 0x1CFB PUSH2 0x3A99 JUMP JUMPDEST PUSH1 0x0 SLOAD PUSH2 0x100 SWAP1 DIV PUSH1 0xFF AND PUSH2 0x1CFB JUMPI PUSH1 0x40 MLOAD PUSH3 0x461BCD PUSH1 0xE5 SHL DUP2 MSTORE PUSH1 0x4 ADD PUSH2 0xA1B SWAP1 PUSH2 0x482F JUMP JUMPDEST PUSH1 0x40 MLOAD PUSH4 0x70A08231 PUSH1 0xE0 SHL DUP2 MSTORE DUP4 SWAP1 PUSH1 0x1 PUSH1 0x1 PUSH1 0xA0 SHL SUB DUP3 AND SWAP1 PUSH4 0x70A08231 SWAP1 PUSH2 0x3469 SWAP1 ADDRESS SWAP1 PUSH1 0x4 ADD PUSH2 0x40DE JUMP JUMPDEST PUSH1 0x20 PUSH1 0x40 MLOAD DUP1 DUP4 SUB DUP2 DUP7 GAS STATICCALL ISZERO DUP1 ISZERO PUSH2 0x3486 JUMPI RETURNDATASIZE PUSH1 0x0 DUP1 RETURNDATACOPY RETURNDATASIZE PUSH1 0x0 REVERT JUMPDEST POP POP POP POP PUSH1 0x40 MLOAD RETURNDATASIZE PUSH1 0x1F NOT PUSH1 0x1F DUP3 ADD AND DUP3 ADD DUP1 PUSH1 0x40 MSTORE POP DUP2 ADD SWAP1 PUSH2 0x34AA SWAP2 SWAP1 PUSH2 0x45B0 JUMP JUMPDEST DUP3 GT ISZERO PUSH2 0x34C9 JUMPI PUSH1 0x40 MLOAD PUSH3 0x461BCD PUSH1 0xE5 SHL DUP2 MSTORE PUSH1 0x4 ADD PUSH2 0xA1B SWAP1 PUSH2 0x487A JUMP JUMPDEST PUSH1 0x40 MLOAD PUSH4 0xA9059CBB PUSH1 0xE0 SHL DUP2 MSTORE PUSH1 0x1 PUSH1 0x1 PUSH1 0xA0 SHL SUB DUP3 AND SWAP1 PUSH4 0xA9059CBB SWAP1 PUSH2 0x34F7 SWAP1 DUP7 SWAP1 DUP7 SWAP1 PUSH1 0x4 ADD PUSH2 0x489C JUMP JUMPDEST PUSH1 0x20 PUSH1 0x40 MLOAD DUP1 DUP4 SUB DUP2 PUSH1 0x0 DUP8 GAS CALL ISZERO DUP1 ISZERO PUSH2 0x3516 JUMPI RETURNDATASIZE PUSH1 0x0 DUP1 RETURNDATACOPY RETURNDATASIZE PUSH1 0x0 REVERT JUMPDEST POP POP POP POP PUSH1 0x40 MLOAD RETURNDATASIZE PUSH1 0x1F NOT PUSH1 0x1F DUP3 ADD AND DUP3 ADD DUP1 PUSH1 0x40 MSTORE POP DUP2 ADD SWAP1 PUSH2 0x353A SWAP2 SWAP1 PUSH2 0x45C9 JUMP JUMPDEST POP POP POP POP POP JUMP JUMPDEST PUSH1 0x0 DUP2 DUP2 MSTORE PUSH2 0x105 PUSH1 0x20 MSTORE PUSH1 0x40 SWAP1 KECCAK256 PUSH1 0x1 ADD SLOAD PUSH1 0x1 PUSH1 0x1 PUSH1 0xA0 SHL SUB AND CALLER EQ PUSH2 0x149C JUMPI PUSH1 0x40 MLOAD PUSH3 0x461BCD PUSH1 0xE5 SHL DUP2 MSTORE PUSH1 0x20 PUSH1 0x4 DUP3 ADD MSTORE PUSH1 0x17 PUSH1 0x24 DUP3 ADD MSTORE PUSH23 0x3737BA1030BABA3437B934BD32B21020B9B9B4B3B732B9 PUSH1 0x49 SHL PUSH1 0x44 DUP3 ADD MSTORE PUSH1 0x64 ADD PUSH2 0xA1B JUMP JUMPDEST PUSH1 0x1 PUSH1 0x1 PUSH1 0xA0 SHL SUB DUP3 AND PUSH2 0x35F3 JUMPI PUSH1 0x40 MLOAD PUSH3 0x461BCD PUSH1 0xE5 SHL DUP2 MSTORE PUSH1 0x20 PUSH1 0x4 DUP3 ADD MSTORE PUSH1 0x15 PUSH1 0x24 DUP3 ADD MSTORE PUSH21 0x496E76616C696420746F6B656E2061646472657373 PUSH1 0x58 SHL PUSH1 0x44 DUP3 ADD MSTORE PUSH1 0x64 ADD PUSH2 0xA1B JUMP JUMPDEST PUSH2 0x101 SLOAD DUP3 SWAP1 PUSH1 0x1 PUSH1 0x1 PUSH1 0xA0 SHL SUB SWAP1 DUP2 AND SWAP1 DUP3 AND SUB PUSH2 0x3684 JUMPI PUSH2 0x103 SLOAD PUSH1 0x40 MLOAD PUSH4 0xA9059CBB PUSH1 0xE0 SHL DUP2 MSTORE PUSH1 0x1 PUSH1 0x1 PUSH1 0xA0 SHL SUB DUP4 DUP2 AND SWAP3 PUSH4 0xA9059CBB SWAP3 PUSH2 0x3641 SWAP3 SWAP1 SWAP2 AND SWAP1 DUP7 SWAP1 PUSH1 0x4 ADD PUSH2 0x489C JUMP JUMPDEST PUSH1 0x20 PUSH1 0x40 MLOAD DUP1 DUP4 SUB DUP2 PUSH1 0x0 DUP8 GAS CALL ISZERO DUP1 ISZERO PUSH2 0x3660 JUMPI RETURNDATASIZE PUSH1 0x0 DUP1 RETURNDATACOPY RETURNDATASIZE PUSH1 0x0 REVERT JUMPDEST POP POP POP POP PUSH1 0x40 MLOAD RETURNDATASIZE PUSH1 0x1F NOT PUSH1 0x1F DUP3 ADD AND DUP3 ADD DUP1 PUSH1 0x40 MSTORE POP DUP2 ADD SWAP1 PUSH2 0x3040 SWAP2 SWAP1 PUSH2 0x45C9 JUMP JUMPDEST PUSH2 0x100 SLOAD PUSH1 0x40 MLOAD PUSH4 0x95EA7B3 PUSH1 0xE0 SHL DUP2 MSTORE PUSH1 0x1 PUSH1 0x1 PUSH1 0xA0 SHL SUB DUP4 DUP2 AND SWAP3 PUSH4 0x95EA7B3 SWAP3 PUSH2 0x36B9 SWAP3 SWAP1 SWAP2 AND SWAP1 DUP7 SWAP1 PUSH1 0x4 ADD PUSH2 0x489C JUMP JUMPDEST PUSH1 0x20 PUSH1 0x40 MLOAD DUP1 DUP4 SUB DUP2 PUSH1 0x0 DUP8 GAS CALL ISZERO DUP1 ISZERO PUSH2 0x36D8 JUMPI RETURNDATASIZE PUSH1 0x0 DUP1 RETURNDATACOPY RETURNDATASIZE PUSH1 0x0 REVERT JUMPDEST POP POP POP POP PUSH1 0x40 MLOAD RETURNDATASIZE PUSH1 0x1F NOT PUSH1 0x1F DUP3 ADD AND DUP3 ADD DUP1 PUSH1 0x40 MSTORE POP DUP2 ADD SWAP1 PUSH2 0x36FC SWAP2 SWAP1 PUSH2 0x45C9 JUMP JUMPDEST POP PUSH1 0x40 DUP1 MLOAD PUSH1 0x2 DUP1 DUP3 MSTORE PUSH1 0x60 DUP3 ADD DUP4 MSTORE PUSH1 0x0 SWAP3 PUSH1 0x20 DUP4 ADD SWAP1 DUP1 CALLDATASIZE DUP4 CALLDATACOPY ADD SWAP1 POP POP SWAP1 POP DUP4 DUP2 PUSH1 0x0 DUP2 MLOAD DUP2 LT PUSH2 0x3732 JUMPI PUSH2 0x3732 PUSH2 0x47DA JUMP JUMPDEST PUSH1 0x1 PUSH1 0x1 PUSH1 0xA0 SHL SUB SWAP3 DUP4 AND PUSH1 0x20 SWAP2 DUP3 MUL SWAP3 SWAP1 SWAP3 ADD ADD MSTORE PUSH2 0x101 SLOAD DUP3 MLOAD SWAP2 AND SWAP1 DUP3 SWAP1 PUSH1 0x1 SWAP1 DUP2 LT PUSH2 0x3764 JUMPI PUSH2 0x3764 PUSH2 0x47DA JUMP JUMPDEST PUSH1 0x1 PUSH1 0x1 PUSH1 0xA0 SHL SUB SWAP1 SWAP3 AND PUSH1 0x20 SWAP3 DUP4 MUL SWAP2 SWAP1 SWAP2 ADD SWAP1 SWAP2 ADD MSTORE PUSH1 0x0 PUSH2 0x378A TIMESTAMP PUSH2 0x258 PUSH2 0x4580 JUMP JUMPDEST PUSH2 0x100 SLOAD PUSH2 0x103 SLOAD PUSH1 0x40 MLOAD PUSH4 0x38ED1739 PUSH1 0xE0 SHL DUP2 MSTORE SWAP3 SWAP4 POP PUSH1 0x1 PUSH1 0x1 PUSH1 0xA0 SHL SUB SWAP2 DUP3 AND SWAP3 PUSH4 0x38ED1739 SWAP3 PUSH2 0x37CB SWAP3 DUP10 SWAP3 PUSH1 0x0 SWAP3 DUP10 SWAP3 AND SWAP1 DUP9 SWAP1 PUSH1 0x4 ADD PUSH2 0x48B5 JUMP JUMPDEST PUSH1 0x0 PUSH1 0x40 MLOAD DUP1 DUP4 SUB DUP2 PUSH1 0x0 DUP8 GAS CALL ISZERO DUP1 ISZERO PUSH2 0x37EA JUMPI RETURNDATASIZE PUSH1 0x0 DUP1 RETURNDATACOPY RETURNDATASIZE PUSH1 0x0 REVERT JUMPDEST POP POP POP POP PUSH1 0x40 MLOAD RETURNDATASIZE PUSH1 0x0 DUP3 RETURNDATACOPY PUSH1 0x1F RETURNDATASIZE SWAP1 DUP2 ADD PUSH1 0x1F NOT AND DUP3 ADD PUSH1 0x40 MSTORE PUSH2 0x13CF SWAP2 SWAP1 DUP2 ADD SWAP1 PUSH2 0x4926 JUMP JUMPDEST PUSH1 0x33 DUP1 SLOAD PUSH1 0x1 PUSH1 0x1 PUSH1 0xA0 SHL SUB DUP4 DUP2 AND PUSH1 0x1 PUSH1 0x1 PUSH1 0xA0 SHL SUB NOT DUP4 AND DUP2 OR SWAP1 SWAP4 SSTORE PUSH1 0x40 MLOAD SWAP2 AND SWAP2 SWAP1 DUP3 SWAP1 PUSH32 0x8BE0079C531659141344CD1FD0A4F28419497F9722A3DAAFE3B4186F6B6457E0 SWAP1 PUSH1 0x0 SWAP1 LOG3 POP POP JUMP JUMPDEST PUSH1 0x0 PUSH2 0x3871 PUSH1 0xA DUP6 PUSH2 0x47A5 JUMP JUMPDEST SWAP1 POP DUP3 ISZERO PUSH2 0x38C9 JUMPI PUSH1 0x0 JUMPDEST DUP6 MLOAD DUP2 LT ISZERO PUSH2 0x38C3 JUMPI PUSH1 0xA DUP2 EQ PUSH2 0x38C3 JUMPI PUSH2 0x38B1 DUP4 DUP8 DUP4 DUP2 MLOAD DUP2 LT PUSH2 0x38A3 JUMPI PUSH2 0x38A3 PUSH2 0x47DA JUMP JUMPDEST PUSH1 0x20 MUL PUSH1 0x20 ADD ADD MLOAD DUP5 PUSH2 0x343B JUMP JUMPDEST DUP1 PUSH2 0x38BB DUP2 PUSH2 0x47F0 JUMP JUMPDEST SWAP2 POP POP PUSH2 0x387C JUMP JUMPDEST POP PUSH2 0x353A JUMP JUMPDEST PUSH1 0x0 JUMPDEST DUP6 MLOAD DUP2 LT ISZERO PUSH2 0x13CF JUMPI PUSH1 0xA DUP2 EQ PUSH2 0x13CF JUMPI PUSH2 0x3900 DUP7 DUP3 DUP2 MLOAD DUP2 LT PUSH2 0x38F2 JUMPI PUSH2 0x38F2 PUSH2 0x47DA JUMP JUMPDEST PUSH1 0x20 MUL PUSH1 0x20 ADD ADD MLOAD DUP4 PUSH2 0x3912 JUMP JUMPDEST DUP1 PUSH2 0x390A DUP2 PUSH2 0x47F0 JUMP JUMPDEST SWAP2 POP POP PUSH2 0x38CC JUMP JUMPDEST PUSH2 0x391A PUSH2 0x31EE JUMP JUMPDEST SELFBALANCE DUP2 GT ISZERO PUSH2 0x393A JUMPI PUSH1 0x40 MLOAD PUSH3 0x461BCD PUSH1 0xE5 SHL DUP2 MSTORE PUSH1 0x4 ADD PUSH2 0xA1B SWAP1 PUSH2 0x487A JUMP JUMPDEST PUSH1 0x0 DUP3 PUSH1 0x1 PUSH1 0x1 PUSH1 0xA0 SHL SUB AND DUP3 PUSH1 0x40 MLOAD PUSH1 0x0 PUSH1 0x40 MLOAD DUP1 DUP4 SUB DUP2 DUP6 DUP8 GAS CALL SWAP3 POP POP POP RETURNDATASIZE DUP1 PUSH1 0x0 DUP2 EQ PUSH2 0x3987 JUMPI PUSH1 0x40 MLOAD SWAP2 POP PUSH1 0x1F NOT PUSH1 0x3F RETURNDATASIZE ADD AND DUP3 ADD PUSH1 0x40 MSTORE RETURNDATASIZE DUP3 MSTORE RETURNDATASIZE PUSH1 0x0 PUSH1 0x20 DUP5 ADD RETURNDATACOPY PUSH2 0x398C JUMP JUMPDEST PUSH1 0x60 SWAP2 POP JUMPDEST POP POP SWAP1 POP DUP1 PUSH2 0x39CF JUMPI PUSH1 0x40 MLOAD PUSH3 0x461BCD PUSH1 0xE5 SHL DUP2 MSTORE PUSH1 0x20 PUSH1 0x4 DUP3 ADD MSTORE PUSH1 0xF PUSH1 0x24 DUP3 ADD MSTORE PUSH15 0x105B5BDD5B9D081B9BDD081CD95B9D PUSH1 0x8A SHL PUSH1 0x44 DUP3 ADD MSTORE PUSH1 0x64 ADD PUSH2 0xA1B JUMP JUMPDEST POP PUSH2 0x181B PUSH1 0x1 PUSH1 0xC9 SSTORE JUMP JUMPDEST PUSH2 0x39E3 DUP2 PUSH2 0x33D6 JUMP JUMPDEST PUSH2 0x3A45 JUMPI PUSH1 0x40 MLOAD PUSH3 0x461BCD PUSH1 0xE5 SHL DUP2 MSTORE PUSH1 0x20 PUSH1 0x4 DUP3 ADD MSTORE PUSH1 0x2D PUSH1 0x24 DUP3 ADD MSTORE PUSH32 0x455243313936373A206E657720696D706C656D656E746174696F6E206973206E PUSH1 0x44 DUP3 ADD MSTORE PUSH13 0x1BDD08184818DBDB9D1C9858DD PUSH1 0x9A SHL PUSH1 0x64 DUP3 ADD MSTORE PUSH1 0x84 ADD PUSH2 0xA1B JUMP JUMPDEST PUSH1 0x0 DUP1 MLOAD PUSH1 0x20 PUSH2 0x4A1B DUP4 CODECOPY DUP2 MLOAD SWAP2 MSTORE DUP1 SLOAD PUSH1 0x1 PUSH1 0x1 PUSH1 0xA0 SHL SUB NOT AND PUSH1 0x1 PUSH1 0x1 PUSH1 0xA0 SHL SUB SWAP3 SWAP1 SWAP3 AND SWAP2 SWAP1 SWAP2 OR SWAP1 SSTORE JUMP JUMPDEST PUSH2 0x3A7D DUP4 PUSH2 0x3AC9 JUMP JUMPDEST PUSH1 0x0 DUP3 MLOAD GT DUP1 PUSH2 0x3A8A JUMPI POP DUP1 JUMPDEST ISZERO PUSH2 0x1761 JUMPI PUSH2 0x3040 DUP4 DUP4 PUSH2 0x3B09 JUMP JUMPDEST PUSH1 0x0 SLOAD PUSH2 0x100 SWAP1 DIV PUSH1 0xFF AND PUSH2 0x3AC0 JUMPI PUSH1 0x40 MLOAD PUSH3 0x461BCD PUSH1 0xE5 SHL DUP2 MSTORE PUSH1 0x4 ADD PUSH2 0xA1B SWAP1 PUSH2 0x482F JUMP JUMPDEST PUSH2 0x1CFB CALLER PUSH2 0x3812 JUMP JUMPDEST PUSH2 0x3AD2 DUP2 PUSH2 0x39DA JUMP JUMPDEST PUSH1 0x40 MLOAD PUSH1 0x1 PUSH1 0x1 PUSH1 0xA0 SHL SUB DUP3 AND SWAP1 PUSH32 0xBC7CD75A20EE27FD9ADEBAB32041F755214DBC6BFFA90CC0225B39DA2E5C2D3B SWAP1 PUSH1 0x0 SWAP1 LOG2 POP JUMP JUMPDEST PUSH1 0x60 PUSH2 0x3B2E DUP4 DUP4 PUSH1 0x40 MLOAD DUP1 PUSH1 0x60 ADD PUSH1 0x40 MSTORE DUP1 PUSH1 0x27 DUP2 MSTORE PUSH1 0x20 ADD PUSH2 0x4A3B PUSH1 0x27 SWAP2 CODECOPY PUSH2 0x3B37 JUMP JUMPDEST SWAP1 POP JUMPDEST SWAP3 SWAP2 POP POP JUMP JUMPDEST PUSH1 0x60 PUSH1 0x0 DUP1 DUP6 PUSH1 0x1 PUSH1 0x1 PUSH1 0xA0 SHL SUB AND DUP6 PUSH1 0x40 MLOAD PUSH2 0x3B54 SWAP2 SWAP1 PUSH2 0x49AB JUMP JUMPDEST PUSH1 0x0 PUSH1 0x40 MLOAD DUP1 DUP4 SUB DUP2 DUP6 GAS DELEGATECALL SWAP2 POP POP RETURNDATASIZE DUP1 PUSH1 0x0 DUP2 EQ PUSH2 0x3B8F JUMPI PUSH1 0x40 MLOAD SWAP2 POP PUSH1 0x1F NOT PUSH1 0x3F RETURNDATASIZE ADD AND DUP3 ADD PUSH1 0x40 MSTORE RETURNDATASIZE DUP3 MSTORE RETURNDATASIZE PUSH1 0x0 PUSH1 0x20 DUP5 ADD RETURNDATACOPY PUSH2 0x3B94 JUMP JUMPDEST PUSH1 0x60 SWAP2 POP JUMPDEST POP SWAP2 POP SWAP2 POP PUSH2 0x3BA5 DUP7 DUP4 DUP4 DUP8 PUSH2 0x3BAF JUMP JUMPDEST SWAP7 SWAP6 POP POP POP POP POP POP JUMP JUMPDEST PUSH1 0x60 DUP4 ISZERO PUSH2 0x3C1C JUMPI DUP3 MLOAD PUSH1 0x0 SUB PUSH2 0x3C15 JUMPI PUSH2 0x3BC9 DUP6 PUSH2 0x33D6 JUMP JUMPDEST PUSH2 0x3C15 JUMPI PUSH1 0x40 MLOAD PUSH3 0x461BCD PUSH1 0xE5 SHL DUP2 MSTORE PUSH1 0x20 PUSH1 0x4 DUP3 ADD MSTORE PUSH1 0x1D PUSH1 0x24 DUP3 ADD MSTORE PUSH32 0x416464726573733A2063616C6C20746F206E6F6E2D636F6E7472616374000000 PUSH1 0x44 DUP3 ADD MSTORE PUSH1 0x64 ADD PUSH2 0xA1B JUMP JUMPDEST POP DUP2 PUSH2 0x3C26 JUMP JUMPDEST PUSH2 0x3C26 DUP4 DUP4 PUSH2 0x3C2E JUMP JUMPDEST SWAP5 SWAP4 POP POP POP POP JUMP JUMPDEST DUP2 MLOAD ISZERO PUSH2 0x3C3E JUMPI DUP2 MLOAD DUP1 DUP4 PUSH1 0x20 ADD REVERT JUMPDEST DUP1 PUSH1 0x40 MLOAD PUSH3 0x461BCD PUSH1 0xE5 SHL DUP2 MSTORE PUSH1 0x4 ADD PUSH2 0xA1B SWAP2 SWAP1 PUSH2 0x49C7 JUMP JUMPDEST DUP3 DUP1 SLOAD DUP3 DUP3 SSTORE SWAP1 PUSH1 0x0 MSTORE PUSH1 0x20 PUSH1 0x0 KECCAK256 SWAP1 DUP2 ADD SWAP3 DUP3 ISZERO PUSH2 0x3CAD JUMPI SWAP2 PUSH1 0x20 MUL DUP3 ADD JUMPDEST DUP3 DUP2 GT ISZERO PUSH2 0x3CAD JUMPI DUP3 MLOAD DUP3 SLOAD PUSH1 0x1 PUSH1 0x1 PUSH1 0xA0 SHL SUB NOT AND PUSH1 0x1 PUSH1 0x1 PUSH1 0xA0 SHL SUB SWAP1 SWAP2 AND OR DUP3 SSTORE PUSH1 0x20 SWAP1 SWAP3 ADD SWAP2 PUSH1 0x1 SWAP1 SWAP2 ADD SWAP1 PUSH2 0x3C78 JUMP JUMPDEST POP PUSH2 0x3CB9 SWAP3 SWAP2 POP PUSH2 0x3D9E JUMP JUMPDEST POP SWAP1 JUMP JUMPDEST PUSH1 0x40 MLOAD DUP1 PUSH2 0x1A0 ADD PUSH1 0x40 MSTORE DUP1 PUSH1 0x0 DUP2 MSTORE PUSH1 0x20 ADD PUSH1 0x0 PUSH1 0x1 PUSH1 0x1 PUSH1 0xA0 SHL SUB AND DUP2 MSTORE PUSH1 0x20 ADD PUSH1 0x0 PUSH1 0x1 PUSH1 0x1 PUSH1 0xA0 SHL SUB AND DUP2 MSTORE PUSH1 0x20 ADD PUSH1 0x0 DUP2 MSTORE PUSH1 0x20 ADD PUSH1 0x0 DUP2 MSTORE PUSH1 0x20 ADD PUSH1 0x60 DUP2 MSTORE PUSH1 0x20 ADD PUSH1 0x60 DUP2 MSTORE PUSH1 0x20 ADD PUSH1 0x0 DUP2 MSTORE PUSH1 0x20 ADD PUSH1 0x0 PUSH1 0x1 DUP2 GT ISZERO PUSH2 0x3D26 JUMPI PUSH2 0x3D26 PUSH2 0x3E73 JUMP JUMPDEST DUP2 MSTORE PUSH1 0x20 ADD PUSH1 0x60 DUP2 MSTORE PUSH1 0x20 ADD PUSH1 0x60 DUP2 MSTORE PUSH1 0x20 ADD PUSH1 0x0 ISZERO ISZERO DUP2 MSTORE PUSH1 0x20 ADD PUSH1 0x0 ISZERO ISZERO DUP2 MSTORE POP SWAP1 JUMP JUMPDEST DUP3 DUP1 SLOAD DUP3 DUP3 SSTORE SWAP1 PUSH1 0x0 MSTORE PUSH1 0x20 PUSH1 0x0 KECCAK256 SWAP1 DUP2 ADD SWAP3 DUP3 ISZERO PUSH2 0x3D92 JUMPI SWAP2 PUSH1 0x20 MUL DUP3 ADD JUMPDEST DUP3 DUP2 GT ISZERO PUSH2 0x3D92 JUMPI DUP3 MLOAD DUP3 SWAP1 PUSH2 0x3D82 SWAP1 DUP3 PUSH2 0x4633 JUMP JUMPDEST POP SWAP2 PUSH1 0x20 ADD SWAP2 SWAP1 PUSH1 0x1 ADD SWAP1 PUSH2 0x3D6C JUMP JUMPDEST POP PUSH2 0x3CB9 SWAP3 SWAP2 POP PUSH2 0x3DB3 JUMP JUMPDEST JUMPDEST DUP1 DUP3 GT ISZERO PUSH2 0x3CB9 JUMPI PUSH1 0x0 DUP2 SSTORE PUSH1 0x1 ADD PUSH2 0x3D9F JUMP JUMPDEST DUP1 DUP3 GT ISZERO PUSH2 0x3CB9 JUMPI PUSH1 0x0 PUSH2 0x3DC7 DUP3 DUP3 PUSH2 0x3DD0 JUMP JUMPDEST POP PUSH1 0x1 ADD PUSH2 0x3DB3 JUMP JUMPDEST POP DUP1 SLOAD PUSH2 0x3DDC SWAP1 PUSH2 0x4500 JUMP JUMPDEST PUSH1 0x0 DUP3 SSTORE DUP1 PUSH1 0x1F LT PUSH2 0x3DEC JUMPI POP POP JUMP JUMPDEST PUSH1 0x1F ADD PUSH1 0x20 SWAP1 DIV SWAP1 PUSH1 0x0 MSTORE PUSH1 0x20 PUSH1 0x0 KECCAK256 SWAP1 DUP2 ADD SWAP1 PUSH2 0x149C SWAP2 SWAP1 PUSH2 0x3D9E JUMP JUMPDEST PUSH1 0x0 PUSH1 0x20 DUP3 DUP5 SUB SLT ISZERO PUSH2 0x3E1C JUMPI PUSH1 0x0 DUP1 REVERT JUMPDEST POP CALLDATALOAD SWAP2 SWAP1 POP JUMP JUMPDEST PUSH1 0x0 JUMPDEST DUP4 DUP2 LT ISZERO PUSH2 0x3E3E JUMPI DUP2 DUP2 ADD MLOAD DUP4 DUP3 ADD MSTORE PUSH1 0x20 ADD PUSH2 0x3E26 JUMP JUMPDEST POP POP PUSH1 0x0 SWAP2 ADD MSTORE JUMP JUMPDEST PUSH1 0x0 DUP2 MLOAD DUP1 DUP5 MSTORE PUSH2 0x3E5F DUP2 PUSH1 0x20 DUP7 ADD PUSH1 0x20 DUP7 ADD PUSH2 0x3E23 JUMP JUMPDEST PUSH1 0x1F ADD PUSH1 0x1F NOT AND SWAP3 SWAP1 SWAP3 ADD PUSH1 0x20 ADD SWAP3 SWAP2 POP POP JUMP JUMPDEST PUSH4 0x4E487B71 PUSH1 0xE0 SHL PUSH1 0x0 MSTORE PUSH1 0x21 PUSH1 0x4 MSTORE PUSH1 0x24 PUSH1 0x0 REVERT JUMPDEST DUP10 DUP2 MSTORE PUSH1 0x1 PUSH1 0x1 PUSH1 0xA0 SHL SUB DUP10 DUP2 AND PUSH1 0x20 DUP4 ADD MSTORE DUP9 DUP2 AND PUSH1 0x40 DUP4 ADD MSTORE PUSH1 0x60 DUP3 ADD DUP9 SWAP1 MSTORE PUSH2 0x120 PUSH1 0x80 DUP4 ADD DUP2 SWAP1 MSTORE PUSH1 0x0 SWAP2 PUSH2 0x3EC4 DUP5 DUP4 ADD DUP11 PUSH2 0x3E47 JUMP JUMPDEST SWAP2 POP DUP4 DUP3 SUB PUSH1 0xA0 DUP6 ADD MSTORE PUSH2 0x3ED8 DUP3 DUP10 PUSH2 0x3E47 JUMP JUMPDEST SWAP3 POP PUSH1 0x8 DUP8 LT PUSH2 0x3EEA JUMPI PUSH2 0x3EEA PUSH2 0x3E73 JUMP JUMPDEST DUP7 PUSH1 0xC0 DUP6 ADD MSTORE DUP6 ISZERO ISZERO PUSH1 0xE0 DUP6 ADD MSTORE DUP1 DUP6 AND PUSH2 0x100 DUP6 ADD MSTORE POP POP SWAP11 SWAP10 POP POP POP POP POP POP POP POP POP POP JUMP JUMPDEST PUSH4 0x4E487B71 PUSH1 0xE0 SHL PUSH1 0x0 MSTORE PUSH1 0x41 PUSH1 0x4 MSTORE PUSH1 0x24 PUSH1 0x0 REVERT JUMPDEST PUSH1 0x40 MLOAD PUSH1 0x1F DUP3 ADD PUSH1 0x1F NOT AND DUP2 ADD PUSH1 0x1 PUSH1 0x1 PUSH1 0x40 SHL SUB DUP2 GT DUP3 DUP3 LT OR ISZERO PUSH2 0x3F4F JUMPI PUSH2 0x3F4F PUSH2 0x3F11 JUMP JUMPDEST PUSH1 0x40 MSTORE SWAP2 SWAP1 POP JUMP JUMPDEST PUSH1 0x0 PUSH1 0x1 PUSH1 0x1 PUSH1 0x40 SHL SUB DUP4 GT ISZERO PUSH2 0x3F70 JUMPI PUSH2 0x3F70 PUSH2 0x3F11 JUMP JUMPDEST PUSH2 0x3F83 PUSH1 0x1F DUP5 ADD PUSH1 0x1F NOT AND PUSH1 0x20 ADD PUSH2 0x3F27 JUMP JUMPDEST SWAP1 POP DUP3 DUP2 MSTORE DUP4 DUP4 DUP4 ADD GT ISZERO PUSH2 0x3F97 JUMPI PUSH1 0x0 DUP1 REVERT JUMPDEST DUP3 DUP3 PUSH1 0x20 DUP4 ADD CALLDATACOPY PUSH1 0x0 PUSH1 0x20 DUP5 DUP4 ADD ADD MSTORE SWAP4 SWAP3 POP POP POP JUMP JUMPDEST PUSH1 0x0 DUP3 PUSH1 0x1F DUP4 ADD SLT PUSH2 0x3FBF JUMPI PUSH1 0x0 DUP1 REVERT JUMPDEST PUSH2 0x3B2E DUP4 DUP4 CALLDATALOAD PUSH1 0x20 DUP6 ADD PUSH2 0x3F57 JUMP JUMPDEST PUSH1 0x0 PUSH1 0x1 PUSH1 0x1 PUSH1 0x40 SHL SUB DUP3 GT ISZERO PUSH2 0x3FE7 JUMPI PUSH2 0x3FE7 PUSH2 0x3F11 JUMP JUMPDEST POP PUSH1 0x5 SHL PUSH1 0x20 ADD SWAP1 JUMP JUMPDEST PUSH1 0x0 DUP1 PUSH1 0x0 DUP1 PUSH1 0x80 DUP6 DUP8 SUB SLT ISZERO PUSH2 0x4007 JUMPI PUSH1 0x0 DUP1 REVERT JUMPDEST DUP5 CALLDATALOAD SWAP4 POP PUSH1 0x20 DUP1 DUP7 ADD CALLDATALOAD SWAP4 POP PUSH1 0x40 DUP7 ADD CALLDATALOAD PUSH1 0x1 PUSH1 0x1 PUSH1 0x40 SHL SUB DUP1 DUP3 GT ISZERO PUSH2 0x402D JUMPI PUSH1 0x0 DUP1 REVERT JUMPDEST PUSH2 0x4039 DUP10 DUP4 DUP11 ADD PUSH2 0x3FAE JUMP JUMPDEST SWAP5 POP PUSH1 0x60 DUP9 ADD CALLDATALOAD SWAP2 POP DUP1 DUP3 GT ISZERO PUSH2 0x404F JUMPI PUSH1 0x0 DUP1 REVERT JUMPDEST DUP2 DUP9 ADD SWAP2 POP DUP9 PUSH1 0x1F DUP4 ADD SLT PUSH2 0x4063 JUMPI PUSH1 0x0 DUP1 REVERT JUMPDEST DUP2 CALLDATALOAD PUSH2 0x4076 PUSH2 0x4071 DUP3 PUSH2 0x3FCE JUMP JUMPDEST PUSH2 0x3F27 JUMP JUMPDEST DUP2 DUP2 MSTORE PUSH1 0x5 SWAP2 SWAP1 SWAP2 SHL DUP4 ADD DUP5 ADD SWAP1 DUP5 DUP2 ADD SWAP1 DUP12 DUP4 GT ISZERO PUSH2 0x4095 JUMPI PUSH1 0x0 DUP1 REVERT JUMPDEST DUP6 DUP6 ADD JUMPDEST DUP4 DUP2 LT ISZERO PUSH2 0x40CD JUMPI DUP1 CALLDATALOAD DUP6 DUP2 GT ISZERO PUSH2 0x40B1 JUMPI PUSH1 0x0 DUP1 DUP2 REVERT JUMPDEST PUSH2 0x40BF DUP15 DUP10 DUP4 DUP11 ADD ADD PUSH2 0x3FAE JUMP JUMPDEST DUP5 MSTORE POP SWAP2 DUP7 ADD SWAP2 DUP7 ADD PUSH2 0x4099 JUMP JUMPDEST POP SWAP9 SWAP12 SWAP8 SWAP11 POP SWAP6 SWAP9 POP POP POP POP POP POP POP JUMP JUMPDEST PUSH1 0x1 PUSH1 0x1 PUSH1 0xA0 SHL SUB SWAP2 SWAP1 SWAP2 AND DUP2 MSTORE PUSH1 0x20 ADD SWAP1 JUMP JUMPDEST PUSH1 0x0 DUP1 PUSH1 0x40 DUP4 DUP6 SUB SLT ISZERO PUSH2 0x4105 JUMPI PUSH1 0x0 DUP1 REVERT JUMPDEST POP POP DUP1 CALLDATALOAD SWAP3 PUSH1 0x20 SWAP1 SWAP2 ADD CALLDATALOAD SWAP2 POP JUMP JUMPDEST DUP1 CALLDATALOAD PUSH1 0x1 PUSH1 0x1 PUSH1 0xA0 SHL SUB DUP2 AND DUP2 EQ PUSH2 0x412B JUMPI PUSH1 0x0 DUP1 REVERT JUMPDEST SWAP2 SWAP1 POP JUMP JUMPDEST PUSH1 0x0 PUSH1 0x20 DUP3 DUP5 SUB SLT ISZERO PUSH2 0x4142 JUMPI PUSH1 0x0 DUP1 REVERT JUMPDEST PUSH2 0x3B2E DUP3 PUSH2 0x4114 JUMP JUMPDEST PUSH1 0x20 DUP1 DUP3 MSTORE DUP3 MLOAD DUP3 DUP3 ADD DUP2 SWAP1 MSTORE PUSH1 0x0 SWAP2 SWAP1 DUP5 DUP3 ADD SWAP1 PUSH1 0x40 DUP6 ADD SWAP1 DUP5 JUMPDEST DUP2 DUP2 LT ISZERO PUSH2 0x4183 JUMPI DUP4 MLOAD DUP4 MSTORE SWAP3 DUP5 ADD SWAP3 SWAP2 DUP5 ADD SWAP2 PUSH1 0x1 ADD PUSH2 0x4167 JUMP JUMPDEST POP SWAP1 SWAP7 SWAP6 POP POP POP POP POP POP JUMP JUMPDEST DUP1 ISZERO ISZERO DUP2 EQ PUSH2 0x149C JUMPI PUSH1 0x0 DUP1 REVERT JUMPDEST PUSH1 0x0 DUP1 PUSH1 0x0 DUP1 PUSH1 0x0 DUP1 PUSH1 0xC0 DUP8 DUP10 SUB SLT ISZERO PUSH2 0x41B6 JUMPI PUSH1 0x0 DUP1 REVERT JUMPDEST PUSH2 0x41BF DUP8 PUSH2 0x4114 JUMP JUMPDEST SWAP6 POP PUSH1 0x20 DUP8 ADD CALLDATALOAD SWAP5 POP PUSH1 0x40 DUP8 ADD CALLDATALOAD PUSH1 0x1 PUSH1 0x1 PUSH1 0x40 SHL SUB DUP1 DUP3 GT ISZERO PUSH2 0x41E2 JUMPI PUSH1 0x0 DUP1 REVERT JUMPDEST PUSH2 0x41EE DUP11 DUP4 DUP12 ADD PUSH2 0x3FAE JUMP JUMPDEST SWAP6 POP PUSH1 0x60 DUP10 ADD CALLDATALOAD SWAP2 POP DUP1 DUP3 GT ISZERO PUSH2 0x4204 JUMPI PUSH1 0x0 DUP1 REVERT JUMPDEST POP PUSH2 0x4211 DUP10 DUP3 DUP11 ADD PUSH2 0x3FAE JUMP JUMPDEST SWAP4 POP POP PUSH1 0x80 DUP8 ADD CALLDATALOAD PUSH2 0x4222 DUP2 PUSH2 0x418F JUMP JUMPDEST SWAP2 POP PUSH2 0x4230 PUSH1 0xA0 DUP9 ADD PUSH2 0x4114 JUMP JUMPDEST SWAP1 POP SWAP3 SWAP6 POP SWAP3 SWAP6 POP SWAP3 SWAP6 JUMP JUMPDEST PUSH1 0x0 DUP1 PUSH1 0x40 DUP4 DUP6 SUB SLT ISZERO PUSH2 0x424F JUMPI PUSH1 0x0 DUP1 REVERT JUMPDEST PUSH2 0x4258 DUP4 PUSH2 0x4114 JUMP JUMPDEST SWAP5 PUSH1 0x20 SWAP4 SWAP1 SWAP4 ADD CALLDATALOAD SWAP4 POP POP POP JUMP JUMPDEST PUSH1 0x0 DUP1 PUSH1 0x40 DUP4 DUP6 SUB SLT ISZERO PUSH2 0x4279 JUMPI PUSH1 0x0 DUP1 REVERT JUMPDEST PUSH2 0x4282 DUP4 PUSH2 0x4114 JUMP JUMPDEST SWAP2 POP PUSH2 0x4290 PUSH1 0x20 DUP5 ADD PUSH2 0x4114 JUMP JUMPDEST SWAP1 POP SWAP3 POP SWAP3 SWAP1 POP JUMP JUMPDEST PUSH1 0x0 DUP1 PUSH1 0x40 DUP4 DUP6 SUB SLT ISZERO PUSH2 0x42AC JUMPI PUSH1 0x0 DUP1 REVERT JUMPDEST PUSH2 0x42B5 DUP4 PUSH2 0x4114 JUMP JUMPDEST SWAP2 POP PUSH1 0x20 DUP4 ADD CALLDATALOAD PUSH1 0x1 PUSH1 0x1 PUSH1 0x40 SHL SUB DUP2 GT ISZERO PUSH2 0x42D0 JUMPI PUSH1 0x0 DUP1 REVERT JUMPDEST DUP4 ADD PUSH1 0x1F DUP2 ADD DUP6 SGT PUSH2 0x42E1 JUMPI PUSH1 0x0 DUP1 REVERT JUMPDEST PUSH2 0x42F0 DUP6 DUP3 CALLDATALOAD PUSH1 0x20 DUP5 ADD PUSH2 0x3F57 JUMP JUMPDEST SWAP2 POP POP SWAP3 POP SWAP3 SWAP1 POP JUMP JUMPDEST DUP12 DUP2 MSTORE PUSH1 0x1 PUSH1 0x1 PUSH1 0xA0 SHL SUB DUP12 DUP2 AND PUSH1 0x20 DUP4 ADD MSTORE DUP11 AND PUSH1 0x40 DUP3 ADD MSTORE PUSH1 0x60 DUP2 ADD DUP10 SWAP1 MSTORE PUSH1 0x80 DUP2 ADD DUP9 SWAP1 MSTORE PUSH2 0x160 PUSH1 0xA0 DUP3 ADD DUP2 SWAP1 MSTORE PUSH1 0x0 SWAP1 PUSH2 0x433B DUP4 DUP3 ADD DUP11 PUSH2 0x3E47 JUMP JUMPDEST SWAP1 POP DUP3 DUP2 SUB PUSH1 0xC0 DUP5 ADD MSTORE PUSH2 0x434F DUP2 DUP10 PUSH2 0x3E47 JUMP JUMPDEST SWAP2 POP POP DUP6 PUSH1 0xE0 DUP4 ADD MSTORE PUSH1 0x2 DUP6 LT PUSH2 0x4368 JUMPI PUSH2 0x4368 PUSH2 0x3E73 JUMP JUMPDEST DUP5 PUSH2 0x100 DUP4 ADD MSTORE DUP4 ISZERO ISZERO PUSH2 0x120 DUP4 ADD MSTORE PUSH2 0x4387 PUSH2 0x140 DUP4 ADD DUP5 ISZERO ISZERO SWAP1 MSTORE JUMP JUMPDEST SWAP13 SWAP12 POP POP POP POP POP POP POP POP POP POP POP POP JUMP JUMPDEST PUSH1 0x0 DUP2 MLOAD DUP1 DUP5 MSTORE PUSH1 0x20 DUP1 DUP6 ADD DUP1 DUP2 SWAP7 POP DUP4 PUSH1 0x5 SHL DUP2 ADD SWAP2 POP DUP3 DUP7 ADD PUSH1 0x0 JUMPDEST DUP6 DUP2 LT ISZERO PUSH2 0x43DF JUMPI DUP3 DUP5 SUB DUP10 MSTORE PUSH2 0x43CD DUP5 DUP4 MLOAD PUSH2 0x3E47 JUMP JUMPDEST SWAP9 DUP6 ADD SWAP9 SWAP4 POP SWAP1 DUP5 ADD SWAP1 PUSH1 0x1 ADD PUSH2 0x43B5 JUMP JUMPDEST POP SWAP2 SWAP8 SWAP7 POP POP POP POP POP POP POP JUMP JUMPDEST PUSH1 0x40 DUP2 MSTORE PUSH1 0x0 PUSH2 0x43FF PUSH1 0x40 DUP4 ADD DUP6 PUSH2 0x4397 JUMP JUMPDEST DUP3 DUP2 SUB PUSH1 0x20 DUP5 ADD MSTORE PUSH2 0x4411 DUP2 DUP6 PUSH2 0x4397 JUMP JUMPDEST SWAP6 SWAP5 POP POP POP POP POP JUMP JUMPDEST PUSH1 0x0 PUSH1 0x20 DUP1 DUP4 DUP6 SUB SLT ISZERO PUSH2 0x442D JUMPI PUSH1 0x0 DUP1 REVERT JUMPDEST DUP3 CALLDATALOAD PUSH1 0x1 PUSH1 0x1 PUSH1 0x40 SHL SUB DUP2 GT ISZERO PUSH2 0x4443 JUMPI PUSH1 0x0 DUP1 REVERT JUMPDEST DUP4 ADD PUSH1 0x1F DUP2 ADD DUP6 SGT PUSH2 0x4454 JUMPI PUSH1 0x0 DUP1 REVERT JUMPDEST DUP1 CALLDATALOAD PUSH2 0x4462 PUSH2 0x4071 DUP3 PUSH2 0x3FCE JUMP JUMPDEST DUP2 DUP2 MSTORE PUSH1 0x5 SWAP2 SWAP1 SWAP2 SHL DUP3 ADD DUP4 ADD SWAP1 DUP4 DUP2 ADD SWAP1 DUP8 DUP4 GT ISZERO PUSH2 0x4481 JUMPI PUSH1 0x0 DUP1 REVERT JUMPDEST SWAP3 DUP5 ADD SWAP3 JUMPDEST DUP3 DUP5 LT ISZERO PUSH2 0x44A6 JUMPI PUSH2 0x4497 DUP5 PUSH2 0x4114 JUMP JUMPDEST DUP3 MSTORE SWAP3 DUP5 ADD SWAP3 SWAP1 DUP5 ADD SWAP1 PUSH2 0x4486 JUMP JUMPDEST SWAP8 SWAP7 POP POP POP POP POP POP POP JUMP JUMPDEST PUSH1 0x0 DUP1 PUSH1 0x0 PUSH1 0x60 DUP5 DUP7 SUB SLT ISZERO PUSH2 0x44C6 JUMPI PUSH1 0x0 DUP1 REVERT JUMPDEST DUP4 CALLDATALOAD SWAP3 POP PUSH1 0x20 DUP5 ADD CALLDATALOAD SWAP2 POP PUSH1 0x40 DUP5 ADD CALLDATALOAD PUSH1 0x1 PUSH1 0x1 PUSH1 0x40 SHL SUB DUP2 GT ISZERO PUSH2 0x44EA JUMPI PUSH1 0x0 DUP1 REVERT JUMPDEST PUSH2 0x44F6 DUP7 DUP3 DUP8 ADD PUSH2 0x3FAE JUMP JUMPDEST SWAP2 POP POP SWAP3 POP SWAP3 POP SWAP3 JUMP JUMPDEST PUSH1 0x1 DUP2 DUP2 SHR SWAP1 DUP3 AND DUP1 PUSH2 0x4514 JUMPI PUSH1 0x7F DUP3 AND SWAP2 POP JUMPDEST PUSH1 0x20 DUP3 LT DUP2 SUB PUSH2 0x4534 JUMPI PUSH4 0x4E487B71 PUSH1 0xE0 SHL PUSH1 0x0 MSTORE PUSH1 0x22 PUSH1 0x4 MSTORE PUSH1 0x24 PUSH1 0x0 REVERT JUMPDEST POP SWAP2 SWAP1 POP JUMP JUMPDEST PUSH1 0x20 DUP1 DUP3 MSTORE PUSH1 0x16 SWAP1 DUP3 ADD MSTORE PUSH22 0x111A5CDC1D5D1948191BD95CC81B9BDD08195E1A5CDD PUSH1 0x52 SHL PUSH1 0x40 DUP3 ADD MSTORE PUSH1 0x60 ADD SWAP1 JUMP JUMPDEST PUSH4 0x4E487B71 PUSH1 0xE0 SHL PUSH1 0x0 MSTORE PUSH1 0x11 PUSH1 0x4 MSTORE PUSH1 0x24 PUSH1 0x0 REVERT JUMPDEST DUP1 DUP3 ADD DUP1 DUP3 GT ISZERO PUSH2 0x3B31 JUMPI PUSH2 0x3B31 PUSH2 0x456A JUMP JUMPDEST PUSH1 0x20 DUP1 DUP3 MSTORE PUSH1 0x3 SWAP1 DUP3 ADD MSTORE PUSH3 0x444E45 PUSH1 0xE8 SHL PUSH1 0x40 DUP3 ADD MSTORE PUSH1 0x60 ADD SWAP1 JUMP JUMPDEST PUSH1 0x0 PUSH1 0x20 DUP3 DUP5 SUB SLT ISZERO PUSH2 0x45C2 JUMPI PUSH1 0x0 DUP1 REVERT JUMPDEST POP MLOAD SWAP2 SWAP1 POP JUMP JUMPDEST PUSH1 0x0 PUSH1 0x20 DUP3 DUP5 SUB SLT ISZERO PUSH2 0x45DB JUMPI PUSH1 0x0 DUP1 REVERT JUMPDEST DUP2 MLOAD PUSH2 0x45E6 DUP2 PUSH2 0x418F JUMP JUMPDEST SWAP4 SWAP3 POP POP POP JUMP JUMPDEST PUSH1 0x1F DUP3 GT ISZERO PUSH2 0x1761 JUMPI PUSH1 0x0 DUP2 DUP2 MSTORE PUSH1 0x20 DUP2 KECCAK256 PUSH1 0x1F DUP6 ADD PUSH1 0x5 SHR DUP2 ADD PUSH1 0x20 DUP7 LT ISZERO PUSH2 0x4614 JUMPI POP DUP1 JUMPDEST PUSH1 0x1F DUP6 ADD PUSH1 0x5 SHR DUP3 ADD SWAP2 POP JUMPDEST DUP2 DUP2 LT ISZERO PUSH2 0x13CF JUMPI DUP3 DUP2 SSTORE PUSH1 0x1 ADD PUSH2 0x4620 JUMP JUMPDEST DUP2 MLOAD PUSH1 0x1 PUSH1 0x1 PUSH1 0x40 SHL SUB DUP2 GT ISZERO PUSH2 0x464C JUMPI PUSH2 0x464C PUSH2 0x3F11 JUMP JUMPDEST PUSH2 0x4660 DUP2 PUSH2 0x465A DUP5 SLOAD PUSH2 0x4500 JUMP JUMPDEST DUP5 PUSH2 0x45ED JUMP JUMPDEST PUSH1 0x20 DUP1 PUSH1 0x1F DUP4 GT PUSH1 0x1 DUP2 EQ PUSH2 0x4695 JUMPI PUSH1 0x0 DUP5 ISZERO PUSH2 0x467D JUMPI POP DUP6 DUP4 ADD MLOAD JUMPDEST PUSH1 0x0 NOT PUSH1 0x3 DUP7 SWAP1 SHL SHR NOT AND PUSH1 0x1 DUP6 SWAP1 SHL OR DUP6 SSTORE PUSH2 0x13CF JUMP JUMPDEST PUSH1 0x0 DUP6 DUP2 MSTORE PUSH1 0x20 DUP2 KECCAK256 PUSH1 0x1F NOT DUP7 AND SWAP2 JUMPDEST DUP3 DUP2 LT ISZERO PUSH2 0x46C4 JUMPI DUP9 DUP7 ADD MLOAD DUP3 SSTORE SWAP5 DUP5 ADD SWAP5 PUSH1 0x1 SWAP1 SWAP2 ADD SWAP1 DUP5 ADD PUSH2 0x46A5 JUMP JUMPDEST POP DUP6 DUP3 LT ISZERO PUSH2 0x46E2 JUMPI DUP8 DUP6 ADD MLOAD PUSH1 0x0 NOT PUSH1 0x3 DUP9 SWAP1 SHL PUSH1 0xF8 AND SHR NOT AND DUP2 SSTORE JUMPDEST POP POP POP POP POP PUSH1 0x1 SWAP1 DUP2 SHL ADD SWAP1 SSTORE POP JUMP JUMPDEST PUSH1 0x20 DUP1 DUP3 MSTORE PUSH1 0x2C SWAP1 DUP3 ADD MSTORE PUSH1 0x0 DUP1 MLOAD PUSH1 0x20 PUSH2 0x49FB DUP4 CODECOPY DUP2 MLOAD SWAP2 MSTORE PUSH1 0x40 DUP3 ADD MSTORE PUSH12 0x19195B1959D85D1958D85B1B PUSH1 0xA2 SHL PUSH1 0x60 DUP3 ADD MSTORE PUSH1 0x80 ADD SWAP1 JUMP JUMPDEST PUSH1 0x20 DUP1 DUP3 MSTORE PUSH1 0x2C SWAP1 DUP3 ADD MSTORE PUSH1 0x0 DUP1 MLOAD PUSH1 0x20 PUSH2 0x49FB DUP4 CODECOPY DUP2 MLOAD SWAP2 MSTORE PUSH1 0x40 DUP3 ADD MSTORE PUSH12 0x6163746976652070726F7879 PUSH1 0xA0 SHL PUSH1 0x60 DUP3 ADD MSTORE PUSH1 0x80 ADD SWAP1 JUMP JUMPDEST PUSH1 0x20 DUP1 DUP3 MSTORE PUSH1 0xE SWAP1 DUP3 ADD MSTORE PUSH14 0x139BDD08185D5D1A1BDC9A5E9959 PUSH1 0x92 SHL PUSH1 0x40 DUP3 ADD MSTORE PUSH1 0x60 ADD SWAP1 JUMP JUMPDEST DUP1 DUP3 MUL DUP2 ISZERO DUP3 DUP3 DIV DUP5 EQ OR PUSH2 0x3B31 JUMPI PUSH2 0x3B31 PUSH2 0x456A JUMP JUMPDEST PUSH1 0x0 DUP3 PUSH2 0x47C2 JUMPI PUSH4 0x4E487B71 PUSH1 0xE0 SHL PUSH1 0x0 MSTORE PUSH1 0x12 PUSH1 0x4 MSTORE PUSH1 0x24 PUSH1 0x0 REVERT JUMPDEST POP DIV SWAP1 JUMP JUMPDEST DUP2 DUP2 SUB DUP2 DUP2 GT ISZERO PUSH2 0x3B31 JUMPI PUSH2 0x3B31 PUSH2 0x456A JUMP JUMPDEST PUSH4 0x4E487B71 PUSH1 0xE0 SHL PUSH1 0x0 MSTORE PUSH1 0x32 PUSH1 0x4 MSTORE PUSH1 0x24 PUSH1 0x0 REVERT JUMPDEST PUSH1 0x0 PUSH1 0x1 DUP3 ADD PUSH2 0x4802 JUMPI PUSH2 0x4802 PUSH2 0x456A JUMP JUMPDEST POP PUSH1 0x1 ADD SWAP1 JUMP JUMPDEST PUSH1 0x20 DUP1 DUP3 MSTORE PUSH1 0xC SWAP1 DUP3 ADD MSTORE PUSH12 0x139BDD081858D8D95C1D1959 PUSH1 0xA2 SHL PUSH1 0x40 DUP3 ADD MSTORE PUSH1 0x60 ADD SWAP1 JUMP JUMPDEST PUSH1 0x20 DUP1 DUP3 MSTORE PUSH1 0x2B SWAP1 DUP3 ADD MSTORE PUSH32 0x496E697469616C697A61626C653A20636F6E7472616374206973206E6F742069 PUSH1 0x40 DUP3 ADD MSTORE PUSH11 0x6E697469616C697A696E67 PUSH1 0xA8 SHL PUSH1 0x60 DUP3 ADD MSTORE PUSH1 0x80 ADD SWAP1 JUMP JUMPDEST PUSH1 0x20 DUP1 DUP3 MSTORE PUSH1 0x8 SWAP1 DUP3 ADD MSTORE PUSH8 0x4E6F2046756E6473 PUSH1 0xC0 SHL PUSH1 0x40 DUP3 ADD MSTORE PUSH1 0x60 ADD SWAP1 JUMP JUMPDEST PUSH1 0x1 PUSH1 0x1 PUSH1 0xA0 SHL SUB SWAP3 SWAP1 SWAP3 AND DUP3 MSTORE PUSH1 0x20 DUP3 ADD MSTORE PUSH1 0x40 ADD SWAP1 JUMP JUMPDEST PUSH1 0x0 PUSH1 0xA0 DUP3 ADD DUP8 DUP4 MSTORE PUSH1 0x20 DUP8 DUP2 DUP6 ADD MSTORE PUSH1 0xA0 PUSH1 0x40 DUP6 ADD MSTORE DUP2 DUP8 MLOAD DUP1 DUP5 MSTORE PUSH1 0xC0 DUP7 ADD SWAP2 POP DUP3 DUP10 ADD SWAP4 POP PUSH1 0x0 JUMPDEST DUP2 DUP2 LT ISZERO PUSH2 0x4905 JUMPI DUP5 MLOAD PUSH1 0x1 PUSH1 0x1 PUSH1 0xA0 SHL SUB AND DUP4 MSTORE SWAP4 DUP4 ADD SWAP4 SWAP2 DUP4 ADD SWAP2 PUSH1 0x1 ADD PUSH2 0x48E0 JUMP JUMPDEST POP POP PUSH1 0x1 PUSH1 0x1 PUSH1 0xA0 SHL SUB SWAP7 SWAP1 SWAP7 AND PUSH1 0x60 DUP6 ADD MSTORE POP POP POP PUSH1 0x80 ADD MSTORE SWAP4 SWAP3 POP POP POP JUMP JUMPDEST PUSH1 0x0 PUSH1 0x20 DUP1 DUP4 DUP6 SUB SLT ISZERO PUSH2 0x4939 JUMPI PUSH1 0x0 DUP1 REVERT JUMPDEST DUP3 MLOAD PUSH1 0x1 PUSH1 0x1 PUSH1 0x40 SHL SUB DUP2 GT ISZERO PUSH2 0x494F JUMPI PUSH1 0x0 DUP1 REVERT JUMPDEST DUP4 ADD PUSH1 0x1F DUP2 ADD DUP6 SGT PUSH2 0x4960 JUMPI PUSH1 0x0 DUP1 REVERT JUMPDEST DUP1 MLOAD PUSH2 0x496E PUSH2 0x4071 DUP3 PUSH2 0x3FCE JUMP JUMPDEST DUP2 DUP2 MSTORE PUSH1 0x5 SWAP2 SWAP1 SWAP2 SHL DUP3 ADD DUP4 ADD SWAP1 DUP4 DUP2 ADD SWAP1 DUP8 DUP4 GT ISZERO PUSH2 0x498D JUMPI PUSH1 0x0 DUP1 REVERT JUMPDEST SWAP3 DUP5 ADD SWAP3 JUMPDEST DUP3 DUP5 LT ISZERO PUSH2 0x44A6 JUMPI DUP4 MLOAD DUP3 MSTORE SWAP3 DUP5 ADD SWAP3 SWAP1 DUP5 ADD SWAP1 PUSH2 0x4992 JUMP JUMPDEST PUSH1 0x0 DUP3 MLOAD PUSH2 0x49BD DUP2 DUP5 PUSH1 0x20 DUP8 ADD PUSH2 0x3E23 JUMP JUMPDEST SWAP2 SWAP1 SWAP2 ADD SWAP3 SWAP2 POP POP JUMP JUMPDEST PUSH1 0x20 DUP2 MSTORE PUSH1 0x0 PUSH2 0x3B2E PUSH1 0x20 DUP4 ADD DUP5 PUSH2 0x3E47 JUMP INVALID 0xC DUP2 0xCE BASEFEE JUMPI 0xD5 0xB9 0x4B DUP13 PUSH22 0x139D9E9E2911ECE8CD067EDDBA6000E40A08E09D5643 CHAINID PUSH22 0x6E6374696F6E206D7573742062652063616C6C656420 PUSH21 0x68726F75676820360894A13BA1A3210667C828492D 0xB9 DUP14 0xCA RETURNDATACOPY KECCAK256 PUSH23 0xCC3735A920A3CA505D382BBC416464726573733A206C6F PUSH24 0x2D6C6576656C2064656C65676174652063616C6C20666169 PUSH13 0x6564683BC5C048DB63A19ACA07 PUSH31 0xBAF602240DBAEC371F0BC19856F49FC6C004E38DA264697066735822122092 0xDC SUB PUSH5 0x9EDBDD3D7A 0xF6 CALLDATACOPY PUSH19 0x2420AF018C86EFBC7957360897E8F39EF0BF2C RETURN PUSH5 0x736F6C6343 STOP ADDMOD GT STOP CALLER "},"methodIdentifiers":{"acceptContract(uint256)":"9a115c04","acceptDispute(uint256)":"b0191b8f","addEnableTokens(address[])":"c6c6ebca","addProofsForDisputeLevel2(uint256,uint256,string,string[])":"0773750d","alreadyVoted(uint256)":"b1e7a1f0","approveContract(uint256)":"62c35c01","commissionPercent()":"77d3550b","companyProfits(address)":"930048bc","completeContract(uint256)":"58ee94cd","createContract(address,uint256,string,string,bool,address)":"34f2a20b","createDisputeLevel1(uint256,uint256,string)":"e2080b22","createDisputeLevel2(uint256,uint256,string,string[])":"3ca3d81d","disputes(uint256)":"564a565d","enabledTokens(address)":"b451cecc","escrows(uint256)":"012f52ee","getMyContracts(address)":"32039e01","getPoints(address)":"ee204abb","getProofs(uint256)":"c31e2c31","initialize(address,address)":"485cc955","isTokenEnabled(address)":"748538d9","myContracts(address,uint256)":"44aa4095","notAcceptContract(uint256)":"0935a123","owner()":"8da5cb5b","points(address)":"358b8166","proxiableUUID()":"52d1902d","renounceOwnership()":"715018a6","resolveDispute(uint256)":"c2b7b868","rewardPool()":"66666aa9","totalDisputes()":"c5e4ccc4","totalEscrows()":"63ee7c8d","totalValidators()":"c81b356b","transferOwnership(address)":"f2fde38b","uniswapAddress()":"0e2feb05","updateCommissionPercent(uint256)":"5e379797","updateRewardPool(address)":"d5fbac3a","updateValidatorPercent(uint256)":"1bbeaca1","upgradeTo(address)":"3659cfe6","upgradeToAndCall(address,bytes)":"4f1ef286","usdtAddress()":"9ab4a445","validate(uint256,uint256)":"19730b44","validators(uint256)":"35aa2e44","validatorsPercent()":"c7ec4c1c","withdrawCompleteCommissionNative()":"ebb0977b","withdrawCompleteCommissionToken(address)":"5452fb8a","withdrawContract(uint256)":"98a844b9"}},"storageLayout":{"storage":[{"astId":503,"contract":"contracts/Cscrow.sol:Cscrow","label":"_initialized","offset":0,"slot":"0","type":"t_uint8"},{"astId":506,"contract":"contracts/Cscrow.sol:Cscrow","label":"_initializing","offset":1,"slot":"0","type":"t_bool"},{"astId":1334,"contract":"contracts/Cscrow.sol:Cscrow","label":"__gap","offset":0,"slot":"1","type":"t_array(t_uint256)50_storage"},{"astId":10,"contract":"contracts/Cscrow.sol:Cscrow","label":"_owner","offset":0,"slot":"51","type":"t_address"},{"astId":130,"contract":"contracts/Cscrow.sol:Cscrow","label":"__gap","offset":0,"slot":"52","type":"t_array(t_uint256)49_storage"},{"astId":485,"contract":"contracts/Cscrow.sol:Cscrow","label":"__gap","offset":0,"slot":"101","type":"t_array(t_uint256)50_storage"},{"astId":800,"contract":"contracts/Cscrow.sol:Cscrow","label":"__gap","offset":0,"slot":"151","type":"t_array(t_uint256)50_storage"},{"astId":815,"contract":"contracts/Cscrow.sol:Cscrow","label":"_status","offset":0,"slot":"201","type":"t_uint256"},{"astId":884,"contract":"contracts/Cscrow.sol:Cscrow","label":"__gap","offset":0,"slot":"202","type":"t_array(t_uint256)49_storage"},{"astId":1865,"contract":"contracts/Cscrow.sol:Cscrow","label":"totalEscrows","offset":0,"slot":"251","type":"t_uint256"},{"astId":1867,"contract":"contracts/Cscrow.sol:Cscrow","label":"totalDisputes","offset":0,"slot":"252","type":"t_uint256"},{"astId":1869,"contract":"contracts/Cscrow.sol:Cscrow","label":"totalValidators","offset":0,"slot":"253","type":"t_uint256"},{"astId":1871,"contract":"contracts/Cscrow.sol:Cscrow","label":"commissionPercent","offset":0,"slot":"254","type":"t_uint256"},{"astId":1873,"contract":"contracts/Cscrow.sol:Cscrow","label":"validatorsPercent","offset":0,"slot":"255","type":"t_uint256"},{"astId":1876,"contract":"contracts/Cscrow.sol:Cscrow","label":"uniswapRouter","offset":0,"slot":"256","type":"t_contract(IUniswapV2Router02)1841"},{"astId":1878,"contract":"contracts/Cscrow.sol:Cscrow","label":"usdtAddress","offset":0,"slot":"257","type":"t_address"},{"astId":1880,"contract":"contracts/Cscrow.sol:Cscrow","label":"uniswapAddress","offset":0,"slot":"258","type":"t_address"},{"astId":1882,"contract":"contracts/Cscrow.sol:Cscrow","label":"rewardPool","offset":0,"slot":"259","type":"t_address"},{"astId":1886,"contract":"contracts/Cscrow.sol:Cscrow","label":"companyProfits","offset":0,"slot":"260","type":"t_mapping(t_address,t_uint256)"},{"astId":1891,"contract":"contracts/Cscrow.sol:Cscrow","label":"escrows","offset":0,"slot":"261","type":"t_mapping(t_uint256,t_struct(Escrows)4187_storage)"},{"astId":1896,"contract":"contracts/Cscrow.sol:Cscrow","label":"disputes","offset":0,"slot":"262","type":"t_mapping(t_uint256,t_struct(Dispute)4217_storage)"},{"astId":1901,"contract":"contracts/Cscrow.sol:Cscrow","label":"validators","offset":0,"slot":"263","type":"t_mapping(t_uint256,t_struct(Validators)4237_storage)"},{"astId":1905,"contract":"contracts/Cscrow.sol:Cscrow","label":"points","offset":0,"slot":"264","type":"t_mapping(t_address,t_uint256)"},{"astId":1909,"contract":"contracts/Cscrow.sol:Cscrow","label":"enabledTokens","offset":0,"slot":"265","type":"t_mapping(t_address,t_bool)"},{"astId":1914,"contract":"contracts/Cscrow.sol:Cscrow","label":"myContracts","offset":0,"slot":"266","type":"t_mapping(t_address,t_array(t_uint256)dyn_storage)"}],"types":{"t_address":{"encoding":"inplace","label":"address","numberOfBytes":"20"},"t_array(t_address)dyn_storage":{"base":"t_address","encoding":"dynamic_array","label":"address[]","numberOfBytes":"32"},"t_array(t_string_storage)dyn_storage":{"base":"t_string_storage","encoding":"dynamic_array","label":"string[]","numberOfBytes":"32"},"t_array(t_uint256)49_storage":{"base":"t_uint256","encoding":"inplace","label":"uint256[49]","numberOfBytes":"1568"},"t_array(t_uint256)50_storage":{"base":"t_uint256","encoding":"inplace","label":"uint256[50]","numberOfBytes":"1600"},"t_array(t_uint256)dyn_storage":{"base":"t_uint256","encoding":"dynamic_array","label":"uint256[]","numberOfBytes":"32"},"t_bool":{"encoding":"inplace","label":"bool","numberOfBytes":"1"},"t_contract(IUniswapV2Router02)1841":{"encoding":"inplace","label":"contract IUniswapV2Router02","numberOfBytes":"20"},"t_enum(ContractStatus)4246":{"encoding":"inplace","label":"enum Structs.ContractStatus","numberOfBytes":"1"},"t_enum(disputeLevel)4249":{"encoding":"inplace","label":"enum Structs.disputeLevel","numberOfBytes":"1"},"t_mapping(t_address,t_array(t_uint256)dyn_storage)":{"encoding":"mapping","key":"t_address","label":"mapping(address => uint256[])","numberOfBytes":"32","value":"t_array(t_uint256)dyn_storage"},"t_mapping(t_address,t_bool)":{"encoding":"mapping","key":"t_address","label":"mapping(address => bool)","numberOfBytes":"32","value":"t_bool"},"t_mapping(t_address,t_uint256)":{"encoding":"mapping","key":"t_address","label":"mapping(address => uint256)","numberOfBytes":"32","value":"t_uint256"},"t_mapping(t_uint256,t_struct(Dispute)4217_storage)":{"encoding":"mapping","key":"t_uint256","label":"mapping(uint256 => struct Structs.Dispute)","numberOfBytes":"32","value":"t_struct(Dispute)4217_storage"},"t_mapping(t_uint256,t_struct(Escrows)4187_storage)":{"encoding":"mapping","key":"t_uint256","label":"mapping(uint256 => struct Structs.Escrows)","numberOfBytes":"32","value":"t_struct(Escrows)4187_storage"},"t_mapping(t_uint256,t_struct(Validators)4237_storage)":{"encoding":"mapping","key":"t_uint256","label":"mapping(uint256 => struct Structs.Validators)","numberOfBytes":"32","value":"t_struct(Validators)4237_storage"},"t_string_storage":{"encoding":"bytes","label":"string","numberOfBytes":"32"},"t_struct(Dispute)4217_storage":{"encoding":"inplace","label":"struct Structs.Dispute","members":[{"astId":4189,"contract":"contracts/Cscrow.sol:Cscrow","label":"escrowId","offset":0,"slot":"0","type":"t_uint256"},{"astId":4191,"contract":"contracts/Cscrow.sol:Cscrow","label":"assignor","offset":0,"slot":"1","type":"t_address"},{"astId":4193,"contract":"contracts/Cscrow.sol:Cscrow","label":"assignee","offset":0,"slot":"2","type":"t_address"},{"astId":4195,"contract":"contracts/Cscrow.sol:Cscrow","label":"amountDisputedAssignee","offset":0,"slot":"3","type":"t_uint256"},{"astId":4197,"contract":"contracts/Cscrow.sol:Cscrow","label":"amountDisputedAssignor","offset":0,"slot":"4","type":"t_uint256"},{"astId":4199,"contract":"contracts/Cscrow.sol:Cscrow","label":"assignorDetails","offset":0,"slot":"5","type":"t_string_storage"},{"astId":4201,"contract":"contracts/Cscrow.sol:Cscrow","label":"assigneeDetails","offset":0,"slot":"6","type":"t_string_storage"},{"astId":4203,"contract":"contracts/Cscrow.sol:Cscrow","label":"validatorId","offset":0,"slot":"7","type":"t_uint256"},{"astId":4206,"contract":"contracts/Cscrow.sol:Cscrow","label":"disputeLevel","offset":0,"slot":"8","type":"t_enum(disputeLevel)4249"},{"astId":4209,"contract":"contracts/Cscrow.sol:Cscrow","label":"assignorProfs","offset":0,"slot":"9","type":"t_array(t_string_storage)dyn_storage"},{"astId":4212,"contract":"contracts/Cscrow.sol:Cscrow","label":"assigneeProfs","offset":0,"slot":"10","type":"t_array(t_string_storage)dyn_storage"},{"astId":4214,"contract":"contracts/Cscrow.sol:Cscrow","label":"assigneeCreatedDispute","offset":0,"slot":"11","type":"t_bool"},{"astId":4216,"contract":"contracts/Cscrow.sol:Cscrow","label":"validationStarted","offset":1,"slot":"11","type":"t_bool"}],"numberOfBytes":"384"},"t_struct(Escrows)4187_storage":{"encoding":"inplace","label":"struct Structs.Escrows","members":[{"astId":4169,"contract":"contracts/Cscrow.sol:Cscrow","label":"id","offset":0,"slot":"0","type":"t_uint256"},{"astId":4171,"contract":"contracts/Cscrow.sol:Cscrow","label":"assignor","offset":0,"slot":"1","type":"t_address"},{"astId":4173,"contract":"contracts/Cscrow.sol:Cscrow","label":"assignee","offset":0,"slot":"2","type":"t_address"},{"astId":4175,"contract":"contracts/Cscrow.sol:Cscrow","label":"amount","offset":0,"slot":"3","type":"t_uint256"},{"astId":4177,"contract":"contracts/Cscrow.sol:Cscrow","label":"details","offset":0,"slot":"4","type":"t_string_storage"},{"astId":4179,"contract":"contracts/Cscrow.sol:Cscrow","label":"title","offset":0,"slot":"5","type":"t_string_storage"},{"astId":4182,"contract":"contracts/Cscrow.sol:Cscrow","label":"status","offset":0,"slot":"6","type":"t_enum(ContractStatus)4246"},{"astId":4184,"contract":"contracts/Cscrow.sol:Cscrow","label":"token","offset":1,"slot":"6","type":"t_bool"},{"astId":4186,"contract":"contracts/Cscrow.sol:Cscrow","label":"tokenAddress","offset":2,"slot":"6","type":"t_address"}],"numberOfBytes":"224"},"t_struct(Validators)4237_storage":{"encoding":"inplace","label":"struct Structs.Validators","members":[{"astId":4219,"contract":"contracts/Cscrow.sol:Cscrow","label":"disputeId","offset":0,"slot":"0","type":"t_uint256"},{"astId":4222,"contract":"contracts/Cscrow.sol:Cscrow","label":"validator","offset":0,"slot":"1","type":"t_array(t_address)dyn_storage"},{"astId":4224,"contract":"contracts/Cscrow.sol:Cscrow","label":"votesForAssignor","offset":0,"slot":"2","type":"t_uint256"},{"astId":4226,"contract":"contracts/Cscrow.sol:Cscrow","label":"votesForAssignee","offset":0,"slot":"3","type":"t_uint256"},{"astId":4228,"contract":"contracts/Cscrow.sol:Cscrow","label":"assignorWon","offset":0,"slot":"4","type":"t_bool"},{"astId":4230,"contract":"contracts/Cscrow.sol:Cscrow","label":"assigneeWon","offset":1,"slot":"4","type":"t_bool"},{"astId":4232,"contract":"contracts/Cscrow.sol:Cscrow","label":"draw","offset":2,"slot":"4","type":"t_bool"},{"astId":4234,"contract":"contracts/Cscrow.sol:Cscrow","label":"nextChance","offset":3,"slot":"4","type":"t_bool"},{"astId":4236,"contract":"contracts/Cscrow.sol:Cscrow","label":"validationCreateTime","offset":0,"slot":"5","type":"t_uint256"}],"numberOfBytes":"192"},"t_uint256":{"encoding":"inplace","label":"uint256","numberOfBytes":"32"},"t_uint8":{"encoding":"inplace","label":"uint8","numberOfBytes":"1"}}}}}}