{"contracts/RewardPool.sol":{"RewardPool":{"abi":[{"anonymous":false,"inputs":[{"indexed":false,"internalType":"address","name":"previousAdmin","type":"address"},{"indexed":false,"internalType":"address","name":"newAdmin","type":"address"}],"name":"AdminChanged","type":"event"},{"anonymous":false,"inputs":[{"indexed":true,"internalType":"address","name":"beacon","type":"address"}],"name":"BeaconUpgraded","type":"event"},{"anonymous":false,"inputs":[{"indexed":true,"internalType":"address","name":"user","type":"address"},{"indexed":true,"internalType":"uint256","name":"pid","type":"uint256"},{"indexed":false,"internalType":"uint256","name":"amount","type":"uint256"}],"name":"Deposit","type":"event"},{"anonymous":false,"inputs":[{"indexed":false,"internalType":"uint8","name":"version","type":"uint8"}],"name":"Initialized","type":"event"},{"anonymous":false,"inputs":[{"indexed":true,"internalType":"address","name":"previousOwner","type":"address"},{"indexed":true,"internalType":"address","name":"newOwner","type":"address"}],"name":"OwnershipTransferred","type":"event"},{"anonymous":false,"inputs":[{"indexed":true,"internalType":"address","name":"implementation","type":"address"}],"name":"Upgraded","type":"event"},{"anonymous":false,"inputs":[{"indexed":true,"internalType":"address","name":"user","type":"address"},{"indexed":true,"internalType":"uint256","name":"pid","type":"uint256"},{"indexed":false,"internalType":"uint256","name":"amount","type":"uint256"}],"name":"Withdraw","type":"event"},{"anonymous":false,"inputs":[{"indexed":false,"internalType":"address","name":"oldAdminaddr","type":"address"},{"indexed":false,"internalType":"address","name":"newAdminaddr","type":"address"}],"name":"setAdmin","type":"event"},{"anonymous":false,"inputs":[{"indexed":false,"internalType":"bool","name":"withdrawStatus","type":"bool"}],"name":"setWithdrawStatus","type":"event"},{"inputs":[{"internalType":"uint256","name":"_allocPoint","type":"uint256"},{"internalType":"string","name":"_type","type":"string"},{"internalType":"contract IERC20Upgradeable","name":"_lptoken","type":"address"},{"internalType":"bool","name":"_withUpdate","type":"bool"}],"name":"add","outputs":[],"stateMutability":"nonpayable","type":"function"},{"inputs":[{"internalType":"uint256","name":"_pid","type":"uint256"}],"name":"claim","outputs":[],"stateMutability":"nonpayable","type":"function"},{"inputs":[{"internalType":"uint256","name":"_pid","type":"uint256"},{"internalType":"address","name":"_user","type":"address"}],"name":"deposit","outputs":[],"stateMutability":"nonpayable","type":"function"},{"inputs":[{"internalType":"contract IERC20Upgradeable","name":"_token","type":"address"},{"internalType":"address","name":"_to","type":"address"},{"internalType":"uint256","name":"_amount","type":"uint256"}],"name":"emergencyWithdrawRewardTokens","outputs":[],"stateMutability":"nonpayable","type":"function"},{"inputs":[],"name":"initialize","outputs":[],"stateMutability":"nonpayable","type":"function"},{"inputs":[],"name":"massUpdatePools","outputs":[],"stateMutability":"nonpayable","type":"function"},{"inputs":[],"name":"owner","outputs":[{"internalType":"address","name":"","type":"address"}],"stateMutability":"view","type":"function"},{"inputs":[{"internalType":"uint256","name":"_pid","type":"uint256"},{"internalType":"address","name":"_user","type":"address"}],"name":"pendingERC20","outputs":[{"internalType":"uint256","name":"","type":"uint256"}],"stateMutability":"view","type":"function"},{"inputs":[{"internalType":"uint256","name":"","type":"uint256"}],"name":"poolInfo","outputs":[{"internalType":"string","name":"amtype","type":"string"},{"internalType":"contract IERC20Upgradeable","name":"lpToken","type":"address"},{"internalType":"uint256","name":"allocPoint","type":"uint256"},{"internalType":"uint256","name":"accLPPerShare","type":"uint256"},{"internalType":"uint256","name":"lastTotalLPReward","type":"uint256"}],"stateMutability":"view","type":"function"},{"inputs":[],"name":"poolLength","outputs":[{"internalType":"uint256","name":"","type":"uint256"}],"stateMutability":"view","type":"function"},{"inputs":[],"name":"proxiableUUID","outputs":[{"internalType":"bytes32","name":"","type":"bytes32"}],"stateMutability":"view","type":"function"},{"inputs":[],"name":"renounceOwnership","outputs":[],"stateMutability":"nonpayable","type":"function"},{"inputs":[{"internalType":"uint256","name":"_pid","type":"uint256"},{"internalType":"uint256","name":"_allocPoint","type":"uint256"},{"internalType":"bool","name":"_withUpdate","type":"bool"}],"name":"set","outputs":[],"stateMutability":"nonpayable","type":"function"},{"inputs":[],"name":"totalAllocPoint","outputs":[{"internalType":"uint256","name":"","type":"uint256"}],"stateMutability":"view","type":"function"},{"inputs":[{"internalType":"uint256","name":"","type":"uint256"}],"name":"totalLPStaked","outputs":[{"internalType":"uint256","name":"","type":"uint256"}],"stateMutability":"view","type":"function"},{"inputs":[],"name":"totalReward","outputs":[{"internalType":"uint256","name":"","type":"uint256"}],"stateMutability":"view","type":"function"},{"inputs":[{"internalType":"address","name":"newOwner","type":"address"}],"name":"transferOwnership","outputs":[],"stateMutability":"nonpayable","type":"function"},{"inputs":[{"internalType":"uint256","name":"_pid","type":"uint256"}],"name":"updatePool","outputs":[],"stateMutability":"nonpayable","type":"function"},{"inputs":[{"internalType":"bool","name":"_status","type":"bool"}],"name":"updateWithdrawStatus","outputs":[],"stateMutability":"nonpayable","type":"function"},{"inputs":[{"internalType":"address","name":"newImplementation","type":"address"}],"name":"upgradeTo","outputs":[],"stateMutability":"nonpayable","type":"function"},{"inputs":[{"internalType":"address","name":"newImplementation","type":"address"},{"internalType":"bytes","name":"data","type":"bytes"}],"name":"upgradeToAndCall","outputs":[],"stateMutability":"payable","type":"function"},{"inputs":[{"internalType":"uint256","name":"","type":"uint256"},{"internalType":"address","name":"","type":"address"}],"name":"userInfo","outputs":[{"internalType":"uint256","name":"amount","type":"uint256"},{"internalType":"uint256","name":"rewardLPDebt","type":"uint256"}],"stateMutability":"view","type":"function"},{"inputs":[{"internalType":"uint256","name":"_pid","type":"uint256"},{"internalType":"address","name":"_user","type":"address"}],"name":"withdraw","outputs":[],"stateMutability":"nonpayable","type":"function"},{"inputs":[],"name":"withdrawStatus","outputs":[{"internalType":"bool","name":"","type":"bool"}],"stateMutability":"view","type":"function"}],"evm":{"bytecode":{"linkReferences":{},"object":"60a06040523060805234801561001457600080fd5b5060805161223d61004c6000396000818161087d015281816108bd01528181610a7401528181610ab40152610c86015261223d6000f3fe60806040526004361061011a5760003560e01c8062f714ce1461011f578063081e3eda146101415780631526fe271461016557806317caf6f1146101965780632c4f3a95146101ac5780633659cfe6146101cc578063379607f5146101ec5780634f1ef2861461020c57806351eb05a61461021f57806352d1902d1461023f57806361ffe85814610254578063630b5ba11461027e57806364482f79146102935780636e553f65146102b3578063715018a6146102d3578063750142e6146102e85780637ee2ebc8146102fe5780638129fc1c1461031e5780638da5cb5b1461033357806391c3d1251461035557806393f1a40b146103825780639c244df9146103d6578063bd674692146103f6578063f2fde38b14610416575b600080fd5b34801561012b57600080fd5b5061013f61013a366004611b75565b610436565b005b34801561014d57600080fd5b5060c9545b6040519081526020015b60405180910390f35b34801561017157600080fd5b50610185610180366004611ba5565b61069d565b60405161015c959493929190611c0e565b3480156101a257600080fd5b5061015260ce5481565b3480156101b857600080fd5b5061013f6101c7366004611ce7565b610776565b3480156101d857600080fd5b5061013f6101e7366004611d66565b610873565b3480156101f857600080fd5b5061013f610207366004611ba5565b61093b565b61013f61021a366004611d83565b610a6a565b34801561022b57600080fd5b5061013f61023a366004611ba5565b610b23565b34801561024b57600080fd5b50610152610c79565b34801561026057600080fd5b5060cf5461026e9060ff1681565b604051901515815260200161015c565b34801561028a57600080fd5b5061013f610d27565b34801561029f57600080fd5b5061013f6102ae366004611de6565b610d4e565b3480156102bf57600080fd5b5061013f6102ce366004611b75565b610ddb565b3480156102df57600080fd5b5061013f610f9b565b3480156102f457600080fd5b5061015260cb5481565b34801561030a57600080fd5b50610152610319366004611b75565b610faf565b34801561032a57600080fd5b5061013f611146565b34801561033f57600080fd5b50610348611265565b60405161015c9190611e1f565b34801561036157600080fd5b50610152610370366004611ba5565b60ca6020526000908152604090205481565b34801561038e57600080fd5b506103c161039d366004611b75565b60cd6020908152600092835260408084209091529082529020805460019091015482565b6040805192835260208301919091520161015c565b3480156103e257600080fd5b5061013f6103f1366004611e33565b611274565b34801561040257600080fd5b5061013f610411366004611e74565b6112e0565b34801561042257600080fd5b5061013f610431366004611d66565b611387565b61043e6113fd565b60cf5460ff1615156001036104915760405162461bcd60e51b815260206004820152601460248201527315da5d1a191c985dc81b9bdd08185b1b1bddd95960621b60448201526064015b60405180910390fd5b6000670de0b6b3a76400009050600060c984815481106104b3576104b3611e91565b6000918252602080832087845260cd825260408085206001600160a01b0389168652909252922080546005909202909201925083111561052a5760405162461bcd60e51b81526020600482015260126024820152711dda5d1a191c985dce881b9bdd0819dbdbd960721b6044820152606401610488565b61053385610b23565b805415610608576000610574826001015461056e64e8d4a510006105688760030154876000015461145c90919063ffffffff16565b9061146f565b9061147b565b6001840154909150610590906001600160a01b03168683611487565b60018301546040516370a0823160e01b81526001600160a01b03909116906370a08231906105c2903090600401611e1f565b602060405180830381865afa1580156105df573d6000803e3d6000fd5b505050506040513d601f19601f820116820180604052508101906106039190611ea7565b60cc55505b600085815260ca6020526040902054610621908461147b565b600086815260ca602052604081209190915580825560038301546106509164e8d4a5100091610568919061145c565b600182015560405183815285906001600160a01b038616907ff279e6a1f5e320cca91135676d9cb6e44ca8a08c0b88342bcdb1144f6511b568906020015b60405180910390a35050505050565b60c981815481106106ad57600080fd5b90600052602060002090600502016000915090508060000180546106d090611ec0565b80601f01602080910402602001604051908101604052809291908181526020018280546106fc90611ec0565b80156107495780601f1061071e57610100808354040283529160200191610749565b820191906000526020600020905b81548152906001019060200180831161072c57829003601f168201915b5050505060018301546002840154600385015460049095015493946001600160a01b039092169390925085565b61077e6113fd565b801561078c5761078c610d27565b60ce5461079990856114d9565b60ce5560c98054600090815260ca60209081526040808320839055805160a0810182528781526001600160a01b0387169281019290925281018790526060810182905260cb546080820152825460018101845592909152805190916005027f66be4f155c5ef2ebd3772b228f2f00681e4ed5826cdb3b1943cc11ad15ad1d28019081906108269082611f48565b5060208201516001820180546001600160a01b0319166001600160a01b03909216919091179055604082015160028201556060820151600382015560809091015160049091015550505050565b6001600160a01b037f00000000000000000000000000000000000000000000000000000000000000001630036108bb5760405162461bcd60e51b815260040161048890612007565b7f00000000000000000000000000000000000000000000000000000000000000006001600160a01b03166108ed6114e5565b6001600160a01b0316146109135760405162461bcd60e51b815260040161048890612041565b61091c81611501565b6040805160008082526020820190925261093891839190611509565b50565b600060c9828154811061095057610950611e91565b6000918252602080832085845260cd8252604080852033865290925292206005909102909101915061098183610b23565b60006109af826001015461056e64e8d4a510006105688760030154876000015461145c90919063ffffffff16565b60018401549091506109cb906001600160a01b03163383611487565b60018301546040516370a0823160e01b81526001600160a01b03909116906370a08231906109fd903090600401611e1f565b602060405180830381865afa158015610a1a573d6000803e3d6000fd5b505050506040513d601f19601f82011682018060405250810190610a3e9190611ea7565b60cc5560038301548254610a5c9164e8d4a51000916105689161145c565b826001018190555050505050565b6001600160a01b037f0000000000000000000000000000000000000000000000000000000000000000163003610ab25760405162461bcd60e51b815260040161048890612007565b7f00000000000000000000000000000000000000000000000000000000000000006001600160a01b0316610ae46114e5565b6001600160a01b031614610b0a5760405162461bcd60e51b815260040161048890612041565b610b1382611501565b610b1f82826001611509565b5050565b600060c98281548110610b3857610b38611e91565b6000918252602082206001600590920201908101546040516370a0823160e01b81529193506001600160a01b0316906370a0823190610b7b903090600401611e1f565b602060405180830381865afa158015610b98573d6000803e3d6000fd5b505050506040513d601f19601f82011682018060405250810190610bbc9190611ea7565b90506000610be1610bd860cc548461147b90919063ffffffff16565b60cb54906114d9565b60cc83905560cb819055600085815260ca6020526040812054919250819003610c1557600084600401819055505050505050565b6000610c4260ce546105688760020154610c3c89600401548861147b90919063ffffffff16565b9061145c565b9050610c65610c5a836105688464e8d4a5100061145c565b6003870154906114d9565b600386015550506004909201919091555050565b6000306001600160a01b037f00000000000000000000000000000000000000000000000000000000000000001614610d145760405162461bcd60e51b815260206004820152603860248201527f555550535570677261646561626c653a206d757374206e6f742062652063616c6044820152771b1959081d1a1c9bdd59da0819195b1959d85d1958d85b1b60421b6064820152608401610488565b506000805160206121c183398151915290565b60c95460005b81811015610b1f57610d3e81610b23565b610d4781612091565b9050610d2d565b610d566113fd565b8015610d6457610d64610d27565b610da782610da160c98681548110610d7e57610d7e611e91565b90600052602060002090600502016002015460ce5461147b90919063ffffffff16565b906114d9565b60ce819055508160c98481548110610dc157610dc1611e91565b906000526020600020906005020160020181905550505050565b610de36113fd565b6000670de0b6b3a76400009050600060c98481548110610e0557610e05611e91565b6000918252602080832087845260cd825260408085206001600160a01b0389168652909252922060059091029091019150610e3f85610b23565b805415610f08576000610e74826001015461056e64e8d4a510006105688760030154876000015461145c90919063ffffffff16565b6001840154909150610e90906001600160a01b03168683611487565b60018301546040516370a0823160e01b81526001600160a01b03909116906370a0823190610ec2903090600401611e1f565b602060405180830381865afa158015610edf573d6000803e3d6000fd5b505050506040513d601f19601f82011682018060405250810190610f039190611ea7565b60cc55505b600085815260ca6020526040902054610f2190846114d9565b600086815260ca60205260409020558054610f3c90846114d9565b8082556003830154610f599164e8d4a5100091610568919061145c565b600182015560405183815285906001600160a01b038616907f90890809c654f11d6e72a28fa60149770a0d11ec6c92319d6ceb2bb0a4ea1a159060200161068e565b610fa36113fd565b610fad6000611674565b565b60008060c98481548110610fc557610fc5611e91565b6000918252602080832087845260cd825260408085206001600160a01b03808a16875290845281862060036005909602909301948501548a875260ca90945281862054600186015492516370a0823160e01b8152959750929593949293929116906370a082319061103a903090600401611e1f565b602060405180830381865afa158015611057573d6000803e3d6000fd5b505050506040513d601f19601f8201168201806040525081019061107b9190611ea7565b60cb5460cc54919250908211156110ae576110ab6110a460cc548461147b90919063ffffffff16565b82906114d9565b90505b8560040154811180156110c057508215155b1561110f5760006110ec60ce546105688960020154610c3c8b600401548761147b90919063ffffffff16565b905061110b611104856105688464e8d4a5100061145c565b86906114d9565b9450505b611137856001015461056e64e8d4a51000610568888a6000015461145c90919063ffffffff16565b96505050505050505b92915050565b600054610100900460ff16158080156111665750600054600160ff909116105b806111875750611175306116c6565b158015611187575060005460ff166001145b6111ea5760405162461bcd60e51b815260206004820152602e60248201527f496e697469616c697a61626c653a20636f6e747261637420697320616c72656160448201526d191e481a5b9a5d1a585b1a5e995960921b6064820152608401610488565b6000805460ff19166001179055801561120d576000805461ff0019166101001790555b6112156116d5565b61121d611704565b8015610938576000805461ff0019169055604051600181527f7f26b83ff96e1f2b6a682f133852f6798a09c465da95921460cefb38474024989060200160405180910390a150565b6033546001600160a01b031690565b61127c6113fd565b6001600160a01b0382166112c75760405162461bcd60e51b8152602060048201526012602482015271496e76616c696420746f206164647265737360701b6044820152606401610488565b6112db6001600160a01b0384168383611487565b505050565b6112e86113fd565b60cf5481151560ff9091161515036113385760405162461bcd60e51b8152602060048201526013602482015272416c72656164792073616d652073746174757360681b6044820152606401610488565b60cf5460405160ff909116151581527faabd69043913452081c95083767698092818aa855567bcd42acc80ebe691f83b9060200160405180910390a160cf805460ff1916911515919091179055565b61138f6113fd565b6001600160a01b0381166113f45760405162461bcd60e51b815260206004820152602660248201527f4f776e61626c653a206e6577206f776e657220697320746865207a65726f206160448201526564647265737360d01b6064820152608401610488565b61093881611674565b33611406611265565b6001600160a01b031614610fad5760405162461bcd60e51b815260206004820181905260248201527f4f776e61626c653a2063616c6c6572206973206e6f7420746865206f776e65726044820152606401610488565b600061146882846120aa565b9392505050565b600061146882846120c1565b600061146882846120e3565b604080516001600160a01b038416602482015260448082018490528251808303909101815260649091019091526020810180516001600160e01b031663a9059cbb60e01b1790526112db90849061172b565b600061146882846120f6565b6000805160206121c1833981519152546001600160a01b031690565b6109386113fd565b7f4910fdfa16fed3260ed0e7147f7cc6da11a60208b5b9406d12a635614ffd91435460ff161561153c576112db83611800565b826001600160a01b03166352d1902d6040518163ffffffff1660e01b8152600401602060405180830381865afa925050508015611596575060408051601f3d908101601f1916820190925261159391810190611ea7565b60015b6115f95760405162461bcd60e51b815260206004820152602e60248201527f45524331393637557067726164653a206e657720696d706c656d656e7461746960448201526d6f6e206973206e6f74205555505360901b6064820152608401610488565b6000805160206121c183398151915281146116685760405162461bcd60e51b815260206004820152602960248201527f45524331393637557067726164653a20756e737570706f727465642070726f786044820152681a58589b195555525160ba1b6064820152608401610488565b506112db83838361189a565b603380546001600160a01b038381166001600160a01b0319831681179093556040519116919082907f8be0079c531659141344cd1fd0a4f28419497f9722a3daafe3b4186f6b6457e090600090a35050565b6001600160a01b03163b151590565b600054610100900460ff166116fc5760405162461bcd60e51b815260040161048890612109565b610fad6118c5565b600054610100900460ff16610fad5760405162461bcd60e51b815260040161048890612109565b6000611780826040518060400160405280602081526020017f5361666545524332303a206c6f772d6c6576656c2063616c6c206661696c6564815250856001600160a01b03166118f59092919063ffffffff16565b90508051600014806117a15750808060200190518101906117a19190612154565b6112db5760405162461bcd60e51b815260206004820152602a60248201527f5361666545524332303a204552433230206f7065726174696f6e20646964206e6044820152691bdd081cdd58d8d9595960b21b6064820152608401610488565b611809816116c6565b61186b5760405162461bcd60e51b815260206004820152602d60248201527f455243313936373a206e657720696d706c656d656e746174696f6e206973206e60448201526c1bdd08184818dbdb9d1c9858dd609a1b6064820152608401610488565b6000805160206121c183398151915280546001600160a01b0319166001600160a01b0392909216919091179055565b6118a38361190c565b6000825111806118b05750805b156112db576118bf838361194c565b50505050565b600054610100900460ff166118ec5760405162461bcd60e51b815260040161048890612109565b610fad33611674565b60606119048484600085611971565b949350505050565b61191581611800565b6040516001600160a01b038216907fbc7cd75a20ee27fd9adebab32041f755214dbc6bffa90cc0225b39da2e5c2d3b90600090a250565b606061146883836040518060600160405280602781526020016121e160279139611a4c565b6060824710156119d25760405162461bcd60e51b815260206004820152602660248201527f416464726573733a20696e73756666696369656e742062616c616e636520666f6044820152651c8818d85b1b60d21b6064820152608401610488565b600080866001600160a01b031685876040516119ee9190612171565b60006040518083038185875af1925050503d8060008114611a2b576040519150601f19603f3d011682016040523d82523d6000602084013e611a30565b606091505b5091509150611a4187838387611ac4565b979650505050505050565b6060600080856001600160a01b031685604051611a699190612171565b600060405180830381855af49150503d8060008114611aa4576040519150601f19603f3d011682016040523d82523d6000602084013e611aa9565b606091505b5091509150611aba86838387611ac4565b9695505050505050565b60608315611b31578251600003611b2a57611ade856116c6565b611b2a5760405162461bcd60e51b815260206004820152601d60248201527f416464726573733a2063616c6c20746f206e6f6e2d636f6e74726163740000006044820152606401610488565b5081611904565b6119048383815115611b465781518083602001fd5b8060405162461bcd60e51b8152600401610488919061218d565b6001600160a01b038116811461093857600080fd5b60008060408385031215611b8857600080fd5b823591506020830135611b9a81611b60565b809150509250929050565b600060208284031215611bb757600080fd5b5035919050565b60005b83811015611bd9578181015183820152602001611bc1565b50506000910152565b60008151808452611bfa816020860160208601611bbe565b601f01601f19169290920160200192915050565b60a081526000611c2160a0830188611be2565b6001600160a01b039690961660208301525060408101939093526060830191909152608090910152919050565b634e487b7160e01b600052604160045260246000fd5b60006001600160401b0380841115611c7e57611c7e611c4e565b604051601f8501601f19908116603f01168101908282118183101715611ca657611ca6611c4e565b81604052809350858152868686011115611cbf57600080fd5b858560208301376000602087830101525050509392505050565b801515811461093857600080fd5b60008060008060808587031215611cfd57600080fd5b8435935060208501356001600160401b03811115611d1a57600080fd5b8501601f81018713611d2b57600080fd5b611d3a87823560208401611c64565b9350506040850135611d4b81611b60565b91506060850135611d5b81611cd9565b939692955090935050565b600060208284031215611d7857600080fd5b813561146881611b60565b60008060408385031215611d9657600080fd5b8235611da181611b60565b915060208301356001600160401b03811115611dbc57600080fd5b8301601f81018513611dcd57600080fd5b611ddc85823560208401611c64565b9150509250929050565b600080600060608486031215611dfb57600080fd5b83359250602084013591506040840135611e1481611cd9565b809150509250925092565b6001600160a01b0391909116815260200190565b600080600060608486031215611e4857600080fd5b8335611e5381611b60565b92506020840135611e6381611b60565b929592945050506040919091013590565b600060208284031215611e8657600080fd5b813561146881611cd9565b634e487b7160e01b600052603260045260246000fd5b600060208284031215611eb957600080fd5b5051919050565b600181811c90821680611ed457607f821691505b602082108103611ef457634e487b7160e01b600052602260045260246000fd5b50919050565b601f8211156112db57600081815260208120601f850160051c81016020861015611f215750805b601f850160051c820191505b81811015611f4057828155600101611f2d565b505050505050565b81516001600160401b03811115611f6157611f61611c4e565b611f7581611f6f8454611ec0565b84611efa565b602080601f831160018114611faa5760008415611f925750858301515b600019600386901b1c1916600185901b178555611f40565b600085815260208120601f198616915b82811015611fd957888601518255948401946001909101908401611fba565b5085821015611ff75787850151600019600388901b60f8161c191681555b5050505050600190811b01905550565b6020808252602c908201526000805160206121a183398151915260408201526b19195b1959d85d1958d85b1b60a21b606082015260800190565b6020808252602c908201526000805160206121a183398151915260408201526b6163746976652070726f787960a01b606082015260800190565b634e487b7160e01b600052601160045260246000fd5b6000600182016120a3576120a361207b565b5060010190565b80820281158282048414176111405761114061207b565b6000826120de57634e487b7160e01b600052601260045260246000fd5b500490565b818103818111156111405761114061207b565b808201808211156111405761114061207b565b6020808252602b908201527f496e697469616c697a61626c653a20636f6e7472616374206973206e6f74206960408201526a6e697469616c697a696e6760a81b606082015260800190565b60006020828403121561216657600080fd5b815161146881611cd9565b60008251612183818460208701611bbe565b9190910192915050565b6020815260006114686020830184611be256fe46756e6374696f6e206d7573742062652063616c6c6564207468726f75676820360894a13ba1a3210667c828492db98dca3e2076cc3735a920a3ca505d382bbc416464726573733a206c6f772d6c6576656c2064656c65676174652063616c6c206661696c6564a2646970667358221220ba417c665cc51c282b1cb051c1da80504b0f960b2a44cb0ee93a46192dfa62f864736f6c63430008110033","opcodes":"PUSH1 0xA0 PUSH1 0x40 MSTORE ADDRESS PUSH1 0x80 MSTORE CALLVALUE DUP1 ISZERO PUSH2 0x14 JUMPI PUSH1 0x0 DUP1 REVERT JUMPDEST POP PUSH1 0x80 MLOAD PUSH2 0x223D PUSH2 0x4C PUSH1 0x0 CODECOPY PUSH1 0x0 DUP2 DUP2 PUSH2 0x87D ADD MSTORE DUP2 DUP2 PUSH2 0x8BD ADD MSTORE DUP2 DUP2 PUSH2 0xA74 ADD MSTORE DUP2 DUP2 PUSH2 0xAB4 ADD MSTORE PUSH2 0xC86 ADD MSTORE PUSH2 0x223D PUSH1 0x0 RETURN INVALID PUSH1 0x80 PUSH1 0x40 MSTORE PUSH1 0x4 CALLDATASIZE LT PUSH2 0x11A JUMPI PUSH1 0x0 CALLDATALOAD PUSH1 0xE0 SHR DUP1 PUSH3 0xF714CE EQ PUSH2 0x11F JUMPI DUP1 PUSH4 0x81E3EDA EQ PUSH2 0x141 JUMPI DUP1 PUSH4 0x1526FE27 EQ PUSH2 0x165 JUMPI DUP1 PUSH4 0x17CAF6F1 EQ PUSH2 0x196 JUMPI DUP1 PUSH4 0x2C4F3A95 EQ PUSH2 0x1AC JUMPI DUP1 PUSH4 0x3659CFE6 EQ PUSH2 0x1CC JUMPI DUP1 PUSH4 0x379607F5 EQ PUSH2 0x1EC JUMPI DUP1 PUSH4 0x4F1EF286 EQ PUSH2 0x20C JUMPI DUP1 PUSH4 0x51EB05A6 EQ PUSH2 0x21F JUMPI DUP1 PUSH4 0x52D1902D EQ PUSH2 0x23F JUMPI DUP1 PUSH4 0x61FFE858 EQ PUSH2 0x254 JUMPI DUP1 PUSH4 0x630B5BA1 EQ PUSH2 0x27E JUMPI DUP1 PUSH4 0x64482F79 EQ PUSH2 0x293 JUMPI DUP1 PUSH4 0x6E553F65 EQ PUSH2 0x2B3 JUMPI DUP1 PUSH4 0x715018A6 EQ PUSH2 0x2D3 JUMPI DUP1 PUSH4 0x750142E6 EQ PUSH2 0x2E8 JUMPI DUP1 PUSH4 0x7EE2EBC8 EQ PUSH2 0x2FE JUMPI DUP1 PUSH4 0x8129FC1C EQ PUSH2 0x31E JUMPI DUP1 PUSH4 0x8DA5CB5B EQ PUSH2 0x333 JUMPI DUP1 PUSH4 0x91C3D125 EQ PUSH2 0x355 JUMPI DUP1 PUSH4 0x93F1A40B EQ PUSH2 0x382 JUMPI DUP1 PUSH4 0x9C244DF9 EQ PUSH2 0x3D6 JUMPI DUP1 PUSH4 0xBD674692 EQ PUSH2 0x3F6 JUMPI DUP1 PUSH4 0xF2FDE38B EQ PUSH2 0x416 JUMPI JUMPDEST PUSH1 0x0 DUP1 REVERT JUMPDEST CALLVALUE DUP1 ISZERO PUSH2 0x12B JUMPI PUSH1 0x0 DUP1 REVERT JUMPDEST POP PUSH2 0x13F PUSH2 0x13A CALLDATASIZE PUSH1 0x4 PUSH2 0x1B75 JUMP JUMPDEST PUSH2 0x436 JUMP JUMPDEST STOP JUMPDEST CALLVALUE DUP1 ISZERO PUSH2 0x14D JUMPI PUSH1 0x0 DUP1 REVERT JUMPDEST POP PUSH1 0xC9 SLOAD JUMPDEST PUSH1 0x40 MLOAD SWAP1 DUP2 MSTORE PUSH1 0x20 ADD JUMPDEST PUSH1 0x40 MLOAD DUP1 SWAP2 SUB SWAP1 RETURN JUMPDEST CALLVALUE DUP1 ISZERO PUSH2 0x171 JUMPI PUSH1 0x0 DUP1 REVERT JUMPDEST POP PUSH2 0x185 PUSH2 0x180 CALLDATASIZE PUSH1 0x4 PUSH2 0x1BA5 JUMP JUMPDEST PUSH2 0x69D JUMP JUMPDEST PUSH1 0x40 MLOAD PUSH2 0x15C SWAP6 SWAP5 SWAP4 SWAP3 SWAP2 SWAP1 PUSH2 0x1C0E JUMP JUMPDEST CALLVALUE DUP1 ISZERO PUSH2 0x1A2 JUMPI PUSH1 0x0 DUP1 REVERT JUMPDEST POP PUSH2 0x152 PUSH1 0xCE SLOAD DUP2 JUMP JUMPDEST CALLVALUE DUP1 ISZERO PUSH2 0x1B8 JUMPI PUSH1 0x0 DUP1 REVERT JUMPDEST POP PUSH2 0x13F PUSH2 0x1C7 CALLDATASIZE PUSH1 0x4 PUSH2 0x1CE7 JUMP JUMPDEST PUSH2 0x776 JUMP JUMPDEST CALLVALUE DUP1 ISZERO PUSH2 0x1D8 JUMPI PUSH1 0x0 DUP1 REVERT JUMPDEST POP PUSH2 0x13F PUSH2 0x1E7 CALLDATASIZE PUSH1 0x4 PUSH2 0x1D66 JUMP JUMPDEST PUSH2 0x873 JUMP JUMPDEST CALLVALUE DUP1 ISZERO PUSH2 0x1F8 JUMPI PUSH1 0x0 DUP1 REVERT JUMPDEST POP PUSH2 0x13F PUSH2 0x207 CALLDATASIZE PUSH1 0x4 PUSH2 0x1BA5 JUMP JUMPDEST PUSH2 0x93B JUMP JUMPDEST PUSH2 0x13F PUSH2 0x21A CALLDATASIZE PUSH1 0x4 PUSH2 0x1D83 JUMP JUMPDEST PUSH2 0xA6A JUMP JUMPDEST CALLVALUE DUP1 ISZERO PUSH2 0x22B JUMPI PUSH1 0x0 DUP1 REVERT JUMPDEST POP PUSH2 0x13F PUSH2 0x23A CALLDATASIZE PUSH1 0x4 PUSH2 0x1BA5 JUMP JUMPDEST PUSH2 0xB23 JUMP JUMPDEST CALLVALUE DUP1 ISZERO PUSH2 0x24B JUMPI PUSH1 0x0 DUP1 REVERT JUMPDEST POP PUSH2 0x152 PUSH2 0xC79 JUMP JUMPDEST CALLVALUE DUP1 ISZERO PUSH2 0x260 JUMPI PUSH1 0x0 DUP1 REVERT JUMPDEST POP PUSH1 0xCF SLOAD PUSH2 0x26E SWAP1 PUSH1 0xFF AND DUP2 JUMP JUMPDEST PUSH1 0x40 MLOAD SWAP1 ISZERO ISZERO DUP2 MSTORE PUSH1 0x20 ADD PUSH2 0x15C JUMP JUMPDEST CALLVALUE DUP1 ISZERO PUSH2 0x28A JUMPI PUSH1 0x0 DUP1 REVERT JUMPDEST POP PUSH2 0x13F PUSH2 0xD27 JUMP JUMPDEST CALLVALUE DUP1 ISZERO PUSH2 0x29F JUMPI PUSH1 0x0 DUP1 REVERT JUMPDEST POP PUSH2 0x13F PUSH2 0x2AE CALLDATASIZE PUSH1 0x4 PUSH2 0x1DE6 JUMP JUMPDEST PUSH2 0xD4E JUMP JUMPDEST CALLVALUE DUP1 ISZERO PUSH2 0x2BF JUMPI PUSH1 0x0 DUP1 REVERT JUMPDEST POP PUSH2 0x13F PUSH2 0x2CE CALLDATASIZE PUSH1 0x4 PUSH2 0x1B75 JUMP JUMPDEST PUSH2 0xDDB JUMP JUMPDEST CALLVALUE DUP1 ISZERO PUSH2 0x2DF JUMPI PUSH1 0x0 DUP1 REVERT JUMPDEST POP PUSH2 0x13F PUSH2 0xF9B JUMP JUMPDEST CALLVALUE DUP1 ISZERO PUSH2 0x2F4 JUMPI PUSH1 0x0 DUP1 REVERT JUMPDEST POP PUSH2 0x152 PUSH1 0xCB SLOAD DUP2 JUMP JUMPDEST CALLVALUE DUP1 ISZERO PUSH2 0x30A JUMPI PUSH1 0x0 DUP1 REVERT JUMPDEST POP PUSH2 0x152 PUSH2 0x319 CALLDATASIZE PUSH1 0x4 PUSH2 0x1B75 JUMP JUMPDEST PUSH2 0xFAF JUMP JUMPDEST CALLVALUE DUP1 ISZERO PUSH2 0x32A JUMPI PUSH1 0x0 DUP1 REVERT JUMPDEST POP PUSH2 0x13F PUSH2 0x1146 JUMP JUMPDEST CALLVALUE DUP1 ISZERO PUSH2 0x33F JUMPI PUSH1 0x0 DUP1 REVERT JUMPDEST POP PUSH2 0x348 PUSH2 0x1265 JUMP JUMPDEST PUSH1 0x40 MLOAD PUSH2 0x15C SWAP2 SWAP1 PUSH2 0x1E1F JUMP JUMPDEST CALLVALUE DUP1 ISZERO PUSH2 0x361 JUMPI PUSH1 0x0 DUP1 REVERT JUMPDEST POP PUSH2 0x152 PUSH2 0x370 CALLDATASIZE PUSH1 0x4 PUSH2 0x1BA5 JUMP JUMPDEST PUSH1 0xCA PUSH1 0x20 MSTORE PUSH1 0x0 SWAP1 DUP2 MSTORE PUSH1 0x40 SWAP1 KECCAK256 SLOAD DUP2 JUMP JUMPDEST CALLVALUE DUP1 ISZERO PUSH2 0x38E JUMPI PUSH1 0x0 DUP1 REVERT JUMPDEST POP PUSH2 0x3C1 PUSH2 0x39D CALLDATASIZE PUSH1 0x4 PUSH2 0x1B75 JUMP JUMPDEST PUSH1 0xCD PUSH1 0x20 SWAP1 DUP2 MSTORE PUSH1 0x0 SWAP3 DUP4 MSTORE PUSH1 0x40 DUP1 DUP5 KECCAK256 SWAP1 SWAP2 MSTORE SWAP1 DUP3 MSTORE SWAP1 KECCAK256 DUP1 SLOAD PUSH1 0x1 SWAP1 SWAP2 ADD SLOAD DUP3 JUMP JUMPDEST PUSH1 0x40 DUP1 MLOAD SWAP3 DUP4 MSTORE PUSH1 0x20 DUP4 ADD SWAP2 SWAP1 SWAP2 MSTORE ADD PUSH2 0x15C JUMP JUMPDEST CALLVALUE DUP1 ISZERO PUSH2 0x3E2 JUMPI PUSH1 0x0 DUP1 REVERT JUMPDEST POP PUSH2 0x13F PUSH2 0x3F1 CALLDATASIZE PUSH1 0x4 PUSH2 0x1E33 JUMP JUMPDEST PUSH2 0x1274 JUMP JUMPDEST CALLVALUE DUP1 ISZERO PUSH2 0x402 JUMPI PUSH1 0x0 DUP1 REVERT JUMPDEST POP PUSH2 0x13F PUSH2 0x411 CALLDATASIZE PUSH1 0x4 PUSH2 0x1E74 JUMP JUMPDEST PUSH2 0x12E0 JUMP JUMPDEST CALLVALUE DUP1 ISZERO PUSH2 0x422 JUMPI PUSH1 0x0 DUP1 REVERT JUMPDEST POP PUSH2 0x13F PUSH2 0x431 CALLDATASIZE PUSH1 0x4 PUSH2 0x1D66 JUMP JUMPDEST PUSH2 0x1387 JUMP JUMPDEST PUSH2 0x43E PUSH2 0x13FD JUMP JUMPDEST PUSH1 0xCF SLOAD PUSH1 0xFF AND ISZERO ISZERO PUSH1 0x1 SUB PUSH2 0x491 JUMPI PUSH1 0x40 MLOAD PUSH3 0x461BCD PUSH1 0xE5 SHL DUP2 MSTORE PUSH1 0x20 PUSH1 0x4 DUP3 ADD MSTORE PUSH1 0x14 PUSH1 0x24 DUP3 ADD MSTORE PUSH20 0x15DA5D1A191C985DC81B9BDD08185B1B1BDDD959 PUSH1 0x62 SHL PUSH1 0x44 DUP3 ADD MSTORE PUSH1 0x64 ADD JUMPDEST PUSH1 0x40 MLOAD DUP1 SWAP2 SUB SWAP1 REVERT JUMPDEST PUSH1 0x0 PUSH8 0xDE0B6B3A7640000 SWAP1 POP PUSH1 0x0 PUSH1 0xC9 DUP5 DUP2 SLOAD DUP2 LT PUSH2 0x4B3 JUMPI PUSH2 0x4B3 PUSH2 0x1E91 JUMP JUMPDEST PUSH1 0x0 SWAP2 DUP3 MSTORE PUSH1 0x20 DUP1 DUP4 KECCAK256 DUP8 DUP5 MSTORE PUSH1 0xCD DUP3 MSTORE PUSH1 0x40 DUP1 DUP6 KECCAK256 PUSH1 0x1 PUSH1 0x1 PUSH1 0xA0 SHL SUB DUP10 AND DUP7 MSTORE SWAP1 SWAP3 MSTORE SWAP3 KECCAK256 DUP1 SLOAD PUSH1 0x5 SWAP1 SWAP3 MUL SWAP1 SWAP3 ADD SWAP3 POP DUP4 GT ISZERO PUSH2 0x52A JUMPI PUSH1 0x40 MLOAD PUSH3 0x461BCD PUSH1 0xE5 SHL DUP2 MSTORE PUSH1 0x20 PUSH1 0x4 DUP3 ADD MSTORE PUSH1 0x12 PUSH1 0x24 DUP3 ADD MSTORE PUSH18 0x1DDA5D1A191C985DCE881B9BDD0819DBDBD9 PUSH1 0x72 SHL PUSH1 0x44 DUP3 ADD MSTORE PUSH1 0x64 ADD PUSH2 0x488 JUMP JUMPDEST PUSH2 0x533 DUP6 PUSH2 0xB23 JUMP JUMPDEST DUP1 SLOAD ISZERO PUSH2 0x608 JUMPI PUSH1 0x0 PUSH2 0x574 DUP3 PUSH1 0x1 ADD SLOAD PUSH2 0x56E PUSH5 0xE8D4A51000 PUSH2 0x568 DUP8 PUSH1 0x3 ADD SLOAD DUP8 PUSH1 0x0 ADD SLOAD PUSH2 0x145C SWAP1 SWAP2 SWAP1 PUSH4 0xFFFFFFFF AND JUMP JUMPDEST SWAP1 PUSH2 0x146F JUMP JUMPDEST SWAP1 PUSH2 0x147B JUMP JUMPDEST PUSH1 0x1 DUP5 ADD SLOAD SWAP1 SWAP2 POP PUSH2 0x590 SWAP1 PUSH1 0x1 PUSH1 0x1 PUSH1 0xA0 SHL SUB AND DUP7 DUP4 PUSH2 0x1487 JUMP JUMPDEST PUSH1 0x1 DUP4 ADD SLOAD PUSH1 0x40 MLOAD PUSH4 0x70A08231 PUSH1 0xE0 SHL DUP2 MSTORE PUSH1 0x1 PUSH1 0x1 PUSH1 0xA0 SHL SUB SWAP1 SWAP2 AND SWAP1 PUSH4 0x70A08231 SWAP1 PUSH2 0x5C2 SWAP1 ADDRESS SWAP1 PUSH1 0x4 ADD PUSH2 0x1E1F JUMP JUMPDEST PUSH1 0x20 PUSH1 0x40 MLOAD DUP1 DUP4 SUB DUP2 DUP7 GAS STATICCALL ISZERO DUP1 ISZERO PUSH2 0x5DF JUMPI RETURNDATASIZE PUSH1 0x0 DUP1 RETURNDATACOPY RETURNDATASIZE PUSH1 0x0 REVERT JUMPDEST POP POP POP POP PUSH1 0x40 MLOAD RETURNDATASIZE PUSH1 0x1F NOT PUSH1 0x1F DUP3 ADD AND DUP3 ADD DUP1 PUSH1 0x40 MSTORE POP DUP2 ADD SWAP1 PUSH2 0x603 SWAP2 SWAP1 PUSH2 0x1EA7 JUMP JUMPDEST PUSH1 0xCC SSTORE POP JUMPDEST PUSH1 0x0 DUP6 DUP2 MSTORE PUSH1 0xCA PUSH1 0x20 MSTORE PUSH1 0x40 SWAP1 KECCAK256 SLOAD PUSH2 0x621 SWAP1 DUP5 PUSH2 0x147B JUMP JUMPDEST PUSH1 0x0 DUP7 DUP2 MSTORE PUSH1 0xCA PUSH1 0x20 MSTORE PUSH1 0x40 DUP2 KECCAK256 SWAP2 SWAP1 SWAP2 SSTORE DUP1 DUP3 SSTORE PUSH1 0x3 DUP4 ADD SLOAD PUSH2 0x650 SWAP2 PUSH5 0xE8D4A51000 SWAP2 PUSH2 0x568 SWAP2 SWAP1 PUSH2 0x145C JUMP JUMPDEST PUSH1 0x1 DUP3 ADD SSTORE PUSH1 0x40 MLOAD DUP4 DUP2 MSTORE DUP6 SWAP1 PUSH1 0x1 PUSH1 0x1 PUSH1 0xA0 SHL SUB DUP7 AND SWAP1 PUSH32 0xF279E6A1F5E320CCA91135676D9CB6E44CA8A08C0B88342BCDB1144F6511B568 SWAP1 PUSH1 0x20 ADD JUMPDEST PUSH1 0x40 MLOAD DUP1 SWAP2 SUB SWAP1 LOG3 POP POP POP POP POP JUMP JUMPDEST PUSH1 0xC9 DUP2 DUP2 SLOAD DUP2 LT PUSH2 0x6AD JUMPI PUSH1 0x0 DUP1 REVERT JUMPDEST SWAP1 PUSH1 0x0 MSTORE PUSH1 0x20 PUSH1 0x0 KECCAK256 SWAP1 PUSH1 0x5 MUL ADD PUSH1 0x0 SWAP2 POP SWAP1 POP DUP1 PUSH1 0x0 ADD DUP1 SLOAD PUSH2 0x6D0 SWAP1 PUSH2 0x1EC0 JUMP JUMPDEST DUP1 PUSH1 0x1F ADD PUSH1 0x20 DUP1 SWAP2 DIV MUL PUSH1 0x20 ADD PUSH1 0x40 MLOAD SWAP1 DUP2 ADD PUSH1 0x40 MSTORE DUP1 SWAP3 SWAP2 SWAP1 DUP2 DUP2 MSTORE PUSH1 0x20 ADD DUP3 DUP1 SLOAD PUSH2 0x6FC SWAP1 PUSH2 0x1EC0 JUMP JUMPDEST DUP1 ISZERO PUSH2 0x749 JUMPI DUP1 PUSH1 0x1F LT PUSH2 0x71E JUMPI PUSH2 0x100 DUP1 DUP4 SLOAD DIV MUL DUP4 MSTORE SWAP2 PUSH1 0x20 ADD SWAP2 PUSH2 0x749 JUMP JUMPDEST DUP3 ADD SWAP2 SWAP1 PUSH1 0x0 MSTORE PUSH1 0x20 PUSH1 0x0 KECCAK256 SWAP1 JUMPDEST DUP2 SLOAD DUP2 MSTORE SWAP1 PUSH1 0x1 ADD SWAP1 PUSH1 0x20 ADD DUP1 DUP4 GT PUSH2 0x72C JUMPI DUP3 SWAP1 SUB PUSH1 0x1F AND DUP3 ADD SWAP2 JUMPDEST POP POP POP POP PUSH1 0x1 DUP4 ADD SLOAD PUSH1 0x2 DUP5 ADD SLOAD PUSH1 0x3 DUP6 ADD SLOAD PUSH1 0x4 SWAP1 SWAP6 ADD SLOAD SWAP4 SWAP5 PUSH1 0x1 PUSH1 0x1 PUSH1 0xA0 SHL SUB SWAP1 SWAP3 AND SWAP4 SWAP1 SWAP3 POP DUP6 JUMP JUMPDEST PUSH2 0x77E PUSH2 0x13FD JUMP JUMPDEST DUP1 ISZERO PUSH2 0x78C JUMPI PUSH2 0x78C PUSH2 0xD27 JUMP JUMPDEST PUSH1 0xCE SLOAD PUSH2 0x799 SWAP1 DUP6 PUSH2 0x14D9 JUMP JUMPDEST PUSH1 0xCE SSTORE PUSH1 0xC9 DUP1 SLOAD PUSH1 0x0 SWAP1 DUP2 MSTORE PUSH1 0xCA PUSH1 0x20 SWAP1 DUP2 MSTORE PUSH1 0x40 DUP1 DUP4 KECCAK256 DUP4 SWAP1 SSTORE DUP1 MLOAD PUSH1 0xA0 DUP2 ADD DUP3 MSTORE DUP8 DUP2 MSTORE PUSH1 0x1 PUSH1 0x1 PUSH1 0xA0 SHL SUB DUP8 AND SWAP3 DUP2 ADD SWAP3 SWAP1 SWAP3 MSTORE DUP2 ADD DUP8 SWAP1 MSTORE PUSH1 0x60 DUP2 ADD DUP3 SWAP1 MSTORE PUSH1 0xCB SLOAD PUSH1 0x80 DUP3 ADD MSTORE DUP3 SLOAD PUSH1 0x1 DUP2 ADD DUP5 SSTORE SWAP3 SWAP1 SWAP2 MSTORE DUP1 MLOAD SWAP1 SWAP2 PUSH1 0x5 MUL PUSH32 0x66BE4F155C5EF2EBD3772B228F2F00681E4ED5826CDB3B1943CC11AD15AD1D28 ADD SWAP1 DUP2 SWAP1 PUSH2 0x826 SWAP1 DUP3 PUSH2 0x1F48 JUMP JUMPDEST POP PUSH1 0x20 DUP3 ADD MLOAD PUSH1 0x1 DUP3 ADD DUP1 SLOAD PUSH1 0x1 PUSH1 0x1 PUSH1 0xA0 SHL SUB NOT AND PUSH1 0x1 PUSH1 0x1 PUSH1 0xA0 SHL SUB SWAP1 SWAP3 AND SWAP2 SWAP1 SWAP2 OR SWAP1 SSTORE PUSH1 0x40 DUP3 ADD MLOAD PUSH1 0x2 DUP3 ADD SSTORE PUSH1 0x60 DUP3 ADD MLOAD PUSH1 0x3 DUP3 ADD SSTORE PUSH1 0x80 SWAP1 SWAP2 ADD MLOAD PUSH1 0x4 SWAP1 SWAP2 ADD SSTORE POP POP POP POP JUMP JUMPDEST PUSH1 0x1 PUSH1 0x1 PUSH1 0xA0 SHL SUB PUSH32 0x0 AND ADDRESS SUB PUSH2 0x8BB JUMPI PUSH1 0x40 MLOAD PUSH3 0x461BCD PUSH1 0xE5 SHL DUP2 MSTORE PUSH1 0x4 ADD PUSH2 0x488 SWAP1 PUSH2 0x2007 JUMP JUMPDEST PUSH32 0x0 PUSH1 0x1 PUSH1 0x1 PUSH1 0xA0 SHL SUB AND PUSH2 0x8ED PUSH2 0x14E5 JUMP JUMPDEST PUSH1 0x1 PUSH1 0x1 PUSH1 0xA0 SHL SUB AND EQ PUSH2 0x913 JUMPI PUSH1 0x40 MLOAD PUSH3 0x461BCD PUSH1 0xE5 SHL DUP2 MSTORE PUSH1 0x4 ADD PUSH2 0x488 SWAP1 PUSH2 0x2041 JUMP JUMPDEST PUSH2 0x91C DUP2 PUSH2 0x1501 JUMP JUMPDEST PUSH1 0x40 DUP1 MLOAD PUSH1 0x0 DUP1 DUP3 MSTORE PUSH1 0x20 DUP3 ADD SWAP1 SWAP3 MSTORE PUSH2 0x938 SWAP2 DUP4 SWAP2 SWAP1 PUSH2 0x1509 JUMP JUMPDEST POP JUMP JUMPDEST PUSH1 0x0 PUSH1 0xC9 DUP3 DUP2 SLOAD DUP2 LT PUSH2 0x950 JUMPI PUSH2 0x950 PUSH2 0x1E91 JUMP JUMPDEST PUSH1 0x0 SWAP2 DUP3 MSTORE PUSH1 0x20 DUP1 DUP4 KECCAK256 DUP6 DUP5 MSTORE PUSH1 0xCD DUP3 MSTORE PUSH1 0x40 DUP1 DUP6 KECCAK256 CALLER DUP7 MSTORE SWAP1 SWAP3 MSTORE SWAP3 KECCAK256 PUSH1 0x5 SWAP1 SWAP2 MUL SWAP1 SWAP2 ADD SWAP2 POP PUSH2 0x981 DUP4 PUSH2 0xB23 JUMP JUMPDEST PUSH1 0x0 PUSH2 0x9AF DUP3 PUSH1 0x1 ADD SLOAD PUSH2 0x56E PUSH5 0xE8D4A51000 PUSH2 0x568 DUP8 PUSH1 0x3 ADD SLOAD DUP8 PUSH1 0x0 ADD SLOAD PUSH2 0x145C SWAP1 SWAP2 SWAP1 PUSH4 0xFFFFFFFF AND JUMP JUMPDEST PUSH1 0x1 DUP5 ADD SLOAD SWAP1 SWAP2 POP PUSH2 0x9CB SWAP1 PUSH1 0x1 PUSH1 0x1 PUSH1 0xA0 SHL SUB AND CALLER DUP4 PUSH2 0x1487 JUMP JUMPDEST PUSH1 0x1 DUP4 ADD SLOAD PUSH1 0x40 MLOAD PUSH4 0x70A08231 PUSH1 0xE0 SHL DUP2 MSTORE PUSH1 0x1 PUSH1 0x1 PUSH1 0xA0 SHL SUB SWAP1 SWAP2 AND SWAP1 PUSH4 0x70A08231 SWAP1 PUSH2 0x9FD SWAP1 ADDRESS SWAP1 PUSH1 0x4 ADD PUSH2 0x1E1F JUMP JUMPDEST PUSH1 0x20 PUSH1 0x40 MLOAD DUP1 DUP4 SUB DUP2 DUP7 GAS STATICCALL ISZERO DUP1 ISZERO PUSH2 0xA1A JUMPI RETURNDATASIZE PUSH1 0x0 DUP1 RETURNDATACOPY RETURNDATASIZE PUSH1 0x0 REVERT JUMPDEST POP POP POP POP PUSH1 0x40 MLOAD RETURNDATASIZE PUSH1 0x1F NOT PUSH1 0x1F DUP3 ADD AND DUP3 ADD DUP1 PUSH1 0x40 MSTORE POP DUP2 ADD SWAP1 PUSH2 0xA3E SWAP2 SWAP1 PUSH2 0x1EA7 JUMP JUMPDEST PUSH1 0xCC SSTORE PUSH1 0x3 DUP4 ADD SLOAD DUP3 SLOAD PUSH2 0xA5C SWAP2 PUSH5 0xE8D4A51000 SWAP2 PUSH2 0x568 SWAP2 PUSH2 0x145C JUMP JUMPDEST DUP3 PUSH1 0x1 ADD DUP2 SWAP1 SSTORE POP POP POP POP POP JUMP JUMPDEST PUSH1 0x1 PUSH1 0x1 PUSH1 0xA0 SHL SUB PUSH32 0x0 AND ADDRESS SUB PUSH2 0xAB2 JUMPI PUSH1 0x40 MLOAD PUSH3 0x461BCD PUSH1 0xE5 SHL DUP2 MSTORE PUSH1 0x4 ADD PUSH2 0x488 SWAP1 PUSH2 0x2007 JUMP JUMPDEST PUSH32 0x0 PUSH1 0x1 PUSH1 0x1 PUSH1 0xA0 SHL SUB AND PUSH2 0xAE4 PUSH2 0x14E5 JUMP JUMPDEST PUSH1 0x1 PUSH1 0x1 PUSH1 0xA0 SHL SUB AND EQ PUSH2 0xB0A JUMPI PUSH1 0x40 MLOAD PUSH3 0x461BCD PUSH1 0xE5 SHL DUP2 MSTORE PUSH1 0x4 ADD PUSH2 0x488 SWAP1 PUSH2 0x2041 JUMP JUMPDEST PUSH2 0xB13 DUP3 PUSH2 0x1501 JUMP JUMPDEST PUSH2 0xB1F DUP3 DUP3 PUSH1 0x1 PUSH2 0x1509 JUMP JUMPDEST POP POP JUMP JUMPDEST PUSH1 0x0 PUSH1 0xC9 DUP3 DUP2 SLOAD DUP2 LT PUSH2 0xB38 JUMPI PUSH2 0xB38 PUSH2 0x1E91 JUMP JUMPDEST PUSH1 0x0 SWAP2 DUP3 MSTORE PUSH1 0x20 DUP3 KECCAK256 PUSH1 0x1 PUSH1 0x5 SWAP1 SWAP3 MUL ADD SWAP1 DUP2 ADD SLOAD PUSH1 0x40 MLOAD PUSH4 0x70A08231 PUSH1 0xE0 SHL DUP2 MSTORE SWAP2 SWAP4 POP PUSH1 0x1 PUSH1 0x1 PUSH1 0xA0 SHL SUB AND SWAP1 PUSH4 0x70A08231 SWAP1 PUSH2 0xB7B SWAP1 ADDRESS SWAP1 PUSH1 0x4 ADD PUSH2 0x1E1F JUMP JUMPDEST PUSH1 0x20 PUSH1 0x40 MLOAD DUP1 DUP4 SUB DUP2 DUP7 GAS STATICCALL ISZERO DUP1 ISZERO PUSH2 0xB98 JUMPI RETURNDATASIZE PUSH1 0x0 DUP1 RETURNDATACOPY RETURNDATASIZE PUSH1 0x0 REVERT JUMPDEST POP POP POP POP PUSH1 0x40 MLOAD RETURNDATASIZE PUSH1 0x1F NOT PUSH1 0x1F DUP3 ADD AND DUP3 ADD DUP1 PUSH1 0x40 MSTORE POP DUP2 ADD SWAP1 PUSH2 0xBBC SWAP2 SWAP1 PUSH2 0x1EA7 JUMP JUMPDEST SWAP1 POP PUSH1 0x0 PUSH2 0xBE1 PUSH2 0xBD8 PUSH1 0xCC SLOAD DUP5 PUSH2 0x147B SWAP1 SWAP2 SWAP1 PUSH4 0xFFFFFFFF AND JUMP JUMPDEST PUSH1 0xCB SLOAD SWAP1 PUSH2 0x14D9 JUMP JUMPDEST PUSH1 0xCC DUP4 SWAP1 SSTORE PUSH1 0xCB DUP2 SWAP1 SSTORE PUSH1 0x0 DUP6 DUP2 MSTORE PUSH1 0xCA PUSH1 0x20 MSTORE PUSH1 0x40 DUP2 KECCAK256 SLOAD SWAP2 SWAP3 POP DUP2 SWAP1 SUB PUSH2 0xC15 JUMPI PUSH1 0x0 DUP5 PUSH1 0x4 ADD DUP2 SWAP1 SSTORE POP POP POP POP POP POP JUMP JUMPDEST PUSH1 0x0 PUSH2 0xC42 PUSH1 0xCE SLOAD PUSH2 0x568 DUP8 PUSH1 0x2 ADD SLOAD PUSH2 0xC3C DUP10 PUSH1 0x4 ADD SLOAD DUP9 PUSH2 0x147B SWAP1 SWAP2 SWAP1 PUSH4 0xFFFFFFFF AND JUMP JUMPDEST SWAP1 PUSH2 0x145C JUMP JUMPDEST SWAP1 POP PUSH2 0xC65 PUSH2 0xC5A DUP4 PUSH2 0x568 DUP5 PUSH5 0xE8D4A51000 PUSH2 0x145C JUMP JUMPDEST PUSH1 0x3 DUP8 ADD SLOAD SWAP1 PUSH2 0x14D9 JUMP JUMPDEST PUSH1 0x3 DUP7 ADD SSTORE POP POP PUSH1 0x4 SWAP1 SWAP3 ADD SWAP2 SWAP1 SWAP2 SSTORE POP POP JUMP JUMPDEST PUSH1 0x0 ADDRESS PUSH1 0x1 PUSH1 0x1 PUSH1 0xA0 SHL SUB PUSH32 0x0 AND EQ PUSH2 0xD14 JUMPI PUSH1 0x40 MLOAD PUSH3 0x461BCD PUSH1 0xE5 SHL DUP2 MSTORE PUSH1 0x20 PUSH1 0x4 DUP3 ADD MSTORE PUSH1 0x38 PUSH1 0x24 DUP3 ADD MSTORE PUSH32 0x555550535570677261646561626C653A206D757374206E6F742062652063616C PUSH1 0x44 DUP3 ADD MSTORE PUSH24 0x1B1959081D1A1C9BDD59DA0819195B1959D85D1958D85B1B PUSH1 0x42 SHL PUSH1 0x64 DUP3 ADD MSTORE PUSH1 0x84 ADD PUSH2 0x488 JUMP JUMPDEST POP PUSH1 0x0 DUP1 MLOAD PUSH1 0x20 PUSH2 0x21C1 DUP4 CODECOPY DUP2 MLOAD SWAP2 MSTORE SWAP1 JUMP JUMPDEST PUSH1 0xC9 SLOAD PUSH1 0x0 JUMPDEST DUP2 DUP2 LT ISZERO PUSH2 0xB1F JUMPI PUSH2 0xD3E DUP2 PUSH2 0xB23 JUMP JUMPDEST PUSH2 0xD47 DUP2 PUSH2 0x2091 JUMP JUMPDEST SWAP1 POP PUSH2 0xD2D JUMP JUMPDEST PUSH2 0xD56 PUSH2 0x13FD JUMP JUMPDEST DUP1 ISZERO PUSH2 0xD64 JUMPI PUSH2 0xD64 PUSH2 0xD27 JUMP JUMPDEST PUSH2 0xDA7 DUP3 PUSH2 0xDA1 PUSH1 0xC9 DUP7 DUP2 SLOAD DUP2 LT PUSH2 0xD7E JUMPI PUSH2 0xD7E PUSH2 0x1E91 JUMP JUMPDEST SWAP1 PUSH1 0x0 MSTORE PUSH1 0x20 PUSH1 0x0 KECCAK256 SWAP1 PUSH1 0x5 MUL ADD PUSH1 0x2 ADD SLOAD PUSH1 0xCE SLOAD PUSH2 0x147B SWAP1 SWAP2 SWAP1 PUSH4 0xFFFFFFFF AND JUMP JUMPDEST SWAP1 PUSH2 0x14D9 JUMP JUMPDEST PUSH1 0xCE DUP2 SWAP1 SSTORE POP DUP2 PUSH1 0xC9 DUP5 DUP2 SLOAD DUP2 LT PUSH2 0xDC1 JUMPI PUSH2 0xDC1 PUSH2 0x1E91 JUMP JUMPDEST SWAP1 PUSH1 0x0 MSTORE PUSH1 0x20 PUSH1 0x0 KECCAK256 SWAP1 PUSH1 0x5 MUL ADD PUSH1 0x2 ADD DUP2 SWAP1 SSTORE POP POP POP POP JUMP JUMPDEST PUSH2 0xDE3 PUSH2 0x13FD JUMP JUMPDEST PUSH1 0x0 PUSH8 0xDE0B6B3A7640000 SWAP1 POP PUSH1 0x0 PUSH1 0xC9 DUP5 DUP2 SLOAD DUP2 LT PUSH2 0xE05 JUMPI PUSH2 0xE05 PUSH2 0x1E91 JUMP JUMPDEST PUSH1 0x0 SWAP2 DUP3 MSTORE PUSH1 0x20 DUP1 DUP4 KECCAK256 DUP8 DUP5 MSTORE PUSH1 0xCD DUP3 MSTORE PUSH1 0x40 DUP1 DUP6 KECCAK256 PUSH1 0x1 PUSH1 0x1 PUSH1 0xA0 SHL SUB DUP10 AND DUP7 MSTORE SWAP1 SWAP3 MSTORE SWAP3 KECCAK256 PUSH1 0x5 SWAP1 SWAP2 MUL SWAP1 SWAP2 ADD SWAP2 POP PUSH2 0xE3F DUP6 PUSH2 0xB23 JUMP JUMPDEST DUP1 SLOAD ISZERO PUSH2 0xF08 JUMPI PUSH1 0x0 PUSH2 0xE74 DUP3 PUSH1 0x1 ADD SLOAD PUSH2 0x56E PUSH5 0xE8D4A51000 PUSH2 0x568 DUP8 PUSH1 0x3 ADD SLOAD DUP8 PUSH1 0x0 ADD SLOAD PUSH2 0x145C SWAP1 SWAP2 SWAP1 PUSH4 0xFFFFFFFF AND JUMP JUMPDEST PUSH1 0x1 DUP5 ADD SLOAD SWAP1 SWAP2 POP PUSH2 0xE90 SWAP1 PUSH1 0x1 PUSH1 0x1 PUSH1 0xA0 SHL SUB AND DUP7 DUP4 PUSH2 0x1487 JUMP JUMPDEST PUSH1 0x1 DUP4 ADD SLOAD PUSH1 0x40 MLOAD PUSH4 0x70A08231 PUSH1 0xE0 SHL DUP2 MSTORE PUSH1 0x1 PUSH1 0x1 PUSH1 0xA0 SHL SUB SWAP1 SWAP2 AND SWAP1 PUSH4 0x70A08231 SWAP1 PUSH2 0xEC2 SWAP1 ADDRESS SWAP1 PUSH1 0x4 ADD PUSH2 0x1E1F JUMP JUMPDEST PUSH1 0x20 PUSH1 0x40 MLOAD DUP1 DUP4 SUB DUP2 DUP7 GAS STATICCALL ISZERO DUP1 ISZERO PUSH2 0xEDF JUMPI RETURNDATASIZE PUSH1 0x0 DUP1 RETURNDATACOPY RETURNDATASIZE PUSH1 0x0 REVERT JUMPDEST POP POP POP POP PUSH1 0x40 MLOAD RETURNDATASIZE PUSH1 0x1F NOT PUSH1 0x1F DUP3 ADD AND DUP3 ADD DUP1 PUSH1 0x40 MSTORE POP DUP2 ADD SWAP1 PUSH2 0xF03 SWAP2 SWAP1 PUSH2 0x1EA7 JUMP JUMPDEST PUSH1 0xCC SSTORE POP JUMPDEST PUSH1 0x0 DUP6 DUP2 MSTORE PUSH1 0xCA PUSH1 0x20 MSTORE PUSH1 0x40 SWAP1 KECCAK256 SLOAD PUSH2 0xF21 SWAP1 DUP5 PUSH2 0x14D9 JUMP JUMPDEST PUSH1 0x0 DUP7 DUP2 MSTORE PUSH1 0xCA PUSH1 0x20 MSTORE PUSH1 0x40 SWAP1 KECCAK256 SSTORE DUP1 SLOAD PUSH2 0xF3C SWAP1 DUP5 PUSH2 0x14D9 JUMP JUMPDEST DUP1 DUP3 SSTORE PUSH1 0x3 DUP4 ADD SLOAD PUSH2 0xF59 SWAP2 PUSH5 0xE8D4A51000 SWAP2 PUSH2 0x568 SWAP2 SWAP1 PUSH2 0x145C JUMP JUMPDEST PUSH1 0x1 DUP3 ADD SSTORE PUSH1 0x40 MLOAD DUP4 DUP2 MSTORE DUP6 SWAP1 PUSH1 0x1 PUSH1 0x1 PUSH1 0xA0 SHL SUB DUP7 AND SWAP1 PUSH32 0x90890809C654F11D6E72A28FA60149770A0D11EC6C92319D6CEB2BB0A4EA1A15 SWAP1 PUSH1 0x20 ADD PUSH2 0x68E JUMP JUMPDEST PUSH2 0xFA3 PUSH2 0x13FD JUMP JUMPDEST PUSH2 0xFAD PUSH1 0x0 PUSH2 0x1674 JUMP JUMPDEST JUMP JUMPDEST PUSH1 0x0 DUP1 PUSH1 0xC9 DUP5 DUP2 SLOAD DUP2 LT PUSH2 0xFC5 JUMPI PUSH2 0xFC5 PUSH2 0x1E91 JUMP JUMPDEST PUSH1 0x0 SWAP2 DUP3 MSTORE PUSH1 0x20 DUP1 DUP4 KECCAK256 DUP8 DUP5 MSTORE PUSH1 0xCD DUP3 MSTORE PUSH1 0x40 DUP1 DUP6 KECCAK256 PUSH1 0x1 PUSH1 0x1 PUSH1 0xA0 SHL SUB DUP1 DUP11 AND DUP8 MSTORE SWAP1 DUP5 MSTORE DUP2 DUP7 KECCAK256 PUSH1 0x3 PUSH1 0x5 SWAP1 SWAP7 MUL SWAP1 SWAP4 ADD SWAP5 DUP6 ADD SLOAD DUP11 DUP8 MSTORE PUSH1 0xCA SWAP1 SWAP5 MSTORE DUP2 DUP7 KECCAK256 SLOAD PUSH1 0x1 DUP7 ADD SLOAD SWAP3 MLOAD PUSH4 0x70A08231 PUSH1 0xE0 SHL DUP2 MSTORE SWAP6 SWAP8 POP SWAP3 SWAP6 SWAP4 SWAP5 SWAP3 SWAP4 SWAP3 SWAP2 AND SWAP1 PUSH4 0x70A08231 SWAP1 PUSH2 0x103A SWAP1 ADDRESS SWAP1 PUSH1 0x4 ADD PUSH2 0x1E1F JUMP JUMPDEST PUSH1 0x20 PUSH1 0x40 MLOAD DUP1 DUP4 SUB DUP2 DUP7 GAS STATICCALL ISZERO DUP1 ISZERO PUSH2 0x1057 JUMPI RETURNDATASIZE PUSH1 0x0 DUP1 RETURNDATACOPY RETURNDATASIZE PUSH1 0x0 REVERT JUMPDEST POP POP POP POP PUSH1 0x40 MLOAD RETURNDATASIZE PUSH1 0x1F NOT PUSH1 0x1F DUP3 ADD AND DUP3 ADD DUP1 PUSH1 0x40 MSTORE POP DUP2 ADD SWAP1 PUSH2 0x107B SWAP2 SWAP1 PUSH2 0x1EA7 JUMP JUMPDEST PUSH1 0xCB SLOAD PUSH1 0xCC SLOAD SWAP2 SWAP3 POP SWAP1 DUP3 GT ISZERO PUSH2 0x10AE JUMPI PUSH2 0x10AB PUSH2 0x10A4 PUSH1 0xCC SLOAD DUP5 PUSH2 0x147B SWAP1 SWAP2 SWAP1 PUSH4 0xFFFFFFFF AND JUMP JUMPDEST DUP3 SWAP1 PUSH2 0x14D9 JUMP JUMPDEST SWAP1 POP JUMPDEST DUP6 PUSH1 0x4 ADD SLOAD DUP2 GT DUP1 ISZERO PUSH2 0x10C0 JUMPI POP DUP3 ISZERO ISZERO JUMPDEST ISZERO PUSH2 0x110F JUMPI PUSH1 0x0 PUSH2 0x10EC PUSH1 0xCE SLOAD PUSH2 0x568 DUP10 PUSH1 0x2 ADD SLOAD PUSH2 0xC3C DUP12 PUSH1 0x4 ADD SLOAD DUP8 PUSH2 0x147B SWAP1 SWAP2 SWAP1 PUSH4 0xFFFFFFFF AND JUMP JUMPDEST SWAP1 POP PUSH2 0x110B PUSH2 0x1104 DUP6 PUSH2 0x568 DUP5 PUSH5 0xE8D4A51000 PUSH2 0x145C JUMP JUMPDEST DUP7 SWAP1 PUSH2 0x14D9 JUMP JUMPDEST SWAP5 POP POP JUMPDEST PUSH2 0x1137 DUP6 PUSH1 0x1 ADD SLOAD PUSH2 0x56E PUSH5 0xE8D4A51000 PUSH2 0x568 DUP9 DUP11 PUSH1 0x0 ADD SLOAD PUSH2 0x145C SWAP1 SWAP2 SWAP1 PUSH4 0xFFFFFFFF AND JUMP JUMPDEST SWAP7 POP POP POP POP POP POP POP JUMPDEST SWAP3 SWAP2 POP POP JUMP JUMPDEST PUSH1 0x0 SLOAD PUSH2 0x100 SWAP1 DIV PUSH1 0xFF AND ISZERO DUP1 DUP1 ISZERO PUSH2 0x1166 JUMPI POP PUSH1 0x0 SLOAD PUSH1 0x1 PUSH1 0xFF SWAP1 SWAP2 AND LT JUMPDEST DUP1 PUSH2 0x1187 JUMPI POP PUSH2 0x1175 ADDRESS PUSH2 0x16C6 JUMP JUMPDEST ISZERO DUP1 ISZERO PUSH2 0x1187 JUMPI POP PUSH1 0x0 SLOAD PUSH1 0xFF AND PUSH1 0x1 EQ JUMPDEST PUSH2 0x11EA JUMPI PUSH1 0x40 MLOAD PUSH3 0x461BCD PUSH1 0xE5 SHL DUP2 MSTORE PUSH1 0x20 PUSH1 0x4 DUP3 ADD MSTORE PUSH1 0x2E PUSH1 0x24 DUP3 ADD MSTORE PUSH32 0x496E697469616C697A61626C653A20636F6E747261637420697320616C726561 PUSH1 0x44 DUP3 ADD MSTORE PUSH14 0x191E481A5B9A5D1A585B1A5E9959 PUSH1 0x92 SHL PUSH1 0x64 DUP3 ADD MSTORE PUSH1 0x84 ADD PUSH2 0x488 JUMP JUMPDEST PUSH1 0x0 DUP1 SLOAD PUSH1 0xFF NOT AND PUSH1 0x1 OR SWAP1 SSTORE DUP1 ISZERO PUSH2 0x120D JUMPI PUSH1 0x0 DUP1 SLOAD PUSH2 0xFF00 NOT AND PUSH2 0x100 OR SWAP1 SSTORE JUMPDEST PUSH2 0x1215 PUSH2 0x16D5 JUMP JUMPDEST PUSH2 0x121D PUSH2 0x1704 JUMP JUMPDEST DUP1 ISZERO PUSH2 0x938 JUMPI PUSH1 0x0 DUP1 SLOAD PUSH2 0xFF00 NOT AND SWAP1 SSTORE PUSH1 0x40 MLOAD PUSH1 0x1 DUP2 MSTORE PUSH32 0x7F26B83FF96E1F2B6A682F133852F6798A09C465DA95921460CEFB3847402498 SWAP1 PUSH1 0x20 ADD PUSH1 0x40 MLOAD DUP1 SWAP2 SUB SWAP1 LOG1 POP JUMP JUMPDEST PUSH1 0x33 SLOAD PUSH1 0x1 PUSH1 0x1 PUSH1 0xA0 SHL SUB AND SWAP1 JUMP JUMPDEST PUSH2 0x127C PUSH2 0x13FD JUMP JUMPDEST PUSH1 0x1 PUSH1 0x1 PUSH1 0xA0 SHL SUB DUP3 AND PUSH2 0x12C7 JUMPI PUSH1 0x40 MLOAD PUSH3 0x461BCD PUSH1 0xE5 SHL DUP2 MSTORE PUSH1 0x20 PUSH1 0x4 DUP3 ADD MSTORE PUSH1 0x12 PUSH1 0x24 DUP3 ADD MSTORE PUSH18 0x496E76616C696420746F2061646472657373 PUSH1 0x70 SHL PUSH1 0x44 DUP3 ADD MSTORE PUSH1 0x64 ADD PUSH2 0x488 JUMP JUMPDEST PUSH2 0x12DB PUSH1 0x1 PUSH1 0x1 PUSH1 0xA0 SHL SUB DUP5 AND DUP4 DUP4 PUSH2 0x1487 JUMP JUMPDEST POP POP POP JUMP JUMPDEST PUSH2 0x12E8 PUSH2 0x13FD JUMP JUMPDEST PUSH1 0xCF SLOAD DUP2 ISZERO ISZERO PUSH1 0xFF SWAP1 SWAP2 AND ISZERO ISZERO SUB PUSH2 0x1338 JUMPI PUSH1 0x40 MLOAD PUSH3 0x461BCD PUSH1 0xE5 SHL DUP2 MSTORE PUSH1 0x20 PUSH1 0x4 DUP3 ADD MSTORE PUSH1 0x13 PUSH1 0x24 DUP3 ADD MSTORE PUSH19 0x416C72656164792073616D6520737461747573 PUSH1 0x68 SHL PUSH1 0x44 DUP3 ADD MSTORE PUSH1 0x64 ADD PUSH2 0x488 JUMP JUMPDEST PUSH1 0xCF SLOAD PUSH1 0x40 MLOAD PUSH1 0xFF SWAP1 SWAP2 AND ISZERO ISZERO DUP2 MSTORE PUSH32 0xAABD69043913452081C95083767698092818AA855567BCD42ACC80EBE691F83B SWAP1 PUSH1 0x20 ADD PUSH1 0x40 MLOAD DUP1 SWAP2 SUB SWAP1 LOG1 PUSH1 0xCF DUP1 SLOAD PUSH1 0xFF NOT AND SWAP2 ISZERO ISZERO SWAP2 SWAP1 SWAP2 OR SWAP1 SSTORE JUMP JUMPDEST PUSH2 0x138F PUSH2 0x13FD JUMP JUMPDEST PUSH1 0x1 PUSH1 0x1 PUSH1 0xA0 SHL SUB DUP2 AND PUSH2 0x13F4 JUMPI PUSH1 0x40 MLOAD PUSH3 0x461BCD PUSH1 0xE5 SHL DUP2 MSTORE PUSH1 0x20 PUSH1 0x4 DUP3 ADD MSTORE PUSH1 0x26 PUSH1 0x24 DUP3 ADD MSTORE PUSH32 0x4F776E61626C653A206E6577206F776E657220697320746865207A65726F2061 PUSH1 0x44 DUP3 ADD MSTORE PUSH6 0x646472657373 PUSH1 0xD0 SHL PUSH1 0x64 DUP3 ADD MSTORE PUSH1 0x84 ADD PUSH2 0x488 JUMP JUMPDEST PUSH2 0x938 DUP2 PUSH2 0x1674 JUMP JUMPDEST CALLER PUSH2 0x1406 PUSH2 0x1265 JUMP JUMPDEST PUSH1 0x1 PUSH1 0x1 PUSH1 0xA0 SHL SUB AND EQ PUSH2 0xFAD JUMPI PUSH1 0x40 MLOAD PUSH3 0x461BCD PUSH1 0xE5 SHL DUP2 MSTORE PUSH1 0x20 PUSH1 0x4 DUP3 ADD DUP2 SWAP1 MSTORE PUSH1 0x24 DUP3 ADD MSTORE PUSH32 0x4F776E61626C653A2063616C6C6572206973206E6F7420746865206F776E6572 PUSH1 0x44 DUP3 ADD MSTORE PUSH1 0x64 ADD PUSH2 0x488 JUMP JUMPDEST PUSH1 0x0 PUSH2 0x1468 DUP3 DUP5 PUSH2 0x20AA JUMP JUMPDEST SWAP4 SWAP3 POP POP POP JUMP JUMPDEST PUSH1 0x0 PUSH2 0x1468 DUP3 DUP5 PUSH2 0x20C1 JUMP JUMPDEST PUSH1 0x0 PUSH2 0x1468 DUP3 DUP5 PUSH2 0x20E3 JUMP JUMPDEST PUSH1 0x40 DUP1 MLOAD PUSH1 0x1 PUSH1 0x1 PUSH1 0xA0 SHL SUB DUP5 AND PUSH1 0x24 DUP3 ADD MSTORE PUSH1 0x44 DUP1 DUP3 ADD DUP5 SWAP1 MSTORE DUP3 MLOAD DUP1 DUP4 SUB SWAP1 SWAP2 ADD DUP2 MSTORE PUSH1 0x64 SWAP1 SWAP2 ADD SWAP1 SWAP2 MSTORE PUSH1 0x20 DUP2 ADD DUP1 MLOAD PUSH1 0x1 PUSH1 0x1 PUSH1 0xE0 SHL SUB AND PUSH4 0xA9059CBB PUSH1 0xE0 SHL OR SWAP1 MSTORE PUSH2 0x12DB SWAP1 DUP5 SWAP1 PUSH2 0x172B JUMP JUMPDEST PUSH1 0x0 PUSH2 0x1468 DUP3 DUP5 PUSH2 0x20F6 JUMP JUMPDEST PUSH1 0x0 DUP1 MLOAD PUSH1 0x20 PUSH2 0x21C1 DUP4 CODECOPY DUP2 MLOAD SWAP2 MSTORE SLOAD PUSH1 0x1 PUSH1 0x1 PUSH1 0xA0 SHL SUB AND SWAP1 JUMP JUMPDEST PUSH2 0x938 PUSH2 0x13FD JUMP JUMPDEST PUSH32 0x4910FDFA16FED3260ED0E7147F7CC6DA11A60208B5B9406D12A635614FFD9143 SLOAD PUSH1 0xFF AND ISZERO PUSH2 0x153C JUMPI PUSH2 0x12DB DUP4 PUSH2 0x1800 JUMP JUMPDEST DUP3 PUSH1 0x1 PUSH1 0x1 PUSH1 0xA0 SHL SUB AND PUSH4 0x52D1902D PUSH1 0x40 MLOAD DUP2 PUSH4 0xFFFFFFFF AND PUSH1 0xE0 SHL DUP2 MSTORE PUSH1 0x4 ADD PUSH1 0x20 PUSH1 0x40 MLOAD DUP1 DUP4 SUB DUP2 DUP7 GAS STATICCALL SWAP3 POP POP POP DUP1 ISZERO PUSH2 0x1596 JUMPI POP PUSH1 0x40 DUP1 MLOAD PUSH1 0x1F RETURNDATASIZE SWAP1 DUP2 ADD PUSH1 0x1F NOT AND DUP3 ADD SWAP1 SWAP3 MSTORE PUSH2 0x1593 SWAP2 DUP2 ADD SWAP1 PUSH2 0x1EA7 JUMP JUMPDEST PUSH1 0x1 JUMPDEST PUSH2 0x15F9 JUMPI PUSH1 0x40 MLOAD PUSH3 0x461BCD PUSH1 0xE5 SHL DUP2 MSTORE PUSH1 0x20 PUSH1 0x4 DUP3 ADD MSTORE PUSH1 0x2E PUSH1 0x24 DUP3 ADD MSTORE PUSH32 0x45524331393637557067726164653A206E657720696D706C656D656E74617469 PUSH1 0x44 DUP3 ADD MSTORE PUSH14 0x6F6E206973206E6F742055555053 PUSH1 0x90 SHL PUSH1 0x64 DUP3 ADD MSTORE PUSH1 0x84 ADD PUSH2 0x488 JUMP JUMPDEST PUSH1 0x0 DUP1 MLOAD PUSH1 0x20 PUSH2 0x21C1 DUP4 CODECOPY DUP2 MLOAD SWAP2 MSTORE DUP2 EQ PUSH2 0x1668 JUMPI PUSH1 0x40 MLOAD PUSH3 0x461BCD PUSH1 0xE5 SHL DUP2 MSTORE PUSH1 0x20 PUSH1 0x4 DUP3 ADD MSTORE PUSH1 0x29 PUSH1 0x24 DUP3 ADD MSTORE PUSH32 0x45524331393637557067726164653A20756E737570706F727465642070726F78 PUSH1 0x44 DUP3 ADD MSTORE PUSH9 0x1A58589B1955555251 PUSH1 0xBA SHL PUSH1 0x64 DUP3 ADD MSTORE PUSH1 0x84 ADD PUSH2 0x488 JUMP JUMPDEST POP PUSH2 0x12DB DUP4 DUP4 DUP4 PUSH2 0x189A JUMP JUMPDEST PUSH1 0x33 DUP1 SLOAD PUSH1 0x1 PUSH1 0x1 PUSH1 0xA0 SHL SUB DUP4 DUP2 AND PUSH1 0x1 PUSH1 0x1 PUSH1 0xA0 SHL SUB NOT DUP4 AND DUP2 OR SWAP1 SWAP4 SSTORE PUSH1 0x40 MLOAD SWAP2 AND SWAP2 SWAP1 DUP3 SWAP1 PUSH32 0x8BE0079C531659141344CD1FD0A4F28419497F9722A3DAAFE3B4186F6B6457E0 SWAP1 PUSH1 0x0 SWAP1 LOG3 POP POP JUMP JUMPDEST PUSH1 0x1 PUSH1 0x1 PUSH1 0xA0 SHL SUB AND EXTCODESIZE ISZERO ISZERO SWAP1 JUMP JUMPDEST PUSH1 0x0 SLOAD PUSH2 0x100 SWAP1 DIV PUSH1 0xFF AND PUSH2 0x16FC JUMPI PUSH1 0x40 MLOAD PUSH3 0x461BCD PUSH1 0xE5 SHL DUP2 MSTORE PUSH1 0x4 ADD PUSH2 0x488 SWAP1 PUSH2 0x2109 JUMP JUMPDEST PUSH2 0xFAD PUSH2 0x18C5 JUMP JUMPDEST PUSH1 0x0 SLOAD PUSH2 0x100 SWAP1 DIV PUSH1 0xFF AND PUSH2 0xFAD JUMPI PUSH1 0x40 MLOAD PUSH3 0x461BCD PUSH1 0xE5 SHL DUP2 MSTORE PUSH1 0x4 ADD PUSH2 0x488 SWAP1 PUSH2 0x2109 JUMP JUMPDEST PUSH1 0x0 PUSH2 0x1780 DUP3 PUSH1 0x40 MLOAD DUP1 PUSH1 0x40 ADD PUSH1 0x40 MSTORE DUP1 PUSH1 0x20 DUP2 MSTORE PUSH1 0x20 ADD PUSH32 0x5361666545524332303A206C6F772D6C6576656C2063616C6C206661696C6564 DUP2 MSTORE POP DUP6 PUSH1 0x1 PUSH1 0x1 PUSH1 0xA0 SHL SUB AND PUSH2 0x18F5 SWAP1 SWAP3 SWAP2 SWAP1 PUSH4 0xFFFFFFFF AND JUMP JUMPDEST SWAP1 POP DUP1 MLOAD PUSH1 0x0 EQ DUP1 PUSH2 0x17A1 JUMPI POP DUP1 DUP1 PUSH1 0x20 ADD SWAP1 MLOAD DUP2 ADD SWAP1 PUSH2 0x17A1 SWAP2 SWAP1 PUSH2 0x2154 JUMP JUMPDEST PUSH2 0x12DB JUMPI PUSH1 0x40 MLOAD PUSH3 0x461BCD PUSH1 0xE5 SHL DUP2 MSTORE PUSH1 0x20 PUSH1 0x4 DUP3 ADD MSTORE PUSH1 0x2A PUSH1 0x24 DUP3 ADD MSTORE PUSH32 0x5361666545524332303A204552433230206F7065726174696F6E20646964206E PUSH1 0x44 DUP3 ADD MSTORE PUSH10 0x1BDD081CDD58D8D95959 PUSH1 0xB2 SHL PUSH1 0x64 DUP3 ADD MSTORE PUSH1 0x84 ADD PUSH2 0x488 JUMP JUMPDEST PUSH2 0x1809 DUP2 PUSH2 0x16C6 JUMP JUMPDEST PUSH2 0x186B JUMPI PUSH1 0x40 MLOAD PUSH3 0x461BCD PUSH1 0xE5 SHL DUP2 MSTORE PUSH1 0x20 PUSH1 0x4 DUP3 ADD MSTORE PUSH1 0x2D PUSH1 0x24 DUP3 ADD MSTORE PUSH32 0x455243313936373A206E657720696D706C656D656E746174696F6E206973206E PUSH1 0x44 DUP3 ADD MSTORE PUSH13 0x1BDD08184818DBDB9D1C9858DD PUSH1 0x9A SHL PUSH1 0x64 DUP3 ADD MSTORE PUSH1 0x84 ADD PUSH2 0x488 JUMP JUMPDEST PUSH1 0x0 DUP1 MLOAD PUSH1 0x20 PUSH2 0x21C1 DUP4 CODECOPY DUP2 MLOAD SWAP2 MSTORE DUP1 SLOAD PUSH1 0x1 PUSH1 0x1 PUSH1 0xA0 SHL SUB NOT AND PUSH1 0x1 PUSH1 0x1 PUSH1 0xA0 SHL SUB SWAP3 SWAP1 SWAP3 AND SWAP2 SWAP1 SWAP2 OR SWAP1 SSTORE JUMP JUMPDEST PUSH2 0x18A3 DUP4 PUSH2 0x190C JUMP JUMPDEST PUSH1 0x0 DUP3 MLOAD GT DUP1 PUSH2 0x18B0 JUMPI POP DUP1 JUMPDEST ISZERO PUSH2 0x12DB JUMPI PUSH2 0x18BF DUP4 DUP4 PUSH2 0x194C JUMP JUMPDEST POP POP POP POP JUMP JUMPDEST PUSH1 0x0 SLOAD PUSH2 0x100 SWAP1 DIV PUSH1 0xFF AND PUSH2 0x18EC JUMPI PUSH1 0x40 MLOAD PUSH3 0x461BCD PUSH1 0xE5 SHL DUP2 MSTORE PUSH1 0x4 ADD PUSH2 0x488 SWAP1 PUSH2 0x2109 JUMP JUMPDEST PUSH2 0xFAD CALLER PUSH2 0x1674 JUMP JUMPDEST PUSH1 0x60 PUSH2 0x1904 DUP5 DUP5 PUSH1 0x0 DUP6 PUSH2 0x1971 JUMP JUMPDEST SWAP5 SWAP4 POP POP POP POP JUMP JUMPDEST PUSH2 0x1915 DUP2 PUSH2 0x1800 JUMP JUMPDEST PUSH1 0x40 MLOAD PUSH1 0x1 PUSH1 0x1 PUSH1 0xA0 SHL SUB DUP3 AND SWAP1 PUSH32 0xBC7CD75A20EE27FD9ADEBAB32041F755214DBC6BFFA90CC0225B39DA2E5C2D3B SWAP1 PUSH1 0x0 SWAP1 LOG2 POP JUMP JUMPDEST PUSH1 0x60 PUSH2 0x1468 DUP4 DUP4 PUSH1 0x40 MLOAD DUP1 PUSH1 0x60 ADD PUSH1 0x40 MSTORE DUP1 PUSH1 0x27 DUP2 MSTORE PUSH1 0x20 ADD PUSH2 0x21E1 PUSH1 0x27 SWAP2 CODECOPY PUSH2 0x1A4C JUMP JUMPDEST PUSH1 0x60 DUP3 SELFBALANCE LT ISZERO PUSH2 0x19D2 JUMPI PUSH1 0x40 MLOAD PUSH3 0x461BCD PUSH1 0xE5 SHL DUP2 MSTORE PUSH1 0x20 PUSH1 0x4 DUP3 ADD MSTORE PUSH1 0x26 PUSH1 0x24 DUP3 ADD MSTORE PUSH32 0x416464726573733A20696E73756666696369656E742062616C616E636520666F PUSH1 0x44 DUP3 ADD MSTORE PUSH6 0x1C8818D85B1B PUSH1 0xD2 SHL PUSH1 0x64 DUP3 ADD MSTORE PUSH1 0x84 ADD PUSH2 0x488 JUMP JUMPDEST PUSH1 0x0 DUP1 DUP7 PUSH1 0x1 PUSH1 0x1 PUSH1 0xA0 SHL SUB AND DUP6 DUP8 PUSH1 0x40 MLOAD PUSH2 0x19EE SWAP2 SWAP1 PUSH2 0x2171 JUMP JUMPDEST PUSH1 0x0 PUSH1 0x40 MLOAD DUP1 DUP4 SUB DUP2 DUP6 DUP8 GAS CALL SWAP3 POP POP POP RETURNDATASIZE DUP1 PUSH1 0x0 DUP2 EQ PUSH2 0x1A2B JUMPI PUSH1 0x40 MLOAD SWAP2 POP PUSH1 0x1F NOT PUSH1 0x3F RETURNDATASIZE ADD AND DUP3 ADD PUSH1 0x40 MSTORE RETURNDATASIZE DUP3 MSTORE RETURNDATASIZE PUSH1 0x0 PUSH1 0x20 DUP5 ADD RETURNDATACOPY PUSH2 0x1A30 JUMP JUMPDEST PUSH1 0x60 SWAP2 POP JUMPDEST POP SWAP2 POP SWAP2 POP PUSH2 0x1A41 DUP8 DUP4 DUP4 DUP8 PUSH2 0x1AC4 JUMP JUMPDEST SWAP8 SWAP7 POP POP POP POP POP POP POP JUMP JUMPDEST PUSH1 0x60 PUSH1 0x0 DUP1 DUP6 PUSH1 0x1 PUSH1 0x1 PUSH1 0xA0 SHL SUB AND DUP6 PUSH1 0x40 MLOAD PUSH2 0x1A69 SWAP2 SWAP1 PUSH2 0x2171 JUMP JUMPDEST PUSH1 0x0 PUSH1 0x40 MLOAD DUP1 DUP4 SUB DUP2 DUP6 GAS DELEGATECALL SWAP2 POP POP RETURNDATASIZE DUP1 PUSH1 0x0 DUP2 EQ PUSH2 0x1AA4 JUMPI PUSH1 0x40 MLOAD SWAP2 POP PUSH1 0x1F NOT PUSH1 0x3F RETURNDATASIZE ADD AND DUP3 ADD PUSH1 0x40 MSTORE RETURNDATASIZE DUP3 MSTORE RETURNDATASIZE PUSH1 0x0 PUSH1 0x20 DUP5 ADD RETURNDATACOPY PUSH2 0x1AA9 JUMP JUMPDEST PUSH1 0x60 SWAP2 POP JUMPDEST POP SWAP2 POP SWAP2 POP PUSH2 0x1ABA DUP7 DUP4 DUP4 DUP8 PUSH2 0x1AC4 JUMP JUMPDEST SWAP7 SWAP6 POP POP POP POP POP POP JUMP JUMPDEST PUSH1 0x60 DUP4 ISZERO PUSH2 0x1B31 JUMPI DUP3 MLOAD PUSH1 0x0 SUB PUSH2 0x1B2A JUMPI PUSH2 0x1ADE DUP6 PUSH2 0x16C6 JUMP JUMPDEST PUSH2 0x1B2A JUMPI PUSH1 0x40 MLOAD PUSH3 0x461BCD PUSH1 0xE5 SHL DUP2 MSTORE PUSH1 0x20 PUSH1 0x4 DUP3 ADD MSTORE PUSH1 0x1D PUSH1 0x24 DUP3 ADD MSTORE PUSH32 0x416464726573733A2063616C6C20746F206E6F6E2D636F6E7472616374000000 PUSH1 0x44 DUP3 ADD MSTORE PUSH1 0x64 ADD PUSH2 0x488 JUMP JUMPDEST POP DUP2 PUSH2 0x1904 JUMP JUMPDEST PUSH2 0x1904 DUP4 DUP4 DUP2 MLOAD ISZERO PUSH2 0x1B46 JUMPI DUP2 MLOAD DUP1 DUP4 PUSH1 0x20 ADD REVERT JUMPDEST DUP1 PUSH1 0x40 MLOAD PUSH3 0x461BCD PUSH1 0xE5 SHL DUP2 MSTORE PUSH1 0x4 ADD PUSH2 0x488 SWAP2 SWAP1 PUSH2 0x218D JUMP JUMPDEST PUSH1 0x1 PUSH1 0x1 PUSH1 0xA0 SHL SUB DUP2 AND DUP2 EQ PUSH2 0x938 JUMPI PUSH1 0x0 DUP1 REVERT JUMPDEST PUSH1 0x0 DUP1 PUSH1 0x40 DUP4 DUP6 SUB SLT ISZERO PUSH2 0x1B88 JUMPI PUSH1 0x0 DUP1 REVERT JUMPDEST DUP3 CALLDATALOAD SWAP2 POP PUSH1 0x20 DUP4 ADD CALLDATALOAD PUSH2 0x1B9A DUP2 PUSH2 0x1B60 JUMP JUMPDEST DUP1 SWAP2 POP POP SWAP3 POP SWAP3 SWAP1 POP JUMP JUMPDEST PUSH1 0x0 PUSH1 0x20 DUP3 DUP5 SUB SLT ISZERO PUSH2 0x1BB7 JUMPI PUSH1 0x0 DUP1 REVERT JUMPDEST POP CALLDATALOAD SWAP2 SWAP1 POP JUMP JUMPDEST PUSH1 0x0 JUMPDEST DUP4 DUP2 LT ISZERO PUSH2 0x1BD9 JUMPI DUP2 DUP2 ADD MLOAD DUP4 DUP3 ADD MSTORE PUSH1 0x20 ADD PUSH2 0x1BC1 JUMP JUMPDEST POP POP PUSH1 0x0 SWAP2 ADD MSTORE JUMP JUMPDEST PUSH1 0x0 DUP2 MLOAD DUP1 DUP5 MSTORE PUSH2 0x1BFA DUP2 PUSH1 0x20 DUP7 ADD PUSH1 0x20 DUP7 ADD PUSH2 0x1BBE JUMP JUMPDEST PUSH1 0x1F ADD PUSH1 0x1F NOT AND SWAP3 SWAP1 SWAP3 ADD PUSH1 0x20 ADD SWAP3 SWAP2 POP POP JUMP JUMPDEST PUSH1 0xA0 DUP2 MSTORE PUSH1 0x0 PUSH2 0x1C21 PUSH1 0xA0 DUP4 ADD DUP9 PUSH2 0x1BE2 JUMP JUMPDEST PUSH1 0x1 PUSH1 0x1 PUSH1 0xA0 SHL SUB SWAP7 SWAP1 SWAP7 AND PUSH1 0x20 DUP4 ADD MSTORE POP PUSH1 0x40 DUP2 ADD SWAP4 SWAP1 SWAP4 MSTORE PUSH1 0x60 DUP4 ADD SWAP2 SWAP1 SWAP2 MSTORE PUSH1 0x80 SWAP1 SWAP2 ADD MSTORE SWAP2 SWAP1 POP JUMP JUMPDEST PUSH4 0x4E487B71 PUSH1 0xE0 SHL PUSH1 0x0 MSTORE PUSH1 0x41 PUSH1 0x4 MSTORE PUSH1 0x24 PUSH1 0x0 REVERT JUMPDEST PUSH1 0x0 PUSH1 0x1 PUSH1 0x1 PUSH1 0x40 SHL SUB DUP1 DUP5 GT ISZERO PUSH2 0x1C7E JUMPI PUSH2 0x1C7E PUSH2 0x1C4E JUMP JUMPDEST PUSH1 0x40 MLOAD PUSH1 0x1F DUP6 ADD PUSH1 0x1F NOT SWAP1 DUP2 AND PUSH1 0x3F ADD AND DUP2 ADD SWAP1 DUP3 DUP3 GT DUP2 DUP4 LT OR ISZERO PUSH2 0x1CA6 JUMPI PUSH2 0x1CA6 PUSH2 0x1C4E JUMP JUMPDEST DUP2 PUSH1 0x40 MSTORE DUP1 SWAP4 POP DUP6 DUP2 MSTORE DUP7 DUP7 DUP7 ADD GT ISZERO PUSH2 0x1CBF JUMPI PUSH1 0x0 DUP1 REVERT JUMPDEST DUP6 DUP6 PUSH1 0x20 DUP4 ADD CALLDATACOPY PUSH1 0x0 PUSH1 0x20 DUP8 DUP4 ADD ADD MSTORE POP POP POP SWAP4 SWAP3 POP POP POP JUMP JUMPDEST DUP1 ISZERO ISZERO DUP2 EQ PUSH2 0x938 JUMPI PUSH1 0x0 DUP1 REVERT JUMPDEST PUSH1 0x0 DUP1 PUSH1 0x0 DUP1 PUSH1 0x80 DUP6 DUP8 SUB SLT ISZERO PUSH2 0x1CFD JUMPI PUSH1 0x0 DUP1 REVERT JUMPDEST DUP5 CALLDATALOAD SWAP4 POP PUSH1 0x20 DUP6 ADD CALLDATALOAD PUSH1 0x1 PUSH1 0x1 PUSH1 0x40 SHL SUB DUP2 GT ISZERO PUSH2 0x1D1A JUMPI PUSH1 0x0 DUP1 REVERT JUMPDEST DUP6 ADD PUSH1 0x1F DUP2 ADD DUP8 SGT PUSH2 0x1D2B JUMPI PUSH1 0x0 DUP1 REVERT JUMPDEST PUSH2 0x1D3A DUP8 DUP3 CALLDATALOAD PUSH1 0x20 DUP5 ADD PUSH2 0x1C64 JUMP JUMPDEST SWAP4 POP POP PUSH1 0x40 DUP6 ADD CALLDATALOAD PUSH2 0x1D4B DUP2 PUSH2 0x1B60 JUMP JUMPDEST SWAP2 POP PUSH1 0x60 DUP6 ADD CALLDATALOAD PUSH2 0x1D5B DUP2 PUSH2 0x1CD9 JUMP JUMPDEST SWAP4 SWAP7 SWAP3 SWAP6 POP SWAP1 SWAP4 POP POP JUMP JUMPDEST PUSH1 0x0 PUSH1 0x20 DUP3 DUP5 SUB SLT ISZERO PUSH2 0x1D78 JUMPI PUSH1 0x0 DUP1 REVERT JUMPDEST DUP2 CALLDATALOAD PUSH2 0x1468 DUP2 PUSH2 0x1B60 JUMP JUMPDEST PUSH1 0x0 DUP1 PUSH1 0x40 DUP4 DUP6 SUB SLT ISZERO PUSH2 0x1D96 JUMPI PUSH1 0x0 DUP1 REVERT JUMPDEST DUP3 CALLDATALOAD PUSH2 0x1DA1 DUP2 PUSH2 0x1B60 JUMP JUMPDEST SWAP2 POP PUSH1 0x20 DUP4 ADD CALLDATALOAD PUSH1 0x1 PUSH1 0x1 PUSH1 0x40 SHL SUB DUP2 GT ISZERO PUSH2 0x1DBC JUMPI PUSH1 0x0 DUP1 REVERT JUMPDEST DUP4 ADD PUSH1 0x1F DUP2 ADD DUP6 SGT PUSH2 0x1DCD JUMPI PUSH1 0x0 DUP1 REVERT JUMPDEST PUSH2 0x1DDC DUP6 DUP3 CALLDATALOAD PUSH1 0x20 DUP5 ADD PUSH2 0x1C64 JUMP JUMPDEST SWAP2 POP POP SWAP3 POP SWAP3 SWAP1 POP JUMP JUMPDEST PUSH1 0x0 DUP1 PUSH1 0x0 PUSH1 0x60 DUP5 DUP7 SUB SLT ISZERO PUSH2 0x1DFB JUMPI PUSH1 0x0 DUP1 REVERT JUMPDEST DUP4 CALLDATALOAD SWAP3 POP PUSH1 0x20 DUP5 ADD CALLDATALOAD SWAP2 POP PUSH1 0x40 DUP5 ADD CALLDATALOAD PUSH2 0x1E14 DUP2 PUSH2 0x1CD9 JUMP JUMPDEST DUP1 SWAP2 POP POP SWAP3 POP SWAP3 POP SWAP3 JUMP JUMPDEST PUSH1 0x1 PUSH1 0x1 PUSH1 0xA0 SHL SUB SWAP2 SWAP1 SWAP2 AND DUP2 MSTORE PUSH1 0x20 ADD SWAP1 JUMP JUMPDEST PUSH1 0x0 DUP1 PUSH1 0x0 PUSH1 0x60 DUP5 DUP7 SUB SLT ISZERO PUSH2 0x1E48 JUMPI PUSH1 0x0 DUP1 REVERT JUMPDEST DUP4 CALLDATALOAD PUSH2 0x1E53 DUP2 PUSH2 0x1B60 JUMP JUMPDEST SWAP3 POP PUSH1 0x20 DUP5 ADD CALLDATALOAD PUSH2 0x1E63 DUP2 PUSH2 0x1B60 JUMP JUMPDEST SWAP3 SWAP6 SWAP3 SWAP5 POP POP POP PUSH1 0x40 SWAP2 SWAP1 SWAP2 ADD CALLDATALOAD SWAP1 JUMP JUMPDEST PUSH1 0x0 PUSH1 0x20 DUP3 DUP5 SUB SLT ISZERO PUSH2 0x1E86 JUMPI PUSH1 0x0 DUP1 REVERT JUMPDEST DUP2 CALLDATALOAD PUSH2 0x1468 DUP2 PUSH2 0x1CD9 JUMP JUMPDEST PUSH4 0x4E487B71 PUSH1 0xE0 SHL PUSH1 0x0 MSTORE PUSH1 0x32 PUSH1 0x4 MSTORE PUSH1 0x24 PUSH1 0x0 REVERT JUMPDEST PUSH1 0x0 PUSH1 0x20 DUP3 DUP5 SUB SLT ISZERO PUSH2 0x1EB9 JUMPI PUSH1 0x0 DUP1 REVERT JUMPDEST POP MLOAD SWAP2 SWAP1 POP JUMP JUMPDEST PUSH1 0x1 DUP2 DUP2 SHR SWAP1 DUP3 AND DUP1 PUSH2 0x1ED4 JUMPI PUSH1 0x7F DUP3 AND SWAP2 POP JUMPDEST PUSH1 0x20 DUP3 LT DUP2 SUB PUSH2 0x1EF4 JUMPI PUSH4 0x4E487B71 PUSH1 0xE0 SHL PUSH1 0x0 MSTORE PUSH1 0x22 PUSH1 0x4 MSTORE PUSH1 0x24 PUSH1 0x0 REVERT JUMPDEST POP SWAP2 SWAP1 POP JUMP JUMPDEST PUSH1 0x1F DUP3 GT ISZERO PUSH2 0x12DB JUMPI PUSH1 0x0 DUP2 DUP2 MSTORE PUSH1 0x20 DUP2 KECCAK256 PUSH1 0x1F DUP6 ADD PUSH1 0x5 SHR DUP2 ADD PUSH1 0x20 DUP7 LT ISZERO PUSH2 0x1F21 JUMPI POP DUP1 JUMPDEST PUSH1 0x1F DUP6 ADD PUSH1 0x5 SHR DUP3 ADD SWAP2 POP JUMPDEST DUP2 DUP2 LT ISZERO PUSH2 0x1F40 JUMPI DUP3 DUP2 SSTORE PUSH1 0x1 ADD PUSH2 0x1F2D JUMP JUMPDEST POP POP POP POP POP POP JUMP JUMPDEST DUP2 MLOAD PUSH1 0x1 PUSH1 0x1 PUSH1 0x40 SHL SUB DUP2 GT ISZERO PUSH2 0x1F61 JUMPI PUSH2 0x1F61 PUSH2 0x1C4E JUMP JUMPDEST PUSH2 0x1F75 DUP2 PUSH2 0x1F6F DUP5 SLOAD PUSH2 0x1EC0 JUMP JUMPDEST DUP5 PUSH2 0x1EFA JUMP JUMPDEST PUSH1 0x20 DUP1 PUSH1 0x1F DUP4 GT PUSH1 0x1 DUP2 EQ PUSH2 0x1FAA JUMPI PUSH1 0x0 DUP5 ISZERO PUSH2 0x1F92 JUMPI POP DUP6 DUP4 ADD MLOAD JUMPDEST PUSH1 0x0 NOT PUSH1 0x3 DUP7 SWAP1 SHL SHR NOT AND PUSH1 0x1 DUP6 SWAP1 SHL OR DUP6 SSTORE PUSH2 0x1F40 JUMP JUMPDEST PUSH1 0x0 DUP6 DUP2 MSTORE PUSH1 0x20 DUP2 KECCAK256 PUSH1 0x1F NOT DUP7 AND SWAP2 JUMPDEST DUP3 DUP2 LT ISZERO PUSH2 0x1FD9 JUMPI DUP9 DUP7 ADD MLOAD DUP3 SSTORE SWAP5 DUP5 ADD SWAP5 PUSH1 0x1 SWAP1 SWAP2 ADD SWAP1 DUP5 ADD PUSH2 0x1FBA JUMP JUMPDEST POP DUP6 DUP3 LT ISZERO PUSH2 0x1FF7 JUMPI DUP8 DUP6 ADD MLOAD PUSH1 0x0 NOT PUSH1 0x3 DUP9 SWAP1 SHL PUSH1 0xF8 AND SHR NOT AND DUP2 SSTORE JUMPDEST POP POP POP POP POP PUSH1 0x1 SWAP1 DUP2 SHL ADD SWAP1 SSTORE POP JUMP JUMPDEST PUSH1 0x20 DUP1 DUP3 MSTORE PUSH1 0x2C SWAP1 DUP3 ADD MSTORE PUSH1 0x0 DUP1 MLOAD PUSH1 0x20 PUSH2 0x21A1 DUP4 CODECOPY DUP2 MLOAD SWAP2 MSTORE PUSH1 0x40 DUP3 ADD MSTORE PUSH12 0x19195B1959D85D1958D85B1B PUSH1 0xA2 SHL PUSH1 0x60 DUP3 ADD MSTORE PUSH1 0x80 ADD SWAP1 JUMP JUMPDEST PUSH1 0x20 DUP1 DUP3 MSTORE PUSH1 0x2C SWAP1 DUP3 ADD MSTORE PUSH1 0x0 DUP1 MLOAD PUSH1 0x20 PUSH2 0x21A1 DUP4 CODECOPY DUP2 MLOAD SWAP2 MSTORE PUSH1 0x40 DUP3 ADD MSTORE PUSH12 0x6163746976652070726F7879 PUSH1 0xA0 SHL PUSH1 0x60 DUP3 ADD MSTORE PUSH1 0x80 ADD SWAP1 JUMP JUMPDEST PUSH4 0x4E487B71 PUSH1 0xE0 SHL PUSH1 0x0 MSTORE PUSH1 0x11 PUSH1 0x4 MSTORE PUSH1 0x24 PUSH1 0x0 REVERT JUMPDEST PUSH1 0x0 PUSH1 0x1 DUP3 ADD PUSH2 0x20A3 JUMPI PUSH2 0x20A3 PUSH2 0x207B JUMP JUMPDEST POP PUSH1 0x1 ADD SWAP1 JUMP JUMPDEST DUP1 DUP3 MUL DUP2 ISZERO DUP3 DUP3 DIV DUP5 EQ OR PUSH2 0x1140 JUMPI PUSH2 0x1140 PUSH2 0x207B JUMP JUMPDEST PUSH1 0x0 DUP3 PUSH2 0x20DE JUMPI PUSH4 0x4E487B71 PUSH1 0xE0 SHL PUSH1 0x0 MSTORE PUSH1 0x12 PUSH1 0x4 MSTORE PUSH1 0x24 PUSH1 0x0 REVERT JUMPDEST POP DIV SWAP1 JUMP JUMPDEST DUP2 DUP2 SUB DUP2 DUP2 GT ISZERO PUSH2 0x1140 JUMPI PUSH2 0x1140 PUSH2 0x207B JUMP JUMPDEST DUP1 DUP3 ADD DUP1 DUP3 GT ISZERO PUSH2 0x1140 JUMPI PUSH2 0x1140 PUSH2 0x207B JUMP JUMPDEST PUSH1 0x20 DUP1 DUP3 MSTORE PUSH1 0x2B SWAP1 DUP3 ADD MSTORE PUSH32 0x496E697469616C697A61626C653A20636F6E7472616374206973206E6F742069 PUSH1 0x40 DUP3 ADD MSTORE PUSH11 0x6E697469616C697A696E67 PUSH1 0xA8 SHL PUSH1 0x60 DUP3 ADD MSTORE PUSH1 0x80 ADD SWAP1 JUMP JUMPDEST PUSH1 0x0 PUSH1 0x20 DUP3 DUP5 SUB SLT ISZERO PUSH2 0x2166 JUMPI PUSH1 0x0 DUP1 REVERT JUMPDEST DUP2 MLOAD PUSH2 0x1468 DUP2 PUSH2 0x1CD9 JUMP JUMPDEST PUSH1 0x0 DUP3 MLOAD PUSH2 0x2183 DUP2 DUP5 PUSH1 0x20 DUP8 ADD PUSH2 0x1BBE JUMP JUMPDEST SWAP2 SWAP1 SWAP2 ADD SWAP3 SWAP2 POP POP JUMP JUMPDEST PUSH1 0x20 DUP2 MSTORE PUSH1 0x0 PUSH2 0x1468 PUSH1 0x20 DUP4 ADD DUP5 PUSH2 0x1BE2 JUMP INVALID CHAINID PUSH22 0x6E6374696F6E206D7573742062652063616C6C656420 PUSH21 0x68726F75676820360894A13BA1A3210667C828492D 0xB9 DUP14 0xCA RETURNDATACOPY KECCAK256 PUSH23 0xCC3735A920A3CA505D382BBC416464726573733A206C6F PUSH24 0x2D6C6576656C2064656C65676174652063616C6C20666169 PUSH13 0x6564A2646970667358221220BA COINBASE PUSH29 0x665CC51C282B1CB051C1DA80504B0F960B2A44CB0EE93A46192DFA62F8 PUSH5 0x736F6C6343 STOP ADDMOD GT STOP CALLER "},"methodIdentifiers":{"add(uint256,string,address,bool)":"2c4f3a95","claim(uint256)":"379607f5","deposit(uint256,address)":"6e553f65","emergencyWithdrawRewardTokens(address,address,uint256)":"9c244df9","initialize()":"8129fc1c","massUpdatePools()":"630b5ba1","owner()":"8da5cb5b","pendingERC20(uint256,address)":"7ee2ebc8","poolInfo(uint256)":"1526fe27","poolLength()":"081e3eda","proxiableUUID()":"52d1902d","renounceOwnership()":"715018a6","set(uint256,uint256,bool)":"64482f79","totalAllocPoint()":"17caf6f1","totalLPStaked(uint256)":"91c3d125","totalReward()":"750142e6","transferOwnership(address)":"f2fde38b","updatePool(uint256)":"51eb05a6","updateWithdrawStatus(bool)":"bd674692","upgradeTo(address)":"3659cfe6","upgradeToAndCall(address,bytes)":"4f1ef286","userInfo(uint256,address)":"93f1a40b","withdraw(uint256,address)":"00f714ce","withdrawStatus()":"61ffe858"}},"storageLayout":{"storage":[{"astId":503,"contract":"contracts/RewardPool.sol:RewardPool","label":"_initialized","offset":0,"slot":"0","type":"t_uint8"},{"astId":506,"contract":"contracts/RewardPool.sol:RewardPool","label":"_initializing","offset":1,"slot":"0","type":"t_bool"},{"astId":2383,"contract":"contracts/RewardPool.sol:RewardPool","label":"__gap","offset":0,"slot":"1","type":"t_array(t_uint256)50_storage"},{"astId":10,"contract":"contracts/RewardPool.sol:RewardPool","label":"_owner","offset":0,"slot":"51","type":"t_address"},{"astId":130,"contract":"contracts/RewardPool.sol:RewardPool","label":"__gap","offset":0,"slot":"52","type":"t_array(t_uint256)49_storage"},{"astId":485,"contract":"contracts/RewardPool.sol:RewardPool","label":"__gap","offset":0,"slot":"101","type":"t_array(t_uint256)50_storage"},{"astId":800,"contract":"contracts/RewardPool.sol:RewardPool","label":"__gap","offset":0,"slot":"151","type":"t_array(t_uint256)50_storage"},{"astId":5640,"contract":"contracts/RewardPool.sol:RewardPool","label":"poolInfo","offset":0,"slot":"201","type":"t_array(t_struct(PoolInfo)5636_storage)dyn_storage"},{"astId":5644,"contract":"contracts/RewardPool.sol:RewardPool","label":"totalLPStaked","offset":0,"slot":"202","type":"t_mapping(t_uint256,t_uint256)"},{"astId":5646,"contract":"contracts/RewardPool.sol:RewardPool","label":"totalReward","offset":0,"slot":"203","type":"t_uint256"},{"astId":5648,"contract":"contracts/RewardPool.sol:RewardPool","label":"lastRewardBalance","offset":0,"slot":"204","type":"t_uint256"},{"astId":5655,"contract":"contracts/RewardPool.sol:RewardPool","label":"userInfo","offset":0,"slot":"205","type":"t_mapping(t_uint256,t_mapping(t_address,t_struct(UserInfo)5624_storage))"},{"astId":5657,"contract":"contracts/RewardPool.sol:RewardPool","label":"totalAllocPoint","offset":0,"slot":"206","type":"t_uint256"},{"astId":5659,"contract":"contracts/RewardPool.sol:RewardPool","label":"withdrawStatus","offset":0,"slot":"207","type":"t_bool"}],"types":{"t_address":{"encoding":"inplace","label":"address","numberOfBytes":"20"},"t_array(t_struct(PoolInfo)5636_storage)dyn_storage":{"base":"t_struct(PoolInfo)5636_storage","encoding":"dynamic_array","label":"struct RewardPool.PoolInfo[]","numberOfBytes":"32"},"t_array(t_uint256)49_storage":{"base":"t_uint256","encoding":"inplace","label":"uint256[49]","numberOfBytes":"1568"},"t_array(t_uint256)50_storage":{"base":"t_uint256","encoding":"inplace","label":"uint256[50]","numberOfBytes":"1600"},"t_bool":{"encoding":"inplace","label":"bool","numberOfBytes":"1"},"t_contract(IERC20Upgradeable)1575":{"encoding":"inplace","label":"contract IERC20Upgradeable","numberOfBytes":"20"},"t_mapping(t_address,t_struct(UserInfo)5624_storage)":{"encoding":"mapping","key":"t_address","label":"mapping(address => struct RewardPool.UserInfo)","numberOfBytes":"32","value":"t_struct(UserInfo)5624_storage"},"t_mapping(t_uint256,t_mapping(t_address,t_struct(UserInfo)5624_storage))":{"encoding":"mapping","key":"t_uint256","label":"mapping(uint256 => mapping(address => struct RewardPool.UserInfo))","numberOfBytes":"32","value":"t_mapping(t_address,t_struct(UserInfo)5624_storage)"},"t_mapping(t_uint256,t_uint256)":{"encoding":"mapping","key":"t_uint256","label":"mapping(uint256 => uint256)","numberOfBytes":"32","value":"t_uint256"},"t_string_storage":{"encoding":"bytes","label":"string","numberOfBytes":"32"},"t_struct(PoolInfo)5636_storage":{"encoding":"inplace","label":"struct RewardPool.PoolInfo","members":[{"astId":5626,"contract":"contracts/RewardPool.sol:RewardPool","label":"amtype","offset":0,"slot":"0","type":"t_string_storage"},{"astId":5629,"contract":"contracts/RewardPool.sol:RewardPool","label":"lpToken","offset":0,"slot":"1","type":"t_contract(IERC20Upgradeable)1575"},{"astId":5631,"contract":"contracts/RewardPool.sol:RewardPool","label":"allocPoint","offset":0,"slot":"2","type":"t_uint256"},{"astId":5633,"contract":"contracts/RewardPool.sol:RewardPool","label":"accLPPerShare","offset":0,"slot":"3","type":"t_uint256"},{"astId":5635,"contract":"contracts/RewardPool.sol:RewardPool","label":"lastTotalLPReward","offset":0,"slot":"4","type":"t_uint256"}],"numberOfBytes":"160"},"t_struct(UserInfo)5624_storage":{"encoding":"inplace","label":"struct RewardPool.UserInfo","members":[{"astId":5621,"contract":"contracts/RewardPool.sol:RewardPool","label":"amount","offset":0,"slot":"0","type":"t_uint256"},{"astId":5623,"contract":"contracts/RewardPool.sol:RewardPool","label":"rewardLPDebt","offset":0,"slot":"1","type":"t_uint256"}],"numberOfBytes":"64"},"t_uint256":{"encoding":"inplace","label":"uint256","numberOfBytes":"32"},"t_uint8":{"encoding":"inplace","label":"uint8","numberOfBytes":"1"}}}}}}