{"contracts/MockToken.sol":{"MockToken":{"abi":[{"inputs":[],"stateMutability":"nonpayable","type":"constructor"},{"anonymous":false,"inputs":[{"indexed":false,"internalType":"address","name":"previousAdmin","type":"address"},{"indexed":false,"internalType":"address","name":"newAdmin","type":"address"}],"name":"AdminChanged","type":"event"},{"anonymous":false,"inputs":[{"indexed":true,"internalType":"address","name":"owner","type":"address"},{"indexed":true,"internalType":"address","name":"spender","type":"address"},{"indexed":false,"internalType":"uint256","name":"value","type":"uint256"}],"name":"Approval","type":"event"},{"anonymous":false,"inputs":[{"indexed":true,"internalType":"address","name":"beacon","type":"address"}],"name":"BeaconUpgraded","type":"event"},{"anonymous":false,"inputs":[{"indexed":false,"internalType":"uint8","name":"version","type":"uint8"}],"name":"Initialized","type":"event"},{"anonymous":false,"inputs":[{"indexed":true,"internalType":"address","name":"previousOwner","type":"address"},{"indexed":true,"internalType":"address","name":"newOwner","type":"address"}],"name":"OwnershipTransferred","type":"event"},{"anonymous":false,"inputs":[{"indexed":true,"internalType":"address","name":"from","type":"address"},{"indexed":true,"internalType":"address","name":"to","type":"address"},{"indexed":false,"internalType":"uint256","name":"value","type":"uint256"}],"name":"Transfer","type":"event"},{"anonymous":false,"inputs":[{"indexed":true,"internalType":"address","name":"implementation","type":"address"}],"name":"Upgraded","type":"event"},{"inputs":[{"internalType":"address","name":"owner","type":"address"},{"internalType":"address","name":"spender","type":"address"}],"name":"allowance","outputs":[{"internalType":"uint256","name":"","type":"uint256"}],"stateMutability":"view","type":"function"},{"inputs":[{"internalType":"address","name":"spender","type":"address"},{"internalType":"uint256","name":"amount","type":"uint256"}],"name":"approve","outputs":[{"internalType":"bool","name":"","type":"bool"}],"stateMutability":"nonpayable","type":"function"},{"inputs":[{"internalType":"address","name":"account","type":"address"}],"name":"balanceOf","outputs":[{"internalType":"uint256","name":"","type":"uint256"}],"stateMutability":"view","type":"function"},{"inputs":[],"name":"decimals","outputs":[{"internalType":"uint8","name":"","type":"uint8"}],"stateMutability":"view","type":"function"},{"inputs":[{"internalType":"address","name":"spender","type":"address"},{"internalType":"uint256","name":"subtractedValue","type":"uint256"}],"name":"decreaseAllowance","outputs":[{"internalType":"bool","name":"","type":"bool"}],"stateMutability":"nonpayable","type":"function"},{"inputs":[{"internalType":"address","name":"spender","type":"address"},{"internalType":"uint256","name":"addedValue","type":"uint256"}],"name":"increaseAllowance","outputs":[{"internalType":"bool","name":"","type":"bool"}],"stateMutability":"nonpayable","type":"function"},{"inputs":[],"name":"initialize","outputs":[],"stateMutability":"nonpayable","type":"function"},{"inputs":[{"internalType":"address","name":"to","type":"address"},{"internalType":"uint256","name":"amount","type":"uint256"}],"name":"mint","outputs":[],"stateMutability":"nonpayable","type":"function"},{"inputs":[],"name":"name","outputs":[{"internalType":"string","name":"","type":"string"}],"stateMutability":"view","type":"function"},{"inputs":[],"name":"owner","outputs":[{"internalType":"address","name":"","type":"address"}],"stateMutability":"view","type":"function"},{"inputs":[],"name":"proxiableUUID","outputs":[{"internalType":"bytes32","name":"","type":"bytes32"}],"stateMutability":"view","type":"function"},{"inputs":[],"name":"renounceOwnership","outputs":[],"stateMutability":"nonpayable","type":"function"},{"inputs":[],"name":"symbol","outputs":[{"internalType":"string","name":"","type":"string"}],"stateMutability":"view","type":"function"},{"inputs":[],"name":"totalSupply","outputs":[{"internalType":"uint256","name":"","type":"uint256"}],"stateMutability":"view","type":"function"},{"inputs":[{"internalType":"address","name":"to","type":"address"},{"internalType":"uint256","name":"amount","type":"uint256"}],"name":"transfer","outputs":[{"internalType":"bool","name":"","type":"bool"}],"stateMutability":"nonpayable","type":"function"},{"inputs":[{"internalType":"address","name":"from","type":"address"},{"internalType":"address","name":"to","type":"address"},{"internalType":"uint256","name":"amount","type":"uint256"}],"name":"transferFrom","outputs":[{"internalType":"bool","name":"","type":"bool"}],"stateMutability":"nonpayable","type":"function"},{"inputs":[{"internalType":"address","name":"newOwner","type":"address"}],"name":"transferOwnership","outputs":[],"stateMutability":"nonpayable","type":"function"},{"inputs":[{"internalType":"address","name":"newImplementation","type":"address"}],"name":"upgradeTo","outputs":[],"stateMutability":"nonpayable","type":"function"},{"inputs":[{"internalType":"address","name":"newImplementation","type":"address"},{"internalType":"bytes","name":"data","type":"bytes"}],"name":"upgradeToAndCall","outputs":[],"stateMutability":"payable","type":"function"}],"evm":{"bytecode":{"linkReferences":{},"object":"60a06040523060805234801561001457600080fd5b5061001d610022565b6100e1565b600054610100900460ff161561008e5760405162461bcd60e51b815260206004820152602760248201527f496e697469616c697a61626c653a20636f6e747261637420697320696e697469604482015266616c697a696e6760c81b606482015260840160405180910390fd5b60005460ff908116146100df576000805460ff191660ff9081179091556040519081527f7f26b83ff96e1f2b6a682f133852f6798a09c465da95921460cefb38474024989060200160405180910390a15b565b6080516117d8610118600039600081816104250152818161046e0152818161052e0152818161056e01526105e601526117d86000f3fe6080604052600436106100e45760003560e01c806306fdde03146100e9578063095ea7b31461011457806318160ddd1461014457806323b872dd14610163578063313ce567146101835780633659cfe61461019f57806339509351146101c157806340c10f19146101e15780634f1ef2861461020157806352d1902d1461021457806370a0823114610229578063715018a61461025f5780638129fc1c146102745780638da5cb5b1461028957806395d89b41146102b6578063a457c2d7146102cb578063a9059cbb146102eb578063dd62ed3e1461030b578063f2fde38b1461032b575b600080fd5b3480156100f557600080fd5b506100fe61034b565b60405161010b91906112e5565b60405180910390f35b34801561012057600080fd5b5061013461012f366004611334565b6103dd565b604051901515815260200161010b565b34801561015057600080fd5b506035545b60405190815260200161010b565b34801561016f57600080fd5b5061013461017e36600461135e565b6103f7565b34801561018f57600080fd5b506040516012815260200161010b565b3480156101ab57600080fd5b506101bf6101ba36600461139a565b61041b565b005b3480156101cd57600080fd5b506101346101dc366004611334565b6104ec565b3480156101ed57600080fd5b506101bf6101fc366004611334565b61050e565b6101bf61020f3660046113cb565b610524565b34801561022057600080fd5b506101556105d9565b34801561023557600080fd5b5061015561024436600461139a565b6001600160a01b031660009081526033602052604090205490565b34801561026b57600080fd5b506101bf610687565b34801561028057600080fd5b506101bf61069b565b34801561029557600080fd5b5061029e6107fc565b6040516001600160a01b03909116815260200161010b565b3480156102c257600080fd5b506100fe61080b565b3480156102d757600080fd5b506101346102e6366004611334565b61081a565b3480156102f757600080fd5b50610134610306366004611334565b610895565b34801561031757600080fd5b5061015561032636600461148c565b6108a3565b34801561033757600080fd5b506101bf61034636600461139a565b6108ce565b60606036805461035a906114bf565b80601f0160208091040260200160405190810160405280929190818152602001828054610386906114bf565b80156103d35780601f106103a8576101008083540402835291602001916103d3565b820191906000526020600020905b8154815290600101906020018083116103b657829003601f168201915b5050505050905090565b6000336103eb818585610944565b60019150505b92915050565b600033610405858285610a68565b610410858585610ae2565b506001949350505050565b6001600160a01b037f000000000000000000000000000000000000000000000000000000000000000016300361046c5760405162461bcd60e51b8152600401610463906114f9565b60405180910390fd5b7f00000000000000000000000000000000000000000000000000000000000000006001600160a01b031661049e610c7b565b6001600160a01b0316146104c45760405162461bcd60e51b815260040161046390611533565b6104cd81610c97565b604080516000808252602082019092526104e991839190610c9f565b50565b6000336103eb8185856104ff83836108a3565b610509919061156d565b610944565b610516610e0f565b6105208282610e6e565b5050565b6001600160a01b037f000000000000000000000000000000000000000000000000000000000000000016300361056c5760405162461bcd60e51b8152600401610463906114f9565b7f00000000000000000000000000000000000000000000000000000000000000006001600160a01b031661059e610c7b565b6001600160a01b0316146105c45760405162461bcd60e51b815260040161046390611533565b6105cd82610c97565b61052082826001610c9f565b6000306001600160a01b037f000000000000000000000000000000000000000000000000000000000000000016146106745760405162461bcd60e51b815260206004820152603860248201527f555550535570677261646561626c653a206d757374206e6f742062652063616c6044820152771b1959081d1a1c9bdd59da0819195b1959d85d1958d85b1b60421b6064820152608401610463565b5060008051602061173c83398151915290565b61068f610e0f565b6106996000610f1d565b565b600054610100900460ff16158080156106bb5750600054600160ff909116105b806106dc57506106ca30610f6f565b1580156106dc575060005460ff166001145b61073f5760405162461bcd60e51b815260206004820152602e60248201527f496e697469616c697a61626c653a20636f6e747261637420697320616c72656160448201526d191e481a5b9a5d1a585b1a5e995960921b6064820152608401610463565b6000805460ff191660011790558015610762576000805461ff0019166101001790555b6107a4604051806040016040528060048152602001631554d11560e21b815250604051806040016040528060048152602001631554d11560e21b815250610f7e565b6107ac610faf565b6107b4610fde565b80156104e9576000805461ff0019169055604051600181527f7f26b83ff96e1f2b6a682f133852f6798a09c465da95921460cefb38474024989060200160405180910390a150565b6065546001600160a01b031690565b60606037805461035a906114bf565b6000338161082882866108a3565b9050838110156108885760405162461bcd60e51b815260206004820152602560248201527f45524332303a2064656372656173656420616c6c6f77616e63652062656c6f77604482015264207a65726f60d81b6064820152608401610463565b6104108286868403610944565b6000336103eb818585610ae2565b6001600160a01b03918216600090815260346020908152604080832093909416825291909152205490565b6108d6610e0f565b6001600160a01b03811661093b5760405162461bcd60e51b815260206004820152602660248201527f4f776e61626c653a206e6577206f776e657220697320746865207a65726f206160448201526564647265737360d01b6064820152608401610463565b6104e981610f1d565b6001600160a01b0383166109a65760405162461bcd60e51b8152602060048201526024808201527f45524332303a20617070726f76652066726f6d20746865207a65726f206164646044820152637265737360e01b6064820152608401610463565b6001600160a01b038216610a075760405162461bcd60e51b815260206004820152602260248201527f45524332303a20617070726f766520746f20746865207a65726f206164647265604482015261737360f01b6064820152608401610463565b6001600160a01b0383811660008181526034602090815260408083209487168084529482529182902085905590518481527f8c5be1e5ebec7d5bd14f71427d1e84f3dd0314c0f7b2291e5b200ac8c7c3b925910160405180910390a3505050565b6000610a7484846108a3565b90506000198114610adc5781811015610acf5760405162461bcd60e51b815260206004820152601d60248201527f45524332303a20696e73756666696369656e7420616c6c6f77616e63650000006044820152606401610463565b610adc8484848403610944565b50505050565b6001600160a01b038316610b465760405162461bcd60e51b815260206004820152602560248201527f45524332303a207472616e736665722066726f6d20746865207a65726f206164604482015264647265737360d81b6064820152608401610463565b6001600160a01b038216610ba85760405162461bcd60e51b815260206004820152602360248201527f45524332303a207472616e7366657220746f20746865207a65726f206164647260448201526265737360e81b6064820152608401610463565b6001600160a01b03831660009081526033602052604090205481811015610c205760405162461bcd60e51b815260206004820152602660248201527f45524332303a207472616e7366657220616d6f756e7420657863656564732062604482015265616c616e636560d01b6064820152608401610463565b6001600160a01b03808516600081815260336020526040808220868603905592861680825290839020805486019055915160008051602061178383398151915290610c6e9086815260200190565b60405180910390a3610adc565b60008051602061173c833981519152546001600160a01b031690565b6104e9610e0f565b7f4910fdfa16fed3260ed0e7147f7cc6da11a60208b5b9406d12a635614ffd91435460ff1615610cd757610cd283611005565b505050565b826001600160a01b03166352d1902d6040518163ffffffff1660e01b8152600401602060405180830381865afa925050508015610d31575060408051601f3d908101601f19168201909252610d2e9181019061158e565b60015b610d945760405162461bcd60e51b815260206004820152602e60248201527f45524331393637557067726164653a206e657720696d706c656d656e7461746960448201526d6f6e206973206e6f74205555505360901b6064820152608401610463565b60008051602061173c8339815191528114610e035760405162461bcd60e51b815260206004820152602960248201527f45524331393637557067726164653a20756e737570706f727465642070726f786044820152681a58589b195555525160ba1b6064820152608401610463565b50610cd283838361109f565b33610e186107fc565b6001600160a01b0316146106995760405162461bcd60e51b815260206004820181905260248201527f4f776e61626c653a2063616c6c6572206973206e6f7420746865206f776e65726044820152606401610463565b6001600160a01b038216610ec45760405162461bcd60e51b815260206004820152601f60248201527f45524332303a206d696e7420746f20746865207a65726f2061646472657373006044820152606401610463565b8060356000828254610ed6919061156d565b90915550506001600160a01b038216600081815260336020908152604080832080548601905551848152600080516020611783833981519152910160405180910390a35050565b606580546001600160a01b038381166001600160a01b0319831681179093556040519116919082907f8be0079c531659141344cd1fd0a4f28419497f9722a3daafe3b4186f6b6457e090600090a35050565b6001600160a01b03163b151590565b600054610100900460ff16610fa55760405162461bcd60e51b8152600401610463906115a7565b61052082826110c4565b600054610100900460ff16610fd65760405162461bcd60e51b8152600401610463906115a7565b610699611104565b600054610100900460ff166106995760405162461bcd60e51b8152600401610463906115a7565b61100e81610f6f565b6110705760405162461bcd60e51b815260206004820152602d60248201527f455243313936373a206e657720696d706c656d656e746174696f6e206973206e60448201526c1bdd08184818dbdb9d1c9858dd609a1b6064820152608401610463565b60008051602061173c83398151915280546001600160a01b0319166001600160a01b0392909216919091179055565b6110a883611134565b6000825111806110b55750805b15610cd257610adc8383611174565b600054610100900460ff166110eb5760405162461bcd60e51b8152600401610463906115a7565b60366110f78382611640565b506037610cd28282611640565b600054610100900460ff1661112b5760405162461bcd60e51b8152600401610463906115a7565b61069933610f1d565b61113d81611005565b6040516001600160a01b038216907fbc7cd75a20ee27fd9adebab32041f755214dbc6bffa90cc0225b39da2e5c2d3b90600090a250565b6060611199838360405180606001604052806027815260200161175c602791396111a0565b9392505050565b6060600080856001600160a01b0316856040516111bd91906116ff565b600060405180830381855af49150503d80600081146111f8576040519150601f19603f3d011682016040523d82523d6000602084013e6111fd565b606091505b509150915061120e86838387611218565b9695505050505050565b6060831561128557825160000361127e5761123285610f6f565b61127e5760405162461bcd60e51b815260206004820152601d60248201527f416464726573733a2063616c6c20746f206e6f6e2d636f6e74726163740000006044820152606401610463565b508161128f565b61128f8383611297565b949350505050565b8151156112a75781518083602001fd5b8060405162461bcd60e51b815260040161046391906112e5565b60005b838110156112dc5781810151838201526020016112c4565b50506000910152565b60208152600082518060208401526113048160408501602087016112c1565b601f01601f19169190910160400192915050565b80356001600160a01b038116811461132f57600080fd5b919050565b6000806040838503121561134757600080fd5b61135083611318565b946020939093013593505050565b60008060006060848603121561137357600080fd5b61137c84611318565b925061138a60208501611318565b9150604084013590509250925092565b6000602082840312156113ac57600080fd5b61119982611318565b634e487b7160e01b600052604160045260246000fd5b600080604083850312156113de57600080fd5b6113e783611318565b915060208301356001600160401b038082111561140357600080fd5b818501915085601f83011261141757600080fd5b813581811115611429576114296113b5565b604051601f8201601f19908116603f01168101908382118183101715611451576114516113b5565b8160405282815288602084870101111561146a57600080fd5b8260208601602083013760006020848301015280955050505050509250929050565b6000806040838503121561149f57600080fd5b6114a883611318565b91506114b660208401611318565b90509250929050565b600181811c908216806114d357607f821691505b6020821081036114f357634e487b7160e01b600052602260045260246000fd5b50919050565b6020808252602c9082015260008051602061171c83398151915260408201526b19195b1959d85d1958d85b1b60a21b606082015260800190565b6020808252602c9082015260008051602061171c83398151915260408201526b6163746976652070726f787960a01b606082015260800190565b808201808211156103f157634e487b7160e01b600052601160045260246000fd5b6000602082840312156115a057600080fd5b5051919050565b6020808252602b908201527f496e697469616c697a61626c653a20636f6e7472616374206973206e6f74206960408201526a6e697469616c697a696e6760a81b606082015260800190565b601f821115610cd257600081815260208120601f850160051c810160208610156116195750805b601f850160051c820191505b8181101561163857828155600101611625565b505050505050565b81516001600160401b03811115611659576116596113b5565b61166d8161166784546114bf565b846115f2565b602080601f8311600181146116a2576000841561168a5750858301515b600019600386901b1c1916600185901b178555611638565b600085815260208120601f198616915b828110156116d1578886015182559484019460019091019084016116b2565b50858210156116ef5787850151600019600388901b60f8161c191681555b5050505050600190811b01905550565b600082516117118184602087016112c1565b919091019291505056fe46756e6374696f6e206d7573742062652063616c6c6564207468726f75676820360894a13ba1a3210667c828492db98dca3e2076cc3735a920a3ca505d382bbc416464726573733a206c6f772d6c6576656c2064656c65676174652063616c6c206661696c6564ddf252ad1be2c89b69c2b068fc378daa952ba7f163c4a11628f55a4df523b3efa2646970667358221220d68e25951ff54011344c7b6a1c9099170b9c9e8f23297374584f1485feaee9fd64736f6c63430008110033","opcodes":"PUSH1 0xA0 PUSH1 0x40 MSTORE ADDRESS PUSH1 0x80 MSTORE CALLVALUE DUP1 ISZERO PUSH2 0x14 JUMPI PUSH1 0x0 DUP1 REVERT JUMPDEST POP PUSH2 0x1D PUSH2 0x22 JUMP JUMPDEST PUSH2 0xE1 JUMP JUMPDEST PUSH1 0x0 SLOAD PUSH2 0x100 SWAP1 DIV PUSH1 0xFF AND ISZERO PUSH2 0x8E JUMPI PUSH1 0x40 MLOAD PUSH3 0x461BCD PUSH1 0xE5 SHL DUP2 MSTORE PUSH1 0x20 PUSH1 0x4 DUP3 ADD MSTORE PUSH1 0x27 PUSH1 0x24 DUP3 ADD MSTORE PUSH32 0x496E697469616C697A61626C653A20636F6E747261637420697320696E697469 PUSH1 0x44 DUP3 ADD MSTORE PUSH7 0x616C697A696E67 PUSH1 0xC8 SHL PUSH1 0x64 DUP3 ADD MSTORE PUSH1 0x84 ADD PUSH1 0x40 MLOAD DUP1 SWAP2 SUB SWAP1 REVERT JUMPDEST PUSH1 0x0 SLOAD PUSH1 0xFF SWAP1 DUP2 AND EQ PUSH2 0xDF JUMPI PUSH1 0x0 DUP1 SLOAD PUSH1 0xFF NOT AND PUSH1 0xFF SWAP1 DUP2 OR SWAP1 SWAP2 SSTORE PUSH1 0x40 MLOAD SWAP1 DUP2 MSTORE PUSH32 0x7F26B83FF96E1F2B6A682F133852F6798A09C465DA95921460CEFB3847402498 SWAP1 PUSH1 0x20 ADD PUSH1 0x40 MLOAD DUP1 SWAP2 SUB SWAP1 LOG1 JUMPDEST JUMP JUMPDEST PUSH1 0x80 MLOAD PUSH2 0x17D8 PUSH2 0x118 PUSH1 0x0 CODECOPY PUSH1 0x0 DUP2 DUP2 PUSH2 0x425 ADD MSTORE DUP2 DUP2 PUSH2 0x46E ADD MSTORE DUP2 DUP2 PUSH2 0x52E ADD MSTORE DUP2 DUP2 PUSH2 0x56E ADD MSTORE PUSH2 0x5E6 ADD MSTORE PUSH2 0x17D8 PUSH1 0x0 RETURN INVALID PUSH1 0x80 PUSH1 0x40 MSTORE PUSH1 0x4 CALLDATASIZE LT PUSH2 0xE4 JUMPI PUSH1 0x0 CALLDATALOAD PUSH1 0xE0 SHR DUP1 PUSH4 0x6FDDE03 EQ PUSH2 0xE9 JUMPI DUP1 PUSH4 0x95EA7B3 EQ PUSH2 0x114 JUMPI DUP1 PUSH4 0x18160DDD EQ PUSH2 0x144 JUMPI DUP1 PUSH4 0x23B872DD EQ PUSH2 0x163 JUMPI DUP1 PUSH4 0x313CE567 EQ PUSH2 0x183 JUMPI DUP1 PUSH4 0x3659CFE6 EQ PUSH2 0x19F JUMPI DUP1 PUSH4 0x39509351 EQ PUSH2 0x1C1 JUMPI DUP1 PUSH4 0x40C10F19 EQ PUSH2 0x1E1 JUMPI DUP1 PUSH4 0x4F1EF286 EQ PUSH2 0x201 JUMPI DUP1 PUSH4 0x52D1902D EQ PUSH2 0x214 JUMPI DUP1 PUSH4 0x70A08231 EQ PUSH2 0x229 JUMPI DUP1 PUSH4 0x715018A6 EQ PUSH2 0x25F JUMPI DUP1 PUSH4 0x8129FC1C EQ PUSH2 0x274 JUMPI DUP1 PUSH4 0x8DA5CB5B EQ PUSH2 0x289 JUMPI DUP1 PUSH4 0x95D89B41 EQ PUSH2 0x2B6 JUMPI DUP1 PUSH4 0xA457C2D7 EQ PUSH2 0x2CB JUMPI DUP1 PUSH4 0xA9059CBB EQ PUSH2 0x2EB JUMPI DUP1 PUSH4 0xDD62ED3E EQ PUSH2 0x30B JUMPI DUP1 PUSH4 0xF2FDE38B EQ PUSH2 0x32B JUMPI JUMPDEST PUSH1 0x0 DUP1 REVERT JUMPDEST CALLVALUE DUP1 ISZERO PUSH2 0xF5 JUMPI PUSH1 0x0 DUP1 REVERT JUMPDEST POP PUSH2 0xFE PUSH2 0x34B JUMP JUMPDEST PUSH1 0x40 MLOAD PUSH2 0x10B SWAP2 SWAP1 PUSH2 0x12E5 JUMP JUMPDEST PUSH1 0x40 MLOAD DUP1 SWAP2 SUB SWAP1 RETURN JUMPDEST CALLVALUE DUP1 ISZERO PUSH2 0x120 JUMPI PUSH1 0x0 DUP1 REVERT JUMPDEST POP PUSH2 0x134 PUSH2 0x12F CALLDATASIZE PUSH1 0x4 PUSH2 0x1334 JUMP JUMPDEST PUSH2 0x3DD JUMP JUMPDEST PUSH1 0x40 MLOAD SWAP1 ISZERO ISZERO DUP2 MSTORE PUSH1 0x20 ADD PUSH2 0x10B JUMP JUMPDEST CALLVALUE DUP1 ISZERO PUSH2 0x150 JUMPI PUSH1 0x0 DUP1 REVERT JUMPDEST POP PUSH1 0x35 SLOAD JUMPDEST PUSH1 0x40 MLOAD SWAP1 DUP2 MSTORE PUSH1 0x20 ADD PUSH2 0x10B JUMP JUMPDEST CALLVALUE DUP1 ISZERO PUSH2 0x16F JUMPI PUSH1 0x0 DUP1 REVERT JUMPDEST POP PUSH2 0x134 PUSH2 0x17E CALLDATASIZE PUSH1 0x4 PUSH2 0x135E JUMP JUMPDEST PUSH2 0x3F7 JUMP JUMPDEST CALLVALUE DUP1 ISZERO PUSH2 0x18F JUMPI PUSH1 0x0 DUP1 REVERT JUMPDEST POP PUSH1 0x40 MLOAD PUSH1 0x12 DUP2 MSTORE PUSH1 0x20 ADD PUSH2 0x10B JUMP JUMPDEST CALLVALUE DUP1 ISZERO PUSH2 0x1AB JUMPI PUSH1 0x0 DUP1 REVERT JUMPDEST POP PUSH2 0x1BF PUSH2 0x1BA CALLDATASIZE PUSH1 0x4 PUSH2 0x139A JUMP JUMPDEST PUSH2 0x41B JUMP JUMPDEST STOP JUMPDEST CALLVALUE DUP1 ISZERO PUSH2 0x1CD JUMPI PUSH1 0x0 DUP1 REVERT JUMPDEST POP PUSH2 0x134 PUSH2 0x1DC CALLDATASIZE PUSH1 0x4 PUSH2 0x1334 JUMP JUMPDEST PUSH2 0x4EC JUMP JUMPDEST CALLVALUE DUP1 ISZERO PUSH2 0x1ED JUMPI PUSH1 0x0 DUP1 REVERT JUMPDEST POP PUSH2 0x1BF PUSH2 0x1FC CALLDATASIZE PUSH1 0x4 PUSH2 0x1334 JUMP JUMPDEST PUSH2 0x50E JUMP JUMPDEST PUSH2 0x1BF PUSH2 0x20F CALLDATASIZE PUSH1 0x4 PUSH2 0x13CB JUMP JUMPDEST PUSH2 0x524 JUMP JUMPDEST CALLVALUE DUP1 ISZERO PUSH2 0x220 JUMPI PUSH1 0x0 DUP1 REVERT JUMPDEST POP PUSH2 0x155 PUSH2 0x5D9 JUMP JUMPDEST CALLVALUE DUP1 ISZERO PUSH2 0x235 JUMPI PUSH1 0x0 DUP1 REVERT JUMPDEST POP PUSH2 0x155 PUSH2 0x244 CALLDATASIZE PUSH1 0x4 PUSH2 0x139A JUMP JUMPDEST PUSH1 0x1 PUSH1 0x1 PUSH1 0xA0 SHL SUB AND PUSH1 0x0 SWAP1 DUP2 MSTORE PUSH1 0x33 PUSH1 0x20 MSTORE PUSH1 0x40 SWAP1 KECCAK256 SLOAD SWAP1 JUMP JUMPDEST CALLVALUE DUP1 ISZERO PUSH2 0x26B JUMPI PUSH1 0x0 DUP1 REVERT JUMPDEST POP PUSH2 0x1BF PUSH2 0x687 JUMP JUMPDEST CALLVALUE DUP1 ISZERO PUSH2 0x280 JUMPI PUSH1 0x0 DUP1 REVERT JUMPDEST POP PUSH2 0x1BF PUSH2 0x69B JUMP JUMPDEST CALLVALUE DUP1 ISZERO PUSH2 0x295 JUMPI PUSH1 0x0 DUP1 REVERT JUMPDEST POP PUSH2 0x29E PUSH2 0x7FC JUMP JUMPDEST PUSH1 0x40 MLOAD PUSH1 0x1 PUSH1 0x1 PUSH1 0xA0 SHL SUB SWAP1 SWAP2 AND DUP2 MSTORE PUSH1 0x20 ADD PUSH2 0x10B JUMP JUMPDEST CALLVALUE DUP1 ISZERO PUSH2 0x2C2 JUMPI PUSH1 0x0 DUP1 REVERT JUMPDEST POP PUSH2 0xFE PUSH2 0x80B JUMP JUMPDEST CALLVALUE DUP1 ISZERO PUSH2 0x2D7 JUMPI PUSH1 0x0 DUP1 REVERT JUMPDEST POP PUSH2 0x134 PUSH2 0x2E6 CALLDATASIZE PUSH1 0x4 PUSH2 0x1334 JUMP JUMPDEST PUSH2 0x81A JUMP JUMPDEST CALLVALUE DUP1 ISZERO PUSH2 0x2F7 JUMPI PUSH1 0x0 DUP1 REVERT JUMPDEST POP PUSH2 0x134 PUSH2 0x306 CALLDATASIZE PUSH1 0x4 PUSH2 0x1334 JUMP JUMPDEST PUSH2 0x895 JUMP JUMPDEST CALLVALUE DUP1 ISZERO PUSH2 0x317 JUMPI PUSH1 0x0 DUP1 REVERT JUMPDEST POP PUSH2 0x155 PUSH2 0x326 CALLDATASIZE PUSH1 0x4 PUSH2 0x148C JUMP JUMPDEST PUSH2 0x8A3 JUMP JUMPDEST CALLVALUE DUP1 ISZERO PUSH2 0x337 JUMPI PUSH1 0x0 DUP1 REVERT JUMPDEST POP PUSH2 0x1BF PUSH2 0x346 CALLDATASIZE PUSH1 0x4 PUSH2 0x139A JUMP JUMPDEST PUSH2 0x8CE JUMP JUMPDEST PUSH1 0x60 PUSH1 0x36 DUP1 SLOAD PUSH2 0x35A SWAP1 PUSH2 0x14BF JUMP JUMPDEST DUP1 PUSH1 0x1F ADD PUSH1 0x20 DUP1 SWAP2 DIV MUL PUSH1 0x20 ADD PUSH1 0x40 MLOAD SWAP1 DUP2 ADD PUSH1 0x40 MSTORE DUP1 SWAP3 SWAP2 SWAP1 DUP2 DUP2 MSTORE PUSH1 0x20 ADD DUP3 DUP1 SLOAD PUSH2 0x386 SWAP1 PUSH2 0x14BF JUMP JUMPDEST DUP1 ISZERO PUSH2 0x3D3 JUMPI DUP1 PUSH1 0x1F LT PUSH2 0x3A8 JUMPI PUSH2 0x100 DUP1 DUP4 SLOAD DIV MUL DUP4 MSTORE SWAP2 PUSH1 0x20 ADD SWAP2 PUSH2 0x3D3 JUMP JUMPDEST DUP3 ADD SWAP2 SWAP1 PUSH1 0x0 MSTORE PUSH1 0x20 PUSH1 0x0 KECCAK256 SWAP1 JUMPDEST DUP2 SLOAD DUP2 MSTORE SWAP1 PUSH1 0x1 ADD SWAP1 PUSH1 0x20 ADD DUP1 DUP4 GT PUSH2 0x3B6 JUMPI DUP3 SWAP1 SUB PUSH1 0x1F AND DUP3 ADD SWAP2 JUMPDEST POP POP POP POP POP SWAP1 POP SWAP1 JUMP JUMPDEST PUSH1 0x0 CALLER PUSH2 0x3EB DUP2 DUP6 DUP6 PUSH2 0x944 JUMP JUMPDEST PUSH1 0x1 SWAP2 POP POP JUMPDEST SWAP3 SWAP2 POP POP JUMP JUMPDEST PUSH1 0x0 CALLER PUSH2 0x405 DUP6 DUP3 DUP6 PUSH2 0xA68 JUMP JUMPDEST PUSH2 0x410 DUP6 DUP6 DUP6 PUSH2 0xAE2 JUMP JUMPDEST POP PUSH1 0x1 SWAP5 SWAP4 POP POP POP POP JUMP JUMPDEST PUSH1 0x1 PUSH1 0x1 PUSH1 0xA0 SHL SUB PUSH32 0x0 AND ADDRESS SUB PUSH2 0x46C JUMPI PUSH1 0x40 MLOAD PUSH3 0x461BCD PUSH1 0xE5 SHL DUP2 MSTORE PUSH1 0x4 ADD PUSH2 0x463 SWAP1 PUSH2 0x14F9 JUMP JUMPDEST PUSH1 0x40 MLOAD DUP1 SWAP2 SUB SWAP1 REVERT JUMPDEST PUSH32 0x0 PUSH1 0x1 PUSH1 0x1 PUSH1 0xA0 SHL SUB AND PUSH2 0x49E PUSH2 0xC7B JUMP JUMPDEST PUSH1 0x1 PUSH1 0x1 PUSH1 0xA0 SHL SUB AND EQ PUSH2 0x4C4 JUMPI PUSH1 0x40 MLOAD PUSH3 0x461BCD PUSH1 0xE5 SHL DUP2 MSTORE PUSH1 0x4 ADD PUSH2 0x463 SWAP1 PUSH2 0x1533 JUMP JUMPDEST PUSH2 0x4CD DUP2 PUSH2 0xC97 JUMP JUMPDEST PUSH1 0x40 DUP1 MLOAD PUSH1 0x0 DUP1 DUP3 MSTORE PUSH1 0x20 DUP3 ADD SWAP1 SWAP3 MSTORE PUSH2 0x4E9 SWAP2 DUP4 SWAP2 SWAP1 PUSH2 0xC9F JUMP JUMPDEST POP JUMP JUMPDEST PUSH1 0x0 CALLER PUSH2 0x3EB DUP2 DUP6 DUP6 PUSH2 0x4FF DUP4 DUP4 PUSH2 0x8A3 JUMP JUMPDEST PUSH2 0x509 SWAP2 SWAP1 PUSH2 0x156D JUMP JUMPDEST PUSH2 0x944 JUMP JUMPDEST PUSH2 0x516 PUSH2 0xE0F JUMP JUMPDEST PUSH2 0x520 DUP3 DUP3 PUSH2 0xE6E JUMP JUMPDEST POP POP JUMP JUMPDEST PUSH1 0x1 PUSH1 0x1 PUSH1 0xA0 SHL SUB PUSH32 0x0 AND ADDRESS SUB PUSH2 0x56C JUMPI PUSH1 0x40 MLOAD PUSH3 0x461BCD PUSH1 0xE5 SHL DUP2 MSTORE PUSH1 0x4 ADD PUSH2 0x463 SWAP1 PUSH2 0x14F9 JUMP JUMPDEST PUSH32 0x0 PUSH1 0x1 PUSH1 0x1 PUSH1 0xA0 SHL SUB AND PUSH2 0x59E PUSH2 0xC7B JUMP JUMPDEST PUSH1 0x1 PUSH1 0x1 PUSH1 0xA0 SHL SUB AND EQ PUSH2 0x5C4 JUMPI PUSH1 0x40 MLOAD PUSH3 0x461BCD PUSH1 0xE5 SHL DUP2 MSTORE PUSH1 0x4 ADD PUSH2 0x463 SWAP1 PUSH2 0x1533 JUMP JUMPDEST PUSH2 0x5CD DUP3 PUSH2 0xC97 JUMP JUMPDEST PUSH2 0x520 DUP3 DUP3 PUSH1 0x1 PUSH2 0xC9F JUMP JUMPDEST PUSH1 0x0 ADDRESS PUSH1 0x1 PUSH1 0x1 PUSH1 0xA0 SHL SUB PUSH32 0x0 AND EQ PUSH2 0x674 JUMPI PUSH1 0x40 MLOAD PUSH3 0x461BCD PUSH1 0xE5 SHL DUP2 MSTORE PUSH1 0x20 PUSH1 0x4 DUP3 ADD MSTORE PUSH1 0x38 PUSH1 0x24 DUP3 ADD MSTORE PUSH32 0x555550535570677261646561626C653A206D757374206E6F742062652063616C PUSH1 0x44 DUP3 ADD MSTORE PUSH24 0x1B1959081D1A1C9BDD59DA0819195B1959D85D1958D85B1B PUSH1 0x42 SHL PUSH1 0x64 DUP3 ADD MSTORE PUSH1 0x84 ADD PUSH2 0x463 JUMP JUMPDEST POP PUSH1 0x0 DUP1 MLOAD PUSH1 0x20 PUSH2 0x173C DUP4 CODECOPY DUP2 MLOAD SWAP2 MSTORE SWAP1 JUMP JUMPDEST PUSH2 0x68F PUSH2 0xE0F JUMP JUMPDEST PUSH2 0x699 PUSH1 0x0 PUSH2 0xF1D JUMP JUMPDEST JUMP JUMPDEST PUSH1 0x0 SLOAD PUSH2 0x100 SWAP1 DIV PUSH1 0xFF AND ISZERO DUP1 DUP1 ISZERO PUSH2 0x6BB JUMPI POP PUSH1 0x0 SLOAD PUSH1 0x1 PUSH1 0xFF SWAP1 SWAP2 AND LT JUMPDEST DUP1 PUSH2 0x6DC JUMPI POP PUSH2 0x6CA ADDRESS PUSH2 0xF6F JUMP JUMPDEST ISZERO DUP1 ISZERO PUSH2 0x6DC JUMPI POP PUSH1 0x0 SLOAD PUSH1 0xFF AND PUSH1 0x1 EQ JUMPDEST PUSH2 0x73F JUMPI PUSH1 0x40 MLOAD PUSH3 0x461BCD PUSH1 0xE5 SHL DUP2 MSTORE PUSH1 0x20 PUSH1 0x4 DUP3 ADD MSTORE PUSH1 0x2E PUSH1 0x24 DUP3 ADD MSTORE PUSH32 0x496E697469616C697A61626C653A20636F6E747261637420697320616C726561 PUSH1 0x44 DUP3 ADD MSTORE PUSH14 0x191E481A5B9A5D1A585B1A5E9959 PUSH1 0x92 SHL PUSH1 0x64 DUP3 ADD MSTORE PUSH1 0x84 ADD PUSH2 0x463 JUMP JUMPDEST PUSH1 0x0 DUP1 SLOAD PUSH1 0xFF NOT AND PUSH1 0x1 OR SWAP1 SSTORE DUP1 ISZERO PUSH2 0x762 JUMPI PUSH1 0x0 DUP1 SLOAD PUSH2 0xFF00 NOT AND PUSH2 0x100 OR SWAP1 SSTORE JUMPDEST PUSH2 0x7A4 PUSH1 0x40 MLOAD DUP1 PUSH1 0x40 ADD PUSH1 0x40 MSTORE DUP1 PUSH1 0x4 DUP2 MSTORE PUSH1 0x20 ADD PUSH4 0x1554D115 PUSH1 0xE2 SHL DUP2 MSTORE POP PUSH1 0x40 MLOAD DUP1 PUSH1 0x40 ADD PUSH1 0x40 MSTORE DUP1 PUSH1 0x4 DUP2 MSTORE PUSH1 0x20 ADD PUSH4 0x1554D115 PUSH1 0xE2 SHL DUP2 MSTORE POP PUSH2 0xF7E JUMP JUMPDEST PUSH2 0x7AC PUSH2 0xFAF JUMP JUMPDEST PUSH2 0x7B4 PUSH2 0xFDE JUMP JUMPDEST DUP1 ISZERO PUSH2 0x4E9 JUMPI PUSH1 0x0 DUP1 SLOAD PUSH2 0xFF00 NOT AND SWAP1 SSTORE PUSH1 0x40 MLOAD PUSH1 0x1 DUP2 MSTORE PUSH32 0x7F26B83FF96E1F2B6A682F133852F6798A09C465DA95921460CEFB3847402498 SWAP1 PUSH1 0x20 ADD PUSH1 0x40 MLOAD DUP1 SWAP2 SUB SWAP1 LOG1 POP JUMP JUMPDEST PUSH1 0x65 SLOAD PUSH1 0x1 PUSH1 0x1 PUSH1 0xA0 SHL SUB AND SWAP1 JUMP JUMPDEST PUSH1 0x60 PUSH1 0x37 DUP1 SLOAD PUSH2 0x35A SWAP1 PUSH2 0x14BF JUMP JUMPDEST PUSH1 0x0 CALLER DUP2 PUSH2 0x828 DUP3 DUP7 PUSH2 0x8A3 JUMP JUMPDEST SWAP1 POP DUP4 DUP2 LT ISZERO PUSH2 0x888 JUMPI PUSH1 0x40 MLOAD PUSH3 0x461BCD PUSH1 0xE5 SHL DUP2 MSTORE PUSH1 0x20 PUSH1 0x4 DUP3 ADD MSTORE PUSH1 0x25 PUSH1 0x24 DUP3 ADD MSTORE PUSH32 0x45524332303A2064656372656173656420616C6C6F77616E63652062656C6F77 PUSH1 0x44 DUP3 ADD MSTORE PUSH5 0x207A65726F PUSH1 0xD8 SHL PUSH1 0x64 DUP3 ADD MSTORE PUSH1 0x84 ADD PUSH2 0x463 JUMP JUMPDEST PUSH2 0x410 DUP3 DUP7 DUP7 DUP5 SUB PUSH2 0x944 JUMP JUMPDEST PUSH1 0x0 CALLER PUSH2 0x3EB DUP2 DUP6 DUP6 PUSH2 0xAE2 JUMP JUMPDEST PUSH1 0x1 PUSH1 0x1 PUSH1 0xA0 SHL SUB SWAP2 DUP3 AND PUSH1 0x0 SWAP1 DUP2 MSTORE PUSH1 0x34 PUSH1 0x20 SWAP1 DUP2 MSTORE PUSH1 0x40 DUP1 DUP4 KECCAK256 SWAP4 SWAP1 SWAP5 AND DUP3 MSTORE SWAP2 SWAP1 SWAP2 MSTORE KECCAK256 SLOAD SWAP1 JUMP JUMPDEST PUSH2 0x8D6 PUSH2 0xE0F JUMP JUMPDEST PUSH1 0x1 PUSH1 0x1 PUSH1 0xA0 SHL SUB DUP2 AND PUSH2 0x93B JUMPI PUSH1 0x40 MLOAD PUSH3 0x461BCD PUSH1 0xE5 SHL DUP2 MSTORE PUSH1 0x20 PUSH1 0x4 DUP3 ADD MSTORE PUSH1 0x26 PUSH1 0x24 DUP3 ADD MSTORE PUSH32 0x4F776E61626C653A206E6577206F776E657220697320746865207A65726F2061 PUSH1 0x44 DUP3 ADD MSTORE PUSH6 0x646472657373 PUSH1 0xD0 SHL PUSH1 0x64 DUP3 ADD MSTORE PUSH1 0x84 ADD PUSH2 0x463 JUMP JUMPDEST PUSH2 0x4E9 DUP2 PUSH2 0xF1D JUMP JUMPDEST PUSH1 0x1 PUSH1 0x1 PUSH1 0xA0 SHL SUB DUP4 AND PUSH2 0x9A6 JUMPI PUSH1 0x40 MLOAD PUSH3 0x461BCD PUSH1 0xE5 SHL DUP2 MSTORE PUSH1 0x20 PUSH1 0x4 DUP3 ADD MSTORE PUSH1 0x24 DUP1 DUP3 ADD MSTORE PUSH32 0x45524332303A20617070726F76652066726F6D20746865207A65726F20616464 PUSH1 0x44 DUP3 ADD MSTORE PUSH4 0x72657373 PUSH1 0xE0 SHL PUSH1 0x64 DUP3 ADD MSTORE PUSH1 0x84 ADD PUSH2 0x463 JUMP JUMPDEST PUSH1 0x1 PUSH1 0x1 PUSH1 0xA0 SHL SUB DUP3 AND PUSH2 0xA07 JUMPI PUSH1 0x40 MLOAD PUSH3 0x461BCD PUSH1 0xE5 SHL DUP2 MSTORE PUSH1 0x20 PUSH1 0x4 DUP3 ADD MSTORE PUSH1 0x22 PUSH1 0x24 DUP3 ADD MSTORE PUSH32 0x45524332303A20617070726F766520746F20746865207A65726F206164647265 PUSH1 0x44 DUP3 ADD MSTORE PUSH2 0x7373 PUSH1 0xF0 SHL PUSH1 0x64 DUP3 ADD MSTORE PUSH1 0x84 ADD PUSH2 0x463 JUMP JUMPDEST PUSH1 0x1 PUSH1 0x1 PUSH1 0xA0 SHL SUB DUP4 DUP2 AND PUSH1 0x0 DUP2 DUP2 MSTORE PUSH1 0x34 PUSH1 0x20 SWAP1 DUP2 MSTORE PUSH1 0x40 DUP1 DUP4 KECCAK256 SWAP5 DUP8 AND DUP1 DUP5 MSTORE SWAP5 DUP3 MSTORE SWAP2 DUP3 SWAP1 KECCAK256 DUP6 SWAP1 SSTORE SWAP1 MLOAD DUP5 DUP2 MSTORE PUSH32 0x8C5BE1E5EBEC7D5BD14F71427D1E84F3DD0314C0F7B2291E5B200AC8C7C3B925 SWAP2 ADD PUSH1 0x40 MLOAD DUP1 SWAP2 SUB SWAP1 LOG3 POP POP POP JUMP JUMPDEST PUSH1 0x0 PUSH2 0xA74 DUP5 DUP5 PUSH2 0x8A3 JUMP JUMPDEST SWAP1 POP PUSH1 0x0 NOT DUP2 EQ PUSH2 0xADC JUMPI DUP2 DUP2 LT ISZERO PUSH2 0xACF JUMPI PUSH1 0x40 MLOAD PUSH3 0x461BCD PUSH1 0xE5 SHL DUP2 MSTORE PUSH1 0x20 PUSH1 0x4 DUP3 ADD MSTORE PUSH1 0x1D PUSH1 0x24 DUP3 ADD MSTORE PUSH32 0x45524332303A20696E73756666696369656E7420616C6C6F77616E6365000000 PUSH1 0x44 DUP3 ADD MSTORE PUSH1 0x64 ADD PUSH2 0x463 JUMP JUMPDEST PUSH2 0xADC DUP5 DUP5 DUP5 DUP5 SUB PUSH2 0x944 JUMP JUMPDEST POP POP POP POP JUMP JUMPDEST PUSH1 0x1 PUSH1 0x1 PUSH1 0xA0 SHL SUB DUP4 AND PUSH2 0xB46 JUMPI PUSH1 0x40 MLOAD PUSH3 0x461BCD PUSH1 0xE5 SHL DUP2 MSTORE PUSH1 0x20 PUSH1 0x4 DUP3 ADD MSTORE PUSH1 0x25 PUSH1 0x24 DUP3 ADD MSTORE PUSH32 0x45524332303A207472616E736665722066726F6D20746865207A65726F206164 PUSH1 0x44 DUP3 ADD MSTORE PUSH5 0x6472657373 PUSH1 0xD8 SHL PUSH1 0x64 DUP3 ADD MSTORE PUSH1 0x84 ADD PUSH2 0x463 JUMP JUMPDEST PUSH1 0x1 PUSH1 0x1 PUSH1 0xA0 SHL SUB DUP3 AND PUSH2 0xBA8 JUMPI PUSH1 0x40 MLOAD PUSH3 0x461BCD PUSH1 0xE5 SHL DUP2 MSTORE PUSH1 0x20 PUSH1 0x4 DUP3 ADD MSTORE PUSH1 0x23 PUSH1 0x24 DUP3 ADD MSTORE PUSH32 0x45524332303A207472616E7366657220746F20746865207A65726F2061646472 PUSH1 0x44 DUP3 ADD MSTORE PUSH3 0x657373 PUSH1 0xE8 SHL PUSH1 0x64 DUP3 ADD MSTORE PUSH1 0x84 ADD PUSH2 0x463 JUMP JUMPDEST PUSH1 0x1 PUSH1 0x1 PUSH1 0xA0 SHL SUB DUP4 AND PUSH1 0x0 SWAP1 DUP2 MSTORE PUSH1 0x33 PUSH1 0x20 MSTORE PUSH1 0x40 SWAP1 KECCAK256 SLOAD DUP2 DUP2 LT ISZERO PUSH2 0xC20 JUMPI PUSH1 0x40 MLOAD PUSH3 0x461BCD PUSH1 0xE5 SHL DUP2 MSTORE PUSH1 0x20 PUSH1 0x4 DUP3 ADD MSTORE PUSH1 0x26 PUSH1 0x24 DUP3 ADD MSTORE PUSH32 0x45524332303A207472616E7366657220616D6F756E7420657863656564732062 PUSH1 0x44 DUP3 ADD MSTORE PUSH6 0x616C616E6365 PUSH1 0xD0 SHL PUSH1 0x64 DUP3 ADD MSTORE PUSH1 0x84 ADD PUSH2 0x463 JUMP JUMPDEST PUSH1 0x1 PUSH1 0x1 PUSH1 0xA0 SHL SUB DUP1 DUP6 AND PUSH1 0x0 DUP2 DUP2 MSTORE PUSH1 0x33 PUSH1 0x20 MSTORE PUSH1 0x40 DUP1 DUP3 KECCAK256 DUP7 DUP7 SUB SWAP1 SSTORE SWAP3 DUP7 AND DUP1 DUP3 MSTORE SWAP1 DUP4 SWAP1 KECCAK256 DUP1 SLOAD DUP7 ADD SWAP1 SSTORE SWAP2 MLOAD PUSH1 0x0 DUP1 MLOAD PUSH1 0x20 PUSH2 0x1783 DUP4 CODECOPY DUP2 MLOAD SWAP2 MSTORE SWAP1 PUSH2 0xC6E SWAP1 DUP7 DUP2 MSTORE PUSH1 0x20 ADD SWAP1 JUMP JUMPDEST PUSH1 0x40 MLOAD DUP1 SWAP2 SUB SWAP1 LOG3 PUSH2 0xADC JUMP JUMPDEST PUSH1 0x0 DUP1 MLOAD PUSH1 0x20 PUSH2 0x173C DUP4 CODECOPY DUP2 MLOAD SWAP2 MSTORE SLOAD PUSH1 0x1 PUSH1 0x1 PUSH1 0xA0 SHL SUB AND SWAP1 JUMP JUMPDEST PUSH2 0x4E9 PUSH2 0xE0F JUMP JUMPDEST PUSH32 0x4910FDFA16FED3260ED0E7147F7CC6DA11A60208B5B9406D12A635614FFD9143 SLOAD PUSH1 0xFF AND ISZERO PUSH2 0xCD7 JUMPI PUSH2 0xCD2 DUP4 PUSH2 0x1005 JUMP JUMPDEST POP POP POP JUMP JUMPDEST DUP3 PUSH1 0x1 PUSH1 0x1 PUSH1 0xA0 SHL SUB AND PUSH4 0x52D1902D PUSH1 0x40 MLOAD DUP2 PUSH4 0xFFFFFFFF AND PUSH1 0xE0 SHL DUP2 MSTORE PUSH1 0x4 ADD PUSH1 0x20 PUSH1 0x40 MLOAD DUP1 DUP4 SUB DUP2 DUP7 GAS STATICCALL SWAP3 POP POP POP DUP1 ISZERO PUSH2 0xD31 JUMPI POP PUSH1 0x40 DUP1 MLOAD PUSH1 0x1F RETURNDATASIZE SWAP1 DUP2 ADD PUSH1 0x1F NOT AND DUP3 ADD SWAP1 SWAP3 MSTORE PUSH2 0xD2E SWAP2 DUP2 ADD SWAP1 PUSH2 0x158E JUMP JUMPDEST PUSH1 0x1 JUMPDEST PUSH2 0xD94 JUMPI PUSH1 0x40 MLOAD PUSH3 0x461BCD PUSH1 0xE5 SHL DUP2 MSTORE PUSH1 0x20 PUSH1 0x4 DUP3 ADD MSTORE PUSH1 0x2E PUSH1 0x24 DUP3 ADD MSTORE PUSH32 0x45524331393637557067726164653A206E657720696D706C656D656E74617469 PUSH1 0x44 DUP3 ADD MSTORE PUSH14 0x6F6E206973206E6F742055555053 PUSH1 0x90 SHL PUSH1 0x64 DUP3 ADD MSTORE PUSH1 0x84 ADD PUSH2 0x463 JUMP JUMPDEST PUSH1 0x0 DUP1 MLOAD PUSH1 0x20 PUSH2 0x173C DUP4 CODECOPY DUP2 MLOAD SWAP2 MSTORE DUP2 EQ PUSH2 0xE03 JUMPI PUSH1 0x40 MLOAD PUSH3 0x461BCD PUSH1 0xE5 SHL DUP2 MSTORE PUSH1 0x20 PUSH1 0x4 DUP3 ADD MSTORE PUSH1 0x29 PUSH1 0x24 DUP3 ADD MSTORE PUSH32 0x45524331393637557067726164653A20756E737570706F727465642070726F78 PUSH1 0x44 DUP3 ADD MSTORE PUSH9 0x1A58589B1955555251 PUSH1 0xBA SHL PUSH1 0x64 DUP3 ADD MSTORE PUSH1 0x84 ADD PUSH2 0x463 JUMP JUMPDEST POP PUSH2 0xCD2 DUP4 DUP4 DUP4 PUSH2 0x109F JUMP JUMPDEST CALLER PUSH2 0xE18 PUSH2 0x7FC JUMP JUMPDEST PUSH1 0x1 PUSH1 0x1 PUSH1 0xA0 SHL SUB AND EQ PUSH2 0x699 JUMPI PUSH1 0x40 MLOAD PUSH3 0x461BCD PUSH1 0xE5 SHL DUP2 MSTORE PUSH1 0x20 PUSH1 0x4 DUP3 ADD DUP2 SWAP1 MSTORE PUSH1 0x24 DUP3 ADD MSTORE PUSH32 0x4F776E61626C653A2063616C6C6572206973206E6F7420746865206F776E6572 PUSH1 0x44 DUP3 ADD MSTORE PUSH1 0x64 ADD PUSH2 0x463 JUMP JUMPDEST PUSH1 0x1 PUSH1 0x1 PUSH1 0xA0 SHL SUB DUP3 AND PUSH2 0xEC4 JUMPI PUSH1 0x40 MLOAD PUSH3 0x461BCD PUSH1 0xE5 SHL DUP2 MSTORE PUSH1 0x20 PUSH1 0x4 DUP3 ADD MSTORE PUSH1 0x1F PUSH1 0x24 DUP3 ADD MSTORE PUSH32 0x45524332303A206D696E7420746F20746865207A65726F206164647265737300 PUSH1 0x44 DUP3 ADD MSTORE PUSH1 0x64 ADD PUSH2 0x463 JUMP JUMPDEST DUP1 PUSH1 0x35 PUSH1 0x0 DUP3 DUP3 SLOAD PUSH2 0xED6 SWAP2 SWAP1 PUSH2 0x156D JUMP JUMPDEST SWAP1 SWAP2 SSTORE POP POP PUSH1 0x1 PUSH1 0x1 PUSH1 0xA0 SHL SUB DUP3 AND PUSH1 0x0 DUP2 DUP2 MSTORE PUSH1 0x33 PUSH1 0x20 SWAP1 DUP2 MSTORE PUSH1 0x40 DUP1 DUP4 KECCAK256 DUP1 SLOAD DUP7 ADD SWAP1 SSTORE MLOAD DUP5 DUP2 MSTORE PUSH1 0x0 DUP1 MLOAD PUSH1 0x20 PUSH2 0x1783 DUP4 CODECOPY DUP2 MLOAD SWAP2 MSTORE SWAP2 ADD PUSH1 0x40 MLOAD DUP1 SWAP2 SUB SWAP1 LOG3 POP POP JUMP JUMPDEST PUSH1 0x65 DUP1 SLOAD PUSH1 0x1 PUSH1 0x1 PUSH1 0xA0 SHL SUB DUP4 DUP2 AND PUSH1 0x1 PUSH1 0x1 PUSH1 0xA0 SHL SUB NOT DUP4 AND DUP2 OR SWAP1 SWAP4 SSTORE PUSH1 0x40 MLOAD SWAP2 AND SWAP2 SWAP1 DUP3 SWAP1 PUSH32 0x8BE0079C531659141344CD1FD0A4F28419497F9722A3DAAFE3B4186F6B6457E0 SWAP1 PUSH1 0x0 SWAP1 LOG3 POP POP JUMP JUMPDEST PUSH1 0x1 PUSH1 0x1 PUSH1 0xA0 SHL SUB AND EXTCODESIZE ISZERO ISZERO SWAP1 JUMP JUMPDEST PUSH1 0x0 SLOAD PUSH2 0x100 SWAP1 DIV PUSH1 0xFF AND PUSH2 0xFA5 JUMPI PUSH1 0x40 MLOAD PUSH3 0x461BCD PUSH1 0xE5 SHL DUP2 MSTORE PUSH1 0x4 ADD PUSH2 0x463 SWAP1 PUSH2 0x15A7 JUMP JUMPDEST PUSH2 0x520 DUP3 DUP3 PUSH2 0x10C4 JUMP JUMPDEST PUSH1 0x0 SLOAD PUSH2 0x100 SWAP1 DIV PUSH1 0xFF AND PUSH2 0xFD6 JUMPI PUSH1 0x40 MLOAD PUSH3 0x461BCD PUSH1 0xE5 SHL DUP2 MSTORE PUSH1 0x4 ADD PUSH2 0x463 SWAP1 PUSH2 0x15A7 JUMP JUMPDEST PUSH2 0x699 PUSH2 0x1104 JUMP JUMPDEST PUSH1 0x0 SLOAD PUSH2 0x100 SWAP1 DIV PUSH1 0xFF AND PUSH2 0x699 JUMPI PUSH1 0x40 MLOAD PUSH3 0x461BCD PUSH1 0xE5 SHL DUP2 MSTORE PUSH1 0x4 ADD PUSH2 0x463 SWAP1 PUSH2 0x15A7 JUMP JUMPDEST PUSH2 0x100E DUP2 PUSH2 0xF6F JUMP JUMPDEST PUSH2 0x1070 JUMPI PUSH1 0x40 MLOAD PUSH3 0x461BCD PUSH1 0xE5 SHL DUP2 MSTORE PUSH1 0x20 PUSH1 0x4 DUP3 ADD MSTORE PUSH1 0x2D PUSH1 0x24 DUP3 ADD MSTORE PUSH32 0x455243313936373A206E657720696D706C656D656E746174696F6E206973206E PUSH1 0x44 DUP3 ADD MSTORE PUSH13 0x1BDD08184818DBDB9D1C9858DD PUSH1 0x9A SHL PUSH1 0x64 DUP3 ADD MSTORE PUSH1 0x84 ADD PUSH2 0x463 JUMP JUMPDEST PUSH1 0x0 DUP1 MLOAD PUSH1 0x20 PUSH2 0x173C DUP4 CODECOPY DUP2 MLOAD SWAP2 MSTORE DUP1 SLOAD PUSH1 0x1 PUSH1 0x1 PUSH1 0xA0 SHL SUB NOT AND PUSH1 0x1 PUSH1 0x1 PUSH1 0xA0 SHL SUB SWAP3 SWAP1 SWAP3 AND SWAP2 SWAP1 SWAP2 OR SWAP1 SSTORE JUMP JUMPDEST PUSH2 0x10A8 DUP4 PUSH2 0x1134 JUMP JUMPDEST PUSH1 0x0 DUP3 MLOAD GT DUP1 PUSH2 0x10B5 JUMPI POP DUP1 JUMPDEST ISZERO PUSH2 0xCD2 JUMPI PUSH2 0xADC DUP4 DUP4 PUSH2 0x1174 JUMP JUMPDEST PUSH1 0x0 SLOAD PUSH2 0x100 SWAP1 DIV PUSH1 0xFF AND PUSH2 0x10EB JUMPI PUSH1 0x40 MLOAD PUSH3 0x461BCD PUSH1 0xE5 SHL DUP2 MSTORE PUSH1 0x4 ADD PUSH2 0x463 SWAP1 PUSH2 0x15A7 JUMP JUMPDEST PUSH1 0x36 PUSH2 0x10F7 DUP4 DUP3 PUSH2 0x1640 JUMP JUMPDEST POP PUSH1 0x37 PUSH2 0xCD2 DUP3 DUP3 PUSH2 0x1640 JUMP JUMPDEST PUSH1 0x0 SLOAD PUSH2 0x100 SWAP1 DIV PUSH1 0xFF AND PUSH2 0x112B JUMPI PUSH1 0x40 MLOAD PUSH3 0x461BCD PUSH1 0xE5 SHL DUP2 MSTORE PUSH1 0x4 ADD PUSH2 0x463 SWAP1 PUSH2 0x15A7 JUMP JUMPDEST PUSH2 0x699 CALLER PUSH2 0xF1D JUMP JUMPDEST PUSH2 0x113D DUP2 PUSH2 0x1005 JUMP JUMPDEST PUSH1 0x40 MLOAD PUSH1 0x1 PUSH1 0x1 PUSH1 0xA0 SHL SUB DUP3 AND SWAP1 PUSH32 0xBC7CD75A20EE27FD9ADEBAB32041F755214DBC6BFFA90CC0225B39DA2E5C2D3B SWAP1 PUSH1 0x0 SWAP1 LOG2 POP JUMP JUMPDEST PUSH1 0x60 PUSH2 0x1199 DUP4 DUP4 PUSH1 0x40 MLOAD DUP1 PUSH1 0x60 ADD PUSH1 0x40 MSTORE DUP1 PUSH1 0x27 DUP2 MSTORE PUSH1 0x20 ADD PUSH2 0x175C PUSH1 0x27 SWAP2 CODECOPY PUSH2 0x11A0 JUMP JUMPDEST SWAP4 SWAP3 POP POP POP JUMP JUMPDEST PUSH1 0x60 PUSH1 0x0 DUP1 DUP6 PUSH1 0x1 PUSH1 0x1 PUSH1 0xA0 SHL SUB AND DUP6 PUSH1 0x40 MLOAD PUSH2 0x11BD SWAP2 SWAP1 PUSH2 0x16FF JUMP JUMPDEST PUSH1 0x0 PUSH1 0x40 MLOAD DUP1 DUP4 SUB DUP2 DUP6 GAS DELEGATECALL SWAP2 POP POP RETURNDATASIZE DUP1 PUSH1 0x0 DUP2 EQ PUSH2 0x11F8 JUMPI PUSH1 0x40 MLOAD SWAP2 POP PUSH1 0x1F NOT PUSH1 0x3F RETURNDATASIZE ADD AND DUP3 ADD PUSH1 0x40 MSTORE RETURNDATASIZE DUP3 MSTORE RETURNDATASIZE PUSH1 0x0 PUSH1 0x20 DUP5 ADD RETURNDATACOPY PUSH2 0x11FD JUMP JUMPDEST PUSH1 0x60 SWAP2 POP JUMPDEST POP SWAP2 POP SWAP2 POP PUSH2 0x120E DUP7 DUP4 DUP4 DUP8 PUSH2 0x1218 JUMP JUMPDEST SWAP7 SWAP6 POP POP POP POP POP POP JUMP JUMPDEST PUSH1 0x60 DUP4 ISZERO PUSH2 0x1285 JUMPI DUP3 MLOAD PUSH1 0x0 SUB PUSH2 0x127E JUMPI PUSH2 0x1232 DUP6 PUSH2 0xF6F JUMP JUMPDEST PUSH2 0x127E JUMPI PUSH1 0x40 MLOAD PUSH3 0x461BCD PUSH1 0xE5 SHL DUP2 MSTORE PUSH1 0x20 PUSH1 0x4 DUP3 ADD MSTORE PUSH1 0x1D PUSH1 0x24 DUP3 ADD MSTORE PUSH32 0x416464726573733A2063616C6C20746F206E6F6E2D636F6E7472616374000000 PUSH1 0x44 DUP3 ADD MSTORE PUSH1 0x64 ADD PUSH2 0x463 JUMP JUMPDEST POP DUP2 PUSH2 0x128F JUMP JUMPDEST PUSH2 0x128F DUP4 DUP4 PUSH2 0x1297 JUMP JUMPDEST SWAP5 SWAP4 POP POP POP POP JUMP JUMPDEST DUP2 MLOAD ISZERO PUSH2 0x12A7 JUMPI DUP2 MLOAD DUP1 DUP4 PUSH1 0x20 ADD REVERT JUMPDEST DUP1 PUSH1 0x40 MLOAD PUSH3 0x461BCD PUSH1 0xE5 SHL DUP2 MSTORE PUSH1 0x4 ADD PUSH2 0x463 SWAP2 SWAP1 PUSH2 0x12E5 JUMP JUMPDEST PUSH1 0x0 JUMPDEST DUP4 DUP2 LT ISZERO PUSH2 0x12DC JUMPI DUP2 DUP2 ADD MLOAD DUP4 DUP3 ADD MSTORE PUSH1 0x20 ADD PUSH2 0x12C4 JUMP JUMPDEST POP POP PUSH1 0x0 SWAP2 ADD MSTORE JUMP JUMPDEST PUSH1 0x20 DUP2 MSTORE PUSH1 0x0 DUP3 MLOAD DUP1 PUSH1 0x20 DUP5 ADD MSTORE PUSH2 0x1304 DUP2 PUSH1 0x40 DUP6 ADD PUSH1 0x20 DUP8 ADD PUSH2 0x12C1 JUMP JUMPDEST PUSH1 0x1F ADD PUSH1 0x1F NOT AND SWAP2 SWAP1 SWAP2 ADD PUSH1 0x40 ADD SWAP3 SWAP2 POP POP JUMP JUMPDEST DUP1 CALLDATALOAD PUSH1 0x1 PUSH1 0x1 PUSH1 0xA0 SHL SUB DUP2 AND DUP2 EQ PUSH2 0x132F JUMPI PUSH1 0x0 DUP1 REVERT JUMPDEST SWAP2 SWAP1 POP JUMP JUMPDEST PUSH1 0x0 DUP1 PUSH1 0x40 DUP4 DUP6 SUB SLT ISZERO PUSH2 0x1347 JUMPI PUSH1 0x0 DUP1 REVERT JUMPDEST PUSH2 0x1350 DUP4 PUSH2 0x1318 JUMP JUMPDEST SWAP5 PUSH1 0x20 SWAP4 SWAP1 SWAP4 ADD CALLDATALOAD SWAP4 POP POP POP JUMP JUMPDEST PUSH1 0x0 DUP1 PUSH1 0x0 PUSH1 0x60 DUP5 DUP7 SUB SLT ISZERO PUSH2 0x1373 JUMPI PUSH1 0x0 DUP1 REVERT JUMPDEST PUSH2 0x137C DUP5 PUSH2 0x1318 JUMP JUMPDEST SWAP3 POP PUSH2 0x138A PUSH1 0x20 DUP6 ADD PUSH2 0x1318 JUMP JUMPDEST SWAP2 POP PUSH1 0x40 DUP5 ADD CALLDATALOAD SWAP1 POP SWAP3 POP SWAP3 POP SWAP3 JUMP JUMPDEST PUSH1 0x0 PUSH1 0x20 DUP3 DUP5 SUB SLT ISZERO PUSH2 0x13AC JUMPI PUSH1 0x0 DUP1 REVERT JUMPDEST PUSH2 0x1199 DUP3 PUSH2 0x1318 JUMP JUMPDEST PUSH4 0x4E487B71 PUSH1 0xE0 SHL PUSH1 0x0 MSTORE PUSH1 0x41 PUSH1 0x4 MSTORE PUSH1 0x24 PUSH1 0x0 REVERT JUMPDEST PUSH1 0x0 DUP1 PUSH1 0x40 DUP4 DUP6 SUB SLT ISZERO PUSH2 0x13DE JUMPI PUSH1 0x0 DUP1 REVERT JUMPDEST PUSH2 0x13E7 DUP4 PUSH2 0x1318 JUMP JUMPDEST SWAP2 POP PUSH1 0x20 DUP4 ADD CALLDATALOAD PUSH1 0x1 PUSH1 0x1 PUSH1 0x40 SHL SUB DUP1 DUP3 GT ISZERO PUSH2 0x1403 JUMPI PUSH1 0x0 DUP1 REVERT JUMPDEST DUP2 DUP6 ADD SWAP2 POP DUP6 PUSH1 0x1F DUP4 ADD SLT PUSH2 0x1417 JUMPI PUSH1 0x0 DUP1 REVERT JUMPDEST DUP2 CALLDATALOAD DUP2 DUP2 GT ISZERO PUSH2 0x1429 JUMPI PUSH2 0x1429 PUSH2 0x13B5 JUMP JUMPDEST PUSH1 0x40 MLOAD PUSH1 0x1F DUP3 ADD PUSH1 0x1F NOT SWAP1 DUP2 AND PUSH1 0x3F ADD AND DUP2 ADD SWAP1 DUP4 DUP3 GT DUP2 DUP4 LT OR ISZERO PUSH2 0x1451 JUMPI PUSH2 0x1451 PUSH2 0x13B5 JUMP JUMPDEST DUP2 PUSH1 0x40 MSTORE DUP3 DUP2 MSTORE DUP9 PUSH1 0x20 DUP5 DUP8 ADD ADD GT ISZERO PUSH2 0x146A JUMPI PUSH1 0x0 DUP1 REVERT JUMPDEST DUP3 PUSH1 0x20 DUP7 ADD PUSH1 0x20 DUP4 ADD CALLDATACOPY PUSH1 0x0 PUSH1 0x20 DUP5 DUP4 ADD ADD MSTORE DUP1 SWAP6 POP POP POP POP POP POP SWAP3 POP SWAP3 SWAP1 POP JUMP JUMPDEST PUSH1 0x0 DUP1 PUSH1 0x40 DUP4 DUP6 SUB SLT ISZERO PUSH2 0x149F JUMPI PUSH1 0x0 DUP1 REVERT JUMPDEST PUSH2 0x14A8 DUP4 PUSH2 0x1318 JUMP JUMPDEST SWAP2 POP PUSH2 0x14B6 PUSH1 0x20 DUP5 ADD PUSH2 0x1318 JUMP JUMPDEST SWAP1 POP SWAP3 POP SWAP3 SWAP1 POP JUMP JUMPDEST PUSH1 0x1 DUP2 DUP2 SHR SWAP1 DUP3 AND DUP1 PUSH2 0x14D3 JUMPI PUSH1 0x7F DUP3 AND SWAP2 POP JUMPDEST PUSH1 0x20 DUP3 LT DUP2 SUB PUSH2 0x14F3 JUMPI PUSH4 0x4E487B71 PUSH1 0xE0 SHL PUSH1 0x0 MSTORE PUSH1 0x22 PUSH1 0x4 MSTORE PUSH1 0x24 PUSH1 0x0 REVERT JUMPDEST POP SWAP2 SWAP1 POP JUMP JUMPDEST PUSH1 0x20 DUP1 DUP3 MSTORE PUSH1 0x2C SWAP1 DUP3 ADD MSTORE PUSH1 0x0 DUP1 MLOAD PUSH1 0x20 PUSH2 0x171C DUP4 CODECOPY DUP2 MLOAD SWAP2 MSTORE PUSH1 0x40 DUP3 ADD MSTORE PUSH12 0x19195B1959D85D1958D85B1B PUSH1 0xA2 SHL PUSH1 0x60 DUP3 ADD MSTORE PUSH1 0x80 ADD SWAP1 JUMP JUMPDEST PUSH1 0x20 DUP1 DUP3 MSTORE PUSH1 0x2C SWAP1 DUP3 ADD MSTORE PUSH1 0x0 DUP1 MLOAD PUSH1 0x20 PUSH2 0x171C DUP4 CODECOPY DUP2 MLOAD SWAP2 MSTORE PUSH1 0x40 DUP3 ADD MSTORE PUSH12 0x6163746976652070726F7879 PUSH1 0xA0 SHL PUSH1 0x60 DUP3 ADD MSTORE PUSH1 0x80 ADD SWAP1 JUMP JUMPDEST DUP1 DUP3 ADD DUP1 DUP3 GT ISZERO PUSH2 0x3F1 JUMPI PUSH4 0x4E487B71 PUSH1 0xE0 SHL PUSH1 0x0 MSTORE PUSH1 0x11 PUSH1 0x4 MSTORE PUSH1 0x24 PUSH1 0x0 REVERT JUMPDEST PUSH1 0x0 PUSH1 0x20 DUP3 DUP5 SUB SLT ISZERO PUSH2 0x15A0 JUMPI PUSH1 0x0 DUP1 REVERT JUMPDEST POP MLOAD SWAP2 SWAP1 POP JUMP JUMPDEST PUSH1 0x20 DUP1 DUP3 MSTORE PUSH1 0x2B SWAP1 DUP3 ADD MSTORE PUSH32 0x496E697469616C697A61626C653A20636F6E7472616374206973206E6F742069 PUSH1 0x40 DUP3 ADD MSTORE PUSH11 0x6E697469616C697A696E67 PUSH1 0xA8 SHL PUSH1 0x60 DUP3 ADD MSTORE PUSH1 0x80 ADD SWAP1 JUMP JUMPDEST PUSH1 0x1F DUP3 GT ISZERO PUSH2 0xCD2 JUMPI PUSH1 0x0 DUP2 DUP2 MSTORE PUSH1 0x20 DUP2 KECCAK256 PUSH1 0x1F DUP6 ADD PUSH1 0x5 SHR DUP2 ADD PUSH1 0x20 DUP7 LT ISZERO PUSH2 0x1619 JUMPI POP DUP1 JUMPDEST PUSH1 0x1F DUP6 ADD PUSH1 0x5 SHR DUP3 ADD SWAP2 POP JUMPDEST DUP2 DUP2 LT ISZERO PUSH2 0x1638 JUMPI DUP3 DUP2 SSTORE PUSH1 0x1 ADD PUSH2 0x1625 JUMP JUMPDEST POP POP POP POP POP POP JUMP JUMPDEST DUP2 MLOAD PUSH1 0x1 PUSH1 0x1 PUSH1 0x40 SHL SUB DUP2 GT ISZERO PUSH2 0x1659 JUMPI PUSH2 0x1659 PUSH2 0x13B5 JUMP JUMPDEST PUSH2 0x166D DUP2 PUSH2 0x1667 DUP5 SLOAD PUSH2 0x14BF JUMP JUMPDEST DUP5 PUSH2 0x15F2 JUMP JUMPDEST PUSH1 0x20 DUP1 PUSH1 0x1F DUP4 GT PUSH1 0x1 DUP2 EQ PUSH2 0x16A2 JUMPI PUSH1 0x0 DUP5 ISZERO PUSH2 0x168A JUMPI POP DUP6 DUP4 ADD MLOAD JUMPDEST PUSH1 0x0 NOT PUSH1 0x3 DUP7 SWAP1 SHL SHR NOT AND PUSH1 0x1 DUP6 SWAP1 SHL OR DUP6 SSTORE PUSH2 0x1638 JUMP JUMPDEST PUSH1 0x0 DUP6 DUP2 MSTORE PUSH1 0x20 DUP2 KECCAK256 PUSH1 0x1F NOT DUP7 AND SWAP2 JUMPDEST DUP3 DUP2 LT ISZERO PUSH2 0x16D1 JUMPI DUP9 DUP7 ADD MLOAD DUP3 SSTORE SWAP5 DUP5 ADD SWAP5 PUSH1 0x1 SWAP1 SWAP2 ADD SWAP1 DUP5 ADD PUSH2 0x16B2 JUMP JUMPDEST POP DUP6 DUP3 LT ISZERO PUSH2 0x16EF JUMPI DUP8 DUP6 ADD MLOAD PUSH1 0x0 NOT PUSH1 0x3 DUP9 SWAP1 SHL PUSH1 0xF8 AND SHR NOT AND DUP2 SSTORE JUMPDEST POP POP POP POP POP PUSH1 0x1 SWAP1 DUP2 SHL ADD SWAP1 SSTORE POP JUMP JUMPDEST PUSH1 0x0 DUP3 MLOAD PUSH2 0x1711 DUP2 DUP5 PUSH1 0x20 DUP8 ADD PUSH2 0x12C1 JUMP JUMPDEST SWAP2 SWAP1 SWAP2 ADD SWAP3 SWAP2 POP POP JUMP INVALID CHAINID PUSH22 0x6E6374696F6E206D7573742062652063616C6C656420 PUSH21 0x68726F75676820360894A13BA1A3210667C828492D 0xB9 DUP14 0xCA RETURNDATACOPY KECCAK256 PUSH23 0xCC3735A920A3CA505D382BBC416464726573733A206C6F PUSH24 0x2D6C6576656C2064656C65676174652063616C6C20666169 PUSH13 0x6564DDF252AD1BE2C89B69C2B0 PUSH9 0xFC378DAA952BA7F163 0xC4 LOG1 AND 0x28 CREATE2 GAS 0x4D CREATE2 0x23 0xB3 0xEF LOG2 PUSH5 0x6970667358 0x22 SLT KECCAK256 0xD6 DUP15 0x25 SWAP6 0x1F CREATE2 BLOCKHASH GT CALLVALUE 0x4C PUSH28 0x6A1C9099170B9C9E8F23297374584F1485FEAEE9FD64736F6C634300 ADDMOD GT STOP CALLER "},"methodIdentifiers":{"allowance(address,address)":"dd62ed3e","approve(address,uint256)":"095ea7b3","balanceOf(address)":"70a08231","decimals()":"313ce567","decreaseAllowance(address,uint256)":"a457c2d7","increaseAllowance(address,uint256)":"39509351","initialize()":"8129fc1c","mint(address,uint256)":"40c10f19","name()":"06fdde03","owner()":"8da5cb5b","proxiableUUID()":"52d1902d","renounceOwnership()":"715018a6","symbol()":"95d89b41","totalSupply()":"18160ddd","transfer(address,uint256)":"a9059cbb","transferFrom(address,address,uint256)":"23b872dd","transferOwnership(address)":"f2fde38b","upgradeTo(address)":"3659cfe6","upgradeToAndCall(address,bytes)":"4f1ef286"}},"storageLayout":{"storage":[{"astId":503,"contract":"contracts/MockToken.sol:MockToken","label":"_initialized","offset":0,"slot":"0","type":"t_uint8"},{"astId":506,"contract":"contracts/MockToken.sol:MockToken","label":"_initializing","offset":1,"slot":"0","type":"t_bool"},{"astId":2383,"contract":"contracts/MockToken.sol:MockToken","label":"__gap","offset":0,"slot":"1","type":"t_array(t_uint256)50_storage"},{"astId":904,"contract":"contracts/MockToken.sol:MockToken","label":"_balances","offset":0,"slot":"51","type":"t_mapping(t_address,t_uint256)"},{"astId":910,"contract":"contracts/MockToken.sol:MockToken","label":"_allowances","offset":0,"slot":"52","type":"t_mapping(t_address,t_mapping(t_address,t_uint256))"},{"astId":912,"contract":"contracts/MockToken.sol:MockToken","label":"_totalSupply","offset":0,"slot":"53","type":"t_uint256"},{"astId":914,"contract":"contracts/MockToken.sol:MockToken","label":"_name","offset":0,"slot":"54","type":"t_string_storage"},{"astId":916,"contract":"contracts/MockToken.sol:MockToken","label":"_symbol","offset":0,"slot":"55","type":"t_string_storage"},{"astId":1496,"contract":"contracts/MockToken.sol:MockToken","label":"__gap","offset":0,"slot":"56","type":"t_array(t_uint256)45_storage"},{"astId":10,"contract":"contracts/MockToken.sol:MockToken","label":"_owner","offset":0,"slot":"101","type":"t_address"},{"astId":130,"contract":"contracts/MockToken.sol:MockToken","label":"__gap","offset":0,"slot":"102","type":"t_array(t_uint256)49_storage"},{"astId":485,"contract":"contracts/MockToken.sol:MockToken","label":"__gap","offset":0,"slot":"151","type":"t_array(t_uint256)50_storage"},{"astId":800,"contract":"contracts/MockToken.sol:MockToken","label":"__gap","offset":0,"slot":"201","type":"t_array(t_uint256)50_storage"}],"types":{"t_address":{"encoding":"inplace","label":"address","numberOfBytes":"20"},"t_array(t_uint256)45_storage":{"base":"t_uint256","encoding":"inplace","label":"uint256[45]","numberOfBytes":"1440"},"t_array(t_uint256)49_storage":{"base":"t_uint256","encoding":"inplace","label":"uint256[49]","numberOfBytes":"1568"},"t_array(t_uint256)50_storage":{"base":"t_uint256","encoding":"inplace","label":"uint256[50]","numberOfBytes":"1600"},"t_bool":{"encoding":"inplace","label":"bool","numberOfBytes":"1"},"t_mapping(t_address,t_mapping(t_address,t_uint256))":{"encoding":"mapping","key":"t_address","label":"mapping(address => mapping(address => uint256))","numberOfBytes":"32","value":"t_mapping(t_address,t_uint256)"},"t_mapping(t_address,t_uint256)":{"encoding":"mapping","key":"t_address","label":"mapping(address => uint256)","numberOfBytes":"32","value":"t_uint256"},"t_string_storage":{"encoding":"bytes","label":"string","numberOfBytes":"32"},"t_uint256":{"encoding":"inplace","label":"uint256","numberOfBytes":"32"},"t_uint8":{"encoding":"inplace","label":"uint8","numberOfBytes":"1"}}}}}}