{
  "_format": "hh-sol-artifact-1",
  "contractName": "RewardPool",
  "sourceName": "contracts/RewardPool.sol",
  "abi": [
    {
      "anonymous": false,
      "inputs": [
        {
          "indexed": false,
          "internalType": "address",
          "name": "previousAdmin",
          "type": "address"
        },
        {
          "indexed": false,
          "internalType": "address",
          "name": "newAdmin",
          "type": "address"
        }
      ],
      "name": "AdminChanged",
      "type": "event"
    },
    {
      "anonymous": false,
      "inputs": [
        {
          "indexed": true,
          "internalType": "address",
          "name": "beacon",
          "type": "address"
        }
      ],
      "name": "BeaconUpgraded",
      "type": "event"
    },
    {
      "anonymous": false,
      "inputs": [
        {
          "indexed": true,
          "internalType": "address",
          "name": "user",
          "type": "address"
        },
        {
          "indexed": true,
          "internalType": "uint256",
          "name": "pid",
          "type": "uint256"
        },
        {
          "indexed": false,
          "internalType": "uint256",
          "name": "amount",
          "type": "uint256"
        }
      ],
      "name": "Deposit",
      "type": "event"
    },
    {
      "anonymous": false,
      "inputs": [
        {
          "indexed": false,
          "internalType": "uint8",
          "name": "version",
          "type": "uint8"
        }
      ],
      "name": "Initialized",
      "type": "event"
    },
    {
      "anonymous": false,
      "inputs": [
        {
          "indexed": true,
          "internalType": "address",
          "name": "previousOwner",
          "type": "address"
        },
        {
          "indexed": true,
          "internalType": "address",
          "name": "newOwner",
          "type": "address"
        }
      ],
      "name": "OwnershipTransferred",
      "type": "event"
    },
    {
      "anonymous": false,
      "inputs": [
        {
          "indexed": true,
          "internalType": "address",
          "name": "implementation",
          "type": "address"
        }
      ],
      "name": "Upgraded",
      "type": "event"
    },
    {
      "anonymous": false,
      "inputs": [
        {
          "indexed": true,
          "internalType": "address",
          "name": "user",
          "type": "address"
        },
        {
          "indexed": true,
          "internalType": "uint256",
          "name": "pid",
          "type": "uint256"
        },
        {
          "indexed": false,
          "internalType": "uint256",
          "name": "amount",
          "type": "uint256"
        }
      ],
      "name": "Withdraw",
      "type": "event"
    },
    {
      "anonymous": false,
      "inputs": [
        {
          "indexed": false,
          "internalType": "address",
          "name": "oldAdminaddr",
          "type": "address"
        },
        {
          "indexed": false,
          "internalType": "address",
          "name": "newAdminaddr",
          "type": "address"
        }
      ],
      "name": "setAdmin",
      "type": "event"
    },
    {
      "anonymous": false,
      "inputs": [
        {
          "indexed": false,
          "internalType": "bool",
          "name": "withdrawStatus",
          "type": "bool"
        }
      ],
      "name": "setWithdrawStatus",
      "type": "event"
    },
    {
      "inputs": [
        {
          "internalType": "uint256",
          "name": "_allocPoint",
          "type": "uint256"
        },
        {
          "internalType": "string",
          "name": "_type",
          "type": "string"
        },
        {
          "internalType": "contract IERC20Upgradeable",
          "name": "_lptoken",
          "type": "address"
        },
        {
          "internalType": "bool",
          "name": "_withUpdate",
          "type": "bool"
        }
      ],
      "name": "add",
      "outputs": [],
      "stateMutability": "nonpayable",
      "type": "function"
    },
    {
      "inputs": [
        {
          "internalType": "uint256",
          "name": "_pid",
          "type": "uint256"
        }
      ],
      "name": "claim",
      "outputs": [],
      "stateMutability": "nonpayable",
      "type": "function"
    },
    {
      "inputs": [
        {
          "internalType": "uint256",
          "name": "_pid",
          "type": "uint256"
        },
        {
          "internalType": "address",
          "name": "_user",
          "type": "address"
        }
      ],
      "name": "deposit",
      "outputs": [],
      "stateMutability": "nonpayable",
      "type": "function"
    },
    {
      "inputs": [
        {
          "internalType": "contract IERC20Upgradeable",
          "name": "_token",
          "type": "address"
        },
        {
          "internalType": "address",
          "name": "_to",
          "type": "address"
        },
        {
          "internalType": "uint256",
          "name": "_amount",
          "type": "uint256"
        }
      ],
      "name": "emergencyWithdrawRewardTokens",
      "outputs": [],
      "stateMutability": "nonpayable",
      "type": "function"
    },
    {
      "inputs": [],
      "name": "initialize",
      "outputs": [],
      "stateMutability": "nonpayable",
      "type": "function"
    },
    {
      "inputs": [],
      "name": "massUpdatePools",
      "outputs": [],
      "stateMutability": "nonpayable",
      "type": "function"
    },
    {
      "inputs": [],
      "name": "owner",
      "outputs": [
        {
          "internalType": "address",
          "name": "",
          "type": "address"
        }
      ],
      "stateMutability": "view",
      "type": "function"
    },
    {
      "inputs": [
        {
          "internalType": "uint256",
          "name": "_pid",
          "type": "uint256"
        },
        {
          "internalType": "address",
          "name": "_user",
          "type": "address"
        }
      ],
      "name": "pendingERC20",
      "outputs": [
        {
          "internalType": "uint256",
          "name": "",
          "type": "uint256"
        }
      ],
      "stateMutability": "view",
      "type": "function"
    },
    {
      "inputs": [
        {
          "internalType": "uint256",
          "name": "",
          "type": "uint256"
        }
      ],
      "name": "poolInfo",
      "outputs": [
        {
          "internalType": "string",
          "name": "amtype",
          "type": "string"
        },
        {
          "internalType": "contract IERC20Upgradeable",
          "name": "lpToken",
          "type": "address"
        },
        {
          "internalType": "uint256",
          "name": "allocPoint",
          "type": "uint256"
        },
        {
          "internalType": "uint256",
          "name": "accLPPerShare",
          "type": "uint256"
        },
        {
          "internalType": "uint256",
          "name": "lastTotalLPReward",
          "type": "uint256"
        }
      ],
      "stateMutability": "view",
      "type": "function"
    },
    {
      "inputs": [],
      "name": "poolLength",
      "outputs": [
        {
          "internalType": "uint256",
          "name": "",
          "type": "uint256"
        }
      ],
      "stateMutability": "view",
      "type": "function"
    },
    {
      "inputs": [],
      "name": "proxiableUUID",
      "outputs": [
        {
          "internalType": "bytes32",
          "name": "",
          "type": "bytes32"
        }
      ],
      "stateMutability": "view",
      "type": "function"
    },
    {
      "inputs": [],
      "name": "renounceOwnership",
      "outputs": [],
      "stateMutability": "nonpayable",
      "type": "function"
    },
    {
      "inputs": [
        {
          "internalType": "uint256",
          "name": "_pid",
          "type": "uint256"
        },
        {
          "internalType": "uint256",
          "name": "_allocPoint",
          "type": "uint256"
        },
        {
          "internalType": "bool",
          "name": "_withUpdate",
          "type": "bool"
        }
      ],
      "name": "set",
      "outputs": [],
      "stateMutability": "nonpayable",
      "type": "function"
    },
    {
      "inputs": [],
      "name": "totalAllocPoint",
      "outputs": [
        {
          "internalType": "uint256",
          "name": "",
          "type": "uint256"
        }
      ],
      "stateMutability": "view",
      "type": "function"
    },
    {
      "inputs": [
        {
          "internalType": "uint256",
          "name": "",
          "type": "uint256"
        }
      ],
      "name": "totalLPStaked",
      "outputs": [
        {
          "internalType": "uint256",
          "name": "",
          "type": "uint256"
        }
      ],
      "stateMutability": "view",
      "type": "function"
    },
    {
      "inputs": [],
      "name": "totalReward",
      "outputs": [
        {
          "internalType": "uint256",
          "name": "",
          "type": "uint256"
        }
      ],
      "stateMutability": "view",
      "type": "function"
    },
    {
      "inputs": [
        {
          "internalType": "address",
          "name": "newOwner",
          "type": "address"
        }
      ],
      "name": "transferOwnership",
      "outputs": [],
      "stateMutability": "nonpayable",
      "type": "function"
    },
    {
      "inputs": [
        {
          "internalType": "uint256",
          "name": "_pid",
          "type": "uint256"
        }
      ],
      "name": "updatePool",
      "outputs": [],
      "stateMutability": "nonpayable",
      "type": "function"
    },
    {
      "inputs": [
        {
          "internalType": "bool",
          "name": "_status",
          "type": "bool"
        }
      ],
      "name": "updateWithdrawStatus",
      "outputs": [],
      "stateMutability": "nonpayable",
      "type": "function"
    },
    {
      "inputs": [
        {
          "internalType": "address",
          "name": "newImplementation",
          "type": "address"
        }
      ],
      "name": "upgradeTo",
      "outputs": [],
      "stateMutability": "nonpayable",
      "type": "function"
    },
    {
      "inputs": [
        {
          "internalType": "address",
          "name": "newImplementation",
          "type": "address"
        },
        {
          "internalType": "bytes",
          "name": "data",
          "type": "bytes"
        }
      ],
      "name": "upgradeToAndCall",
      "outputs": [],
      "stateMutability": "payable",
      "type": "function"
    },
    {
      "inputs": [
        {
          "internalType": "uint256",
          "name": "",
          "type": "uint256"
        },
        {
          "internalType": "address",
          "name": "",
          "type": "address"
        }
      ],
      "name": "userInfo",
      "outputs": [
        {
          "internalType": "uint256",
          "name": "amount",
          "type": "uint256"
        },
        {
          "internalType": "uint256",
          "name": "rewardLPDebt",
          "type": "uint256"
        }
      ],
      "stateMutability": "view",
      "type": "function"
    },
    {
      "inputs": [
        {
          "internalType": "uint256",
          "name": "_pid",
          "type": "uint256"
        },
        {
          "internalType": "address",
          "name": "_user",
          "type": "address"
        }
      ],
      "name": "withdraw",
      "outputs": [],
      "stateMutability": "nonpayable",
      "type": "function"
    },
    {
      "inputs": [],
      "name": "withdrawStatus",
      "outputs": [
        {
          "internalType": "bool",
          "name": "",
          "type": "bool"
        }
      ],
      "stateMutability": "view",
      "type": "function"
    }
  ],
  "bytecode": "0x60a06040523060805234801561001457600080fd5b5060805161223d61004c6000396000818161087d015281816108bd01528181610a7401528181610ab40152610c86015261223d6000f3fe60806040526004361061011a5760003560e01c8062f714ce1461011f578063081e3eda146101415780631526fe271461016557806317caf6f1146101965780632c4f3a95146101ac5780633659cfe6146101cc578063379607f5146101ec5780634f1ef2861461020c57806351eb05a61461021f57806352d1902d1461023f57806361ffe85814610254578063630b5ba11461027e57806364482f79146102935780636e553f65146102b3578063715018a6146102d3578063750142e6146102e85780637ee2ebc8146102fe5780638129fc1c1461031e5780638da5cb5b1461033357806391c3d1251461035557806393f1a40b146103825780639c244df9146103d6578063bd674692146103f6578063f2fde38b14610416575b600080fd5b34801561012b57600080fd5b5061013f61013a366004611b75565b610436565b005b34801561014d57600080fd5b5060c9545b6040519081526020015b60405180910390f35b34801561017157600080fd5b50610185610180366004611ba5565b61069d565b60405161015c959493929190611c0e565b3480156101a257600080fd5b5061015260ce5481565b3480156101b857600080fd5b5061013f6101c7366004611ce7565b610776565b3480156101d857600080fd5b5061013f6101e7366004611d66565b610873565b3480156101f857600080fd5b5061013f610207366004611ba5565b61093b565b61013f61021a366004611d83565b610a6a565b34801561022b57600080fd5b5061013f61023a366004611ba5565b610b23565b34801561024b57600080fd5b50610152610c79565b34801561026057600080fd5b5060cf5461026e9060ff1681565b604051901515815260200161015c565b34801561028a57600080fd5b5061013f610d27565b34801561029f57600080fd5b5061013f6102ae366004611de6565b610d4e565b3480156102bf57600080fd5b5061013f6102ce366004611b75565b610ddb565b3480156102df57600080fd5b5061013f610f9b565b3480156102f457600080fd5b5061015260cb5481565b34801561030a57600080fd5b50610152610319366004611b75565b610faf565b34801561032a57600080fd5b5061013f611146565b34801561033f57600080fd5b50610348611265565b60405161015c9190611e1f565b34801561036157600080fd5b50610152610370366004611ba5565b60ca6020526000908152604090205481565b34801561038e57600080fd5b506103c161039d366004611b75565b60cd6020908152600092835260408084209091529082529020805460019091015482565b6040805192835260208301919091520161015c565b3480156103e257600080fd5b5061013f6103f1366004611e33565b611274565b34801561040257600080fd5b5061013f610411366004611e74565b6112e0565b34801561042257600080fd5b5061013f610431366004611d66565b611387565b61043e6113fd565b60cf5460ff1615156001036104915760405162461bcd60e51b815260206004820152601460248201527315da5d1a191c985dc81b9bdd08185b1b1bddd95960621b60448201526064015b60405180910390fd5b6000670de0b6b3a76400009050600060c984815481106104b3576104b3611e91565b6000918252602080832087845260cd825260408085206001600160a01b0389168652909252922080546005909202909201925083111561052a5760405162461bcd60e51b81526020600482015260126024820152711dda5d1a191c985dce881b9bdd0819dbdbd960721b6044820152606401610488565b61053385610b23565b805415610608576000610574826001015461056e64e8d4a510006105688760030154876000015461145c90919063ffffffff16565b9061146f565b9061147b565b6001840154909150610590906001600160a01b03168683611487565b60018301546040516370a0823160e01b81526001600160a01b03909116906370a08231906105c2903090600401611e1f565b602060405180830381865afa1580156105df573d6000803e3d6000fd5b505050506040513d601f19601f820116820180604052508101906106039190611ea7565b60cc55505b600085815260ca6020526040902054610621908461147b565b600086815260ca602052604081209190915580825560038301546106509164e8d4a5100091610568919061145c565b600182015560405183815285906001600160a01b038616907ff279e6a1f5e320cca91135676d9cb6e44ca8a08c0b88342bcdb1144f6511b568906020015b60405180910390a35050505050565b60c981815481106106ad57600080fd5b90600052602060002090600502016000915090508060000180546106d090611ec0565b80601f01602080910402602001604051908101604052809291908181526020018280546106fc90611ec0565b80156107495780601f1061071e57610100808354040283529160200191610749565b820191906000526020600020905b81548152906001019060200180831161072c57829003601f168201915b5050505060018301546002840154600385015460049095015493946001600160a01b039092169390925085565b61077e6113fd565b801561078c5761078c610d27565b60ce5461079990856114d9565b60ce5560c98054600090815260ca60209081526040808320839055805160a0810182528781526001600160a01b0387169281019290925281018790526060810182905260cb546080820152825460018101845592909152805190916005027f66be4f155c5ef2ebd3772b228f2f00681e4ed5826cdb3b1943cc11ad15ad1d28019081906108269082611f48565b5060208201516001820180546001600160a01b0319166001600160a01b03909216919091179055604082015160028201556060820151600382015560809091015160049091015550505050565b6001600160a01b037f00000000000000000000000000000000000000000000000000000000000000001630036108bb5760405162461bcd60e51b815260040161048890612007565b7f00000000000000000000000000000000000000000000000000000000000000006001600160a01b03166108ed6114e5565b6001600160a01b0316146109135760405162461bcd60e51b815260040161048890612041565b61091c81611501565b6040805160008082526020820190925261093891839190611509565b50565b600060c9828154811061095057610950611e91565b6000918252602080832085845260cd8252604080852033865290925292206005909102909101915061098183610b23565b60006109af826001015461056e64e8d4a510006105688760030154876000015461145c90919063ffffffff16565b60018401549091506109cb906001600160a01b03163383611487565b60018301546040516370a0823160e01b81526001600160a01b03909116906370a08231906109fd903090600401611e1f565b602060405180830381865afa158015610a1a573d6000803e3d6000fd5b505050506040513d601f19601f82011682018060405250810190610a3e9190611ea7565b60cc5560038301548254610a5c9164e8d4a51000916105689161145c565b826001018190555050505050565b6001600160a01b037f0000000000000000000000000000000000000000000000000000000000000000163003610ab25760405162461bcd60e51b815260040161048890612007565b7f00000000000000000000000000000000000000000000000000000000000000006001600160a01b0316610ae46114e5565b6001600160a01b031614610b0a5760405162461bcd60e51b815260040161048890612041565b610b1382611501565b610b1f82826001611509565b5050565b600060c98281548110610b3857610b38611e91565b6000918252602082206001600590920201908101546040516370a0823160e01b81529193506001600160a01b0316906370a0823190610b7b903090600401611e1f565b602060405180830381865afa158015610b98573d6000803e3d6000fd5b505050506040513d601f19601f82011682018060405250810190610bbc9190611ea7565b90506000610be1610bd860cc548461147b90919063ffffffff16565b60cb54906114d9565b60cc83905560cb819055600085815260ca6020526040812054919250819003610c1557600084600401819055505050505050565b6000610c4260ce546105688760020154610c3c89600401548861147b90919063ffffffff16565b9061145c565b9050610c65610c5a836105688464e8d4a5100061145c565b6003870154906114d9565b600386015550506004909201919091555050565b6000306001600160a01b037f00000000000000000000000000000000000000000000000000000000000000001614610d145760405162461bcd60e51b815260206004820152603860248201527f555550535570677261646561626c653a206d757374206e6f742062652063616c6044820152771b1959081d1a1c9bdd59da0819195b1959d85d1958d85b1b60421b6064820152608401610488565b506000805160206121c183398151915290565b60c95460005b81811015610b1f57610d3e81610b23565b610d4781612091565b9050610d2d565b610d566113fd565b8015610d6457610d64610d27565b610da782610da160c98681548110610d7e57610d7e611e91565b90600052602060002090600502016002015460ce5461147b90919063ffffffff16565b906114d9565b60ce819055508160c98481548110610dc157610dc1611e91565b906000526020600020906005020160020181905550505050565b610de36113fd565b6000670de0b6b3a76400009050600060c98481548110610e0557610e05611e91565b6000918252602080832087845260cd825260408085206001600160a01b0389168652909252922060059091029091019150610e3f85610b23565b805415610f08576000610e74826001015461056e64e8d4a510006105688760030154876000015461145c90919063ffffffff16565b6001840154909150610e90906001600160a01b03168683611487565b60018301546040516370a0823160e01b81526001600160a01b03909116906370a0823190610ec2903090600401611e1f565b602060405180830381865afa158015610edf573d6000803e3d6000fd5b505050506040513d601f19601f82011682018060405250810190610f039190611ea7565b60cc55505b600085815260ca6020526040902054610f2190846114d9565b600086815260ca60205260409020558054610f3c90846114d9565b8082556003830154610f599164e8d4a5100091610568919061145c565b600182015560405183815285906001600160a01b038616907f90890809c654f11d6e72a28fa60149770a0d11ec6c92319d6ceb2bb0a4ea1a159060200161068e565b610fa36113fd565b610fad6000611674565b565b60008060c98481548110610fc557610fc5611e91565b6000918252602080832087845260cd825260408085206001600160a01b03808a16875290845281862060036005909602909301948501548a875260ca90945281862054600186015492516370a0823160e01b8152959750929593949293929116906370a082319061103a903090600401611e1f565b602060405180830381865afa158015611057573d6000803e3d6000fd5b505050506040513d601f19601f8201168201806040525081019061107b9190611ea7565b60cb5460cc54919250908211156110ae576110ab6110a460cc548461147b90919063ffffffff16565b82906114d9565b90505b8560040154811180156110c057508215155b1561110f5760006110ec60ce546105688960020154610c3c8b600401548761147b90919063ffffffff16565b905061110b611104856105688464e8d4a5100061145c565b86906114d9565b9450505b611137856001015461056e64e8d4a51000610568888a6000015461145c90919063ffffffff16565b96505050505050505b92915050565b600054610100900460ff16158080156111665750600054600160ff909116105b806111875750611175306116c6565b158015611187575060005460ff166001145b6111ea5760405162461bcd60e51b815260206004820152602e60248201527f496e697469616c697a61626c653a20636f6e747261637420697320616c72656160448201526d191e481a5b9a5d1a585b1a5e995960921b6064820152608401610488565b6000805460ff19166001179055801561120d576000805461ff0019166101001790555b6112156116d5565b61121d611704565b8015610938576000805461ff0019169055604051600181527f7f26b83ff96e1f2b6a682f133852f6798a09c465da95921460cefb38474024989060200160405180910390a150565b6033546001600160a01b031690565b61127c6113fd565b6001600160a01b0382166112c75760405162461bcd60e51b8152602060048201526012602482015271496e76616c696420746f206164647265737360701b6044820152606401610488565b6112db6001600160a01b0384168383611487565b505050565b6112e86113fd565b60cf5481151560ff9091161515036113385760405162461bcd60e51b8152602060048201526013602482015272416c72656164792073616d652073746174757360681b6044820152606401610488565b60cf5460405160ff909116151581527faabd69043913452081c95083767698092818aa855567bcd42acc80ebe691f83b9060200160405180910390a160cf805460ff1916911515919091179055565b61138f6113fd565b6001600160a01b0381166113f45760405162461bcd60e51b815260206004820152602660248201527f4f776e61626c653a206e6577206f776e657220697320746865207a65726f206160448201526564647265737360d01b6064820152608401610488565b61093881611674565b33611406611265565b6001600160a01b031614610fad5760405162461bcd60e51b815260206004820181905260248201527f4f776e61626c653a2063616c6c6572206973206e6f7420746865206f776e65726044820152606401610488565b600061146882846120aa565b9392505050565b600061146882846120c1565b600061146882846120e3565b604080516001600160a01b038416602482015260448082018490528251808303909101815260649091019091526020810180516001600160e01b031663a9059cbb60e01b1790526112db90849061172b565b600061146882846120f6565b6000805160206121c1833981519152546001600160a01b031690565b6109386113fd565b7f4910fdfa16fed3260ed0e7147f7cc6da11a60208b5b9406d12a635614ffd91435460ff161561153c576112db83611800565b826001600160a01b03166352d1902d6040518163ffffffff1660e01b8152600401602060405180830381865afa925050508015611596575060408051601f3d908101601f1916820190925261159391810190611ea7565b60015b6115f95760405162461bcd60e51b815260206004820152602e60248201527f45524331393637557067726164653a206e657720696d706c656d656e7461746960448201526d6f6e206973206e6f74205555505360901b6064820152608401610488565b6000805160206121c183398151915281146116685760405162461bcd60e51b815260206004820152602960248201527f45524331393637557067726164653a20756e737570706f727465642070726f786044820152681a58589b195555525160ba1b6064820152608401610488565b506112db83838361189a565b603380546001600160a01b038381166001600160a01b0319831681179093556040519116919082907f8be0079c531659141344cd1fd0a4f28419497f9722a3daafe3b4186f6b6457e090600090a35050565b6001600160a01b03163b151590565b600054610100900460ff166116fc5760405162461bcd60e51b815260040161048890612109565b610fad6118c5565b600054610100900460ff16610fad5760405162461bcd60e51b815260040161048890612109565b6000611780826040518060400160405280602081526020017f5361666545524332303a206c6f772d6c6576656c2063616c6c206661696c6564815250856001600160a01b03166118f59092919063ffffffff16565b90508051600014806117a15750808060200190518101906117a19190612154565b6112db5760405162461bcd60e51b815260206004820152602a60248201527f5361666545524332303a204552433230206f7065726174696f6e20646964206e6044820152691bdd081cdd58d8d9595960b21b6064820152608401610488565b611809816116c6565b61186b5760405162461bcd60e51b815260206004820152602d60248201527f455243313936373a206e657720696d706c656d656e746174696f6e206973206e60448201526c1bdd08184818dbdb9d1c9858dd609a1b6064820152608401610488565b6000805160206121c183398151915280546001600160a01b0319166001600160a01b0392909216919091179055565b6118a38361190c565b6000825111806118b05750805b156112db576118bf838361194c565b50505050565b600054610100900460ff166118ec5760405162461bcd60e51b815260040161048890612109565b610fad33611674565b60606119048484600085611971565b949350505050565b61191581611800565b6040516001600160a01b038216907fbc7cd75a20ee27fd9adebab32041f755214dbc6bffa90cc0225b39da2e5c2d3b90600090a250565b606061146883836040518060600160405280602781526020016121e160279139611a4c565b6060824710156119d25760405162461bcd60e51b815260206004820152602660248201527f416464726573733a20696e73756666696369656e742062616c616e636520666f6044820152651c8818d85b1b60d21b6064820152608401610488565b600080866001600160a01b031685876040516119ee9190612171565b60006040518083038185875af1925050503d8060008114611a2b576040519150601f19603f3d011682016040523d82523d6000602084013e611a30565b606091505b5091509150611a4187838387611ac4565b979650505050505050565b6060600080856001600160a01b031685604051611a699190612171565b600060405180830381855af49150503d8060008114611aa4576040519150601f19603f3d011682016040523d82523d6000602084013e611aa9565b606091505b5091509150611aba86838387611ac4565b9695505050505050565b60608315611b31578251600003611b2a57611ade856116c6565b611b2a5760405162461bcd60e51b815260206004820152601d60248201527f416464726573733a2063616c6c20746f206e6f6e2d636f6e74726163740000006044820152606401610488565b5081611904565b6119048383815115611b465781518083602001fd5b8060405162461bcd60e51b8152600401610488919061218d565b6001600160a01b038116811461093857600080fd5b60008060408385031215611b8857600080fd5b823591506020830135611b9a81611b60565b809150509250929050565b600060208284031215611bb757600080fd5b5035919050565b60005b83811015611bd9578181015183820152602001611bc1565b50506000910152565b60008151808452611bfa816020860160208601611bbe565b601f01601f19169290920160200192915050565b60a081526000611c2160a0830188611be2565b6001600160a01b039690961660208301525060408101939093526060830191909152608090910152919050565b634e487b7160e01b600052604160045260246000fd5b60006001600160401b0380841115611c7e57611c7e611c4e565b604051601f8501601f19908116603f01168101908282118183101715611ca657611ca6611c4e565b81604052809350858152868686011115611cbf57600080fd5b858560208301376000602087830101525050509392505050565b801515811461093857600080fd5b60008060008060808587031215611cfd57600080fd5b8435935060208501356001600160401b03811115611d1a57600080fd5b8501601f81018713611d2b57600080fd5b611d3a87823560208401611c64565b9350506040850135611d4b81611b60565b91506060850135611d5b81611cd9565b939692955090935050565b600060208284031215611d7857600080fd5b813561146881611b60565b60008060408385031215611d9657600080fd5b8235611da181611b60565b915060208301356001600160401b03811115611dbc57600080fd5b8301601f81018513611dcd57600080fd5b611ddc85823560208401611c64565b9150509250929050565b600080600060608486031215611dfb57600080fd5b83359250602084013591506040840135611e1481611cd9565b809150509250925092565b6001600160a01b0391909116815260200190565b600080600060608486031215611e4857600080fd5b8335611e5381611b60565b92506020840135611e6381611b60565b929592945050506040919091013590565b600060208284031215611e8657600080fd5b813561146881611cd9565b634e487b7160e01b600052603260045260246000fd5b600060208284031215611eb957600080fd5b5051919050565b600181811c90821680611ed457607f821691505b602082108103611ef457634e487b7160e01b600052602260045260246000fd5b50919050565b601f8211156112db57600081815260208120601f850160051c81016020861015611f215750805b601f850160051c820191505b81811015611f4057828155600101611f2d565b505050505050565b81516001600160401b03811115611f6157611f61611c4e565b611f7581611f6f8454611ec0565b84611efa565b602080601f831160018114611faa5760008415611f925750858301515b600019600386901b1c1916600185901b178555611f40565b600085815260208120601f198616915b82811015611fd957888601518255948401946001909101908401611fba565b5085821015611ff75787850151600019600388901b60f8161c191681555b5050505050600190811b01905550565b6020808252602c908201526000805160206121a183398151915260408201526b19195b1959d85d1958d85b1b60a21b606082015260800190565b6020808252602c908201526000805160206121a183398151915260408201526b6163746976652070726f787960a01b606082015260800190565b634e487b7160e01b600052601160045260246000fd5b6000600182016120a3576120a361207b565b5060010190565b80820281158282048414176111405761114061207b565b6000826120de57634e487b7160e01b600052601260045260246000fd5b500490565b818103818111156111405761114061207b565b808201808211156111405761114061207b565b6020808252602b908201527f496e697469616c697a61626c653a20636f6e7472616374206973206e6f74206960408201526a6e697469616c697a696e6760a81b606082015260800190565b60006020828403121561216657600080fd5b815161146881611cd9565b60008251612183818460208701611bbe565b9190910192915050565b6020815260006114686020830184611be256fe46756e6374696f6e206d7573742062652063616c6c6564207468726f75676820360894a13ba1a3210667c828492db98dca3e2076cc3735a920a3ca505d382bbc416464726573733a206c6f772d6c6576656c2064656c65676174652063616c6c206661696c6564a2646970667358221220ba417c665cc51c282b1cb051c1da80504b0f960b2a44cb0ee93a46192dfa62f864736f6c63430008110033",
  "linkReferences": {},
  "deployedLinkReferences": {}
}