{
  "_format": "hh-sol-artifact-1",
  "contractName": "MockToken",
  "sourceName": "contracts/MockToken.sol",
  "abi": [
    {
      "inputs": [],
      "stateMutability": "nonpayable",
      "type": "constructor"
    },
    {
      "anonymous": false,
      "inputs": [
        {
          "indexed": false,
          "internalType": "address",
          "name": "previousAdmin",
          "type": "address"
        },
        {
          "indexed": false,
          "internalType": "address",
          "name": "newAdmin",
          "type": "address"
        }
      ],
      "name": "AdminChanged",
      "type": "event"
    },
    {
      "anonymous": false,
      "inputs": [
        {
          "indexed": true,
          "internalType": "address",
          "name": "owner",
          "type": "address"
        },
        {
          "indexed": true,
          "internalType": "address",
          "name": "spender",
          "type": "address"
        },
        {
          "indexed": false,
          "internalType": "uint256",
          "name": "value",
          "type": "uint256"
        }
      ],
      "name": "Approval",
      "type": "event"
    },
    {
      "anonymous": false,
      "inputs": [
        {
          "indexed": true,
          "internalType": "address",
          "name": "beacon",
          "type": "address"
        }
      ],
      "name": "BeaconUpgraded",
      "type": "event"
    },
    {
      "anonymous": false,
      "inputs": [
        {
          "indexed": false,
          "internalType": "uint8",
          "name": "version",
          "type": "uint8"
        }
      ],
      "name": "Initialized",
      "type": "event"
    },
    {
      "anonymous": false,
      "inputs": [
        {
          "indexed": true,
          "internalType": "address",
          "name": "previousOwner",
          "type": "address"
        },
        {
          "indexed": true,
          "internalType": "address",
          "name": "newOwner",
          "type": "address"
        }
      ],
      "name": "OwnershipTransferred",
      "type": "event"
    },
    {
      "anonymous": false,
      "inputs": [
        {
          "indexed": true,
          "internalType": "address",
          "name": "from",
          "type": "address"
        },
        {
          "indexed": true,
          "internalType": "address",
          "name": "to",
          "type": "address"
        },
        {
          "indexed": false,
          "internalType": "uint256",
          "name": "value",
          "type": "uint256"
        }
      ],
      "name": "Transfer",
      "type": "event"
    },
    {
      "anonymous": false,
      "inputs": [
        {
          "indexed": true,
          "internalType": "address",
          "name": "implementation",
          "type": "address"
        }
      ],
      "name": "Upgraded",
      "type": "event"
    },
    {
      "inputs": [
        {
          "internalType": "address",
          "name": "owner",
          "type": "address"
        },
        {
          "internalType": "address",
          "name": "spender",
          "type": "address"
        }
      ],
      "name": "allowance",
      "outputs": [
        {
          "internalType": "uint256",
          "name": "",
          "type": "uint256"
        }
      ],
      "stateMutability": "view",
      "type": "function"
    },
    {
      "inputs": [
        {
          "internalType": "address",
          "name": "spender",
          "type": "address"
        },
        {
          "internalType": "uint256",
          "name": "amount",
          "type": "uint256"
        }
      ],
      "name": "approve",
      "outputs": [
        {
          "internalType": "bool",
          "name": "",
          "type": "bool"
        }
      ],
      "stateMutability": "nonpayable",
      "type": "function"
    },
    {
      "inputs": [
        {
          "internalType": "address",
          "name": "account",
          "type": "address"
        }
      ],
      "name": "balanceOf",
      "outputs": [
        {
          "internalType": "uint256",
          "name": "",
          "type": "uint256"
        }
      ],
      "stateMutability": "view",
      "type": "function"
    },
    {
      "inputs": [],
      "name": "decimals",
      "outputs": [
        {
          "internalType": "uint8",
          "name": "",
          "type": "uint8"
        }
      ],
      "stateMutability": "view",
      "type": "function"
    },
    {
      "inputs": [
        {
          "internalType": "address",
          "name": "spender",
          "type": "address"
        },
        {
          "internalType": "uint256",
          "name": "subtractedValue",
          "type": "uint256"
        }
      ],
      "name": "decreaseAllowance",
      "outputs": [
        {
          "internalType": "bool",
          "name": "",
          "type": "bool"
        }
      ],
      "stateMutability": "nonpayable",
      "type": "function"
    },
    {
      "inputs": [
        {
          "internalType": "address",
          "name": "spender",
          "type": "address"
        },
        {
          "internalType": "uint256",
          "name": "addedValue",
          "type": "uint256"
        }
      ],
      "name": "increaseAllowance",
      "outputs": [
        {
          "internalType": "bool",
          "name": "",
          "type": "bool"
        }
      ],
      "stateMutability": "nonpayable",
      "type": "function"
    },
    {
      "inputs": [],
      "name": "initialize",
      "outputs": [],
      "stateMutability": "nonpayable",
      "type": "function"
    },
    {
      "inputs": [
        {
          "internalType": "address",
          "name": "to",
          "type": "address"
        },
        {
          "internalType": "uint256",
          "name": "amount",
          "type": "uint256"
        }
      ],
      "name": "mint",
      "outputs": [],
      "stateMutability": "nonpayable",
      "type": "function"
    },
    {
      "inputs": [],
      "name": "name",
      "outputs": [
        {
          "internalType": "string",
          "name": "",
          "type": "string"
        }
      ],
      "stateMutability": "view",
      "type": "function"
    },
    {
      "inputs": [],
      "name": "owner",
      "outputs": [
        {
          "internalType": "address",
          "name": "",
          "type": "address"
        }
      ],
      "stateMutability": "view",
      "type": "function"
    },
    {
      "inputs": [],
      "name": "proxiableUUID",
      "outputs": [
        {
          "internalType": "bytes32",
          "name": "",
          "type": "bytes32"
        }
      ],
      "stateMutability": "view",
      "type": "function"
    },
    {
      "inputs": [],
      "name": "renounceOwnership",
      "outputs": [],
      "stateMutability": "nonpayable",
      "type": "function"
    },
    {
      "inputs": [],
      "name": "symbol",
      "outputs": [
        {
          "internalType": "string",
          "name": "",
          "type": "string"
        }
      ],
      "stateMutability": "view",
      "type": "function"
    },
    {
      "inputs": [],
      "name": "totalSupply",
      "outputs": [
        {
          "internalType": "uint256",
          "name": "",
          "type": "uint256"
        }
      ],
      "stateMutability": "view",
      "type": "function"
    },
    {
      "inputs": [
        {
          "internalType": "address",
          "name": "to",
          "type": "address"
        },
        {
          "internalType": "uint256",
          "name": "amount",
          "type": "uint256"
        }
      ],
      "name": "transfer",
      "outputs": [
        {
          "internalType": "bool",
          "name": "",
          "type": "bool"
        }
      ],
      "stateMutability": "nonpayable",
      "type": "function"
    },
    {
      "inputs": [
        {
          "internalType": "address",
          "name": "from",
          "type": "address"
        },
        {
          "internalType": "address",
          "name": "to",
          "type": "address"
        },
        {
          "internalType": "uint256",
          "name": "amount",
          "type": "uint256"
        }
      ],
      "name": "transferFrom",
      "outputs": [
        {
          "internalType": "bool",
          "name": "",
          "type": "bool"
        }
      ],
      "stateMutability": "nonpayable",
      "type": "function"
    },
    {
      "inputs": [
        {
          "internalType": "address",
          "name": "newOwner",
          "type": "address"
        }
      ],
      "name": "transferOwnership",
      "outputs": [],
      "stateMutability": "nonpayable",
      "type": "function"
    },
    {
      "inputs": [
        {
          "internalType": "address",
          "name": "newImplementation",
          "type": "address"
        }
      ],
      "name": "upgradeTo",
      "outputs": [],
      "stateMutability": "nonpayable",
      "type": "function"
    },
    {
      "inputs": [
        {
          "internalType": "address",
          "name": "newImplementation",
          "type": "address"
        },
        {
          "internalType": "bytes",
          "name": "data",
          "type": "bytes"
        }
      ],
      "name": "upgradeToAndCall",
      "outputs": [],
      "stateMutability": "payable",
      "type": "function"
    }
  ],
  "bytecode": "0x60a06040523060805234801561001457600080fd5b5061001d610022565b6100e1565b600054610100900460ff161561008e5760405162461bcd60e51b815260206004820152602760248201527f496e697469616c697a61626c653a20636f6e747261637420697320696e697469604482015266616c697a696e6760c81b606482015260840160405180910390fd5b60005460ff908116146100df576000805460ff191660ff9081179091556040519081527f7f26b83ff96e1f2b6a682f133852f6798a09c465da95921460cefb38474024989060200160405180910390a15b565b6080516117d8610118600039600081816104250152818161046e0152818161052e0152818161056e01526105e601526117d86000f3fe6080604052600436106100e45760003560e01c806306fdde03146100e9578063095ea7b31461011457806318160ddd1461014457806323b872dd14610163578063313ce567146101835780633659cfe61461019f57806339509351146101c157806340c10f19146101e15780634f1ef2861461020157806352d1902d1461021457806370a0823114610229578063715018a61461025f5780638129fc1c146102745780638da5cb5b1461028957806395d89b41146102b6578063a457c2d7146102cb578063a9059cbb146102eb578063dd62ed3e1461030b578063f2fde38b1461032b575b600080fd5b3480156100f557600080fd5b506100fe61034b565b60405161010b91906112e5565b60405180910390f35b34801561012057600080fd5b5061013461012f366004611334565b6103dd565b604051901515815260200161010b565b34801561015057600080fd5b506035545b60405190815260200161010b565b34801561016f57600080fd5b5061013461017e36600461135e565b6103f7565b34801561018f57600080fd5b506040516012815260200161010b565b3480156101ab57600080fd5b506101bf6101ba36600461139a565b61041b565b005b3480156101cd57600080fd5b506101346101dc366004611334565b6104ec565b3480156101ed57600080fd5b506101bf6101fc366004611334565b61050e565b6101bf61020f3660046113cb565b610524565b34801561022057600080fd5b506101556105d9565b34801561023557600080fd5b5061015561024436600461139a565b6001600160a01b031660009081526033602052604090205490565b34801561026b57600080fd5b506101bf610687565b34801561028057600080fd5b506101bf61069b565b34801561029557600080fd5b5061029e6107fc565b6040516001600160a01b03909116815260200161010b565b3480156102c257600080fd5b506100fe61080b565b3480156102d757600080fd5b506101346102e6366004611334565b61081a565b3480156102f757600080fd5b50610134610306366004611334565b610895565b34801561031757600080fd5b5061015561032636600461148c565b6108a3565b34801561033757600080fd5b506101bf61034636600461139a565b6108ce565b60606036805461035a906114bf565b80601f0160208091040260200160405190810160405280929190818152602001828054610386906114bf565b80156103d35780601f106103a8576101008083540402835291602001916103d3565b820191906000526020600020905b8154815290600101906020018083116103b657829003601f168201915b5050505050905090565b6000336103eb818585610944565b60019150505b92915050565b600033610405858285610a68565b610410858585610ae2565b506001949350505050565b6001600160a01b037f000000000000000000000000000000000000000000000000000000000000000016300361046c5760405162461bcd60e51b8152600401610463906114f9565b60405180910390fd5b7f00000000000000000000000000000000000000000000000000000000000000006001600160a01b031661049e610c7b565b6001600160a01b0316146104c45760405162461bcd60e51b815260040161046390611533565b6104cd81610c97565b604080516000808252602082019092526104e991839190610c9f565b50565b6000336103eb8185856104ff83836108a3565b610509919061156d565b610944565b610516610e0f565b6105208282610e6e565b5050565b6001600160a01b037f000000000000000000000000000000000000000000000000000000000000000016300361056c5760405162461bcd60e51b8152600401610463906114f9565b7f00000000000000000000000000000000000000000000000000000000000000006001600160a01b031661059e610c7b565b6001600160a01b0316146105c45760405162461bcd60e51b815260040161046390611533565b6105cd82610c97565b61052082826001610c9f565b6000306001600160a01b037f000000000000000000000000000000000000000000000000000000000000000016146106745760405162461bcd60e51b815260206004820152603860248201527f555550535570677261646561626c653a206d757374206e6f742062652063616c6044820152771b1959081d1a1c9bdd59da0819195b1959d85d1958d85b1b60421b6064820152608401610463565b5060008051602061173c83398151915290565b61068f610e0f565b6106996000610f1d565b565b600054610100900460ff16158080156106bb5750600054600160ff909116105b806106dc57506106ca30610f6f565b1580156106dc575060005460ff166001145b61073f5760405162461bcd60e51b815260206004820152602e60248201527f496e697469616c697a61626c653a20636f6e747261637420697320616c72656160448201526d191e481a5b9a5d1a585b1a5e995960921b6064820152608401610463565b6000805460ff191660011790558015610762576000805461ff0019166101001790555b6107a4604051806040016040528060048152602001631554d11560e21b815250604051806040016040528060048152602001631554d11560e21b815250610f7e565b6107ac610faf565b6107b4610fde565b80156104e9576000805461ff0019169055604051600181527f7f26b83ff96e1f2b6a682f133852f6798a09c465da95921460cefb38474024989060200160405180910390a150565b6065546001600160a01b031690565b60606037805461035a906114bf565b6000338161082882866108a3565b9050838110156108885760405162461bcd60e51b815260206004820152602560248201527f45524332303a2064656372656173656420616c6c6f77616e63652062656c6f77604482015264207a65726f60d81b6064820152608401610463565b6104108286868403610944565b6000336103eb818585610ae2565b6001600160a01b03918216600090815260346020908152604080832093909416825291909152205490565b6108d6610e0f565b6001600160a01b03811661093b5760405162461bcd60e51b815260206004820152602660248201527f4f776e61626c653a206e6577206f776e657220697320746865207a65726f206160448201526564647265737360d01b6064820152608401610463565b6104e981610f1d565b6001600160a01b0383166109a65760405162461bcd60e51b8152602060048201526024808201527f45524332303a20617070726f76652066726f6d20746865207a65726f206164646044820152637265737360e01b6064820152608401610463565b6001600160a01b038216610a075760405162461bcd60e51b815260206004820152602260248201527f45524332303a20617070726f766520746f20746865207a65726f206164647265604482015261737360f01b6064820152608401610463565b6001600160a01b0383811660008181526034602090815260408083209487168084529482529182902085905590518481527f8c5be1e5ebec7d5bd14f71427d1e84f3dd0314c0f7b2291e5b200ac8c7c3b925910160405180910390a3505050565b6000610a7484846108a3565b90506000198114610adc5781811015610acf5760405162461bcd60e51b815260206004820152601d60248201527f45524332303a20696e73756666696369656e7420616c6c6f77616e63650000006044820152606401610463565b610adc8484848403610944565b50505050565b6001600160a01b038316610b465760405162461bcd60e51b815260206004820152602560248201527f45524332303a207472616e736665722066726f6d20746865207a65726f206164604482015264647265737360d81b6064820152608401610463565b6001600160a01b038216610ba85760405162461bcd60e51b815260206004820152602360248201527f45524332303a207472616e7366657220746f20746865207a65726f206164647260448201526265737360e81b6064820152608401610463565b6001600160a01b03831660009081526033602052604090205481811015610c205760405162461bcd60e51b815260206004820152602660248201527f45524332303a207472616e7366657220616d6f756e7420657863656564732062604482015265616c616e636560d01b6064820152608401610463565b6001600160a01b03808516600081815260336020526040808220868603905592861680825290839020805486019055915160008051602061178383398151915290610c6e9086815260200190565b60405180910390a3610adc565b60008051602061173c833981519152546001600160a01b031690565b6104e9610e0f565b7f4910fdfa16fed3260ed0e7147f7cc6da11a60208b5b9406d12a635614ffd91435460ff1615610cd757610cd283611005565b505050565b826001600160a01b03166352d1902d6040518163ffffffff1660e01b8152600401602060405180830381865afa925050508015610d31575060408051601f3d908101601f19168201909252610d2e9181019061158e565b60015b610d945760405162461bcd60e51b815260206004820152602e60248201527f45524331393637557067726164653a206e657720696d706c656d656e7461746960448201526d6f6e206973206e6f74205555505360901b6064820152608401610463565b60008051602061173c8339815191528114610e035760405162461bcd60e51b815260206004820152602960248201527f45524331393637557067726164653a20756e737570706f727465642070726f786044820152681a58589b195555525160ba1b6064820152608401610463565b50610cd283838361109f565b33610e186107fc565b6001600160a01b0316146106995760405162461bcd60e51b815260206004820181905260248201527f4f776e61626c653a2063616c6c6572206973206e6f7420746865206f776e65726044820152606401610463565b6001600160a01b038216610ec45760405162461bcd60e51b815260206004820152601f60248201527f45524332303a206d696e7420746f20746865207a65726f2061646472657373006044820152606401610463565b8060356000828254610ed6919061156d565b90915550506001600160a01b038216600081815260336020908152604080832080548601905551848152600080516020611783833981519152910160405180910390a35050565b606580546001600160a01b038381166001600160a01b0319831681179093556040519116919082907f8be0079c531659141344cd1fd0a4f28419497f9722a3daafe3b4186f6b6457e090600090a35050565b6001600160a01b03163b151590565b600054610100900460ff16610fa55760405162461bcd60e51b8152600401610463906115a7565b61052082826110c4565b600054610100900460ff16610fd65760405162461bcd60e51b8152600401610463906115a7565b610699611104565b600054610100900460ff166106995760405162461bcd60e51b8152600401610463906115a7565b61100e81610f6f565b6110705760405162461bcd60e51b815260206004820152602d60248201527f455243313936373a206e657720696d706c656d656e746174696f6e206973206e60448201526c1bdd08184818dbdb9d1c9858dd609a1b6064820152608401610463565b60008051602061173c83398151915280546001600160a01b0319166001600160a01b0392909216919091179055565b6110a883611134565b6000825111806110b55750805b15610cd257610adc8383611174565b600054610100900460ff166110eb5760405162461bcd60e51b8152600401610463906115a7565b60366110f78382611640565b506037610cd28282611640565b600054610100900460ff1661112b5760405162461bcd60e51b8152600401610463906115a7565b61069933610f1d565b61113d81611005565b6040516001600160a01b038216907fbc7cd75a20ee27fd9adebab32041f755214dbc6bffa90cc0225b39da2e5c2d3b90600090a250565b6060611199838360405180606001604052806027815260200161175c602791396111a0565b9392505050565b6060600080856001600160a01b0316856040516111bd91906116ff565b600060405180830381855af49150503d80600081146111f8576040519150601f19603f3d011682016040523d82523d6000602084013e6111fd565b606091505b509150915061120e86838387611218565b9695505050505050565b6060831561128557825160000361127e5761123285610f6f565b61127e5760405162461bcd60e51b815260206004820152601d60248201527f416464726573733a2063616c6c20746f206e6f6e2d636f6e74726163740000006044820152606401610463565b508161128f565b61128f8383611297565b949350505050565b8151156112a75781518083602001fd5b8060405162461bcd60e51b815260040161046391906112e5565b60005b838110156112dc5781810151838201526020016112c4565b50506000910152565b60208152600082518060208401526113048160408501602087016112c1565b601f01601f19169190910160400192915050565b80356001600160a01b038116811461132f57600080fd5b919050565b6000806040838503121561134757600080fd5b61135083611318565b946020939093013593505050565b60008060006060848603121561137357600080fd5b61137c84611318565b925061138a60208501611318565b9150604084013590509250925092565b6000602082840312156113ac57600080fd5b61119982611318565b634e487b7160e01b600052604160045260246000fd5b600080604083850312156113de57600080fd5b6113e783611318565b915060208301356001600160401b038082111561140357600080fd5b818501915085601f83011261141757600080fd5b813581811115611429576114296113b5565b604051601f8201601f19908116603f01168101908382118183101715611451576114516113b5565b8160405282815288602084870101111561146a57600080fd5b8260208601602083013760006020848301015280955050505050509250929050565b6000806040838503121561149f57600080fd5b6114a883611318565b91506114b660208401611318565b90509250929050565b600181811c908216806114d357607f821691505b6020821081036114f357634e487b7160e01b600052602260045260246000fd5b50919050565b6020808252602c9082015260008051602061171c83398151915260408201526b19195b1959d85d1958d85b1b60a21b606082015260800190565b6020808252602c9082015260008051602061171c83398151915260408201526b6163746976652070726f787960a01b606082015260800190565b808201808211156103f157634e487b7160e01b600052601160045260246000fd5b6000602082840312156115a057600080fd5b5051919050565b6020808252602b908201527f496e697469616c697a61626c653a20636f6e7472616374206973206e6f74206960408201526a6e697469616c697a696e6760a81b606082015260800190565b601f821115610cd257600081815260208120601f850160051c810160208610156116195750805b601f850160051c820191505b8181101561163857828155600101611625565b505050505050565b81516001600160401b03811115611659576116596113b5565b61166d8161166784546114bf565b846115f2565b602080601f8311600181146116a2576000841561168a5750858301515b600019600386901b1c1916600185901b178555611638565b600085815260208120601f198616915b828110156116d1578886015182559484019460019091019084016116b2565b50858210156116ef5787850151600019600388901b60f8161c191681555b5050505050600190811b01905550565b600082516117118184602087016112c1565b919091019291505056fe46756e6374696f6e206d7573742062652063616c6c6564207468726f75676820360894a13ba1a3210667c828492db98dca3e2076cc3735a920a3ca505d382bbc416464726573733a206c6f772d6c6576656c2064656c65676174652063616c6c206661696c6564ddf252ad1be2c89b69c2b068fc378daa952ba7f163c4a11628f55a4df523b3efa2646970667358221220d68e25951ff54011344c7b6a1c9099170b9c9e8f23297374584f1485feaee9fd64736f6c63430008110033",
  "linkReferences": {},
  "deployedLinkReferences": {}
}